:020000040800F2
:1000000028060020010100084B1A000847160008C6
:10001000491A0008C3010008091E0008000000007A
:100020000000000000000000000000004F1A00085F
:10003000C5010008000000004D1A0008511A000810
:100040001B0100081B0100081B0100081B01000820
:100050001B0100081B0100081B0100081B01000810
:100060001B0100081B0100081B0100081B01000800
:100070001B0100081B0100081B0100081B010008F0
:100080001B0100081B0100081B0100081B010008E0
:100090001B0100081B0100081B0100081B010008D0
:1000A0001B0100081B0100081B0100081B010008C0
:1000B0001B0100081B0100081B0100081B010008B0
:1000C0001B0100081B0100081B0100081B010008A0
:1000D0001B0100081B0100081B0100081B01000890
:1000E0001B0100081B0100081B010008DFF80CD0F1
:1000F00000F02AF800480047951E00082806002056
:100100000648804706480047FEE7FEE7FEE7FEE7B1
:10011000FEE7FEE7FEE7FEE7FEE7FEE7CD1A000892
:10012000ED000008D2B201E000F8012B491EFBD21D
:1001300070470022F6E710B513460A4604461946F2
:10014000FFF7F0FF204610BD064C074D06E0E068C3
:1001500040F0010394E8070098471034AC42F6D30E
:10016000FFF7C8FF2C1F00084C1F000870B504469D
:1001700000688168C943C90717D1816821F001016E
:10018000816000F02FFB05460AE000BF00F02AFB6B
:10019000401B022804D920688068C043C00706D0ED
:1001A00020688068C043C007F0D0002070BDA06AFE
:1001B00040F01000A062E06A40F00100E06201201F
:1001C00070BDFEE7704772B6FEE70000F8B5002488
:1001D000009490F824202546012A12D0012280F8AC
:1001E00024204A681F23072A0DD20668776B521E07
:1001F00002EB820293409F430B6893401F43776357
:1002000019E00220F8BD06680D2A0AD2376BD21F0A
:1002100002EB820293409F430B6893401F43376376
:1002200009E0F76A0D3A02EB820293409F430B68A4
:1002300093401F43F7620A68072306680A2A0AD315
:10024000F7680A3A02EB420293409F438B6893405F
:100250001F43F76008E0376902EB420293409F4377
:100260008B6893401F4337610A68102A01D0112A16
:1002700020D1124B02689A4217D193681B0219D4FD
:10028000936843F4000393600968102912D10C4964
:100290000C4A0968B1FBF2F101EB8101490000E071
:1002A000491E00910029FBD104E0816A41F0200140
:1002B0008162012480F824502046F8BD00240140CA
:1002C0000C00002040420F002DE9F0414FF00007E4
:1002D00004003D467ED0A06A002628B9E66284F874
:1002E0002460204600F07EF82046FFF73FFFA16A19
:1002F00001F01001014304D0A06A40F01000A06298
:1003000068E0A16A21F4885141F00201A1626268AB
:10031000E169237B0A4347EA43010A43A1684FF49A
:100320008077B94208D0012906D0002194F814C082
:10033000BCF1010F02D00AE03946F7E7F3B1A36A36
:1003400043F02003A362E36A43F00103E3622368FE
:10035000D3F804C02CF4694C4CEA010CC3F804C077
:1003600023689968DFF870C001EA0C0111439960B5
:10037000A168B9420BD0012909D00CE0DFF85CC0BC
:10038000A3690CEB43330B4343F40061DFE7218A9D
:100390000D05A5F580152168CB6A23F470032B4366
:1003A000CB62216889680E4B1940914208D1E66200
:1003B000A16A21F0020141F00101A162BDE8F081D2
:1003C000A06A20F0020040F01000A062E06A40F055
:1003D0000100E0620120F1E7FDF7E1FF00E0FFFF2F
:1003E000FE0E1FFF00B585B0002100910191029122
:1003F000039100680E49884217D10E48816941F483
:1004000000718161816901F400710491816941F099
:10041000040181618069694600F0040004900320B2
:1004200000900190044800F0DFF805B000BD000026
:1004300000240140001002400008014070B5040093
:1004400003D094F8200010B104E0012070BD2046D4
:1004500000F082F82068016841F00101016000F0BD
:10046000C1F90546052604E000F0BCF9401B0A2846
:1004700011D820684068C007F6D02068016821F0D4
:100480000201016000F0AEF905460BE000F0AAF9A8
:10049000401B0A2806D9606A40F40030606284F884
:1004A0002060D2E7206840688007EFD4207E0128D2
:1004B000206801683DD021F080010160607E012844
:1004C0002068016838D021F040010160A07E012839
:1004D0002068016833D021F020010160E07E01280E
:1004E000206801682ED041F010010160207F0128B2
:1004F0002068016829D021F008010160607F01288F
:100500002068016824D021F004010160D4E90201CF
:100510000843D4E90412114308436168491E0843A3
:100520002168C86100206062012084F8200000205A
:1005300070BD41F08001C0E741F04001C5E741F0E6
:100540002001CAE721F01001CFE741F00801D4E70C
:1005500041F00401D9E7000010B586B000210091F8
:1005600001910291039100681349884222D11348F6
:10057000C16941F00071C161C16901F0007104916C
:10058000816941F00401816180690D4C00F0040033
:1005900004904FF4006000906946204600F024F873
:1005A000A014009002200190032003906946204689
:1005B00000F01AF806B010BD0064004000100240C0
:1005C0000008014070B5044600F00CF90546601CB7
:1005D00002D004480078044400F004F9401BA04213
:1005E000FAD370BD000000202DE9F84FDFF8B89174
:1005F000002409F1040A0AF1040B23460F270BF12A
:10060000040EC9E00125A5402A40AA427DD1674ECB
:10061000D1F804C0ACEB0608B44532D014DCBCF110
:10062000030F3AD009DCBCF1000F2AD0BCF1010F56
:100630001CD0BCF1020F31D11DE0BCF1110F17D05D
:10064000BCF1120F2AD119E0B8F5881F19D006DCC9
:10065000B8F5803F15D0B8F5801F1FD111E0B8F56F
:10066000001F0ED0B8F5041F18D10AE0CB6815E0C2
:10067000CB681B1D12E0CB6808330FE0CB680C334E
:100680000CE08B682BB1012B4FF0080303D04561C0
:1006900004E0042302E0056100E00023FF2A01D802
:1006A000064601E000F104064FEA840501D9A5F1F0
:1006B0002005D6F8008007FA05FC28EA0C0803FAA2
:1006C00005F548EA0508C6F800804D68ED0062D5DA
:1006D000374DAE6946F00106AE61AD6924F0030600
:1006E00005F001050095334D06EB050CDCF80850CC
:1006F000A607360F07FA06F825EA0805DFF8B880DE
:10070000404503D14FF0000817E044E0DFF8AC802B
:10071000404502D14FF001080FE0DFF8A4804045CA
:1007200002D14FF0020808E0DFF89880404502D17E
:100730004FF0030801E04FF0040808FA06F848EA11
:100740000508CCF808804D68D9F80060ED034D46E7
:1007500001D5164300E096432E604D68DAF800603C
:10076000AD03554601D5164300E096432E604D6813
:10077000DBF80060ED025D4601D5164300E09643CC
:100780002E604D68DEF80060AD02754601D5164357
:1007900000E096432E60641C0D682A46E5407FF415
:1007A00031AFBDE8F88F00000004014000001110D7
:1007B000001002400000014000080140000C014010
:1007C0000010014000140140C26821EA02030A40FF
:1007D00043EA0241016170470AB1016170470904AF
:1007E000FBE700000148806870470000000000201F
:1007F00070B5040025D094F83D00002520B984F898
:100800003C50204600F0B8F8242084F83D002068D1
:10081000016821F0010101602068016841F4004194
:1008200001602068016821F40041016000F068FA6D
:100830004D4A6168914201D84C4900E04C498842D8
:1008400001D2012070BD4B492368B0FBF1F15E6815
:1008500026F03F060E435E606368934206D94FF46C
:10086000967359434FF47A73B1FBF3F12368491C33
:100870001E6A26F03F06314319626168914210D822
:100880004900401EB0FBF1F2521CC2F30B02042AD5
:1008900001D2042022E0B0FBF1F0401CC0F30B00B9
:1008A0001CE0A268F2B301EBC10303EB0116431E87
:1008B000B3FBF6F35B1C43F480431B0549D092B3B2
:1008C00001EBC10202EB0111401EB0FBF1F0401C34
:1008D000C0F30B0040F4804040F400402168CA6936
:1008E0004CF6FF739A431043C861D4E907100143E3
:1008F0002068026822F0C00211430160D4E90301BC
:1009000001432068826848F2FF339A4311438160B3
:10091000D4E9050108432168CA6822F0FF021043A8
:10092000C86001E00EE016E02068016841F00101B6
:1009300001602564202084F83D00256384F83E5042
:10094000002070BD01EB4106431EB3FBF6F35B1CB8
:10095000B3E70120C2E701EB4101401EB0FBF1F01B
:10096000401CC0F30B00B7E7A086010080841E0086
:1009700000093D0040420F0010B586B000210091F3
:1009800001910291039100680F4988421AD10F4CDE
:10099000A06940F00800A061A069694600F0080065
:1009A0000490C0200090122001900320039008487A
:1009B000FFF71AFEE06940F40010E061E06900F41E
:1009C0000010049006B010BD00540040001002401A
:1009D000000C014002488168027811448160704730
:1009E00000000020074810B5016841F010010160C7
:1009F000032000F067F80F2000F006F800F024F85C
:100A0000002010BD0020024070B50D4D04464FF48B
:100A10007A712878B1FBF0F00A490968B1FBF0F06F
:100A200000F054FB48B9102C07D200222146501E7A
:100A300000F028F800206C6070BD012070BD00003F
:100A4000000000200C0000200C4808B5816941F02E
:100A500001018161816901F001010091C16941F0E9
:100A60008051C161C06900F0805000900448416825
:100A700021F0E06141F00071416008BD00100240CA
:100A800000000140F0B40E4B1B680C46C3F3022378
:100A9000C3F10705042D00D90425191D072901D22A
:100AA000002300E0DB1E012606FA05F1491E214065
:100AB00099409E40761E16403143F0BC01F0AEB91D
:100AC0000CED00E0064900F0070208684FF6FF034E
:100AD000184040EA0220034A1043086070470000B3
:100AE0000CED00E00000FA052DE9F843054600781A
:100AF000354CC00754D0E0690026C00008D4E06936
:100B000040F08050E061E069012600F080500090E4
:100B10002E480168C90512D40168804641F48071ED
:100B20000160FFF75FFE074605E000BFFFF75AFED2
:100B3000C01B642823D8D8F80000C005F6D5206A69
:100B400010F4407021D0A98801F4407181421CD07A
:100B5000206A1F49012220F440700A6000220A60C6
:100B60002062C00711D0FFF73DFE074641F28838EA
:100B700008E000BFFFF736FEC11B414502D9032044
:100B8000BDE8F883206A8007F4D5206A696820F4FC
:100B90004070084320621EB1E06920F08050E0619F
:100BA0002878800705D56068A96820F4404008438C
:100BB00060602878C00605D56068E96820F4800088
:100BC000084360600020DBE7001002400070004036
:100BD000400442422DE9F0470F46050061D0434EE4
:100BE000306800F00700B84209D2306820F00700F2
:100BF00038433060306800F00700B84251D12868AF
:100C00003B4C810712D5400703D5606840F4E06093
:100C100060602878000703D5606840F46050606029
:100C20006068A96820F0F000084360602878C00779
:100C300028D06868012810D02168022810D08907C0
:100C400000292EDA616821F0030101436160FFF79A
:100C5000C9FD804641F288390DE021688903EFE73C
:100C60008901EDE7FFF7BEFDA0EB0801494502D978
:100C70000320BDE8F0876068696800F00C00B0EB05
:100C8000810FEFD1306800F00700B8420BD930680F
:100C900020F0070038433060306800F00700B842A9
:100CA00001D00120E5E72878400705D56068E968AC
:100CB00020F4E060084360602878000706D560688B
:100CC000296920F4605040EAC100606000F038F803
:100CD0006168084AC1F30311515CC84006490860C5
:100CE00006480068FFF790FE0020C2E7002002409F
:100CF00000100240141F00080C0000200400002017
:100D00000448054900684968044AC1F30221515C5E
:100D1000C84070470C00002000100240241F00084B
:100D20000448054900684968044AC1F3C221515C7E
:100D3000C84070470C00002000100240241F00082B
:100D400012A185B00FC98DE80F0014A0144A0068E5
:100D500004905168134801F00C03042B10D0082BA9
:100D60000ED1C1F38343C9031DF803000AD55168AE
:100D700004AAC1F34041515C0A4A5043B0FBF1F070
:100D800005B0704708494843FAE70000020304052C
:100D9000060708090A0B0C0D0E0F101001020000C7
:100DA0000010024000127A0000093D002DE9F84FC2
:100DB000040070D02078C04DC00749D06868C0F3E7
:100DC0008100012807D06868C0F38100022809D19A
:100DD0006868C00306D52868800339D56068002894
:100DE000E7D035E06068B0F5803F0BD010B1B0F5CA
:100DF000A02F11D0286820F480302860286820F4C3
:100E0000802002E0286840F480302860606890B15B
:100E1000FFF7E8FC06460AE0286840F480202860D6
:100E2000F0E700BFFFF7DEFC801B642873D828685A
:100E30008003F7D50CE0FFF7D5FC064605E000BFC0
:100E4000FFF7D0FC801B6428F0D828688003F7D413
:100E500020789A4E80074FF001094FF0000839D5ED
:100E6000686810F00C0F07D06868C0F38100022892
:100E700009D16868C00306D42868800714D52069A2
:100E8000012808D110E02069B0B1C6F80090FFF742
:100E9000A9FC074605E00AE1FFF7A4FCC01B0228F5
:100EA000C4D828688007F7D52868616920F0F80061
:100EB00040EAC10028600DE0C6F80080FFF792FC10
:100EC000074604E0FFF78EFCC01B022823D82868E1
:100ED0008007F7D4207800072CD57948A169D9B1CB
:100EE000C0F80090FFF77EFC074604E0FFF77AFCAD
:100EF000C01B02280FD8686A8007F7D571484FF4E5
:100F0000FA510068B0FBF1F0009000BF0098411E5C
:100F10000091FAD20EE080E0C0F80080FFF762FC9A
:100F2000074604E0FFF75EFCC01B022875D8686A1C
:100F30008007F7D42078400760D5E8690027C00013
:100F400008D4E86940F08050E861E869012700F0C2
:100F5000805000905C480168C90513D4016883463D
:100F600041F480710160FFF73DFC824606E000BF5E
:100F7000FFF738FCA0EB0A0064284ED8DBF800002D
:100F8000C005F5D5E06801280AD008B1052813D0BE
:100F9000286A20F001002862286A20F0040002E09C
:100FA000286A40F001002862E06841F2883B98B16D
:100FB000FFF718FC82460BE0286A40F00400286224
:100FC000EEE700BFFFF70EFCA0EB0A0159455AD827
:100FD000286A8007F6D50CE0FFF704FC824605E09E
:100FE000FFF700FCA0EB0A0159454CD8286A80079E
:100FF000F6D41FB1E86920F08050E861E06988B359
:101000006968C1F38101022944D00228C6F86080D2
:1010100004D0FFF7E7FB044638E034E0FFF7E2FBDB
:10102000074604E0FFF7DEFBC01B02282BD8286828
:101030008001F7D4206AB0F5803F05D16868A168C7
:1010400020F4003008436860D4E908010843696867
:1010500021F4741108436860C6F86090FFF7C2FB82
:10106000044606E025E000BFFFF7BCFB001B02289A
:1010700009D828688001F7D51BE000BFFFF7B2FB55
:10108000001B022802D90320BDE8F88F28688001E0
:10109000F4D40EE00128F7D06868226A00F48031A9
:1010A000914204D1616A00F47010884201D001209D
:1010B000EAE70020E8E7000000100240000042429A
:1010C000800442420C0000200070004010B5401E19
:1010D000B0F1807F01D3012010BD4FF0E0246061AA
:1010E0000F21601700F09AFE0020A0610720206108
:1010F000002010BD10B590F83C20012A22D001221A
:1011000080F83C20CA688C6822F4407222434C6804
:1011100022F4806222430C6822F4006222430C69AC
:1011200022F4805222434C6922F400522243C969BE
:10113000002322F480420A4301684A6480F83C306C
:10114000002010BD022010BD70B590F83C20012A8F
:1011500026D0012480F83C40022280F83D2003681C
:101160005A689D6822F070060A6832435A600D4B37
:1011700002689A4208D0B2F1804F05D00A4B9A42D9
:1011800002D00A4B9A4204D1496825F080031943E2
:10119000916080F83D40002180F83C10084670BD09
:1011A000022070BD002C01400004004000080040F7
:1011B00010B5040003D094F83D0010B107E0012001
:1011C00010BD002084F83C00204600F01FF80220EB
:1011D00084F83D00211D206800F07AFC012084F88D
:1011E000460084F83E0084F83F0084F8400084F80C
:1011F000410084F8420084F8430084F8440084F8F5
:10120000450084F83D00002010BD000008B5174AD5
:1012100001681748914207D1816941F400618161F9
:10122000806900F4006014E0B1F1804F0AD0114AE7
:10123000914210D1C16941F00201C161C06900F061
:10124000020006E0C16941F00101C161C06900F01E
:101250000100009008BD084A9142FBD1C16941F0EC
:101260000401C161C06900F00400F2E7002C0140F4
:1012700000100240000400400008004070B5044621
:1012800090F83C00012817D0012584F83C5002203A
:1012900084F83D002068826822F0770222F47F42C1
:1012A00082600868502830D00DDC20284DD005DC45
:1012B00098B310283BD148E0022070BD302844D0BC
:1012C000402834D139E0602828D0702806D0B0F505
:1012D000805F2CD0B0F5005F29D10AE0CB68D1E95E
:1012E0000121206800F02AFC2068816841F0770124
:1012F00009E0CB68D1E90121206800F01FFC2068DB
:10130000816841F48041816011E0CA6849682068C1
:1013100000F0C8FC5021206807E016E0CA68496860
:10132000206800F0D0FC6021206800F011FC84F8F7
:101330003D50002084F83C0070BDCA6849682068B0
:1013400000F0B0FC40212068EFE72268014610461B
:10135000EBE7000000B585B00021009101910291FA
:10136000039100680B49884212D10B48816941F012
:10137000040181618069694600F0040004904FF423
:10138000E06000900220019003900448FFF72CF9E0
:1013900005B000BD002C01400010024000080140D3
:1013A00070B5044690F83C000D4601280AD0012093
:1013B00084F83C0042B1042A18D0082A2AD00C2A0A
:1013C0004DD139E0022070BD206800F0C9FB2068D3
:1013D000816941F0080181612068816921F004017F
:1013E0008161206881692A69114311E0206800F059
:1013F000DFFB2068816941F40061816120688169B7
:1014000021F480618161206881692A6941EA0221B1
:10141000816124E0206800F0F7FB2068C16941F099
:101420000801C1612068C16921F00401C16120681F
:10143000C1692A69114311E0206800F011FC20689D
:10144000C16941F40061C1612068C16921F4806112
:10145000C1612068C1692A6941EA0221C161002095
:1014600084F83C0070BD10B5040003D094F83D0032
:1014700010B107E0012010BD002084F83C00204698
:1014800000F01EF8022084F83D00211D206800F0C5
:101490001FFB012084F8460084F83E0084F83F00DA
:1014A00084F8400084F8410084F8420084F8430046
:1014B00084F8440084F8450084F83D00002010BD05
:1014C000704770B5040004D094F83D00002510B1B9
:1014D00006E0012070BD84F83C50204600F022F860
:1014E000242084F83D002068C16821F40051C160C7
:1014F000204600F0FBFB2068016921F49041016166
:101500002068416921F02A0141612068C16841F4E5
:101510000051C1602564202084F83D0084F83E001D
:10152000002070BD30B585B0002400940194029471
:10153000039400681449884223D11448C16941F4D6
:101540000031C161C16901F400310491816941F048
:101550000401816180690E4D00F0040004900420B4
:101560000090022001900320039069462846FFF76F
:101570003BF80820CDE90004694628460294FFF7AD
:1015800033F805B030BD00000044004000100240B8
:10159000000801402DE9F843044690F83D001F463D
:1015A00016460D4620284CD1C5B1BEB194F83C007A
:1015B000012846D0012084F83C004FF00008C4F810
:1015C0004080212084F83D00FFF70CF9A684814675
:1015D000E684A068B0F5805F03D004E00120BDE898
:1015E000F883206928B12E465FF0000584F83C801E
:1015F0000EE00026FAE78021204600F0D3FBA0B9D8
:10160000AEB116F8010B21684860E08C401EE08402
:10161000E08C4B464FF0000200970028EBD14FF0D2
:101620004001204600F0BEFB30B10320D7E735F87B
:10163000020BC0F30800E6E7202084F83D000020FC
:10164000CDE70220CBE7FEE73EB50024104800942A
:10165000019402940D4984600160047304750125AE
:1016600005614FF460214460C161FEF72DFE08B1B1
:10167000FEF7A9FDCDE90045694605480294FEF74D
:10168000A5FD002801D0FEF79EFD3EBD00240140CF
:10169000140000200D4810B50B4901601021416075
:1016A00000218160C16001614161017641768176EE
:1016B000C17601774177FEF7C1FE002803D0BDE86F
:1016C0001040FEF780BD10BD0064004044000020C3
:1016D0002DE9F04786B0002431480094019402942B
:1016E0000394816941F010018161816901F0100169
:1016F0000491816941F020018161816901F020013B
:101700000491816941F004018161816901F0040162
:101710000491816941F0080181618069DFF884806A
:1017200000F008004FF4005504900022294640467E
:10173000FFF752F8DFF87090002210214846FFF7BB
:101740004BF8DFF868A0AF00002239465046FFF79B
:1017500043F80095022601250396CDE90154694618
:101760004046FEF741FF1020CDE90005CDE90246D5
:1017700069464846FEF738FF00970396CDE90154C5
:1017800069465046FEF730FF2020CDE90004694647
:1017900050460294FEF728FF06B0BDE8F08700002F
:1017A000001002400010014000080140000C014000
:1017B0000D4810B50B4901600C49416000214FF400
:1017C00080428160C0E9031241618161C1610162AF
:1017D000FFF70EF8002803D0BDE81040FEF7F3BC79
:1017E00010BD0000005400406C000020A0860100E5
:1017F00010B596B000240F94109411941294139481
:101800001C2168461494FEF794FC202107A8FEF7DB
:1018100090FC31482F4901600221C0E9011440F2D7
:10182000DB51C0E903148021C0E90541FFF7C0FC8A
:1018300008B1FEF7C8FC4FF480500F900FA926485E
:10184000FFF71CFD08B1FEF7BEFC2348FFF70BFEB7
:1018500008B1FEF7B8FC139413A91F481494FFF7BE
:1018600073FC08B1FEF7AFFC6020CDE900040294E0
:101870000394049405940022694617480694FFF7E0
:101880008FFD08B1FEF79FFC042269461248FFF75E
:1018900087FD08B1FEF797FC082269460E48FFF75E
:1018A0007FFD08B1FEF78FFC0794089409944FF46C
:1018B00000500A94CDE90B4007A907480E94FFF7A2
:1018C00019FC08B1FEF77FFC0348FFF743FD16B093
:1018D00010BD0000002C0140C000002010B586B0F3
:1018E00000241648009401940294039404944FF049
:1018F00080410594016040F22B11C0E90114EF21F1
:10190000C0E903148461FFF753FC08B1FEF75BFCE8
:101910004FF48050009069460848FFF7AFFC08B1CB
:10192000FEF751FC049404A904480594FFF70CFC4D
:10193000002801D0FEF747FC06B010BD08010020CA
:1019400010B586B0002417480094019402940394C3
:10195000049413490594016040F22B11C0E901146D
:10196000EF21C0E903148461FFF722FC08B1FEF700
:101970002AFC4FF48050009069460A48FFF77EFC2D
:1019800008B1FEF720FC049404A906480594FFF76B
:10199000DBFB002801D0FEF716FC06B010BD0000EE
:1019A000000400405001002010B586B00024174804
:1019B00000940194029403940494134905940160E3
:1019C00040F22B11C0E90114EF21C0E90314846136
:1019D000FFF7EEFB08B1FEF7F6FB4FF480500090E6
:1019E00069460A48FFF74AFC08B1FEF7ECFB04948D
:1019F00004A906480594FFF7A7FB002801D0FEF7CD
:101A0000E2FB06B010BD0000000800409801002075
:101A10000C4810B50A4901604FF4E13141600021E2
:101A200081600C22C160C0E904128161C161FFF7CD
:101A300048FD002803D0BDE81040FEF7C4BB10BD30
:101A400000440040E0010020FEE7FEE770477047D9
:101A5000FEF7C0BF30B593B028216846FEF769FB9A
:101A600014210AA8FEF765FB002501200F951095AB
:101A70001195010412958DE8230004904FF4E010B5
:101A8000CDE90810022407946846FFF78FF908B1E2
:101A900072B6FEE70AA90F2081E831004FF480609A
:101AA000CDE90D0502210AA8FFF794F808B172B636
:101AB000FEE74FF4004011900F940FA8FFF714F8C1
:101AC000002801D072B6FEE713B030BD70470000A9
:101AD000F0B50268164B174C174D4FF080479842EF
:101AE00005D0B84203D0A04201D0A84203D122F0D1
:101AF00070064A683243984205D0B84203D0A042EB
:101B000001D0A84203D122F44074CA6822434C6930
:101B100022F08002224302608A68C2620A688262FE
:101B2000984201D10969016301214161F0BD0000C2
:101B3000002C0140000400400008004010B58468FB
:101B400042EA032224F47F440A432243826010BD08
:101B5000826822F070020A4342F0070181607047F8
:101B600030B5026A22F001020262026A43688469A7
:101B700024F073050C682C4322F002058A682A437E
:101B80000A4DA8420BD122F00805CA6823F440731D
:101B90002A434D6922F004021D438B692B434360A5
:101BA000846149684163026230BD0000002C01403D
:101BB00030B5026A22F010020262026A4368846948
:101BC0000D6824F4E64444EA05248D6822F02002DE
:101BD00042EA05120B4DA8420ED1CD6822F08002D8
:101BE00042EA05124D6923F4406343EA85038D6997
:101BF00022F0400243EA85034360846149688163BF
:101C0000026230BD002C014030B5026A22F48072BD
:101C10000262036A4268C46923F4007324F0730506
:101C20000C682C438D6843EA05230C4DA8420ED165
:101C3000CD6823F4006343EA05234D6922F4405242
:101C400042EA05128D6923F4806342EA051242607C
:101C5000C4614968C163036230BD0000002C0140CB
:101C600030B5026A22F480520262046A4268C36993
:101C70000D6823F4E64343EA05238D6824F40054F9
:101C800044EA0534064DA84204D14D6922F480424D
:101C900042EA85124260C36149680164046230BD52
:101CA000002C014010B5036A046A24F001040462A8
:101CB000846924F0F00444EA021423F00A020A437F
:101CC0008461026210BD10B5036A23F01003036241
:101CD0008369046A23F4704343EA023224F0A003C8
:101CE00043EA01118261016210BD000070B5044633
:101CF00000680169E26821F44051114301612169E2
:101D0000A0680843616908432168CA6841F20C630E
:101D10009A430243CA6020684169A26921F4407174
:101D2000114341611E492068884202D1FEF7F8FF45
:101D300001E0FEF7E5FF00EBC00101EB0012606877
:101D400064218000B2FBF0F3B3FBF1F36FF01806EF
:101D50007343B2FBF0F5B2FBF0F605EB83053223DB
:101D600003EB0515B5FBF1F5B6FBF1F605F0F00553
:101D700005EB0615B2FBF0F6B2FBF0F0B0FBF1F0AC
:101D80006FF01802504306EB800003EB0010B0FB2D
:101D9000F1F0216800F00F002844886070BD000059
:101DA000003801402DE9F041984617460E4604469A
:101DB000069D1DE0681C1BD02DB1FEF713FDA0EBA6
:101DC0000800A84214D92068C16821F4D071C1600C
:101DD0002068416921F001014161202084F83D0023
:101DE00084F83E00002084F83C000320BDE8F08128
:101DF0002068006836EA000004D00020B842D9D03C
:101E00000020F3E70120F9E7FEE70000014A02495C
:101E100000F023B87D1E0008100000200907090EFD
:101E2000002804DB00F1E02080F80014704700F087
:101E30000F0000F1E02080F8141D704702E008C890
:101E4000121F08C1002AFAD170477047002001E034
:101E500001C1121F002AFBD170472DE9F04116463F
:101E60000F460446002503E03946B047641C6D1C4C
:101E700020780028F8D12846BDE8F08113B54FF648
:101E8000FF73012269460248FFF784FB00981CBDDE
:101E9000E0010020FEF7A6FDFFF7DCFDFFF718FCD0
:101EA000FFF7D2FBFFF7F6FBFFF782FCFFF7A0FC82
:101EB000FFF714FDFFF744FDFFF776FDFFF7A8FDE0
:101EC0000E4E4FF40055002229463046FEF784FCA2
:101ED0004FF47A742046FEF775FB094F09A0FFF70F
:101EE00095FF29463046FEF76FFC10213846FEF775
:101EF0006BFC2046FEF766FBF0E700000010014097
:101F00000008014068656C6C6F2C20776F726C6400
:101F1000210D0A000000000000000000010203047F
:101F20000607080900000000010203044C1F000816
:101F300000000020140000003C1E0008601F000884
:101F400014000020140600004C1E000801000000D0
:101F500010000000000000000024F4000000000059
:04000005080000ED02
:00000001FF
