:020000040800F2
:10000000E80600200101000833300008C727000877
:1000100031300008B90B0008013A00080000000068
:100020000000000000000000000000008F33000806
:10003000BB0B0008000000008D330008913300085E
:100040001B0100081B0100081B0100081B01000820
:100050001B0100081B0100081B0100081B01000810
:100060001B0100081B0100081B0100081B01000800
:100070001B0100081B0100081B0100081B010008F0
:100080001B0100081B0100081B0100081B010008E0
:100090001B0100081B0100081B0100081B010008D0
:1000A0001B0100081B0100081B0100081B010008C0
:1000B00011340008CD3500080D3600081B0100087A
:1000C0001B0100081B0100081B0100081B010008A0
:1000D0001B0100081B0100081B0100081B01000890
:1000E0001B0100081B0100081B010008DFF80CD0F1
:1000F00000F0E6FC004800476D460008E8060020D6
:100100000648804706480047FEE7FEE7FEE7FEE7B1
:10011000FEE7FEE7FEE7FEE7FEE7FEE70D34000838
:10012000ED000008202A04DB203A21FA02F0002129
:10013000704721FA02F3D040C2F1200291400843F7
:1001400019467047D2B201E000F8012B491EFBD2DC
:1001500070470022F6E710B513460A4604461946D2
:10016000FFF7F0FF204610BDF0B480EA0102D40F83
:100170004200B2EB410F02D20246084611464A0045
:1001800042D0C30DDDB2C1F3C752AD1A202D35DA0E
:10019000C1F3160141F4000204B15242C5F1200638
:1001A00002FA06F12A411044B3EBD05F23D0C4B168
:1001B000012DA0EBC35009DCF0BC4FF0004202EA75
:1001C000C352DBB200F5000000F093BB400000F129
:1001D000807000EBC350A0F1807040EAD1704900FC
:1001E00009E0490841EAC071A0EBC35000F50000E6
:1001F000400800EBC350F0BC00F072BB614201222A
:1002000002EB4101001BF6E7F0BC704781F00041B2
:10021000AAE780F00040A7E780EA010210B502F0EB
:100220000043400022D04A001FD0010E01EB1261B2
:10023000C0F35600C2F3560240F4000042F400023C
:10024000A0FB022000047F39140400D0401C50EAB7
:10025000124001D44000491EC2B20C0604EBD0107B
:10026000401C4008802A02D003E0002010BD20F08E
:100270000100002900DA0020184310BD30B480EAE4
:10028000010202F0004530F0004221F0004013D09E
:1002900090B1C30DD40DC2F31601C0F31600E41AD9
:1002A00041F4000140F400027D34914201D3641C0A
:1002B00000E04900002C02DA30BC002070474FF407
:1002C00000000023914201D3891A034340084FEAFA
:1002D0004101F7D151B1914202D14FF0004105E007
:1002E00002D24FF0010101E06FF0010103EBC450B5
:1002F000284430BC00F0F4BA420005D0C0F3C75225
:100300005242914201DC0020704700EBC15070471F
:100310002DE9FE4F804681EA0300C00F0C46009095
:1003200021F0004123F00045B8EB0200A94105D2BD
:100330004046214690461C460B46024623F00040AC
:10034000104347D0270DC7F30A00C3F30A510290A8
:10035000401A019040286BDAC3F3130040F4801B6D
:100360000098924620B10023D2EB030A63EB0B0BFB
:1003700001985946C0F14002504600F090FA0646F6
:100380000D4650465946019A00F098FA10EB0800C5
:100390006141002487EA115284EAE7731A4340D08E
:1003A000009A62B3019A012A4FEA075215DC001B3A
:1003B00061EB02014FF0004202EA0752CDE9004230
:1003C000001C41F5801132462B4600F0CFFA03B0F5
:1003D000BDE8F08F40462146F9E7001B61EB0201C2
:1003E000001C41F5801300185B412018A2F500178E
:1003F00047EB030140EAD570B6196D4111E06D0875
:100400004FEA360645EAC0754FEA0752001B61EB1A
:100410000201001C41F5801149084FEA3000001923
:10042000514132462B4603B0BDE8F04F00F08FBA81
:100430000098012240000023D0EB020263EBE0733E
:10044000009821464FEAE074B8EB000061EB04012C
:10045000E9E783F000435BE781F0004158E72DE9CD
:10046000FE4F81EA030404F0004421F000410094AF
:100470004FF0000B23F0004350EA01045ED052EA33
:1004800003045BD0C3F30A54C1F30A552C44A4F20D
:10049000F3340194A0FB0254C1F3130141F4801121
:1004A000C3F3130343F4801301FB024400FB034E28
:1004B000840A970A44EA815447EA8357A4FB0768F1
:1004C00002958D0A05FB07854FEA932C04FB0C541B
:1004D0002705029D4FEA065847EA1637B5EB08058F
:1004E0006EEB070C870E920E47EA811742EA8312E1
:1004F000A7FB0201B6EB0B0164EB00042B0D43EAF2
:100500000C335E1844EB1C50DA465146E7FB0201FF
:10051000C5F313044FEA0B3343EA14534FEA043292
:10052000019C43EA0603A4F10C040294009CCDE96B
:1005300000B400F01BFA03B0BDE8F08F00200146C4
:10054000F9E72DE9F04D81EA030404F0004B21F0B6
:10055000004514464FF0000A23F0004150EA05021E
:1005600020D054EA01021DD0C5F30A570246C5F354
:100570001303C1F31300C1F30A5640F4801543F48A
:100580008013A7EB0608101BD64608F2FD3873EB64
:10059000050002D308F1010801E092185B41B8F1AF
:1005A000000F03DA00200146BDE8F08D00204FF473
:1005B0008011064684460EE0171B73EB050705D332
:1005C000121B63EB050306434CEA010C49084FEA92
:1005D000300092185B4150EA0107EDD152EA030066
:1005E00012D082EA040083EA0501084305D0101BFB
:1005F000AB4106D20122002306E000224FF0004367
:1006000002E06FF0010253101AEB06004CEB0851A8
:1006100010EB0A0041EB0B01BDE8F04D00F097B97B
:1006200070B521F0004303430CD0C1F30A550024F8
:10063000D5EB040564EB0403D617AD1AB34102DB16
:100640000020014670BD201841EB025170BDC10F62
:1006500080EAE0700844CA079623002100F049B9F7
:1006600096230022114600F044B90EB5C10F80EA6E
:10067000E0700844CA07002140F233438DE80E00C1
:100680000A460B4600F072F903B000BD0EB540F209
:10069000334102910021CDE900110A460B4600F0DA
:1006A00065F903B000BD20F00040C10DC0F3160095
:1006B00040F400007F2901DA00207047962903DC0E
:1006C000C1F19601C840704796398840704770B5AF
:1006D000C1F30A5201F000450024C1F3130140F2B6
:1006E000FF3341F480119A4201DA002070BD40F2DC
:1006F00033439A42A2F2334203DC5242FFF712FD27
:1007000000E090402C43F1D0404270BDC1F30A524A
:1007100010B5C1F3130140F2FF3341F480119A4246
:1007200001DA002010BD40F233439A42A2F2334274
:1007300003DC5242FFF7F6FC10BD904010BD00F004
:10074000004230F000400AD0C10D01F56071C0F3E5
:10075000160042EA0151C2084007114370470020C9
:100760000146704730B5041E71F1000404DB4FF000
:100770000044404264EB0101141E73F1000405DBE8
:100780001C464FF00043524263EB04038B4208BF08
:10079000824230BD30B5041E71F1000404DB4FF01D
:1007A0000044404264EB0101141E73F1000405DBB8
:1007B0001C464FF00043524263EB0403994208BFCA
:1007C000904230BD01F0004330B421F0004150EAC6
:1007D000010206D00A0DA2F56072C1F31301002ACE
:1007E00002DC30BC00207047440F44EAC104C10061
:1007F000E01830BC00EBC25000F072B8002801DBFA
:10080000C0F10040002901DBC1F10041884270477E
:1008100030B50B46014600202022012409E021FAD0
:1008200002F59D4205D303FA02F5491B04FA02F5CD
:100830002844151EA2F10102F1DC30BD2DE9F05F64
:100840000546002092469B4688460646814640243F
:100850001BE02846414647462246FFF763FC5346C5
:100860005A46C01A914110D311461846224600F04C
:1008700016F82D1A67EB01084F4622460120002189
:1008800000F00DF817EB00094E41201EA4F1010401
:10089000DFDC484631462A464346BDE8F09F202A21
:1008A00004DB203A00FA02F1002070479140C2F1C7
:1008B000200320FA03F3194390407047202A06DBF7
:1008C000CB17203A41FA02F043EAE07306E041FA1E
:1008D00002F3D040C2F1200291400843194670470C
:1008E0000029A8BF7047401C490008BF20F0010044
:1008F000704710B4B0FA80FC00FA0CF050EA010422
:1009000004BF10BC704749B1CCF1200421FA04F4B3
:1009100011FA0CF118BF012121430843A3EB0C018C
:10092000CB1D4FEA00614FEA102042BF002010BCEF
:10093000704700EBC35010440029A4BF10BC70479F
:10094000401C490008BF20F0010010BC704710B5E2
:10095000141E73F1000408DA401C41F100019218E2
:100960005B411A4301D120F0010010BD2DE9F04D8B
:1009700092469B4611B1B1FA81F202E0B0FA80F2E0
:1009800020329046FFF78BFF04460F4640EA0A00EC
:1009900041EA0B0153465A46084313D0114653EA25
:1009A000010019D0C8F140025046FFF7BBFB0546D5
:1009B0000E46504659464246FFF771FF084305D0A0
:1009C000012004E020463946BDE8F08D00200543B3
:1009D00046EAE0762C4337430A986305E40AA0EB25
:1009E00008000022FD0A44EA47540A3002D50020DC
:1009F0000146E9E7010510196941DDE908450019DB
:100A00006941BDE8F04DA2E72DE9FE4FC3F30A5757
:100A100001F000450024C1F30A56C3F31303C1F3E8
:100A2000130143F4801312EB020AA64641F480112D
:100A3000009543EB030CA7F1010B16E0B0EB0A00A5
:100A400061EB0C01071E71F1000707DA4FF0000897
:100A5000D0EB080085F0004568EB0101171A73EB35
:100A60000107EBD3761E001849415E45F6DA50EADD
:100A7000010209D0CDE900E5002213460296FFF7F6
:100A800075FF03B0BDE8F08F20460099F9E7C1F388
:100A90000A52C1F3130140F2FF3341F480119A422C
:100AA00002DA00200146704740F233439A42A2F234
:100AB000334202DC5242FFF735BBFFF7F0BE0000C5
:100AC000064C074D06E0E06840F0010394E807009B
:100AD00098471034AC42F6D3FFF70CFBD04D00081A
:100AE000F04D000870B5044600688168C943C90725
:100AF00017D1816821F00101816000F0BBFB054640
:100B00000AE000BF00F0B6FB401B022804D92068B1
:100B10008068C043C00706D020688068C043C00713
:100B2000F0D0002070BDA06A40F01000A062E06A22
:100B300040F00100E062012070BD0000F8B5002621
:100B40000446009600688168C943C9072DD08168B2
:100B500041F001018160164816490068B0FBF1F0D0
:100B600000E0401E00900028FBD100F083FB05460A
:100B700016E000BF00F07EFB401B022810D9206861
:100B80008068C043C0070BD0A06A40F01000A0628C
:100B9000E06A40F00100E06284F824600120F8BDC2
:100BA00020688068C043C007E4D10020F8BD000081
:100BB000B800002040420F00FEE7704772B6FEE723
:100BC000F8B50024009490F824202546012A12D07C
:100BD000012280F824204A681F23072A0DD20668C4
:100BE000776B521E02EB820293409F430B68934047
:100BF0001F43776319E00220F8BD06680D2A0AD268
:100C0000376BD21F02EB820293409F430B689340E5
:100C10001F43376309E0F76A0D3A02EB8202934003
:100C20009F430B6893401F43F7620A6807230668D7
:100C30000A2A0AD3F7680A3A02EB420293409F431A
:100C40008B6893401F43F76008E0376902EB42026C
:100C500093409F438B6893401F4337610A68102A73
:100C600001D0112A20D1124B02689A4217D1936801
:100C70001B0219D4936843F4000393600968102998
:100C800012D10C490C4A0968B1FBF2F101EB810168
:100C9000490000E0491E00910029FBD104E0816A6F
:100CA00041F020018162012480F824502046F8BDE3
:100CB00000240140B800002040420F000068C06CD2
:100CC000704700002DE9F0414FF0000704003D4659
:100CD0007ED0A06A002628B9E66284F82460204607
:100CE00000F07EF82046FFF7FDFEA16A01F010013A
:100CF000014304D0A06A40F01000A06268E0A16A3D
:100D000021F4885141F00201A1626268E169237B0C
:100D10000A4347EA43010A43A1684FF48077B94286
:100D200008D0012906D0002194F814C0BCF1010FAD
:100D300002D00AE03946F7E7F3B1A36A43F0200393
:100D4000A362E36A43F00103E3622368D3F804C0BB
:100D50002CF4694C4CEA010CC3F804C02368996870
:100D6000DFF870C001EA0C0111439960A168B94233
:100D70000BD0012909D00CE0DFF85CC0A3690CEBB3
:100D800043330B4343F40061DFE7218A0D05A5F5EA
:100D900080152168CB6A23F470032B43CB62216852
:100DA00089680E4B1940914208D1E662A16A21F090
:100DB000020141F00101A162BDE8F081A06A20F0CA
:100DC000020040F01000A062E06A40F00100E06222
:100DD0000120F1E7FDF7E1FF00E0FFFFFE0E1FFF3E
:100DE00010B586B0002100910191029103911A4C37
:100DF00003681A4903221A48A34211D18B6943F4AC
:100E000000738B618B6903F4007304938B6943F067
:100E100004038B61896901F004010491012113E04D
:100E2000104CA34215D18B6943F480638B618B69AD
:100E300003F4806304938B6943F004038B61896935
:100E400001F0040104910221CDE90012694600F08D
:100E50001BF906B010BD0000002401400010024044
:100E600000080140002801402DE9F84300270D4605
:100E70000446009700F0FEF9804620688168C905A5
:100E800008D5A06A40F02000A06284F824700120F8
:100E9000BDE8F8834168C90503D4C06A10F4700F37
:100EA0002AD0022000F02EFD3B490968B1FBF0F684
:100EB0002068036939490B424FEA61014FEAA112E8
:100EC0001FD1C3684FEA611C13EA0C0F19D10369E3
:100ED0000B4225D1C068104222D1142023E0681CA7
:100EE0000AD02DB100F0C6F9A0EB0800A84203D942
:100EF00020680068800725D5206800688007EED547
:100F00002DE003690B4202D1C168114206D002698B
:100F100023490A4206D1C068084203D1542002E0A6
:100F2000292000E0FC204643009816E0681C11D000
:100F30002DB100F09FF9A0EB0800A8420AD9009853
:100F4000B04207D2A06A40F00400A06284F8247086
:100F500003209DE70098401C0090B042E6D3216832
:100F60006FF012000860A06A40F40070A062206870
:100F70008068C0F3424007280CD1207B50B9A06A9A
:100F800020F48070A062A06AC00403D4A06A40F07C
:100F90000100A06200207BE7B800002024499224D1
:100FA0004992240070B5044690F8240001280DD021
:100FB000012084F824002046FFF7C0FD02004FF016
:100FC000000005D084F82400104670BD022070BDDA
:100FD000A16A40F20123994341F48071A1621F4D3F
:100FE00023681F49AB4218D10E6816F4702F14D035
:100FF000A66A46F48016A6620E68760505D5A66A2E
:1010000026F4005646F48056A662A66AF6040AD56F
:10101000E66A26F00606E66206E0A66A26F4801670
:10102000A6625E68E9E7E06284F824006FF00200DF
:10103000186020688368C3F34243072B05D1A84298
:1010400008D1096811F4702F04D0816841F480112F
:101050008160B9E7816841F4A001F9E70028014007
:101060000424014070B5044600F004F90546601CF4
:1010700002D004480078044400F0FCF8401BA04271
:10108000FAD370BDAC0000202DE9F84FDFF8B8911D
:10109000002409F1040A0AF1040B23460F270BF17F
:1010A000040EC9E00125A5402A40AA427DD1674E21
:1010B000D1F804C0ACEB0608B44532D014DCBCF166
:1010C000030F3AD009DCBCF1000F2AD0BCF1010FAC
:1010D0001CD0BCF1020F31D11DE0BCF1110F17D0B3
:1010E000BCF1120F2AD119E0B8F5881F19D006DC1F
:1010F000B8F5803F15D0B8F5801F1FD111E0B8F5C5
:10110000001F0ED0B8F5041F18D10AE0CB6815E017
:10111000CB681B1D12E0CB6808330FE0CB680C33A3
:101120000CE08B682BB1012B4FF0080303D0456115
:1011300004E0042302E0056100E00023FF2A01D857
:10114000064601E000F104064FEA840501D9A5F145
:101150002005D6F8008007FA05FC28EA0C0803FAF7
:1011600005F548EA0508C6F800804D68ED0062D52F
:10117000374DAE6946F00106AE61AD6924F0030655
:1011800005F001050095334D06EB050CDCF8085021
:10119000A607360F07FA06F825EA0805DFF8B88033
:1011A000404503D14FF0000817E044E0DFF8AC8081
:1011B000404502D14FF001080FE0DFF8A480404520
:1011C00002D14FF0020808E0DFF89880404502D1D4
:1011D0004FF0030801E04FF0040808FA06F848EA67
:1011E0000508CCF808804D68D9F80060ED034D463D
:1011F00001D5164300E096432E604D68DAF8006092
:10120000AD03554601D5164300E096432E604D6868
:10121000DBF80060ED025D4601D5164300E0964321
:101220002E604D68DEF80060AD02754601D51643AC
:1012300000E096432E60641C0D682A46E5407FF46A
:1012400031AFBDE8F88F000000040140000011102C
:10125000001002400000014000080140000C014065
:1012600000100140001401400AB1016170470904F7
:10127000FBE700000148806870470000AC000020D8
:1012800070B5040025D094F83D00002520B984F8FD
:101290003C50204600F070FA242084F83D0020687D
:1012A000016821F0010101602068016841F40041FA
:1012B00001602068016821F40041016000F092FCA7
:1012C0004D4A6168914201D84C4900E04C4988423E
:1012D00001D2012070BD4B492368B0FBF1F15E687B
:1012E00026F03F060E435E606368934206D94FF4D2
:1012F000967359434FF47A73B1FBF3F12368491C99
:101300001E6A26F03F06314319626168914210D887
:101310004900401EB0FBF1F2521CC2F30B02042A3A
:1013200001D2042022E0B0FBF1F0401CC0F30B001E
:101330001CE0A268F2B301EBC10303EB0116431EEC
:10134000B3FBF6F35B1C43F480431B0549D092B317
:1013500001EBC10202EB0111401EB0FBF1F0401C99
:10136000C0F30B0040F4804040F400402168CA699B
:101370004CF6FF739A431043C861D4E90710014348
:101380002068026822F0C00211430160D4E9030121
:1013900001432068826848F2FF339A431143816019
:1013A000D4E9050108432168CA6822F0FF0210430E
:1013B000C86001E00EE016E02068016841F001011C
:1013C00001602564202084F83D00256384F83E50A8
:1013D000002070BD01EB4106431EB3FBF6F35B1C1E
:1013E000B3E70120C2E701EB4101401EB0FBF1F081
:1013F000401CC0F30B00B7E7A086010080841E00EC
:1014000000093D0040420F002DE9F84F0025DDF8AE
:101410002890984617468A4604460095FFF72AFF0B
:10142000064694F83D0020287AD1192301228349E9
:101430002046009601F0CAFA0028F5D194F83C0045
:1014400001286DD0012084F83C0020680168C9079C
:1014500003D1016841F0010101602068016821F4B5
:1014600000610160222084F83D00102084F83E00D5
:1014700025646762A4F82A80608D20857048E06248
:1014800033464A465146204601F0B6F900287DD140
:10149000208DDFF8B081202768B1012814D0022800
:1014A000206801681ED041F48061016020684169B4
:1014B00080690090B5E02068416981690091016808
:1014C00041F400710160ACE02068016821F48061A2
:1014D000016072B62068416981690091016841F438
:1014E00000710AE041F40061016072B62068416950
:1014F00081690091016821F48061016062B690E029
:10150000032868D801280CD002284B464FF000026F
:101510004146204600960FD001F058FAB0BB10E0CB
:101520008AE032464946204601F0CFFA70BB206877
:101530000069616A08706BE001F048FA30BB72B66E
:1015400034E02068016821F48061016072B620688F
:101550000069616A0870606A401C6062208D401EEC
:101560002085608D401E6085374846F2A8110068CE
:10157000B0FBF1F0C0EBC00000EB80000090401E1B
:10158000009008D020684069C04300E029E040078F
:101590000CD50098F3E744F8305F6773A5732069B2
:1015A00040F02000206162B625731AE020680168CF
:1015B00041F40071016020680069616A0870606A26
:1015C000401C6062218D491E2185618D491E618507
:1015D00062B621681AE032464946204601F075FAA3
:1015E00010B10120BDE8F88F20680069616A0870B9
:1015F000606A401C6062218D491E2185618D491EF3
:10160000618521684A69D24352070AD40969017089
:10161000606A401C6062208D401E2085608D401EE7
:101620006085208D00287FF46BAF84F83D7084F8CE
:101630003E5084F83C50D5E70220D3E7020010006A
:101640000000FFFF04000100B80000202DE9F84F62
:101650001F4690468A460446DDF82890FFF70AFEAA
:10166000054694F83D0020287FD1192301224049E6
:101670002046009501F0AAF9002876D194F83C00A4
:10168000012872D0012084F83C0020680168C90755
:1016900003D1016841F0010101602068016821F473
:1016A00000610160212084F83D00102084F83E0094
:1016B00000262664C4F824806785608D20852D4827
:1016C000E0622B464A465146204601F00BF990B99C
:1016D000206841698069009036E02A4649462046E4
:1016E00001F026FA50B1206C042804D1206801686A
:1016F00041F4007101600120BDE8F88F606A216843
:1017000000780861606A401C6062618D491E6185D5
:10171000218D491E89B2218522685369DB435B070D
:101720000BD451B100781061606A401C6062608D1A
:10173000401E6085208D401E20852A464946204651
:1017400001F01EF90028CED1208D0028C5D154F813
:101750003D0B016841F400710160202004F81E096E
:10176000E67766770020C7E7FFE70220C4E70000BE
:10177000020010000000FFFF10B586B000210091AC
:1017800001910291039100680F4988421AD10F4CD0
:10179000A06940F00800A061A069694600F0080057
:1017A0000490C0200090122001900320039008486C
:1017B000FFF76AFCE06940F40010E061E06900F4C2
:1017C0000010049006B010BD00540040001002400C
:1017D000000C014002488168027811448160704722
:1017E000AC000020074810B5016841F0100101600D
:1017F000032000F075F80F2000F006F800F024F840
:10180000002010BD0020024070B50D4D04464FF47D
:101810007A712878B1FBF0F00A490968B1FBF0F061
:1018200000F0C6FB48B9102C07D200222146501EFA
:1018300000F036F800206C6070BD012070BD000023
:10184000AC000020B80000200C4808B5816941F0C8
:1018500001018161816901F001010091C16941F0DB
:101860008051C161C06900F0805000900448416817
:1018700021F0E06141F00071416008BD00100240BC
:1018800000000140002809DB00F01F020121914007
:101890004009800000F1E020C0F80011704700000E
:1018A000F0B40E4B1B680C46C3F30223C3F10705CB
:1018B000042D00D90425191D072901D2002300E0B9
:1018C000DB1E012606FA05F1491E214099409E4083
:1018D000761E16403143F0BC02F0A4B80CED00E0D7
:1018E000064900F0070208684FF6FF03184040EA77
:1018F0000220034A10430860704700000CED00E02E
:101900000000FA0510B529A401461DCC86B08DE86B
:101910001D002AA02A4C006804900020012923D031
:1019200002293AD010291DD161682268D20119D547
:10193000C1F38342C9031DF8020009D5616804AAF6
:10194000C1F34041515C1F4AB2FBF1F1484301E051
:101950001D4948436168490204D440005FF0030117
:10196000B0FBF1F006B010BD226AC2F301210129DB
:1019700003D1920701D5C803F4E7022905D1626AB1
:10198000920702D549F64040ECE70329EAD12168E5
:101990008903E7D54FF22440E4E700F033F96168AA
:1019A000C1F38131491C4900DAE700000203040554
:1019B000060708090A0B0C0D0E0F1010010200009B
:1019C0000010024000127A0000093D002DE9F843A2
:1019D00005460078354CC00754D0E0690026C000A9
:1019E00008D4E06940F08050E061E069012600F031
:1019F000805000902E480168C90512D401688046C5
:101A000041F480710160FFF735FC074605E000BF37
:101A1000FFF730FCC01B642823D8D8F80000C005AD
:101A2000F6D5206A10F4407021D0A98801F44071E5
:101A300081421CD0206A1F49012220F440700A60B4
:101A400000220A602062C00711D0FFF713FC07468E
:101A500041F2883808E000BFFFF70CFCC11B41458C
:101A600002D90320BDE8F883206A8007F4D5206AF4
:101A7000696820F44070084320621EB1E06920F0DC
:101A80008050E0612878800705D56068A96820F457
:101A90004040084360602878C00605D56068E96862
:101AA00020F48000084360600020DBE70010024063
:101AB00000700040400442422DE9F0470F46050007
:101AC00061D0434E306800F00700B84209D2306858
:101AD00020F0070038433060306800F00700B8425B
:101AE00051D128683B4C810712D5400703D5606867
:101AF00040F4E06060602878000703D5606840F437
:101B0000605060606068A96820F0F0000843606081
:101B10002878C00728D06868012810D021680228DA
:101B200010D0890700292EDA616821F003010143F2
:101B30006160FFF79FFB804641F288390DE0216824
:101B40008903EFE78901EDE7FFF794FBA0EB0801BC
:101B5000494502D90320BDE8F0876068696800F054
:101B60000C00B0EB810FEFD1306800F00700B842F5
:101B70000BD9306820F0070038433060306800F03F
:101B80000700B84201D00120E5E72878400705D5D5
:101B90006068E96820F4E060084360602878000726
:101BA00006D56068296920F4605040EAC100606091
:101BB00000F038F86168084AC1F30311515CC8406D
:101BC0000649086006480068FFF71EFE0020C2E7CD
:101BD0000020024000100240B84D0008B80000206C
:101BE000B00000200448054900684968044AC1F370
:101BF0000221515CC8407047B8000020001002402C
:101C0000C84D00080448054900684968044AC1F302
:101C1000C221515CC8407047B8000020001002404B
:101C2000C84D000812A185B00FC98DE80F0014A09F
:101C3000144A006804905168134801F00C03042B07
:101C400010D0082B0ED1C1F38343C9031DF8030044
:101C50000AD5516804AAC1F34041515C0A4A504375
:101C6000B0FBF1F005B0704708494843FAE70000BF
:101C700002030405060708090A0B0C0D0E0F1010CD
:101C8000010200000010024000127A0000093D002D
:101C90002DE9F84F040070D02078C04DC00749D01E
:101CA0006868C0F38100012807D06868C0F381002C
:101CB000022809D16868C00306D52868800339D591
:101CC00060680028E7D035E06068B0F5803F0BD051
:101CD00010B1B0F5A02F11D0286820F48030286012
:101CE000286820F4802002E0286840F480302860D2
:101CF000606890B1FFF7BEFA06460AE0286840F433
:101D000080202860F0E700BFFFF7B4FA801B64284A
:101D100073D828688003F7D50CE0FFF7ABFA0646C6
:101D200005E000BFFFF7A6FA801B6428F0D82868FA
:101D30008003F7D420789A4E80074FF001094FF0C6
:101D4000000839D5686810F00C0F07D06868C0F338
:101D50008100022809D16868C00306D4286880077A
:101D600014D52069012808D110E02069B0B1C6F867
:101D70000090FFF77FFA074605E00AE1FFF77AFADD
:101D8000C01B0228C4D828688007F7D52868616975
:101D900020F0F80040EAC10028600DE0C6F800809D
:101DA000FFF768FA074604E0FFF764FAC01B022851
:101DB00023D828688007F7D4207800072CD57948E5
:101DC000A169D9B1C0F80090FFF754FA074604E0C2
:101DD000FFF750FAC01B02280FD8686A8007F7D5B2
:101DE00071484FF4FA510068B0FBF1F0009000BF69
:101DF0000098411E0091FAD20EE080E0C0F8008009
:101E0000FFF738FA074604E0FFF734FAC01B022850
:101E100075D8686A8007F7D42078400760D5E869EC
:101E20000027C00008D4E86940F08050E861E86904
:101E3000012700F0805000905C480168C90513D468
:101E40000168834641F480710160FFF713FA82460E
:101E500006E000BFFFF70EFAA0EB0A0064284ED898
:101E6000DBF80000C005F5D5E06801280AD008B10C
:101E7000052813D0286A20F001002862286A20F083
:101E8000040002E0286A40F001002862E06841F2A4
:101E9000883B98B1FFF7EEF982460BE0286A40F0E4
:101EA00004002862EEE700BFFFF7E4F9A0EB0A01A7
:101EB00059455AD8286A8007F6D50CE0FFF7DAF9B9
:101EC000824605E0FFF7D6F9A0EB0A0159454CD848
:101ED000286A8007F6D41FB1E86920F08050E861D5
:101EE000E06988B36968C1F38101022944D00228FE
:101EF000C6F8608004D0FFF7BDF9044638E034E04E
:101F0000FFF7B8F9074604E0FFF7B4F9C01B022851
:101F10002BD828688001F7D4206AB0F5803F05D11E
:101F20006868A16820F4003008436860D4E90801BB
:101F30000843696821F4741108436860C6F860902A
:101F4000FFF798F9044606E025E000BFFFF792F995
:101F5000001B022809D828688001F7D51BE000BFC4
:101F6000FFF788F9001B022802D90320BDE8F88F8B
:101F700028688001F4D40EE00128F7D06868226A4E
:101F800000F48031914204D1616A00F470108842FB
:101F900001D00120EAE70020E8E70000001002403D
:101FA0000000424280044242B8000020007000401D
:101FB00010B5401EB0F1807F01D3012010BD4FF05D
:101FC000E02460610F21601701F02CFD0020A0616A
:101FD00007202061002010BD7047704710B590F8B1
:101FE0003C20012A22D0012280F83C20CA688C685B
:101FF00022F4407222434C6822F4806222430C682F
:1020000022F4006222430C6922F4805222434C697C
:1020100022F400522243C969002322F480420A4379
:1020200001684A6480F83C30002010BD022010BDD9
:1020300070B590F83C20012A26D0012480F83C405D
:10204000022280F83D2003685A689D6822F07006DD
:102050000A6832435A600D4B02689A4208D0B2F1C6
:10206000804F05D00A4B9A4202D00A4B9A4204D1C3
:10207000496825F080031943916080F83D400021B4
:1020800080F83C10084670BD022070BD002C014055
:10209000000400400008004010B5040003D094F88C
:1020A0003D0010B107E0012010BD002084F83C0085
:1020B000204600F01FF8022084F83D00211D206812
:1020C00001F0F4FA012084F8460084F83E0084F818
:1020D0003F0084F8400084F8410084F8420084F80E
:1020E000430084F8440084F8450084F83D00002053
:1020F00010BD000008B5234A01682348914208D169
:10210000816941F400618161806900F400600090A0
:1021100008BDB1F1804F11D01C4A91421DD1C16957
:1021200041F00201C161C069002200F0020000908C
:1021300001211D20FFF7B4FB1D201FE0C16941F004
:102140000101C161C069002200F001000090114648
:102150001C20FFF7A5FB1C2010E00D4A9142D7D1AF
:10216000C16941F00401C161C069002200F00400AE
:10217000009002211E20FFF793FB1E20BDE80840BF
:10218000FFF780BB002C014000100240000400401B
:102190000008004090F83D10012901D0012070474F
:1021A000022180F83D100168CA6842F00102CA604D
:1021B00000680B49884208D0B0F1804F05D009492A
:1021C000884202D00849884204D1816801F00701A1
:1021D000062903D0016841F0010101600020704729
:1021E000002C0140000400400008004070B5044687
:1021F00090F83C00012817D0012584F83C500220BB
:1022000084F83D002068826822F0770222F47F4241
:1022100082600868502830D00DDC20284DD005DCC5
:1022200098B310283BD148E0022070BD302844D03C
:10223000402834D139E0602828D0702806D0B0F585
:10224000805F2CD0B0F5005F29D10AE0CB68D1E9DE
:102250000121206801F06DFA2068816841F0770162
:1022600009E0CB68D1E90121206801F062FA206819
:10227000816841F48041816011E0CA684968206842
:1022800001F00CFB5021206807E016E0CA6849689D
:10229000206801F014FB6021206801F054FA84F8F2
:1022A0003D50002084F83C0070BDCA684968206831
:1022B00001F0F4FA40212068EFE722680146104659
:1022C000EBE7704770B50446006801694FF0000500
:1022D000C943890715D4C168C943890711D4E91EC8
:1022E000016101202077206880698007204602D0A4
:1022F000FFF7E7FF04E000F0BFF8204600F04EF9DA
:10230000257720680169C943490717D4C168C943C3
:10231000490713D46FF0040101610220207720687F
:10232000806910F4407F204602D0FFF7CAFF04E026
:1023300000F0A2F8204600F031F925772068016905
:10234000C943090716D4C168C943090712D46FF0FD
:1023500008010161042020772068C06980072046B9
:1023600002D0FFF7AEFF04E000F086F8204600F050
:1023700015F9257720680169C943C90617D4C168D2
:10238000C943C90613D46FF01001016108202077FA
:102390002068C06910F4407F204602D0FFF791FF0B
:1023A00004E000F069F8204600F0F8F8257720688E
:1023B0000169C943C90708D1C168C943C90704D124
:1023C000891E0161204600F039F920680169C9437E
:1023D000090609D4C168C943090605D46FF0800114
:1023E00001612046FFF7F8FD20680169C9434906ED
:1023F00009D4C168C943490605D46FF040010161A1
:10240000204600F01CF920680169C94389060BD4F5
:10241000C168C943890607D46FF0200101612046D5
:10242000BDE87040FFF7D9BD70BD000000B585B0B4
:102430000021009101910291039100680B498842AB
:1024400012D10B48816941F00401816180696946BC
:1024500000F0040004904FF4E0600090022001902E
:1024600003900448FEF710FE05B000BD002C0140AB
:102470000010024000080140704770B5044690F813
:102480003C000D4601280AD0012084F83C0042B1EE
:10249000042A18D0082A2AD00C2A4DD139E002206B
:1024A00070BD206801F058F92068816941F0080189
:1024B00081612068816921F004018161206881695E
:1024C0002A69114311E0206801F06EF920688169E2
:1024D00041F4006181612068816921F4806181613A
:1024E000206881692A6941EA0221816124E020682B
:1024F00001F086F92068C16941F00801C1612068D6
:10250000C16921F00401C1612068C1692A691143D0
:1025100011E0206801F0A0F92068C16941F4006170
:10252000C1612068C16921F48061C1612068C1690D
:102530002A6941EA0221C161002084F83C0070BD93
:1025400010B5040003D094F83D0010B107E001205D
:1025500010BD002084F83C00204600F01EF8022048
:1025600084F83D00211D206801F0A0F8012084F8C6
:10257000460084F83E0084F83F0084F8400084F868
:10258000410084F8420084F8430084F8440084F851
:10259000450084F83D00002010BD704770470000E2
:1025A00010B50446022249B104290ED0082913D0DF
:1025B00094F84100012816D0012010BD94F83E0087
:1025C0000128F9D184F83E200FE094F83F0001285B
:1025D000F2D184F83F2008E094F840000128EBD1C4
:1025E00084F8402001E084F841200122206801F0B5
:1025F00093F80F492068884203D1426C42F40042AC
:1026000042642068884208D0B0F1804F05D0094963
:10261000884202D00849884204D1816801F007014C
:10262000062903D0016841F001010160002010BDBE
:10263000002C014000040040000800407047704733
:1026400070B5040004D094F83D00002510B106E0F8
:10265000012070BD84F83C50204600F023F824206F
:1026600084F83D002068C16821F40051C160204613
:1026700001F038F92068016921F490410161206876
:10268000416921F02A0141612068C16841F400518B
:10269000C1602564202084F83D0084F83E000020BD
:1026A00070BD000030B585B0002400940194029400
:1026B000039400681449884223D11448C16941F445
:1026C0000031C161C16901F400310491816941F0B7
:1026D0000401816180690E4D00F004000490042023
:1026E0000090022001900320039069462846FEF7DF
:1026F000CBFC0820CDE90004694628460294FEF789
:10270000C3FC05B030BD0000004400400010024092
:10271000000801402DE9F843044690F83D001F46AB
:1027200016460D4620284CD1C5B1BEB194F83C00E8
:10273000012846D0012084F83C004FF00008C4F87E
:102740004080212084F83D00FEF794FDA684814658
:10275000E684A068B0F5805F03D004E00120BDE806
:10276000F883206928B12E465FF0000584F83C808C
:102770000EE00026FAE78021204601F00FF9A0B90B
:10278000AEB116F8010B21684860E08C401EE08471
:10279000E08C4B464FF0000200970028EBD14FF041
:1027A0004001204601F0FAF830B10320D7E735F8B0
:1027B000020BC0F30800E6E7202084F83D0000206B
:1027C000CDE70220CBE7FEE701684A69D243520514
:1027D0000FD46FF480624A61002140F8301F20223C
:1027E00042738173026942F00402026101730120A5
:1027F00070470020704700002DE9F84F0446C06A7A
:102800001E4693460D4621680A6842F480620A60BB
:10281000082807D0012805D010F5803F02D0206B92
:10282000112804D12068016841F4807101604FF0E3
:1028300001195B46002249462046009600F0C6F882
:102840004FF4007840B120680068C00501D5C4F895
:1028500040800320BDE8F88F2069DFF884A0B0F540
:10286000804F0FD00620216800EAD51747F0F0000E
:10287000086133465A460AF10601204600F0DAF8AC
:1028800058BB03E0E8B240F001001CE02168E8B268
:10289000086133465A465146204600F0CBF8E0B96D
:1028A0002068416981690091016841F4807101608B
:1028B0005B46002249462046009600F087F8002833
:1028C000C1D147F0F1002168086133465A465146AC
:1028D000204600F0AFF80028BCD00120BAE7000085
:1028E00002000100F8B50446C06A1E460D461746B0
:1028F000082807D0012805D010F5803F02D0206BB2
:10290000122804D12068016841F4807101601346E7
:1029100000224FF001112046009600F057F840B118
:1029200020680068C00502D54FF4007020640320C1
:10293000F8BD2069B0F5804F0ED00620216800EA6E
:10294000D51040F0F000086133463A460B49204666
:1029500000F070F878B902E005F0FE0000E0E8B29F
:1029600021680861054933463A46891F204600F030
:1029700061F80028DCD00120F8BD0000080001004B
:1029800070B516460D4604460DE02046FFF71CFFC5
:1029900008B1012070BD681C05D0FEF76BFC801BE0
:1029A000A84207D835B120684069C0434007ECD43D
:1029B000002070BD002044F8300F20216173A07307
:1029C000216941F0200121612073E2E72DE9F04700
:1029D0001E4690460D460446C1F30747DDF8209099
:1029E00008E0701C06D0FEF745FCA0EB0900B042E1
:1029F0000FD876B12068012F18D0806925EA000031
:102A00000004000C14D000214145EAD00020BDE8AC
:102A1000F087002044F8300F20216173A0732169F2
:102A200041F02001216120730120F0E74069E5E7D2
:102A30000121E9E72DE9F0479A4691460E46044602
:102A400000254FF02008C1F3074725E020684069C2
:102A5000C043400514D42068016841F4007101604E
:102A600021686FF480604861256384F83D8084F8B4
:102A70003E50206C40F00400206484F83C501FE07D
:102A8000B9F1FF3F08D0FEF7F5FBA0EB0A0149457D
:102A90000CD8B9F1000F09D02068012F13D080693C
:102AA00026EA00000004000C0BD0CFE744F8305FAA
:102AB00084F80D80A573206940F020002061257303
:102AC0000120BDE8F0874069EAE72DE9F0410025E3
:102AD00090460E460446202717E04069C043C006D2
:102AE0000CD454F8301B6FF01000486144F81059B2
:102AF0006777A577206A2062257717E0FEF7BAFB93
:102B0000A0EB0800B04208D83EB120684169C94333
:102B10004906E2D40020BDE8F08144F8305F6773D5
:102B2000A573206940F02000206125730120F2E7A1
:102B300070B516460D4604460DE02046FFF744FEEC
:102B400008B1012070BD681C05D0FEF793FB801B07
:102B5000A84207D835B120684069C0430006ECD4CC
:102B6000002070BD002044F8300F20216173A07355
:102B7000216941F0200121612073E2E770B5FDF782
:102B8000DEFD0B4A0B4BFDF76AFC0B4D06460C466F
:102B9000286AFDF7D4FD094A094BFDF760FC32466F
:102BA0002346FDF7B5FBFDF70DFE286270BD000062
:102BB0009A9999999999B93F64000020CDCCCCCCD1
:102BC000CCCCEC3F70B5FDF7BAFD0B4A0B4BFDF7D3
:102BD00046FC0B4D06460C46E869FDF7B0FD094A78
:102BE000094BFDF73CFC32462346FDF791FBFDF710
:102BF000E9FDE86170BD00009A9999999999B93FEA
:102C000064000020CDCCCCCCCCCCEC3F2DE9F04105
:102C1000FDF795FD0B4E0C4B3246FDF720FC0B4D9E
:102C200004460F46686AFDF78AFD3246084BFDF7F9
:102C300016FC22463B46FDF76BFBFDF7C3FD6862C1
:102C4000BDE8F0819A9999999999C93F640000204B
:102C50009999E93F3EB500241048009401940294EC
:102C60000D498460016001250573047505614FF409
:102C700060214460C161FEF725F808B1FDF79EFFB1
:102C8000CDE90045694605480294FDF799FF002803
:102C900001D0FDF793FF3EBD00240140C400002099
:102CA0003EB5002410480094019402940D498460BC
:102CB000016001250573047505614FF460214460CE
:102CC000C161FDF7FFFF08B1FDF778FF0095CDE981
:102CD000015469460448FDF773FF002801D0FDF751
:102CE0006DFF3EBD00280140F40000202DE9F043B7
:102CF00085B00024254800940194029403948169CE
:102D000041F010018161816901F010010491816934
:102D100041F020018161816901F020010491816904
:102D200041F004018161816901F00401049181692C
:102D300041F0080181618069DFF8548000F00800EB
:102D40004FF400550490002229464046FEF78CFAC5
:102D5000DFF840904FF40167002239464846FEF7FD
:102D600083FA0095022601250396CDE901546946B0
:102D70004046FEF789F900970396CDE9015469466C
:102D80004846FEF781F905B0BDE8F0830010024027
:102D900000100140000801400D4810B50B490160CA
:102DA0000C49416000214FF480428160C0E9031268
:102DB00041618161C1610162FEF762FA002803D0BE
:102DC000BDE81040FDF7FABE10BD00000054004001
:102DD00024010020A086010010B596B000240F94B5
:102DE00010941194129413941C2168461494FDF7C6
:102DF000B0F9202107A8FDF7ACF931482F4901604F
:102E0000022141602021816040F2AF41C0E90314FA
:102E10008021C0E90541FFF73FF908B1FDF7CEFE7B
:102E20004FF480500F900FA92548FFF7DFF908B144
:102E3000FDF7C4FE2248FFF783FB08B1FDF7BEFE95
:102E4000139413A91E481494FFF7F2F808B1FDF784
:102E5000B5FE6020CDE90004029403940494059427
:102E60000022694616480694FFF707FB08B1FDF7F4
:102E7000A5FE042269461248FFF7FFFA08B1FDF7E4
:102E80009DFE082269460E48FFF7F7FA08B1FDF7E4
:102E900095FE0794089409944FF400500A94CDE9E4
:102EA0000B4007A906480E94FFF798F808B1FDF704
:102EB00085FE0348FFF7BAFA16B010BD002C01409A
:102EC0007801002010B586B00024164800940194C3
:102ED0000294039404944FF080410594016040F201
:102EE000CF21C0E901146321C0E903148461FFF715
:102EF000D3F808B1FDF762FE4FF4805000906946A8
:102F00000848FFF773F908B1FDF758FE049404A9C7
:102F100004480594FFF78CF8002801D0FDF74EFE19
:102F200006B010BDC001002010B586B000241748BF
:102F3000009401940294039404941349059401604D
:102F400040F26711C0E9011440F28F11C0E9031487
:102F50008461FFF7A1F808B1FDF730FE4FF480500F
:102F6000009069460948FFF741F908B1FDF726FED0
:102F7000049404A905480594FFF75AF8002801D0E5
:102F8000FDF71CFE06B010BD000400400802002042
:102F900010B586B00024174800940194029403945D
:102FA000049413490594016040F2CF21C0E9011453
:102FB00040F28F11C0E903148461FFF76DF808B186
:102FC000FDF7FCFD4FF48050009069460948FFF77B
:102FD0000DF908B1FDF7F2FD049404A90548059424
:102FE000FFF726F8002801D0FDF7E8FD06B010BD78
:102FF00000080040500200200C4810B50A4901604A
:103000004FF4E1314160002181600C22C160C0E9D0
:1030100004128161C161FFF713FB002803D0BDE8F2
:103020001040FDF7CBBD10BD0044004098020020C9
:10303000FEE7FEE72DE9F047294C8146294FE1687C
:10304000FDF7EAF8E16C80468A464846FDF78CF8C1
:10305000FDF775FB05460E463946E069FDF7DCF8DD
:10306000FDF76DFB4FF0FF32FDF7DAFA2A463346E3
:10307000FDF7F5F905460E46E06BFDF760FB2A46C5
:103080003346FDF745F9FDF79DFB05465146484699
:10309000FDF7BCF8A16AFDF7BFF83946FDF7EEF879
:1030A000064629464046FDF75FF83146FDF75CF8D5
:1030B0000646606D314680F00040FDF79FFB03D26D
:1030C000606D80F0004605E03046616DFDF796FBCF
:1030D00000D2666DC4F84C903046E563BDE8F087D9
:1030E0000C0000206F12833B2DE9F047214C8146F4
:1030F0001F4E2168FDF790F8216C80468A464846AD
:10310000FDF732F8FDF71BFB05460F4631462069F7
:10311000FDF782F8FDF713FB4FF0FF32FDF780FA61
:103120002A463B46FDF79BF905460F46206BFDF707
:1031300006FB2A463B46FDF7EBF8FDF743FB054649
:1031400051464846FDF762F8216AFDF765F83146B9
:10315000FDF794F8064629464046FDF705F8314646
:10316000FDF702F8C4F840902563BDE8F087000041
:103170006F12033B0C0000202DE9F047214C8146E3
:103180001F4E6168FDF748F8616C80468A464846E4
:10319000FCF7EAFFFDF7D3FA05460F4631466069B2
:1031A000FDF73AF8FDF7CBFA4FF0FF32FDF738FAAA
:1031B0002A463B46FDF753F905460F46606BFDF77F
:1031C000BEFA2A463B46FDF7A3F8FDF7FBFA054693
:1031D00051464846FDF71AF8616AFDF71DF8314679
:1031E000FDF74CF8064629464046FCF7BDFF314640
:1031F000FCF7BAFFC4F844906563BDE8F0870000AF
:103200006F12033B0C00002011484FF07D51134A10
:10321000016510494165104981604FF07C51816121
:103220000021816281638164C161C162C163C26046
:10323000C1640B4A426041620A4A4163426141648F
:1032400001610162084A0163026001647047000085
:103250000C0000200000C8416F12033C0000A04198
:10326000000020410000FA440000A0402DE9F84F82
:10327000444C454F82464FF0FF38B946A168FCF7F1
:10328000CBFF00905046A16CFCF76EFFFDF757FA9C
:1032900005460E463946A069FCF7BEFFFDF74FFA1A
:1032A00047464246FDF7BCF933462A46FDF7D7F8B4
:1032B00005460E46A06BFDF742FA33462A46FDF757
:1032C00027F8FDF77FFA0546206D80F00040FDF7F6
:1032D00036FA3A46FDF7A4F906460F462846FDF7AA
:1032E0002EFA8B46054632463B46FDF73BFA206DEB
:1032F00005D280F00040FDF722FA424610E0FDF7CB
:103300001EFA46464246FDF78BF902460B46284612
:103310005946FDF73FFA06D2206DFDF710FA324606
:10332000FDF77EF901E028465946FDF74BFA0646BF
:103330005046A16CFCF76AFFA16AFCF76DFF494695
:10334000FCF79CFF054631460098FCF70DFF294627
:10335000FCF70AFF0546206D294680F00040FDF786
:103360004DFA03D2206D80F0004505E02846216D1E
:10337000FDF744FA00D2256DC4F848A02846A6639C
:10338000BDE8F88F0C0000206F12833B7047704738
:10339000FEF720BA30B593B028216846FCF7D9FE75
:1033A00014210AA8FCF7D5FE002501200F951095E1
:1033B0001195010412958DE8230004904FF4E0105C
:1033C000CDE90810022407946846FEF761FC08B1B5
:1033D00072B6FEE70AA90F2081E831004FF4806041
:1033E000CDE90D0502210AA8FEF766FB08B172B609
:1033F000FEE74FF4004011900F940FA8FEF7E6FA95
:10340000002801D072B6FEE713B030BD704700004F
:103410002DE9F05F5D48FEF755FF01F063F85C4C65
:103420005C492061FCF7F8FE20605B48FDF746FC34
:10343000A0625A48FDF742FCA16A74307431C4E9B5
:103440000A1005460846FDF702F96FF00B084146E1
:10345000FCF752FFFDF773F9DFF844914FF0663245
:103460004B46FCF7FCFFDFF83CA14FF066325346B9
:10347000FCF7EFFF4C4A4D4BFDF763F8DFF830B136
:1034800000225B46FDF75DF8FDF79CF9494F0646C3
:1034900038602846FDF7DBF84146FCF72DFFFDF7C5
:1034A0004EF94FF066324B46FCF7D9FF4FF06632CB
:1034B0005346FCF7CEFF3C4A3C4BFDF742F8002256
:1034C0005B46FDF73EF8FDF77DF978602663FDF772
:1034D00036F9DFF8E480394B4246FCF7C0FF074677
:1034E0000D463046FDF72BF94246354BFCF7B7FF4A
:1034F0003A462B46FCF70CFFFDF764F96063206841
:1035000000F09CFB206000F051FF616BFCF784FE33
:103510000546206800F0B2FA216BFCF77DFE2946D3
:10352000FCF722FE04F140052860206800F03EFF11
:10353000216BFCF771FE0646206800F09FFA616B74
:10354000FCF76AFE3146FCF761FE68602868FFF709
:1035500015FB28606868FFF735FB6860E061286844
:103560002062D4E90401FCF751FEFDF7E8F8154AA2
:10357000154BFCF7E6FFFDF725F9A061FFF746FBC9
:10358000A06120696061BDE8F09F0000C0010020DB
:103590006400002000006041C4000020F40000200E
:1035A00066660A406666FA3F7B14AE47E17A843F5E
:1035B00000004940DC02002047409045A779F23FD7
:1035C000A779E23FFCA9F1D24D62503F70B50D489A
:1035D000FEF778FE0C4EA6F140043168A068FCF7B7
:1035E00015FEFFF781FD80F0004571686068FCF70B
:1035F0000DFEFFF7C1FD29462268BDE8704001F0CD
:10360000EFB8000008020020A400002070B51E489A
:10361000FEF758FE1D4CE068FDF791F81C4A1D4B63
:10362000FCF71DFFFDF7CEF800F0C0FEFDF787F8B0
:10363000194A1A4BFCF713FF0022194BFCF768FEDE
:10364000FDF7C0F80546E063E068FDF778F8154A35
:10365000154BFCF75DFEFDF7B5F80026E060B0F114
:103660007E5F00DDE66028462169FCF7CFFDFFF7AD
:10367000E1FCA063A169FCF7C9FDFFF7F7FD80F04D
:103680000040C4E9010670BD500200206400002023
:103690001F85EB51B81E1940BF58F28B25BFF03F74
:1036A00000001440FCA9F1D24D62703FF0B50268F1
:1036B000164B174C174D4FF08047984205D0B84233
:1036C00003D0A04201D0A84203D122F070064A687C
:1036D0003243984205D0B84203D0A04201D0A8425C
:1036E00003D122F44074CA6822434C6922F080025C
:1036F000224302608A68C2620A688262984201D1EB
:103700000969016301214161F0BD0000002C014005
:10371000000400400008004010B501F01F03012123
:10372000046A99408C430462016A9A401143016221
:1037300010BD10B5846842EA032224F47F440A4392
:103740002243826010BD826822F070020A4342F078
:10375000070181607047000030B5026A22F0010263
:103760000262026A4368846924F073050C682C4382
:1037700022F002058A682A430A4DA8420BD122F0A2
:103780000805CA6823F440732A434D6922F00402F5
:103790001D438B692B434360846149684163026226
:1037A00030BD0000002C014030B5026A22F010024A
:1037B0000262026A436884690D6824F4E64444EABC
:1037C00005248D6822F0200242EA05120B4DA84222
:1037D0000ED1CD6822F0800242EA05124D6923F431
:1037E000406343EA85038D6922F0400243EA850382
:1037F0004360846149688163026230BD002C0140EE
:1038000030B5026A22F480720262036A4268C469B7
:1038100023F4007324F073050C682C438D6843EA8D
:1038200005230C4DA8420ED1CD6823F4006343EA72
:1038300005234D6922F4405242EA05128D6923F4B2
:10384000806342EA05124260C4614968C163036251
:1038500030BD0000002C014030B5026A22F48052D5
:103860000262046A4268C3690D6823F4E64343EACE
:1038700005238D6824F4005444EA0534064DA8421B
:1038800004D14D6922F4804242EA85124260C3614C
:1038900049680164046230BD002C014010B5036A20
:1038A000046A24F001040462846924F0F00444EA08
:1038B000021423F00A020A438461026210BD10B5AB
:1038C000036A23F0100303628369046A23F47043DC
:1038D00043EA023224F0A00343EA0111826101624B
:1038E00010BD000070B5044600680169E26821F46B
:1038F0004051114301612169A0680843616908438F
:103900002168CA6841F20C639A430243CA60206886
:103910004169A26921F44071114341611E49206847
:10392000884202D1FEF76EF901E0FEF75BF900EB89
:10393000C00101EB0012606864218000B2FBF0F36B
:10394000B3FBF1F36FF018067343B2FBF0F5B2FB73
:10395000F0F605EB8305322303EB0515B5FBF1F516
:10396000B6FBF1F605F0F00505EB0615B2FBF0F637
:10397000B2FBF0F0B0FBF1F06FF01802504306EB31
:10398000800003EB0010B0FBF1F0216800F00F00A5
:103990002844886070BD0000003801402DE9F041E6
:1039A000984617460E460446069D1DE0681C1BD02F
:1039B0002DB1FDF75FFCA0EB0800A84214D92068E8
:1039C000C16821F4D071C1602068416921F0010112
:1039D0004161202084F83D0084F83E00002084F8F6
:1039E0003C000320BDE8F0812068006836EA000052
:1039F00004D00020B842D9D00020F3E70120F9E735
:103A0000FEE700000FB4054B10B503A9044A029865
:103A100000F034F910BC5DF814FB000055460008B6
:103A2000BC0000200907090E002804DB00F1E0209B
:103A300080F80014704700F00F0000F1E02080F8DB
:103A4000141D70470022134610461146FCF779BD3D
:103A500002E008C8121F08C1002AFAD17047704757
:103A6000002001E001C1121F002AFBD170470000B5
:103A70000149086070470000C000002070B506468C
:103A8000FCF75DFE0F4A104BFCF742FCFCF79AFE78
:103A900004460E4D3046FCF752FE0A4A0A4BFCF72C
:103AA00037FCFCF78FFEFCF74AFEAC4203DB084A0A
:103AB000084BFCF7CEFCFCF785FEBDE8704000F03B
:103AC00075BC0000F4D64354FB21F93FDB0FC9401D
:103AD000EA2E4454FB2119402DE9FF5FDDE9022065
:103AE000010DDDF838B0024318D044F61050A1F2B1
:103AF000FF3141430D140F98012820D0A5EB0B0096
:103B0000401C5FEA000A4FF00004474EDFF81C91AA
:103B1000A046504616D5CAF1000728E00F980124A8
:103B200043A2012808D0002100980F9BC0E9002182
:103B3000C0E90243BDE8FF9F6FEA0B01F4E7CBF158
:103B40000000DEE7074612E0F80707D022463346BA
:103B500040464946FCF783FC804689462246334668
:103B600010461946FCF77BFC04460E467F10002FDA
:103B7000EAD1DDE90201BAF1000F42464B4602DA12
:103B8000FCF76DFC01E0FCF7DCFC04460E4600226D
:103B9000284BFCF7FFFD03D84FF0FF30014607E04C
:103BA0000022254B20463146FCF7B2FBFCF76FFFA5
:103BB000102409E0002C0ADB0A220023FCF73EFE59
:103BC000019B30321A55641E50EA0102F2D1641C86
:103BD000019AC4F1110314440F9A012A03D001225F
:103BE00008430DD10AE0084304D000204FF0110B28
:103BF0000F9080E7A3EB0B056D1E0DE05B4504DD28
:103C00004FF0000205F1010504E003DA4FF0000275
:103C1000A5F10105002AECD000980F99C0E9023106
:103C2000C0E9004586E70000000024400000F03FA6
:103C3000300000000000F0430000E03F70B5FCF7EA
:103C40007EFD0C4C0C4D22462B4600F0B9FCFCF7D7
:103C5000B9FD10F1FF4F02D2FCF771FD05E0FCF752
:103C60006EFD22462B46FCF753FBBDE87040FCF787
:103C7000A9BD0000EA2E4454FB2119402DE9FF4F55
:103C800095B09B468946064600250FE2252877D148
:103C900000242746F84A0121059400E0044316F861
:103CA000013F203B01FA03F01042F7D130782A2877
:103CB00011D06FF02F033078A0F13002092A16D806
:103CC000059A44F0020402EB820203EB4202104424
:103CD000761C0590EFE759F8042B0592002A03DAC9
:103CE000504244F40054059044F00204761C3078AD
:103CF0002E2816D116F8010F44F004042A280DD0FE
:103D00006FF02F023078A0F13003092B09D807EBB0
:103D1000870302EB4303C718761CF3E759F8047BCB
:103D2000761C30786C280FD006DC4C2817D0682819
:103D30000DD06A2814D104E0742810D07A280FD14D
:103D40000DE044F400140AE044F4801401E044F46B
:103D500040147278824202D104F58014761C761CDD
:103D6000307866280BD013DC582877D009DC00287F
:103D700075D04528F6D04628F4D047281AD19DE1C1
:103D800018E0632835D0642879D0652812D195E1F0
:103D9000702873D008DC6728F1D069286FD06E28AE
:103DA0000DD06F2806D1B5E073282CD0752875D0BA
:103DB000782874D05A46179990476D1C75E1C4F362
:103DC0000250022809D003280DD0D9F80010042889
:103DD0000DD00D6009F1040967E1D9F80010EA1768
:103DE000C1E90052F6E7D9F800100D80F2E70D7036
:103DF000F0E719F8041B8DF8001000208DF8010081
:103E0000EA46012003E059F804AB4FF0FF306107A8
:103E10004FF0000102D40DE008F101018846B942DB
:103E20000FDA8045F8DB1AF808100029F4D108E011
:103E300008F1010188468142FADB1AF808100029CE
:103E4000F6D105985B46A0EB080721463846179A3D
:103E500000F094FA284400EB080507E04DE029E162
:103E60000DE01AF8010B5A4617999047B8F101086E
:103E7000F7D25B4621463846179A13E142E00A2200
:103E80000092C4F302524FF0000A022A08D059F8F7
:103E900004CB032A4FEAEC710AD00DE029E02AE0B6
:103EA00009F1070121F00702F2E802C1914609E099
:103EB0000FFA8CFC4FEAEC71042A03D14FFA8CFC08
:103EC0004FEAEC71002907DA0A460021DCF1000C08
:103ED00061EB02012D2202E0220504D52B228DF890
:103EE0000420012203E0E20701D02022F7E79046F8
:103EF00059E00A2102E010220DE010214FF0000AE3
:103F000000910BE010224FF0000A44F0040408274F
:103F1000009203E008224FF0000A0092C4F302521C
:103F2000022A05D059F804CB0021032A08D009E061
:103F300009F1070121F00702F2E802C1914605E00C
:103F40001FFA8CFC042A01D10CF0FF0C4FF0000882
:103F5000220728D5702806D0009B83F0100353EA6F
:103F60000A0305D00EE040228DF80420012208E06B
:103F70005CEA010206D030228DF804208DF805009D
:103F800002229046009B83F0080353EA0A030AD1F9
:103F90005CEA010201D1620705D530228DF80420C8
:103FA0004FF001087F1E582804D034A003900EA8BB
:103FB00002900DE036A0F9E753466046009AFCF700
:103FC0003DFC84460398825C0298401E0290027079
:103FD0005CEA0100F0D1029806A9081A00F1200A53
:103FE000600702D524F4803400E00127574502DD44
:103FF000A7EB0A0000E0002000EB0A010090059802
:104000004144401A0590E00306D45B462146179AC6
:10401000059800F0B3F90544002706E001A85A46C8
:10402000C05D179990476D1C7F1C4745F6DBE00388
:104030000CD55B462146179A059800F09FF9054478
:1040400004E030205A46179990476D1C0099481E8D
:1040500000900029F5DC08E0029802995A460078A1
:10406000491C0291179990476D1CBAF10001AAF101
:10407000010AF1DC65E1000009280100303132332A
:104080003435363738396162636465660000000094
:10409000303132333435363738394142434445467E
:1040A0000000000000F058F90544761C3078002824
:1040B0007FF4ECAD19B02846BDE8F08F620700D45C
:1040C000062709F1070222F0070CFCE80223E1466B
:1040D00003F000485FEA080C02D00FF2702C0DE0EC
:1040E0005FEA045C02D50FF2682C07E05FEAC47C4B
:1040F00002D00FF2602C01E0AFF2700C4FF0FF38ED
:1041000023F00043CDF850C065280CD006DC4528CC
:1041100009D046281DD047283DD13DE0662818D05B
:1041200067287ED138E00021112F01DB112000E04B
:10413000781CCDE9000106A90EA8FFF7CDFCDDE94A
:104140000F010E9A03910021009207F1010A0491D8
:104150004DE04FF000400097CDE9011006A90EA8F0
:10416000FFF7BAFCDDE90F0203920E9B11990022C2
:10417000DDF80CA00093049211B9791C00EB010A40
:10418000B7EB0A0004D4C0F1FF3007F1010A049034
:10419000AAEB0700019044E0012F00DA012700217B
:1041A000112F01DD112000E03846CDE9000106A9FC
:1041B0000EA8FFF791FCDDE90F010E9A0391002193
:1041C00004910092BA4621070CD40399514500DAB4
:1041D0008A46BAF1010F05DD009AAAF10101515C8E
:1041E000302908D0B84202DA10F1040F06DA0121B2
:1041F000CDE9011015E0AAF10101E9E7002805DC8D
:10420000049901440491AAEB000102E0411C5145CC
:1042100000DD8A460499401A401C01904FF000408E
:104220000290200704D40198504501DBCDF80480AA
:1042300000208DF84F0002980DF14F07B0F1004FAC
:1042400025D02B200E9002984FF0020800280CDA9F
:10425000404202902D200E9007E00A210298FCF7C0
:10426000D7FA3031029007F8011DB8F10001A8F12A
:104270000108F2DC02980028EFD1791E0E98087030
:10428000307800F0200040F0450007F8020D12A839
:10429000C01B00F107081498007800B1012000EB62
:1042A0000A01019801EBE07105984144401A401E53
:1042B0000590E00306D45B462146179A059800F066
:1042C0005DF805441498007818B15A46179990473C
:1042D0006D1CE00324D55B462146179A059800F033
:1042E0004DF805441CE00498002807DBDDE90301D4
:1042F000884203DD0098405C179901E0179930204F
:104300005A469047049805F10105401C0490019815
:10431000401E019004D12E205A46179990476D1CDB
:10432000BAF10001AAF1010ADDDC05E017F8010B82
:104330005A46179990476D1CB8F10001A8F1010881
:10434000F4DC5B462146179A0598ABE62D00000089
:104350002B000000200000002DE9F041044600255C
:104360001E461746880404D405E039462020B0478D
:104370006D1C641EF9D52846BDE8F0812DE9F04199
:10438000044600251E469046C80301D5302700E0AC
:104390002027880404D505E041463846B0476D1C07
:1043A000641EF9D52846BDE8F08100002DE9F05FD4
:1043B00005463E4FDFF8F8A0DFF8F8903E4EDFF8F4
:1043C000FCB0FCF7BCF93E4A3E4BFCF748F8884687
:1043D0000446BD4217DA00221346FCF7DBF92046FB
:1043E00041464FF000024B4602D8FBF791FF01E037
:1043F000FCF72FF8FCF76BF956F82000FCF735F9BD
:104400005A4653464CE03048854214DA0022204692
:104410001346FCF7BFF9204641464FF000024B46D9
:1044200002D8FBF775FF01E0FCF713F8FCF74FF932
:10443000C0F5C770E0E72548254F85424FF00002E0
:104440002046134615DAFCF7A5F9204641464FF001
:1044500000024B4602D8FBF75BFF01E0FBF7F9FFD8
:10446000FCF735F906EB8000A0F58050D0F8C809BC
:1044700012E0FCF78FF9204641464FF000024B4610
:1044800002D8FBF745FF01E0FBF7E3FFFCF71FF95C
:10449000C0F5477056F82000FCF7E7F85A463B464F
:1044A000FBF7DDFFBDE8F05FFCF78CB9DB0FC93F20
:1044B000E2361A3F0000E03F984A00082D431CEB0B
:1044C0009CA223B9FCAB5F40DB0F4940E4CB964094
:1044D000E2361ABF0249A1EB6001FBF79DBE000066
:1044E000865A375F2DE9F04100F042F8FCF7B8F842
:1044F0001A4C05462168FBF789FE4FF40007064673
:10450000B84201DA86F00040154988420DDB606848
:10451000FCF715F9134ABE4201DB134B00E0134BC5
:10452000FBF7F6FEFCF74EF960606FF00B012846D2
:104530002560FBF7E1FEFCF702F90A4A0B4BFBF79B
:104540008EFF06460D466068FCF7F9F832462B46AA
:10455000FBF7DEFEBDE8F041FCF734B900000020B7
:10456000CDCC4C45EA2E4454FB2119C0FB21194007
:104570003EB5002001900B200C2400908DF80840DF
:104580006C2102AA01230748FDF760F801AA022363
:104590006D2104480094FCF737FFBDF8040040BAD1
:1045A0003EBD00002401002010B5044C00206060D6
:1045B000FFF7DEFFFCF754F8206010BD000000207C
:1045C00070B514461D460E46002814BF0121002177
:1045D000314321F00041C1F17F6101F1E041C90F98
:1045E00016D1002C14BF01210021294321F00041E4
:1045F000C1F17F6101F1E041C90F09D11449B1EB6B
:10460000460F08BF00281CD0690008BF002C18D036
:104610003146FCF7F9F9024640F2FF7030EA1150DA
:104620000DD0F017B0EBE17F09D0084665F31E000E
:1046300084460B4620466146FBF70EFF02461046B5
:1046400070BD0120FFF714FABDE87040FFF7FAB91A
:104650000000E0FF13B54FF6FF73012269460248E0
:10466000FEF758F800981CBD9802002090B0FDF7A6
:10467000B9F8FEF78FFEFEF739FBFEF7EBFAFEF70F
:104680000FFBFEF789FBFEF7A7FBFEF71BFCFEF70F
:104690004BFCFEF7B1FCFEF77BFC00213848FDF730
:1046A0007FFF04213648FDF77BFF08213448FDF7E2
:1046B00077FFFFF779FFFEF7A7FD3248FCF772FCA2
:1046C0000A213048FCF7D0FB2F48FCF76BFC0A218D
:1046D0002D48FCF7C9FB2D4D002400221146284629
:1046E00000F07EF8641C322CF7DB2948FDF752FD00
:1046F0002848FDF74FFD2848FDF74CFD2748006886
:10470000FCF71DF8264C82468B462068FCF717F80C
:10471000814624480F460068FCF711F80646884693
:104720006068FCF70CF804461F480D460068FCF76B
:1047300006F8CDE904011D480068FCF700F8CDE952
:1047400002011B480068FBF7FAFFCDE90001194898
:104750000068FBF7F4FF024617480B46016817484C
:104760000068CDE90E0106A915A081E870030BA928
:1047700081E8800CFFF746F90A20FCF773FCBDE7DF
:1047800078010020C4000020F40000200000C04098
:10479000C001002008020020500200206C00002010
:1047A000A4000020680000209C0000207C00002065
:1047B000A000002074000020900000208C00002049
:1047C00025662C25662C25662C25662C25662C2531
:1047D000662C25662C25662C25642C25640A000091
:1047E0002DE9FE4F04460F461046FFF727FA804694
:1047F000FFF7DCFD2146FBF70FFD05464046FFF7BE
:104800003DF93946FBF708FD2946FBF7FFFC064654
:104810004046FFF733F92146FBF7FEFC05464046CC
:10482000FFF7C4FD3946FBF7F7FC2946FBF79CFC74
:104830000146FBF7F1FC054631460846FBF7ECFC68
:104840002946FBF791FCFFF745FE87490968FBF70E
:1048500015FD064685488649864201DB064602E08C
:104860008E4200D90E46834D834FB4F5000F40466B
:1048700006DBFBF764FF2A463B46FBF749FD05E0F4
:10488000FBF75DFF2A463B46FBF7E3FDFBF79AFF8C
:10489000FFF7D4F9FBF753FF0546784A784B0191AF
:1048A000FBF74FFE0022774BFBF732FDFBF72EFFA5
:1048B00081463046FBF743FF06460F464846019CBB
:1048C000FBF7E4FE80466D4A6D4B0291FBF7C7FD96
:1048D0002A462346FBF7BDFDFBF774FFFFF766FD95
:1048E000FBF72DFFDFF8A0A1DFF8A0B152465B4631
:1048F000FBF7B5FD32463B46FBF7B1FDFBF762FF28
:1049000000903C46404600225E4B0299FBF7A1FD19
:104910005A4A5B4BFBF7A3FD02460B46284601991A
:10492000FBF797FDFBF74EFFFFF740FDFBF707FF97
:1049300052465B46FBF793FD32462346FBF78FFD5D
:10494000FBF740FF06464FF07E500099FBF75EFCF8
:104950003146FBF75BFC02464FF0FF31B9F1070F20
:1049600063D2DFE809F06204132534455300104692
:10497000FBF7C2FC074631460098FBF7F5FB3946CA
:10498000FBF7F2FB0546384631460CE01046FBF7D4
:10499000B3FC07460099FBF7E7FB05463146009854
:1049A000FBF7E2FB3946FBF7DFFB04463E463FE000
:1049B0001046FBF7A1FC054631460098FBF7D4FBF7
:1049C0002946FBF7D1FB0446284631460CE0104649
:1049D000FBF792FC05460099FBF7C6FB04463146FF
:1049E0000098FBF7C1FB2946FBF7BEFB06461FE01C
:1049F0001046FBF781FC04463146FBF7B5FB054644
:104A000031460098FBF7B0FB2146EDE71046FBF777
:104A100073FC044631460098FBF7A6FB2146FBF7E2
:104A2000A3FB054620460099DEE700252C462E46CE
:104A3000174F28463946FBF7EFFBFBF734FE154DC1
:104A40002968486339462046FBF7E6FBFBF72BFE57
:104A50002968886339463046FBF7DEFBFBF723FE07
:104A60002968C863BDE8FE8F0800002046B6133FE2
:104A700046B613BFF4D64354FB21F93F40AF2D385F
:104A800052C1F03F0000F03F6B6058E87AB6FB3F40
:104A90000000964478010020000000004F00000054
:104AA0009E000000ED0000003C0100008B010000B2
:104AB000D90100002802000077020000C6020000B1
:104AC0001503000063030000B203000000040000AF
:104AD0004F0400009D040000EC0400003A050000B3
:104AE00088050000D60500002406000072060000BC
:104AF000C00600000E0700005B070000A9070000C9
:104B0000F60700004308000090080000DD080000E0
:104B10002A09000077090000C30900000F0A0000FD
:104B20005C0A0000A80A0000F40A00003F0B000025
:104B30008B0B0000D60B0000210C00006C0C000059
:104B4000B70C0000010D00004C0D0000960D000098
:104B5000E00D0000290E0000730E0000BC0E0000E6
:104B6000050F00004E0F0000960F0000DF0F000041
:104B7000271000006E100000B6100000FD100000AD
:104B8000441100008B110000D11100001712000029
:104B90005D120000A2120000E81200002D130000B8
:104BA00071130000B6130000F91300003D1400005B
:104BB00081140000C414000006150000491500000F
:104BC0008B150000CC1500000E1600004F160000DB
:104BD0008F160000CF1600000F1700004F170000BF
:104BE0008E170000CD1700000B18000049180000B8
:104BF00087180000C4180000011900003D190000CA
:104C000079190000B5190000F01900002B1A0000F6
:104C1000661A00009F1A0000D91A0000121B00003B
:104C20004B1B0000831B0000BB1B0000F21B00009D
:104C3000291C0000601C0000961C0000CB1C00001A
:104C4000001D0000351D0000691D00009D1D0000B5
:104C5000D01D0000031E0000351E0000671E00006E
:104C6000981E0000C91E0000FA1E0000291F000047
:104C7000591F0000881F0000B61F0000E41F00003D
:104C8000112000003E2000006A2000009620000055
:104C9000C1200000EC20000016210000402100008F
:104CA0006921000092210000BA210000E1210000EA
:104CB000082200002F220000552200007A22000066
:104CC0009F220000C3220000E72200000A23000008
:104CD0002D2300004F2300007023000091230000CB
:104CE000B2230000D1230000F12300000F240000B4
:104CF0002D2400004B2400006824000084240000C0
:104D0000A0240000BB240000D5240000EF240000F4
:104D100009250000222500003A2500005225000048
:104D2000692500007F25000095250000AA250000C8
:104D3000BF250000D3250000E6250000F92500006E
:104D40000B2600001D2600002E2600003E26000037
:104D50004E2600005D2600006C2600007A2600002A
:104D60008726000094260000A0260000AB26000045
:104D7000B6260000C0260000CA260000D326000088
:104D8000DB260000E3260000EA260000F1260000F2
:104D9000F7260000FC260000012700000527000080
:104DA000082700000B2700000D2700000F27000038
:104DB0001027000010270000000000000000000085
:104DC00001020304060708090000000001020304B1
:104DD000F04D000800000020C4000000503A000818
:104DE000B44E0008C400002024060000603A000809
:104DF00000000000000000000000C04100000000B2
:104E000000000000000000000000000000000000A2
:104E10000000000000000000000000000000000092
:104E20000000000000000000000000000000000082
:104E30000000000000000000000000000000000072
:104E40000000000000000000000000000000000062
:104E50000000000000000000000000000000000052
:104E60000000000000000000000000000000000042
:104E70000000000000000000000000000000000032
:104E80000000000000000000000000000000000022
:104E90000000000000000000000000000100000011
:104EA00010000000000000000024F40000000000DA
:044EB00000000000FE
:04000005080000ED02
:00000001FF
