:020000040800F2
:100000002808002001010008FF310008B72A000875
:10001000FD310008850E0008593600080000000078
:100020000000000000000000000000000332000893
:10003000870E0008000000000132000805320008A9
:100040001B0100081B0100081B0100081B01000820
:100050001B0100081B0100081B0100081B01000810
:100060001B0100081B0100081B0100081B01000800
:100070001B0100081B0100081B0100081B010008F0
:100080001B0100081B0100081B0100081B010008E0
:100090001B0100081B0100081B0100081B010008D0
:1000A0001B010008853200081B0100081B01000825
:1000B00099320008DD320008F93200081B010008FF
:1000C0001B0100081B0100081B0100081B010008A0
:1000D0001B0100081B0100081B0100081B01000890
:1000E0001B0100081B0100081B010008DFF80CD0F1
:1000F00000F07EFC004800473D4200082808002030
:100100000648804706480047FEE7FEE7FEE7FEE7B1
:10011000FEE7FEE7FEE7FEE7FEE7FEE781320008C6
:10012000ED000008202A04DB203A21FA02F0002129
:10013000704721FA02F3D040C2F1200291400843F7
:1001400019467047D2B201E000F8012B491EFBD2DC
:1001500070470022F6E710B513460A4604461946D2
:10016000FFF7F0FF204610BD10B54843044604F0E9
:1001700037F9002805D00021002C02D0641E01555B
:10018000FAE710BDF0B480EA0102D40F4200B2EBEE
:10019000410F02D20246084611464A0042D0C30D22
:1001A000DDB2C1F3C752AD1A202D35DAC1F3160105
:1001B00041F4000204B15242C5F1200602FA06F1F0
:1001C0002A411044B3EBD05F23D0C4B1012DA0EB82
:1001D000C35009DCF0BC4FF0004202EAC352DBB26C
:1001E00000F5000000F01DBB400000F1807000EB46
:1001F000C350A0F1807040EAD170490009E049087D
:1002000041EAC071A0EBC35000F50000400800EBCC
:10021000C350F0BC00F0FCBA6142012202EB410184
:10022000001BF6E7F0BC704781F00041AAE780F0C0
:100230000040A7E780EA010210B502F00043400049
:1002400022D04A001FD0010E01EB1261C0F356000C
:10025000C2F3560240F4000042F40002A0FB022068
:1002600000047F39140400D0401C50EA124001D42D
:100270004000491EC2B20C0604EBD010401C4008DE
:10028000802A02D003E0002010BD20F001000029E8
:1002900000DA0020184310BD420005D0C0F3C75259
:1002A0005242914201DC0020704700EBC150704780
:1002B0002DE9FE4F804681EA0300C00F0C460090F6
:1002C00021F0004123F00045B8EB0200A94105D21E
:1002D0004046214690461C460B46024623F000400D
:1002E000104347D0270DC7F30A00C3F30A51029009
:1002F000401A019040286BDAC3F3130040F4801BCE
:100300000098924620B10023D2EB030A63EB0B0B5B
:1003100001985946C0F14002504600F058FA06468E
:100320000D4650465946019A00F060FA10EB08005D
:100330006141002487EA115284EAE7731A4340D0EE
:10034000009A62B3019A012A4FEA075215DC001B9A
:1003500061EB02014FF0004202EA0752CDE9004290
:10036000001C41F5801132462B4600F097FA03B08D
:10037000BDE8F08F40462146F9E7001B61EB020122
:10038000001C41F5801300185B412018A2F50017EE
:1003900047EB030140EAD570B6196D4111E06D08D5
:1003A0004FEA360645EAC0754FEA0752001B61EB7B
:1003B0000201001C41F5801149084FEA3000001984
:1003C000514132462B4603B0BDE8F04F00F057BA1A
:1003D0000098012240000023D0EB020263EBE0739F
:1003E000009821464FEAE074B8EB000061EB04018D
:1003F000E9E783F000435BE781F0004158E72DE92E
:10040000FE4F81EA030404F0004421F0004100940F
:100410004FF0000B23F0004350EA01045ED052EA93
:1004200003045BD0C3F30A54C1F30A552C44A4F26D
:10043000F3340194A0FB0254C1F3130141F4801181
:10044000C3F3130343F4801301FB024400FB034E88
:10045000840A970A44EA815447EA8357A4FB076851
:1004600002958D0A05FB07854FEA932C04FB0C547B
:100470002705029D4FEA065847EA1637B5EB0805EF
:100480006EEB070C870E920E47EA811742EA831241
:10049000A7FB0201B6EB0B0164EB00042B0D43EA52
:1004A0000C335E1844EB1C50DA465146E7FB020160
:1004B000C5F313044FEA0B3343EA14534FEA0432F3
:1004C000019C43EA0603A4F10C040294009CCDE9CC
:1004D00000B400F0E3F903B0BDE8F08F002001465E
:1004E000F9E72DE9F04D81EA030404F0004B21F017
:1004F000004514464FF0000A23F0004150EA05027F
:1005000020D054EA01021DD0C5F30A570246C5F3B4
:100510001303C1F31300C1F30A5640F4801543F4EA
:100520008013A7EB0608101BD64608F2FD3873EBC4
:10053000050002D308F1010801E092185B41B8F10F
:10054000000F03DA00200146BDE8F08D00204FF4D3
:100550008011064684460EE0171B73EB050705D392
:10056000121B63EB050306434CEA010C49084FEAF2
:10057000300092185B4150EA0107EDD152EA0300C6
:1005800012D082EA040083EA0501084305D0101B5B
:10059000AB4106D20122002306E000224FF00043C7
:1005A00002E06FF0010253101AEB06004CEB085109
:1005B00010EB0A0041EB0B01BDE8F04D00F05FB914
:1005C000C10F80EAE0700844CA079623002100F0BA
:1005D00028B996230022114600F023B90EB5C10FA9
:1005E00080EAE0700844CA07002140F233438DE8F6
:1005F0000E000A460B4600F051F903B000BD0EB5DF
:1006000040F2334102910021CDE900110A460B4628
:1006100000F044F903B000BD20F00040C10DC0F36C
:10062000160040F400007F2901DA00207047962967
:1006300003DCC1F19601C840704796398840704785
:1006400070B5C1F30A5201F000450024C1F3130153
:1006500040F2FF3341F480119A4201DA002070BD6C
:1006600040F233439A42A2F2334203DC5242FFF794
:1006700059FD00E090402C43F1D0404270BDC1F3E1
:100680000A5210B5C1F3130140F2FF3341F4801157
:100690009A4201DA002010BD40F233439A42A2F29E
:1006A000334203DC5242FFF73DFD10BD904010BDC8
:1006B00000F0004230F000400AD0C10D01F5607139
:1006C000C0F3160042EA0151C208400711437047C7
:1006D000002001467047000030B5041E71F100048F
:1006E00004DB4FF00044404264EB0101141E73F13F
:1006F000000405DB1C464FF00043524263EB040349
:10070000994208BF904230BD01F0004330B421F05F
:10071000004150EA010206D00A0DA2F56072C1F351
:100720001301002A02DC30BC00207047440F44EA69
:10073000C104C100E01830BC00EBC25000F068B842
:1007400030B50B46014600202022012409E021FAA1
:1007500002F59D4205D303FA02F5491B04FA02F59E
:100760002844151EA2F10102F1DC30BD2DE9F05F35
:100770000546002092469B46884606468146402410
:100780001BE02846414647462246FFF7CBFC53462E
:100790005A46C01A914110D311461846224600F01D
:1007A00016F82D1A67EB01084F462246012000215A
:1007B00000F00DF817EB00094E41201EA4F10104D2
:1007C000DFDC484631462A464346BDE8F09F202AF2
:1007D00004DB203A00FA02F1002070479140C2F198
:1007E000200320FA03F3194390407047202A06DBC8
:1007F000CB17203A41FA02F043EAE07306E041FAEF
:1008000002F3D040C2F120029140084319467047DC
:100810000029A8BF7047401C490008BF20F0010014
:10082000704710B4B0FA80FC00FA0CF050EA0104F2
:1008300004BF10BC704749B1CCF1200421FA04F484
:1008400011FA0CF118BF012121430843A3EB0C015D
:10085000CB1D4FEA00614FEA102042BF002010BCC0
:10086000704700EBC35010440029A4BF10BC704770
:10087000401C490008BF20F0010010BC704710B5B3
:10088000141E73F1000408DA401C41F100019218B3
:100890005B411A4301D120F0010010BD2DE9F04D5C
:1008A00092469B4611B1B1FA81F202E0B0FA80F2B1
:1008B00020329046FFF78BFF04460F4640EA0A00BD
:1008C00041EA0B0153465A46084313D0114653EAF6
:1008D000010019D0C8F140025046FFF723FC05463D
:1008E0000E46504659464246FFF771FF084305D071
:1008F000012004E020463946BDE8F08D0020054384
:1009000046EAE0762C4337430A986305E40AA0EBF5
:1009100008000022FD0A44EA47540A3002D50020AC
:100920000146E9E7010510196941DDE908450019AB
:100930006941BDE8F04DA2E72DE9FE4FC3F30A5728
:1009400001F000450024C1F30A56C3F31303C1F3B9
:10095000130143F4801312EB020AA64641F48011FE
:10096000009543EB030CA7F1010B16E0B0EB0A0076
:1009700061EB0C01071E71F1000707DA4FF0000868
:10098000D0EB080085F0004568EB0101171A73EB06
:100990000107EBD3761E001849415E45F6DA50EAAE
:1009A000010209D0CDE900E5002213460296FFF7C7
:1009B00075FF03B0BDE8F08F20460099F9E7C1F359
:1009C0000A52C1F3130140F2FF3341F480119A42FD
:1009D00002DA00200146704740F233439A42A2F205
:1009E000334202DC5242FFF79DBBFFF7F0BE00002E
:1009F000064C074D06E0E06840F0010394E807006C
:100A000098471034AC42F6D3FFF774FB444A000811
:100A1000644A000870B5044600688168C943C90784
:100A200017D1816821F00101816000F08BFD05463E
:100A30000AE000BF00F086FD401B022804D92068B0
:100A40008068C043C00706D020688068C043C007E4
:100A5000F0D0002070BDA06A40F01000A062E06AF3
:100A600040F00100E062012070BD0000F8B50026F2
:100A70000446009600688168C943C9072DD0816883
:100A800041F001018160164816490068B0FBF1F0A1
:100A900000E0401E00900028FBD100F053FD054609
:100AA00016E000BF00F04EFD401B022810D9206860
:100AB0008068C043C0070BD0A06A40F01000A0625D
:100AC000E06A40F00100E06284F824600120F8BD93
:100AD00020688068C043C007E4D10020F8BD000052
:100AE0002C00002040420F000EB5074AD2E9011247
:100AF0008DE807006946054800F0C8F9002801D0D4
:100B000000F0C2F90EBD0000204A0008400000209D
:100B100010B50020FFF7E8FF124800F091FB4FF0FE
:100B2000FF3421460F4800F0EDFA0E4800F02CFA91
:100B30000D4908800B4800F0E3FB0120FFF7D4FFCC
:100B4000084800F07DFB2146064800F0DBFA054826
:100B500000F01AFA05490880BDE81040014800F08D
:100B6000CFBB000040000020120000201400002035
:100B70000EB582680123CDE90013029200680B22B2
:100B80006C2100F0A9FD0EBD1FB50C46002103919C
:100B9000022203A983688DE80E00006801230C225D
:100BA0006C2100F099FDBDF80C1049BA218004B009
:100BB00010BD38B50446806808B90A20A060A17B42
:100BC000012001B9A073E17B01B9E073217C01B977
:100BD0002074617C01B96074A17C01B9A074E17CCE
:100BE00001B9E074217D01B92075607D08B902204A
:100BF0006075E17B204600F0A0F868BB217C2046B0
:100C000000F077F840BBA27C617C204600F0B9F888
:100C100010BBE17C204600F0F3F8E8B9217D2046C6
:100C200000F022F8C0B9617D204600F00DF998B9B6
:100C3000204600F019F978B900208DF800006946C7
:100C40002046FFF795FF38B99DF80000810603D5CF
:100C5000010701D4C00601D5012038BD002038BDF0
:100C600018210120FFF780BA092940D2DFE801F0FE
:100C70003F0509131B232B333B00817D21F01C0111
:100C800006E0817D21F018018175817D41F004012C
:100C9000817500207047817D21F014018175817D6F
:100CA00041F00801F4E7817D21F010018175817D1B
:100CB00041F00C01ECE7817D21F00C018175817D13
:100CC00041F01001E4E7817D21F008018175817D0B
:100CD00041F01401DCE7817D21F004018175817D03
:100CE00041F01801D4E7817D41F01C01D0E70120DB
:100CF0007047012907D0022909D0032911D00429FE
:100D000017D001207047C17D21F00C0106E0C17DA4
:100D100041F00401C175C17D21F00801C1750020B9
:100D20007047C17D21F00401C175C17D41F008010A
:100D3000F4E7C17D41F00C01F0E7012907D0022959
:100D400009D0032911D0042917D001207047C17D93
:100D500021F0030106E0C17D41F00101C175C17DB3
:100D600021F00201C17500207047C17D41F00201F0
:100D7000C175C17D01F00101F4E7C17D41F00301BE
:100D8000F0E7012904D0022906D003291ED10DE085
:100D9000C17D21F0300106E0C17D41F01001C17537
:100DA000C17D21F02001C17500207047C17D01F097
:100DB0001001C175C17D41F02001C175012A07D024
:100DC000022A09D0032A0FD0042A15D00120704727
:100DD000C17D21F0C001E6E7C17D41F04001C17550
:100DE000C17D21F08001DEE7C17D21F04001C175A8
:100DF000C17D41F08001D6E7C17D41F0C001D2E75D
:100E0000012907D0022909D0032911D0042917D0BC
:100E100001207047817D21F0030106E0817D41F0D2
:100E200001018175817D21F00201817500207047EB
:100E3000817D21F001018175817D41F00201F4E79E
:100E4000817D41F00301F0E7012903D0022905D09B
:100E500001207047817D21F0400102E0817D41F059
:100E600040018175002070470EB5022200F1160185
:100E700083688DE80E000068012307226C2100F0D2
:100E800053FD0EBDFEE7704772B6FEE7F8B50024CD
:100E9000009490F824202546012A12D0012280F8DF
:100EA00024204A681F23072A0DD20668776B521E3A
:100EB00002EB820293409F430B6893401F4377638A
:100EC00019E00220F8BD06680D2A0AD2376BD21F3E
:100ED00002EB820293409F430B6893401F433763AA
:100EE00009E0F76A0D3A02EB820293409F430B68D8
:100EF00093401F43F7620A68072306680A2A0AD349
:100F0000F7680A3A02EB420293409F438B68934092
:100F10001F43F76008E0376902EB420293409F43AA
:100F20008B6893401F4337610A68102A01D0112A49
:100F300020D1124B02689A4217D193681B0219D430
:100F4000936843F4000393600968102912D10C4997
:100F50000C4A0968B1FBF2F101EB8101490000E0A4
:100F6000491E00910029FBD104E0816A41F0200173
:100F70008162012480F824502046F8BD00240140FD
:100F80002C00002040420F000068C06C7047000039
:100F90002DE9F0414FF0000704003D467ED0A06AE5
:100FA000002628B9E66284F82460204600F07EF826
:100FB0002046FFF72FFDA16A01F01001014304D084
:100FC000A06A40F01000A06268E0A16A21F4885194
:100FD00041F00201A1626268E169237B0A4347EAAA
:100FE00043010A43A1684FF48077B94208D0012930
:100FF00006D0002194F814C0BCF1010F02D00AE021
:101000003946F7E7F3B1A36A43F02003A362E36A2A
:1010100043F00103E3622368D3F804C02CF4694C65
:101020004CEA010CC3F804C023689968DFF870C06B
:1010300001EA0C0111439960A168B9420BD0012962
:1010400009D00CE0DFF85CC0A3690CEB43330B4321
:1010500043F40061DFE7218A0D05A5F580152168BD
:10106000CB6A23F470032B43CB62216889680E4B53
:101070001940914208D1E662A16A21F0020141F0D3
:101080000101A162BDE8F081A06A20F0020040F0F9
:101090001000A062E06A40F00100E0620120F1E788
:1010A000FDF7E1FF00E0FFFFFE0E1FFF00B585B07A
:1010B0000021009101910291039100680E4988423C
:1010C00017D10E48816941F400718161816901F491
:1010D00000710491816941F0040181618069694670
:1010E00000F004000490032000900190044800F0F8
:1010F00033F905B000BD000000240140001002409B
:10110000000801402DE9F84300270D4604460097EA
:1011100000F018FA804620688168C90508D5A06AE1
:1011200040F02000A06284F824700120BDE8F8831C
:101130004168C90503D4C06A10F4700F2AD0022098
:1011400000F050FD3B490968B1FBF0F620680369E7
:1011500039490B424FEA61014FEAA1121FD1C3681E
:101160004FEA611C13EA0C0F19D103690B4225D118
:10117000C068104222D1142023E0681C0AD02DB18F
:1011800000F0E0F9A0EB0800A84203D9206800684D
:10119000800725D5206800688007EED52DE003691B
:1011A0000B4202D1C168114206D0026923490A42AA
:1011B00006D1C068084203D1542002E0292000E093
:1011C000FC204643009816E0681C11D02DB100F0B9
:1011D000B9F9A0EB0800A8420AD90098B04207D29A
:1011E000A06A40F00400A06284F8247003209DE708
:1011F0000098401C0090B042E6D321686FF01200C6
:101200000860A06A40F40070A06220688068C0F3A3
:10121000424007280CD1207B50B9A06A20F480708E
:10122000A062A06AC00403D4A06A40F00100A062DA
:1012300000207BE72C0000202449922449922400BE
:1012400070B5044690F8240001280DD0012084F8E0
:1012500024002046FFF70AFC02004FF0000005D0F2
:1012600084F82400104670BD022070BDA16A40F2CF
:101270000123994341F48071A1621F4D23681F49E6
:10128000AB4218D10E6816F4702F14D0A66A46F43B
:101290008016A6620E68760505D5A66A26F4005665
:1012A00046F48056A662A66AF6040AD5E66A26F0D7
:1012B0000606E66206E0A66A26F48016A6625E6866
:1012C000E9E7E06284F824006FF00200186020680B
:1012D0008368C3F34243072B05D1A84208D10968AC
:1012E00011F4702F04D0816841F480118160B9E756
:1012F000816841F4A001F9E700280140042401407D
:1013000010B5044690F82400012807D0012084F885
:1013100024002046FFF77EFB10B107E0022010BD3D
:10132000A16A21F4885141F00101A162002184F8F1
:10133000241010BD70B5044600F004F90546601C89
:1013400002D004480078044400F0FCF8401BA0429E
:10135000FAD370BD200000202DE9F84FDFF8B891D6
:10136000002409F1040A0AF1040B23460F270BF1AC
:10137000040EC9E00125A5402A40AA427DD1674E4E
:10138000D1F804C0ACEB0608B44532D014DCBCF193
:10139000030F3AD009DCBCF1000F2AD0BCF1010FD9
:1013A0001CD0BCF1020F31D11DE0BCF1110F17D0E0
:1013B000BCF1120F2AD119E0B8F5881F19D006DC4C
:1013C000B8F5803F15D0B8F5801F1FD111E0B8F5F2
:1013D000001F0ED0B8F5041F18D10AE0CB6815E045
:1013E000CB681B1D12E0CB6808330FE0CB680C33D1
:1013F0000CE08B682BB1012B4FF0080303D0456143
:1014000004E0042302E0056100E00023FF2A01D884
:10141000064601E000F104064FEA840501D9A5F172
:101420002005D6F8008007FA05FC28EA0C0803FA24
:1014300005F548EA0508C6F800804D68ED0062D55C
:10144000374DAE6946F00106AE61AD6924F0030682
:1014500005F001050095334D06EB050CDCF808504E
:10146000A607360F07FA06F825EA0805DFF8B88060
:10147000404503D14FF0000817E044E0DFF8AC80AE
:10148000404502D14FF001080FE0DFF8A48040454D
:1014900002D14FF0020808E0DFF89880404502D101
:1014A0004FF0030801E04FF0040808FA06F848EA94
:1014B0000508CCF808804D68D9F80060ED034D466A
:1014C00001D5164300E096432E604D68DAF80060BF
:1014D000AD03554601D5164300E096432E604D6896
:1014E000DBF80060ED025D4601D5164300E096434F
:1014F0002E604D68DEF80060AD02754601D51643DA
:1015000000E096432E60641C0D682A46E5407FF497
:1015100031AFBDE8F88F0000000401400000111059
:10152000001002400000014000080140000C014092
:1015300000100140001401400AB101617047090424
:10154000FBE7000001488068704700002000002091
:1015500070B5040025D094F83D00002520B984F82A
:101560003C50204600F078FA242084F83D002068A2
:10157000016821F0010101602068016841F4004127
:1015800001602068016821F40041016000F09AFCCC
:101590004D4A6168914201D84C4900E04C4988426B
:1015A00001D2012070BD4B492368B0FBF1F15E68A8
:1015B00026F03F060E435E606368934206D94FF4FF
:1015C000967359434FF47A73B1FBF3F12368491CC6
:1015D0001E6A26F03F06314319626168914210D8B5
:1015E0004900401EB0FBF1F2521CC2F30B02042A68
:1015F00001D2042022E0B0FBF1F0401CC0F30B004C
:101600001CE0A268F2B301EBC10303EB0116431E19
:10161000B3FBF6F35B1C43F480431B0549D092B344
:1016200001EBC10202EB0111401EB0FBF1F0401CC6
:10163000C0F30B0040F4804040F400402168CA69C8
:101640004CF6FF739A431043C861D4E90710014375
:101650002068026822F0C00211430160D4E903014E
:1016600001432068826848F2FF339A431143816046
:10167000D4E9050108432168CA6822F0FF0210433B
:10168000C86001E00EE016E02068016841F0010149
:1016900001602564202084F83D00256384F83E50D5
:1016A000002070BD01EB4106431EB3FBF6F35B1C4B
:1016B000B3E70120C2E701EB4101401EB0FBF1F0AE
:1016C000401CC0F30B00B7E7A086010080841E0019
:1016D00000093D0040420F002DE9FF4F83B0002577
:1016E000DDE910799A4693460446DDF84880009576
:1016F000FFF728FF064694F83D0020287CD11923E7
:10170000012285492046009601F0E6FA0028F5D12D
:1017100094F83C0001286FD0012084F83C00206838
:101720000168C90703D1016841F001010160206827
:10173000016821F400610160222084F83D0040200E
:1017400084F83E0025646762A4F82A90608D2085A5
:101750007248E062CDE9008653465A462046049915
:1017600001F0C2F900287DD1208DDFF8B491202747
:1017700068B1012814D00228206801681ED041F405
:10178000806101602068416980690090B6E020684E
:10179000416981690091016841F400710160ADE027
:1017A0002068016821F48061016072B62068416997
:1017B00081690091016841F400710AE041F400611F
:1017C000016072B62068416981690091016821F465
:1017D0008061016062B691E0032868D801280CD0CE
:1017E000022843464FF000024946204600960FD09B
:1017F00001F072FAB0BB10E08BE032464146204661
:1018000001F0E9FA70BB20680069616A08706CE059
:1018100001F062FA30BB72B634E02068016821F44E
:101820008061016072B620680069616A0870606A50
:10183000401C6062208D401E2085608D401E6085AA
:10184000384846F2A8110068B0FBF1F0C0EBC000C8
:1018500000EB80000090401E009008D02068406996
:10186000C04300E029E040070CD50098F3E744F8B6
:10187000305F6773A573206940F02000206162B675
:1018800025731AE02068016841F400710160206846
:101890000069616A0870606A401C6062218D491E9F
:1018A0002185618D491E618562B621681BE0324643
:1018B0004146204601F08FFA18B1012007B0BDE87B
:1018C000F08F20680069616A0870606A401C60627D
:1018D000218D491E2185618D491E618521684A69D6
:1018E000D24352070AD409690170606A401C6062E1
:1018F000208D401E2085608D401E6085208D002833
:101900007FF46AAF84F83D7084F83E5084F83C5010
:10191000D4E70220D2E70000020010000000FFFF21
:10192000040001002C0000202DE9FF4F83B09A46EF
:10193000DDE9119793460446DDF84080FFF702FE8B
:10194000054694F83D0020287FD119230122404903
:101950002046009501F0C0F9002876D194F83C00AB
:10196000012872D0012084F83C0020680168C90772
:1019700003D1016841F0010101602068016821F490
:1019800000610160212084F83D00402084F83E0081
:1019900000262664C4F82480A4F82A90608D20854F
:1019A0002C48E062CDE9007553465A46204604991A
:1019B00001F018F970B930E02A463946204601F0A6
:1019C0003DFA58B1206C042804D12068016841F424
:1019D00000710160012007B0BDE8F08F606A2168E6
:1019E00000780861606A401C6062218D491E89B2DE
:1019F0002185628D521E628522685369DB435B0735
:101A00000BD469B100781061606A401C6062208D5F
:101A1000401E2085608D401E6085208D0028CBD122
:101A20002A463946204601F031F90028CAD154F837
:101A30003D0B016841F400710160202004F81E098B
:101A4000E67766770020C6E7FFE70220C3E70000DD
:101A5000020010000000FFFF10B586B000210091C9
:101A600001910291039100680F4988421AD10F4CED
:101A7000A06940F00800A061A069694600F0080074
:101A80000490C02000901220019003200390084889
:101A9000FFF762FCE06940F40010E061E06900F4E7
:101AA0000010049006B010BD005400400010024029
:101AB000000C01400248816802781144816070473F
:101AC00020000020074810B5016841F010010160B6
:101AD000032000F075F80F2000F006F800F024F85D
:101AE000002010BD0020024070B50D4D04464FF49B
:101AF0007A712878B1FBF0F00A490968B1FBF0F07F
:101B000000F0C6FB48B9102C07D200222146501E17
:101B100000F036F800206C6070BD012070BD000040
:101B2000200000202C0000200C4808B5816941F0FD
:101B300001018161816901F001010091C16941F0F8
:101B40008051C161C06900F0805000900448416834
:101B500021F0E06141F00071416008BD00100240D9
:101B600000000140002809DB00F01F020121914024
:101B70004009800000F1E020C0F80011704700002B
:101B8000F0B40E4B1B680C46C3F30223C3F10705E8
:101B9000042D00D90425191D072901D2002300E0D6
:101BA000DB1E012606FA05F1491E214099409E40A0
:101BB000761E16403143F0BC01F060BD0CED00E034
:101BC000064900F0070208684FF6FF03184040EA94
:101BD0000220034A10430860704700000CED00E04B
:101BE0000000FA0510B529A401461DCC86B08DE889
:101BF0001D002AA02A4C006804900020012923D04F
:101C000002293AD010291DD161682268D20119D564
:101C1000C1F38342C9031DF8020009D5616804AA13
:101C2000C1F34041515C1F4AB2FBF1F1484301E06E
:101C30001D4948436168490204D440005FF0030134
:101C4000B0FBF1F006B010BD226AC2F301210129F8
:101C500003D1920701D5C803F4E7022905D1626ACE
:101C6000920702D549F64040ECE70329EAD1216802
:101C70008903E7D54FF22440E4E700F033F96168C7
:101C8000C1F38131491C4900DAE700000203040571
:101C9000060708090A0B0C0D0E0F101001020000B8
:101CA0000010024000127A0000093D002DE9F843BF
:101CB00005460078354CC00754D0E0690026C000C6
:101CC00008D4E06940F08050E061E069012600F04E
:101CD000805000902E480168C90512D401688046E2
:101CE00041F480710160FFF72DFC074605E000BF5D
:101CF000FFF728FCC01B642823D8D8F80000C005D3
:101D0000F6D5206A10F4407021D0A98801F4407102
:101D100081421CD0206A1F49012220F440700A60D1
:101D200000220A602062C00711D0FFF70BFC0746B3
:101D300041F2883808E000BFFFF704FCC11B4145B1
:101D400002D90320BDE8F883206A8007F4D5206A11
:101D5000696820F44070084320621EB1E06920F0F9
:101D60008050E0612878800705D56068A96820F474
:101D70004040084360602878C00605D56068E9687F
:101D800020F48000084360600020DBE70010024080
:101D900000700040400442422DE9F0470F46050024
:101DA00061D0434E306800F00700B84209D2306875
:101DB00020F0070038433060306800F00700B84278
:101DC00051D128683B4C810712D5400703D5606884
:101DD00040F4E06060602878000703D5606840F454
:101DE000605060606068A96820F0F000084360609F
:101DF0002878C00728D06868012810D021680228F8
:101E000010D0890700292EDA616821F0030101430F
:101E10006160FFF797FB804641F288390DE0216849
:101E20008903EFE78901EDE7FFF78CFBA0EB0801E1
:101E3000494502D90320BDE8F0876068696800F071
:101E40000C00B0EB810FEFD1306800F00700B84212
:101E50000BD9306820F0070038433060306800F05C
:101E60000700B84201D00120E5E72878400705D5F2
:101E70006068E96820F4E060084360602878000743
:101E800006D56068296920F4605040EAC1006060AE
:101E900000F038F86168084AC1F30311515CC8408A
:101EA0000649086006480068FFF71EFE0020C2E7EA
:101EB00000200240001002402C4A00082C000020A4
:101EC000240000200448054900684968044AC1F319
:101ED0000221515CC84070472C00002000100240D5
:101EE0003C4A00080448054900684968044AC1F3AF
:101EF000C221515CC84070472C00002000100240F5
:101F00003C4A000812A185B00FC98DE80F0014A04B
:101F1000144A006804905168134801F00C03042B24
:101F200010D0082B0ED1C1F38343C9031DF8030061
:101F30000AD5516804AAC1F34041515C0A4A504392
:101F4000B0FBF1F005B0704708494843FAE70000DC
:101F500002030405060708090A0B0C0D0E0F1010EA
:101F6000010200000010024000127A0000093D004A
:101F70002DE9F84F040070D02078C04DC00749D03B
:101F80006868C0F38100012807D06868C0F3810049
:101F9000022809D16868C00306D52868800339D5AE
:101FA00060680028E7D035E06068B0F5803F0BD06E
:101FB00010B1B0F5A02F11D0286820F4803028602F
:101FC000286820F4802002E0286840F480302860EF
:101FD000606890B1FFF7B6FA06460AE0286840F458
:101FE00080202860F0E700BFFFF7ACFA801B642870
:101FF00073D828688003F7D50CE0FFF7A3FA0646EC
:1020000005E000BFFFF79EFA801B6428F0D828681F
:102010008003F7D420789A4E80074FF001094FF0E3
:10202000000839D5686810F00C0F07D06868C0F355
:102030008100022809D16868C00306D42868800797
:1020400014D52069012808D110E02069B0B1C6F884
:102050000090FFF777FA074605E00AE1FFF772FA0A
:10206000C01B0228C4D828688007F7D52868616992
:1020700020F0F80040EAC10028600DE0C6F80080BA
:10208000FFF760FA074604E0FFF75CFAC01B02287E
:1020900023D828688007F7D4207800072CD5794802
:1020A000A169D9B1C0F80090FFF74CFA074604E0E7
:1020B000FFF748FAC01B02280FD8686A8007F7D5D7
:1020C00071484FF4FA510068B0FBF1F0009000BF86
:1020D0000098411E0091FAD20EE080E0C0F8008026
:1020E000FFF730FA074604E0FFF72CFAC01B02287E
:1020F00075D8686A8007F7D42078400760D5E8690A
:102100000027C00008D4E86940F08050E861E86921
:10211000012700F0805000905C480168C90513D485
:102120000168834641F480710160FFF70BFA824633
:1021300006E000BFFFF706FAA0EB0A0064284ED8BD
:10214000DBF80000C005F5D5E06801280AD008B129
:10215000052813D0286A20F001002862286A20F0A0
:10216000040002E0286A40F001002862E06841F2C1
:10217000883B98B1FFF7E6F982460BE0286A40F009
:1021800004002862EEE700BFFFF7DCF9A0EB0A01CC
:1021900059455AD8286A8007F6D50CE0FFF7D2F9DE
:1021A000824605E0FFF7CEF9A0EB0A0159454CD86D
:1021B000286A8007F6D41FB1E86920F08050E861F2
:1021C000E06988B36968C1F38101022944D002281B
:1021D000C6F8608004D0FFF7B5F9044638E034E073
:1021E000FFF7B0F9074604E0FFF7ACF9C01B02287F
:1021F0002BD828688001F7D4206AB0F5803F05D13C
:102200006868A16820F4003008436860D4E90801D8
:102210000843696821F4741108436860C6F8609047
:10222000FFF790F9044606E025E000BFFFF78AF9C2
:10223000001B022809D828688001F7D51BE000BFE1
:10224000FFF780F9001B022802D90320BDE8F88FB0
:1022500028688001F4D40EE00128F7D06868226A6B
:1022600000F48031914204D1616A00F47010884218
:1022700001D00120EAE70020E8E70000001002405A
:1022800000004242800442422C00002000700040C6
:1022900010B5401EB0F1807F01D3012010BD4FF07A
:1022A000E02460610F21601701F0E8F90020A061CF
:1022B00007202061002010BD7047704710B590F8CE
:1022C0003C20012A22D0012280F83C20CA688C6878
:1022D00022F4407222434C6822F4806222430C684C
:1022E00022F4006222430C6922F4805222434C699A
:1022F00022F400522243C969002322F480420A4397
:1023000001684A6480F83C30002010BD022010BDF6
:1023100070B590F83C20012A26D0012480F83C407A
:10232000022280F83D2003685A689D6822F07006FA
:102330000A6832435A600D4B02689A4208D0B2F1E3
:10234000804F05D00A4B9A4202D00A4B9A4204D1E0
:10235000496825F080031943916080F83D400021D1
:1023600080F83C10084670BD022070BD002C014072
:10237000000400400008004010B5040003D094F8A9
:102380003D0010B107E0012010BD002084F83C00A2
:10239000204600F01FF8022084F83D00211D20682F
:1023A00000F0B0FF012084F8460084F83E0084F875
:1023B0003F0084F8400084F8410084F8420084F82B
:1023C000430084F8440084F8450084F83D00002070
:1023D00010BD000008B5274A0168274891420ED178
:1023E000816941F4006181618069002200F400602C
:1023F00000900F211920FFF7C3FB192034E0B1F141
:10240000804F11D01D4A91421DD1C16941F0020196
:10241000C161C069002200F00200009003211D206C
:10242000FFF7AEFB1D201FE0C16941F00101C16152
:10243000C069002200F00100009002211C20FFF77B
:102440009FFB1C2010E00E4A914211D1C16941F05E
:102450000401C161C069002200F004000090042161
:102460001E20FFF78DFB1E20BDE80840FFF77ABB5A
:1024700008BD0000002C0140001002400004004094
:102480000008004090F83D10012901D0012070475C
:10249000022180F83D100168CA6842F00102CA605A
:1024A00000680B49884208D0B0F1804F05D0094937
:1024B000884202D00849884204D1816801F00701AE
:1024C000062903D0016841F0010101600020704736
:1024D000002C0140000400400008004070B5044694
:1024E00090F83C00012817D0012584F83C500220C8
:1024F00084F83D002068826822F0770222F47F424F
:1025000082600868502830D00DDC20284DD005DCD2
:1025100098B310283BD148E0022070BD302844D049
:10252000402834D139E0602828D0702806D0B0F592
:10253000805F2CD0B0F5005F29D10AE0CB68D1E9EB
:102540000121206800F021FF2068816841F07701B7
:1025500009E0CB68D1E90121206800F016FF20686E
:10256000816841F48041816011E0CA68496820684F
:1025700000F0C0FF5021206807E016E0CA684968F3
:10258000206800F0C8FF6021206800F008FF84F890
:102590003D50002084F83C0070BDCA68496820683E
:1025A00000F0A8FF40212068EFE7226801461046AE
:1025B000EBE7704770B50446006801694FF000050D
:1025C000C943890715D4C168C943890711D4E91ED5
:1025D000016101202077206880698007204602D0B1
:1025E000FFF7E7FF04E000F0BFF8204600F04EF9E7
:1025F000257720680169C943490717D4C168C943D1
:10260000490713D46FF0040101610220207720688C
:10261000806910F4407F204602D0FFF7CAFF04E033
:1026200000F0A2F8204600F031F925772068016912
:10263000C943090716D4C168C943090712D46FF00A
:1026400008010161042020772068C06980072046C6
:1026500002D0FFF7AEFF04E000F086F8204600F05D
:1026600015F9257720680169C943C90617D4C168DF
:10267000C943C90613D46FF0100101610820207707
:102680002068C06910F4407F204602D0FFF791FF18
:1026900004E000F069F8204600F0F8F8257720689B
:1026A0000169C943C90708D1C168C943C90704D131
:1026B000891E0161204600F039F920680169C9438B
:1026C000090609D4C168C943090605D46FF0800121
:1026D00001612046FFF7F0FD20680169C943490602
:1026E00009D4C168C943490605D46FF040010161AE
:1026F000204600F01CF920680169C94389060BD403
:10270000C168C943890607D46FF0200101612046E2
:10271000BDE87040FFF7D1BD70BD000000B585B0C9
:102720000021009101910291039100680B498842B8
:1027300012D10B48816941F00401816180696946C9
:1027400000F0040004904FF4E0600090022001903B
:1027500003900448FEF700FE05B000BD002C0140C8
:102760000010024000080140704770B5044690F820
:102770003C000D4601280AD0012084F83C0042B1FB
:10278000042A18D0082A2AD00C2A4DD139E0022078
:1027900070BD206800F00CFE2068816941F00801DE
:1027A00081612068816921F004018161206881696B
:1027B0002A69114311E0206800F022FE2068816937
:1027C00041F4006181612068816921F48061816147
:1027D000206881692A6941EA0221816124E0206838
:1027E00000F03AFE2068C16941F00801C16120682B
:1027F000C16921F00401C1612068C1692A691143DE
:1028000011E0206800F054FE2068C16941F40061C5
:10281000C1612068C16921F48061C1612068C1691A
:102820002A6941EA0221C161002084F83C0070BDA0
:1028300010B5040003D094F83D0010B107E001206A
:1028400010BD002084F83C00204600F01EF8022055
:1028500084F83D00211D206800F054FD012084F81B
:10286000460084F83E0084F83F0084F8400084F875
:10287000410084F8420084F8430084F8440084F85E
:10288000450084F83D00002010BD704770470000EF
:1028900010B50446022249B104290ED0082913D0EC
:1028A00094F84100012816D0012010BD94F83E0094
:1028B0000128F9D184F83E200FE094F83F00012868
:1028C000F2D184F83F2008E094F840000128EBD1D1
:1028D00084F8402001E084F841200122206800F0C3
:1028E00047FD0F492068884203D1426C42F4004200
:1028F00042642068884208D0B0F1804F05D0094971
:10290000884202D00849884204D1816801F0070159
:10291000062903D0016841F001010160002010BDCB
:10292000002C014000040040000800407047704740
:1029300070B5040004D094F83D00002510B106E005
:10294000012070BD84F83C50204600F023F824207C
:1029500084F83D002068C16821F40051C160204620
:1029600000F0ECFD2068016921F4904101612068CC
:10297000416921F02A0141612068C16841F4005198
:10298000C1602564202084F83D0084F83E000020CA
:1029900070BD000030B585B000240094019402940D
:1029A000039400681449884223D11448C16941F452
:1029B0000031C161C16901F400310491816941F0C4
:1029C0000401816180690E4D00F004000490042030
:1029D0000090022001900320039069462846FEF7EC
:1029E000BBFC0820CDE90004694628460294FEF7A6
:1029F000B3FC05B030BD00000044004000100240B0
:102A0000000801402DE9F843044690F83D001F46B8
:102A100016460D4620284CD1C5B1BEB194F83C00F5
:102A2000012846D0012084F83C004FF00008C4F88B
:102A30004080212084F83D00FEF784FDA684814675
:102A4000E684A068B0F5805F03D004E00120BDE813
:102A5000F883206928B12E465FF0000584F83C8099
:102A60000EE00026FAE78021204600F0C3FDA0B961
:102A7000AEB116F8010B21684860E08C401EE0847E
:102A8000E08C4B464FF0000200970028EBD14FF04E
:102A90004001204600F0AEFD30B10320D7E735F805
:102AA000020BC0F30800E6E7202084F83D00002078
:102AB000CDE70220CBE7FEE701684A69D243520521
:102AC0000FD46FF480624A61002140F8301F202249
:102AD00042738173026942F00402026101730120B2
:102AE00070470020704700002DE9F84F0446006849
:102AF00089460B9D01689846174641F48061016044
:102B00002068016841F48071016000954FF0011B5D
:102B10000022594620460A9B00F0DEF84FF4007A66
:102B200040B120680068C00501D5C4F840A003206A
:102B3000BDE8F88F216809F0FE0008612B4628499E
:102B400020460A9A00F0FCF8F0BB206841698069D1
:102B500000902A4620460A9900F070F940B1206C96
:102B600004283AD12068016841F40071016034E022
:102B7000FEB2B8F1010F09D02168380A08612A466F
:102B800020460A9900F05AF90028E8D12068066129
:102B90002A4620460A9900F051F90028DFD1206822
:102BA000016841F480710160009500225946204679
:102BB0000A9B00F091F80028B3D1216809F0FF00CA
:102BC00040F00100086100E007E02B460449204680
:102BD0000A9A00F0B5F80028AAD00120A8E7000062
:102BE000020001002DE9F843044600680D46DDE9C6
:102BF000089701689846164641F4807101604B467B
:102C000000224FF001112046009700F065F848B10E
:102C100020680068C00502D54FF4007020640320CE
:102C2000BDE8F883216805F0FE0008613B464A468E
:102C30001549204600F084F888B920684169806908
:102C400000903A464946204600F0F8F848B1206C1A
:102C5000042804D12068016841F40071016001205A
:102C6000DEE7F5B2B8F1010F09D02168300A08613A
:102C70003A464946204600F0E1F80028E7D12068AE
:102C800005610020CCE700000200010070B5164687
:102C90000D4604460DE02046FFF70EFF08B1012067
:102CA00070BD681C05D0FEF74DFC801BA84207D8FC
:102CB00035B120684069C0434007ECD4002070BDA6
:102CC000002044F8300F20216173A073216941F086
:102CD000200121612073E2E72DE9F0471E4690466E
:102CE0000D460446C1F30747DDF8209008E0701C4C
:102CF00006D0FEF727FCA0EB0900B0420FD876B152
:102D00002068012F18D0806925EA00000004000C1B
:102D100014D000214145EAD00020BDE8F087002012
:102D200044F8300F20216173A073216941F0200124
:102D3000216120730120F0E74069E5E70121E9E71F
:102D40002DE9F0479A4691460E46044600254FF07D
:102D50002008C1F3074725E020684069C0434005CB
:102D600014D42068016841F40071016021686FF497
:102D700080604861256384F83D8084F83E50206C73
:102D800040F00400206484F83C501FE0B9F1FF3F9C
:102D900008D0FEF7D7FBA0EB0A0149450CD8B9F1E2
:102DA000000F09D02068012F13D0806926EA0000A7
:102DB0000004000C0BD0CFE744F8305F84F80D809E
:102DC000A573206940F02000206125730120BDE833
:102DD000F0874069EAE72DE9F041002590460E466C
:102DE0000446202717E04069C043C0060CD454F8BD
:102DF000301B6FF01000486144F810596777A577D1
:102E0000206A2062257717E0FEF79CFBA0EB080004
:102E1000B04208D83EB120684169C9434906E2D4AE
:102E20000020BDE8F08144F8305F6773A573206926
:102E300040F02000206125730120F2E770B51646AE
:102E40000D4604460DE02046FFF736FE08B101208E
:102E500070BD681C05D0FEF775FB801BA84207D823
:102E600035B120684069C0430006ECD4002070BD35
:102E7000002044F8300F20216173A073216941F0D4
:102E8000200121612073E2E73EB500241048009440
:102E9000019402940D498460016004730475012556
:102EA00005614FF460214460C161FEF771F808B11B
:102EB000FDF7EAFFCDE90045694605480294FDF7B4
:102EC000E5FF002801D0FDF7DFFF3EBD00240140F3
:102ED0004000002070B586B000241C480094019486
:102EE00002940394816941F010018161816901F0CC
:102EF00010010491816941F020018161816901F033
:102F000020010491816941F004018161816901F02E
:102F100004010491816941F00801816180690C4ECE
:102F200000F008004FF40055049000222946304676
:102F3000FEF702FB01200095CDE901040220039079
:102F400069463046FEF708FA06B070BD0010024030
:102F5000001001400D4810B50B4901600C4941605B
:102F600000214FF480428160C0E903124161816118
:102F7000C1610162FEF7ECFA002803D0BDE8104001
:102F8000FDF782BF10BD000000540040700000201B
:102F9000801A060030B595B000240F941094119457
:102FA000129413941C2168461494FDF7D2F8202142
:102FB00007A8FDF7CEF8344D32482860022068603B
:102FC0002020A86040F2AF40C5E903048020C5E995
:102FD00005402846FFF7D0F908B1FDF755FF4FF43B
:102FE00080500F900FA92848FFF778FA08B1FDF735
:102FF0004BFF2548FFF71CFC08B1FDF745FF139474
:1030000013A921481494FFF783F908B1FDF73CFF99
:103010006020CDE9000402940394049405940022F6
:10302000694619480694FFF7A0FB08B1FDF72CFF8D
:10303000042269461448FFF798FB08B1FDF724FF06
:10304000082269461048FFF790FB08B1FDF71CFF06
:103050000794089409944FF400500A94CDE90B406A
:1030600007A909480E94FFF729F908B1FDF70CFFED
:103070000649E868401C08600348FFF74FFB15B09D
:1030800030BD0000002C0140C400002008000020DA
:1030900010B586B00024164800940194029403945D
:1030A00004944FF080410594016040F22B11C0E977
:1030B0000114EF21C0E903148461FFF75DF908B141
:1030C000FDF7E2FE4FF48050009069460848FFF794
:1030D00005FA08B1FDF7D8FE049404A90448059444
:1030E000FFF716F9002801D0FDF7CEFE06B010BD9F
:1030F0000C01002010B586B00024174800940194FC
:1031000002940394049413490594016040F22B1136
:10311000C0E901147721C0E903148461FFF72CF999
:1031200008B1FDF7B1FE4FF48050009069460A489F
:10313000FFF7D4F908B1FDF7A7FE049404A90648E7
:103140000594FFF7E5F8002801D0FDF79DFE06B0D5
:1031500010BD0000000400405401002010B586B0EE
:103160000024174800940194029403940494134992
:103170000594016040F22B11C0E90114EF21C0E970
:1031800003148461FFF7F8F808B1FDF77DFE4FF4F2
:103190008050009069460A48FFF7A0F908B1FDF792
:1031A00073FE049404A906480594FFF7B1F80028BB
:1031B00001D0FDF769FE06B010BD00000008004018
:1031C0009C0100200C4810B50A4901604FF4E13120
:1031D0004160002181600C22C160C0E9041281615C
:1031E000C161FFF7A5FB002803D0BDE81040FDF743
:1031F0004BBE10BD00440040E4010020FEE7FEE7A6
:1032000070477047FEF756BC30B593B0282168462A
:10321000FCF79FFF14210AA8FCF79BFF0025012063
:103220000F9510951195010412958DE823000490D7
:103230004FF4E010CDE90810022407946846FEF729
:1032400097FE08B172B6FEE70AA90F2081E83100A7
:103250004FF48060CDE90D0502210AA8FEF79CFD20
:1032600008B172B6FEE74FF4004011900F940FA81A
:10327000FEF71CFD002801D072B6FEE713B030BD8A
:103280007047000010B50348FFF794F9BDE81040FF
:10329000FDF73EBCC400002070B50C48FFF78AF96A
:1032A00001220B4D540321462846FEF745F90A48F2
:1032B00008490068FDF768FC00F096FF21462846A3
:1032C000BDE870400022FEF737B900000C01002075
:1032D00000100140100000200400002010B5054837
:1032E000FFF768F9BDE8104000214FF07C5001F075
:1032F000ADB80000540100200148FFF75BB90000A1
:103300009C010020F0B50268164B174C174D4FF08A
:103310008047984205D0B84203D0A04201D0A842CD
:1033200003D122F070064A683243984205D0B84271
:1033300003D0A04201D0A84203D122F44074CA684D
:1033400022434C6922F08002224302608A68C262F2
:103350000A688262984201D10969016301214161D1
:10336000F0BD0000002C01400004004000080040B7
:1033700010B501F01F030121046A99408C430462D7
:10338000016A9A401143016210BD10B5846842EA97
:10339000032224F47F440A432243826010BD8268E2
:1033A00022F070020A4342F007018160704700007A
:1033B00030B5026A22F001020262026A436884693F
:1033C00024F073050C682C4322F002058A682A4316
:1033D0000A4DA8420BD122F00805CA6823F44073B5
:1033E0002A434D6922F004021D438B692B4343603D
:1033F000846149684163026230BD0000002C0140D5
:1034000030B5026A22F010020262026A43688469DF
:103410000D6824F4E64444EA05248D6822F0200275
:1034200042EA05120B4DA8420ED1CD6822F080026F
:1034300042EA05124D6923F4406343EA85038D692E
:1034400022F0400243EA8503436084614968816356
:10345000026230BD002C014030B5026A22F4807255
:103460000262036A4268C46923F4007324F073059E
:103470000C682C438D6843EA05230C4DA8420ED1FD
:10348000CD6823F4006343EA05234D6922F44052DA
:1034900042EA05128D6923F4806342EA0512426014
:1034A000C4614968C163036230BD0000002C014063
:1034B00030B5026A22F480520262046A4268C3692B
:1034C0000D6823F4E64343EA05238D6824F4005491
:1034D00044EA0534064DA84204D14D6922F48042E5
:1034E00042EA85124260C36149680164046230BDEA
:1034F000002C014010B5036A046A24F00104046240
:10350000846924F0F00444EA021423F00A020A4316
:103510008461026210BD10B5036A23F010030362D8
:103520008369046A23F4704343EA023224F0A0035F
:1035300043EA01118261016210BD000070B50446CA
:1035400000680169E26821F4405111430161216979
:10355000A0680843616908432168CA6841F20C63A6
:103560009A430243CA6020684169A26921F440710C
:10357000114341611E492068884202D1FEF7B2FC26
:1035800001E0FEF79FFC00EBC00101EB0012606858
:1035900064218000B2FBF0F3B3FBF1F36FF0180687
:1035A0007343B2FBF0F5B2FBF0F605EB8305322373
:1035B00003EB0515B5FBF1F5B6FBF1F605F0F005EB
:1035C00005EB0615B2FBF0F6B2FBF0F0B0FBF1F044
:1035D0006FF01802504306EB800003EB0010B0FBC5
:1035E000F1F0216800F00F002844886070BD0000F1
:1035F000003801402DE9F041984617460E46044632
:10360000069D1DE0681C1BD02DB1FDF79BFFA0EBB4
:103610000800A84214D92068C16821F4D071C160A3
:103620002068416921F001014161202084F83D00BA
:1036300084F83E00002084F83C000320BDE8F081BF
:103640002068006836EA000004D00020B842D9D0D3
:103650000020F3E70120F9E7FEE700000FB4054B77
:1036600010B503A9044A029800F034F910BC5DF8C3
:1036700014FB0000D1410008300000200907090EAA
:10368000002804DB00F1E02080F80014704700F00F
:103690000F0000F1E02080F8141D7047002213464F
:1036A00010461146FCF71DBF02E008C8121F08C1F2
:1036B000002AFAD170477047002001E001C1121FB3
:1036C000002AFBD1704700000149086070470000E4
:1036D0003400002070B50646FCF7EAFF0F4A104B95
:1036E000FCF7E6FDFDF710F804460E4D3046FCF7FA
:1036F000DFFF0A4A0A4BFCF7DBFDFDF705F8FCF794
:10370000D7FFAC4203DB084A084BFCF772FEFCF71C
:10371000FBFFBDE8704000F075BC0000F4D64354D8
:10372000FB21F93FDB0FC940EA2E4454FB2119402D
:103730002DE9FF5FDDE90220010DDDF838B002431D
:1037400018D044F61050A1F2FF3141430D140F98E8
:10375000012820D0A5EB0B00401C5FEA000A4FF0C7
:103760000004474EDFF81C91A046504616D5CAF11A
:10377000000728E00F98012443A2012808D0002167
:1037800000980F9BC0E90021C0E90243BDE8FF9FFC
:103790006FEA0B01F4E7CBF10000DEE7074612E029
:1037A000F80707D02246334640464946FCF727FE35
:1037B000804689462246334610461946FCF71FFECE
:1037C00004460E467F10002FEAD1DDE90201BAF16E
:1037D000000F42464B4602DAFCF711FE01E0FCF70F
:1037E00080FE04460E460022284BFCF775FF03D8E6
:1037F0004FF0FF30014607E00022254B20463146BE
:10380000FCF756FDFDF7DBF8102409E0002C0ADB7D
:103810000A220023FCF7AAFF019B30321A55641ECE
:1038200050EA0102F2D1641C019AC4F1110314445C
:103830000F9A012A03D0012208430DD10AE0084360
:1038400004D000204FF0110B0F9080E7A3EB0B0585
:103850006D1E0DE05B4504DD4FF0000205F1010532
:1038600004E003DA4FF00002A5F10105002AECD0D4
:1038700000980F99C0E90231C0E9004586E70000D1
:10388000000024400000F03F300000000000F04342
:103890000000E03F70B5FCF70BFF0C4C0C4D2246CE
:1038A0002B4600F04BFCFCF72FFF10F1FF4F02D22C
:1038B000FCF7FEFE05E0FCF7FBFE22462B46FCF77C
:1038C000F7FCBDE87040FCF71FBF0000EA2E44542F
:1038D000FB2119402DE9FF4F95B09B4689460646CE
:1038E00000250FE2252877D100242746F84A012138
:1038F000059400E0044316F8013F203B01FA03F071
:103900001042F7D130782A2811D06FF02F03307889
:10391000A0F13002092A16D8059A44F0020402EBFD
:10392000820203EB42021044761C0590EFE759F83F
:10393000042B0592002A03DA504244F40054059007
:1039400044F00204761C30782E2816D116F8010FA8
:1039500044F004042A280DD06FF02F023078A0F133
:103960003003092B09D807EB870302EB4303C71881
:10397000761CF3E759F8047B761C30786C280FD05E
:1039800006DC4C2817D068280DD06A2814D104E032
:10399000742810D07A280FD10DE044F400140AE006
:1039A00044F4801401E044F440147278824202D15D
:1039B00004F58014761C761C307866280BD013DC56
:1039C000582877D009DC002875D04528F6D046283D
:1039D000F4D047281AD19DE118E0632835D0642837
:1039E00079D0652812D195E1702873D008DC67285A
:1039F000F1D069286FD06E280DD06F2806D1B5E0C0
:103A000073282CD0752875D0782874D05A46179909
:103A100090476D1C75E1C4F30250022809D00328B9
:103A20000DD0D9F8001004280DD00D6009F104095B
:103A300067E1D9F80010EA17C1E90052F6E7D9F8B2
:103A400000100D80F2E70D70F0E719F8041B8DF8F7
:103A5000001000208DF80100EA46012003E059F82B
:103A600004AB4FF0FF3061074FF0000102D40DE0CE
:103A700008F101018846B9420FDA8045F8DB1AF8EF
:103A800008100029F4D108E008F1010188468142BC
:103A9000FADB1AF808100029F6D105985B46A0EB6E
:103AA000080721463846179A00F094FA284400EB9C
:103AB000080507E04DE029E10DE01AF8010B5A4630
:103AC00017999047B8F10108F7D25B46214638466E
:103AD000179A13E142E00A220092C4F302524FF017
:103AE000000A022A08D059F804CB032A4FEAEC71E5
:103AF0000AD00DE029E02AE009F1070121F00702D0
:103B0000F2E802C1914609E00FFA8CFC4FEAEC7131
:103B1000042A03D14FFA8CFC4FEAEC71002907DA32
:103B20000A460021DCF1000C61EB02012D2202E0CB
:103B3000220504D52B228DF80420012203E0E207A0
:103B400001D02022F7E7904659E00A2102E0102236
:103B50000DE010214FF0000A00910BE010224FF011
:103B6000000A44F004040827009203E008224FF002
:103B7000000A0092C4F30252022A05D059F804CB7D
:103B80000021032A08D009E009F1070121F007020A
:103B9000F2E802C1914605E01FFA8CFC042A01D12B
:103BA0000CF0FF0C4FF00008220728D5702806D033
:103BB000009B83F0100353EA0A0305D00EE0402275
:103BC0008DF80420012208E05CEA010206D03022D0
:103BD0008DF804208DF8050002229046009B83F0AA
:103BE000080353EA0A030AD15CEA010201D1620721
:103BF00005D530228DF804204FF001087F1E58288B
:103C000004D034A003900EA802900DE036A0F9E78E
:103C100053466046009AFCF7A9FD84460398825CEF
:103C20000298401E029002705CEA0100F0D10298F6
:103C300006A9081A00F1200A600702D524F480348E
:103C400000E00127574502DDA7EB0A0000E0002055
:103C500000EB0A01009005984144401A0590E003EA
:103C600006D45B462146179A059800F0B3F905443F
:103C7000002706E001A85A46C05D179990476D1CC1
:103C80007F1C4745F6DBE0030CD55B462146179ABF
:103C9000059800F09FF9054404E030205A46179932
:103CA00090476D1C0099481E00900029F5DC08E043
:103CB000029802995A460078491C02911799904738
:103CC0006D1CBAF10001AAF1010AF1DC65E1000006
:103CD00009280100303132333435363738396162E2
:103CE00063646566000000003031323334353637A6
:103CF00038394142434445460000000000F058F97D
:103D00000544761C307800287FF4ECAD19B02846C5
:103D1000BDE8F08F620700D4062709F1070222F000
:103D2000070CFCE80223E14603F000485FEA080CB8
:103D300002D00FF2702C0DE05FEA045C02D50FF2A6
:103D4000682C07E05FEAC47C02D00FF2602C01E02F
:103D5000AFF2700C4FF0FF3823F00043CDF850C0A5
:103D600065280CD006DC452809D046281DD04728F8
:103D70003DD13DE0662818D067287ED138E000218B
:103D8000112F01DB112000E0781CCDE9000106A90C
:103D90000EA8FFF7CDFCDDE90F010E9A039100217B
:103DA000009207F1010A04914DE04FF000400097A6
:103DB000CDE9011006A90EA8FFF7BAFCDDE90F0254
:103DC00003920E9B11990022DDF80CA0009304923F
:103DD00011B9791C00EB010AB7EB0A0004D4C0F159
:103DE000FF3007F1010A0490AAEB0700019044E0BC
:103DF000012F00DA01270021112F01DD112000E041
:103E00003846CDE9000106A90EA8FFF791FCDDE9CF
:103E10000F010E9A0391002104910092BA462107E6
:103E20000CD40399514500DA8A46BAF1010F05DD39
:103E3000009AAAF10101515C302908D0B84202DA97
:103E400010F1040F06DA0121CDE9011015E0AAF105
:103E50000101E9E7002805DC049901440491AAEB7B
:103E6000000102E0411C514500DD8A460499401AD8
:103E7000401C01904FF000400290200704D40198AC
:103E8000504501DBCDF8048000208DF84F000298EA
:103E90000DF14F07B0F1004F25D02B200E90029866
:103EA0004FF0020800280CDA404202902D200E90BC
:103EB00007E00A210298FCF743FC3031029007F832
:103EC000011DB8F10001A8F10108F2DC02980028F8
:103ED000EFD1791E0E980870307800F0200040F085
:103EE000450007F8020D12A8C01B00F1070814983E
:103EF000007800B1012000EB0A01019801EBE071AC
:103F000005984144401A401E0590E00306D45B46E4
:103F10002146179A059800F05DF80544149800783A
:103F200018B15A46179990476D1CE00324D55B469B
:103F30002146179A059800F04DF805441CE00498B6
:103F4000002807DBDDE90301884203DD0098405CBF
:103F5000179901E0179930205A469047049805F1C7
:103F60000105401C04900198401E019004D12E20B0
:103F70005A46179990476D1CBAF10001AAF1010A3F
:103F8000DDDC05E017F8010B5A46179990476D1CC8
:103F9000B8F10001A8F10108F4DC5B462146179A4C
:103FA0000598ABE62D0000002B000000200000006B
:103FB0002DE9F041044600251E461746880404D426
:103FC00005E039462020B0476D1C641EF9D528460F
:103FD000BDE8F0812DE9F041044600251E469046DB
:103FE000C80301D5302700E02027880404D505E068
:103FF00041463846B0476D1C641EF9D52846BDE8D9
:10400000F08100002DE9F05F05463E4FDFF8F8A093
:10401000DFF8F8903E4EDFF8FCB0FCF749FB3E4A73
:104020003E4BFCF7ECF988460446BD4217DA002205
:104030001346FCF751FB204641464FF000024B4629
:1040400002D8FCF735F901E0FCF7D3F9FCF7F8FAF0
:1040500056F82000FCF7C2FA5A4653464CE0304866
:10406000854214DA002220461346FCF735FB204631
:1040700041464FF000024B4602D8FCF719F901E027
:10408000FCF7B7F9FCF7DCFAC0F5C770E0E72548A4
:10409000254F85424FF000022046134615DAFCF703
:1040A0001BFB204641464FF000024B4602D8FCF76E
:1040B000FFF801E0FCF79DF9FCF7C2FA06EB80007F
:1040C000A0F58050D0F8C80912E0FCF705FB2046A7
:1040D00041464FF000024B4602D8FCF7E9F801E0F8
:1040E000FCF787F9FCF7ACFAC0F5477056F82000EA
:1040F000FCF774FA5A463B46FCF781F9BDE8F05FDD
:10410000FCF702BBDB0FC93FE2361A3F0000E03F7D
:10411000004700082D431CEB9CA223B9FCAB5F4079
:10412000DB0F4940E4CB9640E2361ABF0249A1EBCF
:104130006001FCF77FB80000865A375F70B51446FF
:104140001D460E46002814BF01210021314321F0F5
:104150000041C1F17F6101F1E041C90F16D1002C8E
:1041600014BF01210021294321F00041C1F17F61E9
:1041700001F1E041C90F09D11449B1EB460F08BF65
:1041800000281CD0690008BF002C18D03146FCF76D
:10419000D3FB024640F2FF7030EA11500DD0F01709
:1041A000B0EBE17F09D0084665F31E0084460B465C
:1041B00020466146FCF720F90246104670BD0120FA
:1041C000FFF782FABDE87040FFF768BA0000E0FF31
:1041D00013B54FF6FF73012269460248FEF712FC41
:1041E00000981CBDE401002070B50E480088FCF763
:1041F00006FA04460D460C480C49008809884843D5
:10420000FCF7ECF90A4A0B4BFCF7F9F822462B466F
:10421000FCF767F9FCF778FA074C2060FFF73AFBE8
:10422000206070BD0E000020100000200C00002057
:10423000EA2E4454FB211940000000201CB5FCF775
:104240000FFD544C544920600160FDF73BFCFEF724
:10425000DBFFFEF73FFEFEF79DFEFEF7B3FFFEF726
:1042600013FEFEF777FEFEF713FFFEF743FFFEF7A0
:1042700075FF00224FF400514848FDF75DF92068B2
:10428000FCF797FC4649002004464FF07C554FF45C
:10429000FA7608600021284600F0D8F8641CB44281
:1042A000F8DB4FF47A70FDF745F83E48FEF7EAF880
:1042B0003D48FEF7E7F83D48FEF7E4F83C48FEF7D6
:1042C000E1F800213748FEF7E3FA04213548FEF70C
:1042D000DFFA08213348FEF7DBFA4FF4FA60FDF706
:1042E00029F8344EDFF8D0A0DFF8D080DFF8D09086
:1042F0004FF0663B33480088FCF76BF96FF00B0416
:104300002146FBF7C9FFFCF7D3F92F4F5A463B462E
:10431000FCF775F85A463346FCF76BF852464346AD
:10432000FCF7DFF800224B46FCF7DBF8FCF7ECF972
:1043300026490546086026480088FCF74AF92146C8
:10434000FBF7AAFFFCF7B4F95A463B46FCF757F8CF
:104350005A463346FCF74DF852464346FCF7C1F83F
:1043600000224B46FCF7BDF8FCF7CEF9194908606E
:10437000FCF79EF904460F462846FCF799F9CDE96B
:10438000004702460B4614A0FFF768F90A20FCF725
:10439000D1FFAFE7040000207000002000100140B2
:1043A00000000020C40000200C0100205401002067
:1043B0009C0100206666FA3F7B14AE47E17A843F99
:1043C000000049401200002066660A4018000020E4
:1043D000140000201C00002025662C25660D0A0014
:1043E000F0B50B30154D20F007010024144A0FE002
:1043F00003688B420BD38B4205D95E1A431847687A
:10440000C3E9006700E04368136002C004E0021DD6
:1044100010680028ECD12046002802D1286808B195
:104420000020F0BD064A07481060074A121A22F021
:104430000702C0E9002401202860D7E73C000020E3
:10444000380000202C020020280400202DE9FC5F09
:104450009F4D064688462868FFF7D4FD3146FBF796
:10446000E9FE04462868FFF735F94146FBF7E2FE0E
:104470002146FBF7D9FE04462868FFF72BF93146A1
:10448000FBF7D8FE07462868FFF7BCFD4146FBF75F
:10449000D1FE3946FBF776FE0146FBF7CBFE074619
:1044A00021460846FBF7C6FE3946FBF76BFEFFF7D1
:1044B0003DFE0446874988488C4201DB0C4602E0F9
:1044C000844200D90446854FDFF814822868B6F587
:1044D000000F06DBFCF7ECF83A464346FBF7E8FE34
:1044E00005E0FCF7E5F83A464346FBF782FFFCF7A8
:1044F0000BF9FFF7CFF9AA462860FCF7D9F80F4669
:104500000646784A784BFBF7ECFF0022774BFBF727
:10451000CFFEFCF7B4F880462046FCF7C9F8044605
:10452000B9460D4637464046FCF769F806466D4ADF
:104530006D4B0191FBF763FF3A464B46FBF759FF82
:10454000FCF7E2F8FFF75EFDFCF7B2F8DFF8A091A8
:10455000DFF8A0B14A465B46FBF751FF22462B46E7
:10456000FBF74DFFFCF7D0F80090304600225F4B80
:104570000199FBF73EFF5B4A5B4BFBF740FF0646AA
:104580000F46DAF80000FCF793F832463B46FBF79B
:1045900030FFFCF7B9F8FFF735FDFCF789F84A461C
:1045A0005B46FBF72CFF2B462246FBF728FFFCF768
:1045B000ABF806464FF07E500099FBF735FE3146CA
:1045C000FBF732FE4FF0FF31B8F1070F5DD2DFE8A5
:1045D00008F05C04122331414E00FBF75DFE0746F4
:1045E00031460098FBF7CEFD3946FBF7CBFD05467B
:1045F000384631460BE0FBF74FFE07460099FBF7C4
:10460000C1FD054631460098FBF7BCFD3946FBF776
:10461000B9FD04463E463BE0FBF73EFE054631460B
:104620000098FBF7AFFD2946FBF7ACFD0446284692
:1046300031460BE0FBF730FE05460099FBF7A2FD83
:10464000044631460098FBF79DFD2946FBF79AFD8D
:1046500006461DE0FBF720FE04463146FBF792FDBF
:10466000054631460098FBF78DFD2146EEE7FBF746
:1046700013FE044631460098FBF784FD2146FBF704
:1046800081FD054620460099E0E700252C462E4690
:1046900019480068FBF794FF07462946FBF7CAFD57
:1046A000FBF7BAFF154D2968486338462146FBF7EA
:1046B000C1FDFBF7B1FF2968886338463146FBF737
:1046C000B9FDFBF7A9FF2968C863BDE8FC9F00009E
:1046D0000000002046B6133F46B613BFF4D643543D
:1046E000FB21F93F40AF2D3852C1F03F0000F03FB1
:1046F0006B6058E87AB6FB3F08000020C400002039
:10470000000000004F0000009E000000ED000000CF
:104710003C0100008B010000D901000028020000CC
:1047200077020000C60200001503000063030000CA
:10473000B2030000000400004F0400009D040000CC
:10474000EC0400003A05000088050000D6050000D2
:104750002406000072060000C00600000E070000DC
:104760005B070000A9070000F607000043080000EF
:1047700090080000DD0800002A0900007709000009
:10478000C30900000F0A00005C0A0000A80A00002C
:10479000F40A00003F0B00008B0B0000D60B00005A
:1047A000210C00006C0C0000B70C0000010D000093
:1047B0004C0D0000960D0000E00D0000290E0000D9
:1047C000730E0000BC0E0000050F00004E0F00002D
:1047D000960F0000DF0F0000271000006E10000091
:1047E000B6100000FD100000441100008B11000005
:1047F000D1110000171200005D120000A21200008B
:10480000E81200002D13000071130000B613000021
:10481000F91300003D14000081140000C4140000CE
:1048200006150000491500008B150000CC1500008E
:104830000E1600004F1600008F160000CF16000065
:104840000F1700004F1700008E170000CD17000053
:104850000B1800004918000087180000C418000059
:10486000011900003D19000079190000B519000078
:10487000F01900002B1A0000661A00009F1A0000B1
:10488000D91A0000121B00004B1B0000831B000004
:10489000BB1B0000F21B0000291C0000601C000074
:1048A000961C0000CB1C0000001D0000351D000000
:1048B000691D00009D1D0000D01D0000031E0000AA
:1048C000351E0000671E0000981E0000C91E000073
:1048D000FA1E0000291F0000591F0000881F000059
:1048E000B61F0000E41F0000112000003E20000061
:1048F0006A20000096200000C1200000EC2000008B
:1049000016210000402100006921000092210000D2
:10491000BA210000E1210000082200002F2200003F
:10492000552200007A2200009F220000C3220000CE
:10493000E72200000A2300002D2300004F2300007F
:104940007023000091230000B2230000D123000057
:10495000F12300000F2400002D2400004B24000050
:104960006824000084240000A0240000BB24000070
:10497000D5240000EF2400000925000022250000B6
:104980003A25000052250000692500007F2500001F
:1049900095250000AA250000BF250000D3250000B2
:1049A000E6250000F92500000B2600001D2600006A
:1049B0002E2600003E2600004E2600005D26000048
:1049C0006C2600007A26000087260000942600004E
:1049D000A0260000AB260000B6260000C02600007E
:1049E000CA260000D3260000DB260000E3260000D4
:1049F000EA260000F1260000F7260000FC26000051
:104A00000127000005270000082700000B270000F1
:104A10000D2700000F2700001027000010270000BE
:104A20000000000001000000030000000000000082
:104A3000000000000102030406070809000000004E
:104A400001020304644A0008000000204000000046
:104A5000A8360008A44A000840000020E80700002B
:104A6000B836000800000000000000000000000050
:104A70000E00001000000000000000000000000018
:104A80000000000001000000100000000000000015
:104A90000024F400000000000000000000000000FE
:044AA0000000000012
:04000005080000ED02
:00000001FF
