:020000040800F2
:100000006807002001010008832900082523000853
:1000100081290008E30C0008F92C0008000000000A
:100020000000000000000000000000008729000818
:10003000E50C000800000000852900088929000857
:100040001B0100081B0100081B0100081B01000820
:100050001B0100081B0100081B0100081B01000810
:100060001B0100081B0100081B0100081B01000800
:100070001B0100081B0100081B0100081B010008F0
:100080001B0100081B0100081B0100081B010008E0
:100090001B0100081B0100081B0100081B010008D0
:1000A0001B0100081B0100081B0100081B010008C0
:1000B0001B0100081B0100081B0100081B010008B0
:1000C0001B0100081B0100081B0100081B010008A0
:1000D0001B0100081B0100081B0100081B01000890
:1000E0001B0100081B0100081B010008DFF80CD0F1
:1000F00000F030FC00480047B92F000868070020D6
:100100000648804706480047FEE7FEE7FEE7FEE7B1
:10011000FEE7FEE7FEE7FEE7FEE7FEE7052A00084A
:10012000ED000008202A04DB203A21FA02F0002129
:10013000704721FA02F3D040C2F1200291400843F7
:1001400019467047D2B201E000F8012B491EFBD2DC
:1001500070470022F6E710B513460A4604461946D2
:10016000FFF7F0FF204610BD10B54843044602F0EB
:1001700089FF002805D00021002C02D0641E015503
:10018000FAE710BDF0B480EA0102D40F4200B2EBEE
:10019000410F02D20246084611464A0042D0C30D22
:1001A000DDB2C1F3C752AD1A202D35DAC1F3160105
:1001B00041F4000204B15242C5F1200602FA06F1F0
:1001C0002A411044B3EBD05F23D0C4B1012DA0EB82
:1001D000C35009DCF0BC4FF0004202EAC352DBB26C
:1001E00000F5000000F0E8BA400000F1807000EB7C
:1001F000C350A0F1807040EAD170490009E049087D
:1002000041EAC071A0EBC35000F50000400800EBCC
:10021000C350F0BC00F0C7BA6142012202EB4101B9
:10022000001BF6E7F0BC704781F00041AAE780F0C0
:100230000040A7E780EA010210B502F00043400049
:1002400022D04A001FD0010E01EB1261C0F356000C
:10025000C2F3560240F4000042F40002A0FB022068
:1002600000047F39140400D0401C50EA124001D42D
:100270004000491EC2B20C0604EBD010401C4008DE
:10028000802A02D003E0002010BD20F001000029E8
:1002900000DA0020184310BD420005D0C0F3C75259
:1002A0005242914201DC0020704700EBC150704780
:1002B0002DE9FE4F804681EA0300C00F0C460090F6
:1002C00021F0004123F00045B8EB0200A94105D21E
:1002D0004046214690461C460B46024623F000400D
:1002E000104347D0270DC7F30A00C3F30A51029009
:1002F000401A019040286BDAC3F3130040F4801BCE
:100300000098924620B10023D2EB030A63EB0B0B5B
:1003100001985946C0F14002504600F023FA0646C3
:100320000D4650465946019A00F02BFA10EB080092
:100330006141002487EA115284EAE7731A4340D0EE
:10034000009A62B3019A012A4FEA075215DC001B9A
:1003500061EB02014FF0004202EA0752CDE9004290
:10036000001C41F5801132462B4600F062FA03B0C2
:10037000BDE8F08F40462146F9E7001B61EB020122
:10038000001C41F5801300185B412018A2F50017EE
:1003900047EB030140EAD570B6196D4111E06D08D5
:1003A0004FEA360645EAC0754FEA0752001B61EB7B
:1003B0000201001C41F5801149084FEA3000001984
:1003C000514132462B4603B0BDE8F04F00F022BA4F
:1003D0000098012240000023D0EB020263EBE0739F
:1003E000009821464FEAE074B8EB000061EB04018D
:1003F000E9E783F000435BE781F0004158E72DE92E
:10040000FE4F81EA030404F0004421F0004100940F
:100410004FF0000B23F0004350EA01045ED052EA93
:1004200003045BD0C3F30A54C1F30A552C44A4F26D
:10043000F3340194A0FB0254C1F3130141F4801181
:10044000C3F3130343F4801301FB024400FB034E88
:10045000840A970A44EA815447EA8357A4FB076851
:1004600002958D0A05FB07854FEA932C04FB0C547B
:100470002705029D4FEA065847EA1637B5EB0805EF
:100480006EEB070C870E920E47EA811742EA831241
:10049000A7FB0201B6EB0B0164EB00042B0D43EA52
:1004A0000C335E1844EB1C50DA465146E7FB020160
:1004B000C5F313044FEA0B3343EA14534FEA0432F3
:1004C000019C43EA0603A4F10C040294009CCDE9CC
:1004D00000B400F0AEF903B0BDE8F08F0020014693
:1004E000F9E72DE9F04D81EA030404F0004B21F017
:1004F000004514464FF0000A23F0004150EA05027F
:1005000020D054EA01021DD0C5F30A570246C5F3B4
:100510001303C1F31300C1F30A5640F4801543F4EA
:100520008013A7EB0608101BD64608F2FD3873EBC4
:10053000050002D308F1010801E092185B41B8F10F
:10054000000F03DA00200146BDE8F08D00204FF4D3
:100550008011064684460EE0171B73EB050705D392
:10056000121B63EB050306434CEA010C49084FEAF2
:10057000300092185B4150EA0107EDD152EA0300C6
:1005800012D082EA040083EA0501084305D0101B5B
:10059000AB4106D20122002306E000224FF00043C7
:1005A00002E06FF0010253101AEB06004CEB085109
:1005B00010EB0A0041EB0B01BDE8F04D00F02AB949
:1005C00070B521F0004303430CD0C1F30A55002459
:1005D000D5EB040564EB0403D617AD1AB34102DB77
:1005E0000020014670BD201841EB025170BDC10FC3
:1005F00080EAE0700844CA079623002100F0DCB8C6
:100600000EB5C10F80EAE0700844CA07002140F22D
:1006100033438DE80E000A460B4600F00AF903B09A
:1006200000BD0EB540F2334102910021CDE9001129
:100630000A460B4600F0FDF803B000BD20F0004074
:10064000C10DC0F3160040F400007F2901DA00203C
:100650007047962903DCC1F19601C840704796396E
:100660008840704770B5C1F30A5201F0004500247C
:10067000C1F3130140F2FF3341F480119A4201DAD1
:10068000002070BD40F233439A42A2F2334203DCB1
:100690005242FFF747FD00E090402C43F1D040422A
:1006A00070BDC1F30A5210B5C1F3130140F2FF331C
:1006B00041F480119A4201DA002010BD40F2334328
:1006C0009A42A2F2334203DC5242FFF72BFD10BDE7
:1006D000904010BD00F0004230F000400AD0C10D43
:1006E00001F56071C0F3160042EA0151C2084007EB
:1006F00011437047002001467047000030B5041ECA
:1007000071F1000404DB4FF00044404264EB01014E
:10071000141E73F1000405DB1C464FF000435242E7
:1007200063EB0403994208BF904230BD01F00043DF
:1007300030B421F0004150EA010206D00A0DA2F5C2
:100740006072C1F31301002A02DC30BC0020704744
:10075000440F44EAC104C100E01830BC00EBC250B1
:1007600000F021B8202A04DB203A00FA02F1002030
:1007700070479140C2F1200320FA03F319439040DF
:100780007047202A06DBCB17203A41FA02F043EAF1
:10079000E07306E041FA02F3D040C2F1200291403A
:1007A0000843194670470029A8BF7047401C4900FC
:1007B00008BF20F00100704710B4B0FA80FC00FAC6
:1007C0000CF050EA010404BF10BC704749B1CCF1F1
:1007D000200421FA04F411FA0CF118BF012121437D
:1007E0000843A3EB0C01CB1D4FEA00614FEA102038
:1007F00042BF002010BC704700EBC35010440029DA
:10080000A4BF10BC7047401C490008BF20F0010085
:1008100010BC704710B5141E73F1000408DA401CB8
:1008200041F1000192185B411A4301D120F001000F
:1008300010BD2DE9F04D92469B4611B1B1FA81F2FF
:1008400002E0B0FA80F220329046FFF78BFF0446B8
:100850000F4640EA0A0041EA0B0153465A46084354
:1008600013D0114653EA010019D0C8F14002504696
:10087000FFF758FC05460E46504659464246FFF7DC
:1008800071FF084305D0012004E020463946BDE849
:10089000F08D0020054346EAE0762C4337430A9862
:1008A0006305E40AA0EB08000022FD0A44EA47546D
:1008B0000A3002D500200146E9E701051019694117
:1008C000DDE9084500196941BDE8F04DA2E72DE9D1
:1008D000FE4FC3F30A5701F000450024C1F30A5646
:1008E000C3F31303C1F3130143F4801312EB020AA1
:1008F000A64641F48011009543EB030CA7F1010BD0
:1009000016E0B0EB0A0061EB0C01071E71F1000765
:1009100007DA4FF00008D0EB080085F0004568EBDF
:100920000101171A73EB0107EBD3761E001849413A
:100930005E45F6DA50EA010209D0CDE900E5002271
:1009400013460296FFF775FF03B0BDE8F08F20460F
:100950000099F9E7064C074D06E0E06840F0010316
:1009600094E8070098471034AC42F6D3FFF7C2FB77
:10097000DC360008FC36000870B504460068816863
:10098000C943C90717D1816821F00101816000F0D6
:1009900005FC05460AE000BF00F000FC401B0228F1
:1009A00004D920688068C043C00706D020688068EA
:1009B000C043C007F0D0002070BDA06A40F0100016
:1009C000A062E06A40F00100E062012070BD0EB557
:1009D00082680123CDE90013029200680B226C218A
:1009E00000F0A6FC0EBD1FB50C46002103910222AB
:1009F00003A983688DE80E00006801230C226C2196
:100A000000F096FCBDF80C1049BA218004B010BD6E
:100A100038B50446806808B90A20A060A17B01208F
:100A200001B9A073E17B01B9E073217C01B92074A5
:100A3000617C01B96074A17C01B9A074E17C01B949
:100A4000E074217D01B92075607D08B902206075D0
:100A5000E17B204600F0A0F868BB217C204600F036
:100A600077F840BBA27C617C204600F0B9F810BB4F
:100A7000E17C204600F0F3F8E8B9217D204600F043
:100A800022F8C0B9617D204600F00DF998B92046E2
:100A900000F019F978B900208DF800006946204669
:100AA000FFF795FF38B99DF80000810603D50107CF
:100AB00001D4C00601D5012038BD002038BD182161
:100AC0000120FFF751BB092940D2DFE801F03F05C3
:100AD00009131B232B333B00817D21F01C0106E011
:100AE000817D21F018018175817D41F004018175BE
:100AF00000207047817D21F014018175817D41F0D6
:100B00000801F4E7817D21F010018175817D41F0BC
:100B10000C01ECE7817D21F00C018175817D41F0B4
:100B20001001E4E7817D21F008018175817D41F0AC
:100B30001401DCE7817D21F004018175817D41F0A4
:100B40001801D4E7817D41F01C01D0E701207047F6
:100B5000012907D0022909D0032911D0042917D06F
:100B600001207047C17D21F00C0106E0C17D41F0FC
:100B70000401C175C17D21F00801C17500207047D5
:100B8000C17D21F00401C175C17D41F00801F4E788
:100B9000C17D41F00C01F0E7012907D0022909D0FD
:100BA000032911D0042917D001207047C17D21F0FD
:100BB000030106E0C17D41F00101C175C17D21F055
:100BC0000201C17500207047C17D41F00201C1756D
:100BD000C17D01F00101F4E7C17D41F00301F0E7BF
:100BE000012904D0022906D003291ED10DE0C17DC0
:100BF00021F0300106E0C17D41F01001C175C17DD9
:100C000021F02001C17500207047C17D01F0100165
:100C1000C175C17D41F02001C175012A07D0022AAA
:100C200009D0032A0FD0042A15D001207047C17DB6
:100C300021F0C001E6E7C17D41F04001C175C17DF1
:100C400021F08001DEE7C17D21F04001C175C17D49
:100C500041F08001D6E7C17D41F0C001D2E7012912
:100C600007D0022909D0032911D0042917D0012067
:100C70007047817D21F0030106E0817D41F0010193
:100C80008175817D21F00201817500207047817D91
:100C900021F001018175817D41F00201F4E7817D40
:100CA00041F00301F0E7012903D0022905D001201A
:100CB0007047817D21F0400102E0817D41F04001DB
:100CC0008175002070470EB5022200F1160183687D
:100CD0008DE80E000068012307226C2100F050FC13
:100CE0000EBDFEE7704772B6FEE70000F8B50024BF
:100CF000009490F824202546012A12D0012280F881
:100D000024204A681F23072A0DD20668776B521EDB
:100D100002EB820293409F430B6893401F4377632B
:100D200019E00220F8BD06680D2A0AD2376BD21FDF
:100D300002EB820293409F430B6893401F4337634B
:100D400009E0F76A0D3A02EB820293409F430B6879
:100D500093401F43F7620A68072306680A2A0AD3EA
:100D6000F7680A3A02EB420293409F438B68934034
:100D70001F43F76008E0376902EB420293409F434C
:100D80008B6893401F4337610A68102A01D0112AEB
:100D900020D1124B02689A4217D193681B0219D4D2
:100DA000936843F4000393600968102912D10C4939
:100DB0000C4A0968B1FBF2F101EB8101490000E046
:100DC000491E00910029FBD104E0816A41F0200115
:100DD0008162012480F824502046F8BD002401409F
:100DE0001400002040420F002DE9F0414FF00007B1
:100DF00004003D467ED0A06A002628B9E66284F849
:100E00002460204600F07EF82046FFF7B5FDA16A79
:100E100001F01001014304D0A06A40F01000A0626C
:100E200068E0A16A21F4885141F00201A162626880
:100E3000E169237B0A4347EA43010A43A1684FF46F
:100E40008077B94208D0012906D0002194F814C057
:100E5000BCF1010F02D00AE03946F7E7F3B1A36A0B
:100E600043F02003A362E36A43F00103E3622368D3
:100E7000D3F804C02CF4694C4CEA010CC3F804C04C
:100E800023689968DFF870C001EA0C01114399608A
:100E9000A168B9420BD0012909D00CE0DFF85CC091
:100EA000A3690CEB43330B4343F40061DFE7218A72
:100EB0000D05A5F580152168CB6A23F470032B433B
:100EC000CB62216889680E4B1940914208D1E662D5
:100ED000A16A21F0020141F00101A162BDE8F081A7
:100EE000A06A20F0020040F01000A062E06A40F02A
:100EF0000100E0620120F1E7FDF7E1FF00E0FFFF04
:100F0000FE0E1FFF10B586B00021009101910291E5
:100F100003911A4C03681A4903221A48A34211D1BB
:100F20008B6943F400738B618B6903F40073049342
:100F30008B6943F004038B61896901F0040104911A
:100F4000012113E0104CA34215D18B6943F4806357
:100F50008B618B6903F4806304938B6943F0040312
:100F60008B61896901F0040104910221CDE900122D
:100F7000694600F01DF806B010BD000000240140D5
:100F800000100240000801400028014070B50446EE
:100F900000F004F90546601C02D0044800780444BF
:100FA00000F0FCF8401BA042FAD370BD08000020FE
:100FB0002DE9F84FDFF8B891002409F1040A0AF18D
:100FC000040B23460F270BF1040EC9E00125A540B1
:100FD0002A40AA427DD1674ED1F804C0ACEB060886
:100FE000B44532D014DCBCF1030F3AD009DCBCF1BB
:100FF000000F2AD0BCF1010F1CD0BCF1020F31D17F
:101000001DE0BCF1110F17D0BCF1120F2AD119E06D
:10101000B8F5881F19D006DCB8F5803F15D0B8F5B3
:10102000801F1FD111E0B8F5001F0ED0B8F5041FC6
:1010300018D10AE0CB6815E0CB681B1D12E0CB6825
:1010400008330FE0CB680C330CE08B682BB1012B1D
:101050004FF0080303D0456104E0042302E005617A
:1010600000E00023FF2A01D8064601E000F1040653
:101070004FEA840501D9A5F12005D6F8008007FACA
:1010800005FC28EA0C0803FA05F548EA0508C6F845
:1010900000804D68ED0062D5374DAE6946F001061F
:1010A000AE61AD6924F0030605F001050095334DEE
:1010B00006EB050CDCF80850A607360F07FA06F811
:1010C00025EA0805DFF8B880404503D14FF0000855
:1010D00017E044E0DFF8AC80404502D14FF0010852
:1010E0000FE0DFF8A480404502D14FF0020808E08D
:1010F000DFF89880404502D14FF0030801E04FF03F
:10110000040808FA06F848EA0508CCF808804D6893
:10111000D9F80060ED034D4601D5164300E0964333
:101120002E604D68DAF80060AD03554601D51643D0
:1011300000E096432E604D68DBF80060ED025D46EE
:1011400001D5164300E096432E604D68DEF800603E
:10115000AD02754601D5164300E096432E60641C2F
:101160000D682A46E5407FF431AFBDE8F88F0000F6
:101170000004014000001110001002400000014076
:1011800000080140000C0140001001400014014023
:101190000AB1016170470904FBE70000014880685B
:1011A000704700000800002070B5040025D094F8B6
:1011B0003D00002520B984F83C50204600F078FA24
:1011C000242084F83D002068016821F001010160BD
:1011D0002068016841F4004101602068016821F441
:1011E0000041016000F028FC4D4A6168914201D83D
:1011F0004C4900E04C49884201D2012070BD4B4966
:101200002368B0FBF1F15E6826F03F060E435E6096
:101210006368934206D94FF4967359434FF47A7337
:10122000B1FBF3F12368491C1E6A26F03F063143E7
:1012300019626168914210D84900401EB0FBF1F27A
:10124000521CC2F30B02042A01D2042022E0B0FB9C
:10125000F1F0401CC0F30B001CE0A268F2B301EBFC
:10126000C10303EB0116431EB3FBF6F35B1C43F40F
:1012700080431B0549D092B301EBC10202EB01117F
:10128000401EB0FBF1F0401CC0F30B0040F4804066
:1012900040F400402168CA694CF6FF739A4310433A
:1012A000C861D4E9071001432068026822F0C00237
:1012B00011430160D4E9030101432068826848F2C8
:1012C000FF339A4311438160D4E905010843216843
:1012D000CA6822F0FF021043C86001E00EE016E089
:1012E0002068016841F0010101602564202084F834
:1012F0003D00256384F83E50002070BD01EB41069F
:10130000431EB3FBF6F35B1CB3E70120C2E701EB1E
:101310004101401EB0FBF1F0401CC0F30B00B7E7E9
:10132000A086010080841E0000093D0040420F009D
:101330002DE9FF4F83B00025DDE910799A469346E9
:101340000446DDF848800095FFF728FF064694F82C
:101350003D0020287CD11923012285492046009692
:1013600001F0F0F80028F5D194F83C0001286FD086
:10137000012084F83C0020680168C90703D1016896
:1013800041F0010101602068016821F40061016001
:10139000222084F83D00402084F83E0025646762E6
:1013A000A4F82A90608D20857248E062CDE900861D
:1013B00053465A462046049900F0CCFF00287DD1C0
:1013C000208DDFF8B491202768B1012814D00228BD
:1013D000206801681ED041F4806101602068416985
:1013E00080690090B6E020684169816900910168D8
:1013F00041F400710160ADE02068016821F4806172
:10140000016072B62068416981690091016841F408
:1014100000710AE041F40061016072B62068416920
:1014200081690091016821F48061016062B691E0F8
:10143000032868D801280CD0022843464FF0000248
:101440004946204600960FD001F07CF8B0BB10E072
:101450008BE032464146204601F0F3F870BB20682D
:101460000069616A08706CE001F06CF830BB72B61C
:1014700034E02068016821F48061016072B6206860
:101480000069616A0870606A401C6062208D401EBD
:101490002085608D401E6085384846F2A81100689E
:1014A000B0FBF1F0C0EBC00000EB80000090401EEC
:1014B000009008D020684069C04300E029E0400760
:1014C0000CD50098F3E744F8305F6773A573206983
:1014D00040F02000206162B625731AE020680168A0
:1014E00041F40071016020680069616A0870606AF7
:1014F000401C6062218D491E2185618D491E6185D8
:1015000062B621681BE032464146204601F099F858
:1015100018B1012007B0BDE8F08F20680069616A4A
:101520000870606A401C6062218D491E2185618DB2
:10153000491E618521684A69D24352070AD4096964
:101540000170606A401C6062208D401E2085608DA5
:10155000401E6085208D00287FF46AAF84F83D70BE
:1015600084F83E5084F83C50D4E70220D2E70000D3
:10157000020010000000FFFF040001001400002022
:101580002DE9FF4F83B09A46DDE911979346044653
:10159000DDF84080FFF702FE054694F83D00202864
:1015A0007FD11923012240492046009500F0CAFF4F
:1015B000002876D194F83C00012872D0012084F8EC
:1015C0003C0020680168C90703D1016841F00101AE
:1015D00001602068016821F400610160212084F825
:1015E0003D00402084F83E0000262664C4F8248094
:1015F000A4F82A90608D20852C48E062CDE9007522
:1016000053465A462046049900F022FF70B930E054
:101610002A463946204601F047F858B1206C042884
:1016200004D12068016841F400710160012007B015
:10163000BDE8F08F606A216800780861606A401C2C
:101640006062218D491E89B22185628D521E62859C
:1016500022685369DB435B070BD469B100781061E2
:10166000606A401C6062208D401E2085608D401E97
:101670006085208D0028CBD12A463946204600F0CF
:101680003BFF0028CAD154F83D0B016841F40071BA
:101690000160202004F81E09E67766770020C6E77F
:1016A000FFE70220C3E70000020010000000FFFF78
:1016B00010B586B00021009101910291039100685C
:1016C0000F4988421AD10F4CA06940F00800A06170
:1016D000A069694600F008000490C0200090122024
:1016E0000190032003900848FFF762FCE06940F492
:1016F0000010E061E06900F40010049006B010BD35
:101700000054004000100240000C01400248816873
:10171000027811448160704708000020074810B526
:10172000016841F010010160032000F067F80F200C
:1017300000F006F800F024F8002010BD0020024060
:1017400070B50D4D04464FF47A712878B1FBF0F076
:101750000A490968B1FBF0F000F054FB48B9102CBD
:1017600007D200222146501E00F028F800206C60AD
:1017700070BD012070BD0000080000201400002092
:101780000C4808B5816941F001018161816901F06E
:1017900001010091C16941F08051C161C06900F04F
:1017A000805000900448416821F0E06141F00071F0
:1017B000416008BD0010024000000140F0B40E4B33
:1017C0001B680C46C3F30223C3F10705042D00D99F
:1017D0000425191D072901D2002300E0DB1E012684
:1017E00006FA05F1491E214099409E40761E16409A
:1017F0003143F0BC01F081BA0CED00E0064900F085
:10180000070208684FF6FF03184040EA0220034A27
:1018100010430860704700000CED00E00000FA057E
:101820002DE9F84305460078354CC00754D0E069EF
:101830000026C00008D4E06940F08050E061E06913
:10184000012600F0805000902E480168C90512D48E
:101850000168804641F480710160FFF79FFC0746F4
:1018600005E000BFFFF79AFCC01B642823D8D8F816
:101870000000C005F6D5206A10F4407021D0A98878
:1018800001F4407181421CD0206A1F49012220F4DA
:1018900040700A6000220A602062C00711D0FFF782
:1018A0007DFC074641F2883808E000BFFFF776FC70
:1018B000C11B414502D90320BDE8F883206A800797
:1018C000F4D5206A696820F44070084320621EB194
:1018D000E06920F08050E0612878800705D56068D5
:1018E000A96820F44040084360602878C00605D508
:1018F0006068E96820F48000084360600020DBE74E
:101900000010024000700040400442422DE9F047C0
:101910000F46050061D0434E306800F00700B84222
:1019200009D2306820F0070038433060306800F09A
:101930000700B84251D128683B4C810712D54007B7
:1019400003D5606840F4E06060602878000703D544
:10195000606840F4605060606068A96820F0F00042
:10196000084360602878C00728D06868012810D034
:101970002168022810D0890700292EDA616821F039
:10198000030101436160FFF709FC804641F2883999
:101990000DE021688903EFE78901EDE7FFF7FEFB22
:1019A000A0EB0801494502D90320BDE8F087606833
:1019B000696800F00C00B0EB810FEFD1306800F0E7
:1019C0000700B8420BD9306820F007003843306078
:1019D000306800F00700B84201D00120E5E7287820
:1019E000400705D56068E96820F4E060084360605E
:1019F0002878000706D56068296920F4605040EA1D
:101A0000C100606000F038F86168084AC1F3031152
:101A1000515CC8400649086006480068FFF790FE20
:101A20000020C2E70020024000100240C436000837
:101A3000140000200C000020044805490068496893
:101A4000044AC1F30221515CC840704714000020D1
:101A500000100240D436000804480549006849686F
:101A6000044AC1F3C221515CC840704714000020F1
:101A700000100240D436000812A185B00FC98DE8CD
:101A80000F0014A0144A006804905168134801F034
:101A90000C03042B10D0082B0ED1C1F38343C903D0
:101AA0001DF803000AD5516804AAC1F34041515CF6
:101AB0000A4A5043B0FBF1F005B07047084948436B
:101AC000FAE7000002030405060708090A0B0C0DDB
:101AD0000E0F1010010200000010024000127A00E8
:101AE00000093D002DE9F84F040070D02078C04D6A
:101AF000C00749D06868C0F38100012807D0686832
:101B0000C0F38100022809D16868C00306D528689F
:101B1000800339D560680028E7D035E06068B0F50B
:101B2000803F0BD010B1B0F5A02F11D0286820F461
:101B300080302860286820F4802002E0286840F483
:101B400080302860606890B1FFF728FB06460AE005
:101B5000286840F480202860F0E700BFFFF71EFBF4
:101B6000801B642873D828688003F7D50CE0FFF742
:101B700015FB064605E000BFFFF710FB801B64283D
:101B8000F0D828688003F7D420789A4E80074FF069
:101B900001094FF0000839D5686810F00C0F07D024
:101BA0006868C0F38100022809D16868C00306D4C0
:101BB0002868800714D52069012808D110E0206921
:101BC000B0B1C6F80090FFF7E9FA074605E00AE170
:101BD000FFF7E4FAC01B0228C4D828688007F7D5AD
:101BE0002868616920F0F80040EAC10028600DE033
:101BF000C6F80080FFF7D2FA074604E0FFF7CEFAF6
:101C0000C01B022823D828688007F7D42078000753
:101C10002CD57948A169D9B1C0F80090FFF7BEFA78
:101C2000074604E0FFF7BAFAC01B02280FD8686A1B
:101C30008007F7D571484FF4FA510068B0FBF1F016
:101C4000009000BF0098411E0091FAD20EE080E0A3
:101C5000C0F80080FFF7A2FA074604E0FFF79EFAFB
:101C6000C01B022875D8686A8007F7D4207840071F
:101C700060D5E8690027C00008D4E86940F08050CA
:101C8000E861E869012700F0805000905C48016835
:101C9000C90513D40168834641F480710160FFF7E0
:101CA0007DFA824606E000BFFFF778FAA0EB0A0053
:101CB00064284ED8DBF80000C005F5D5E06801289F
:101CC0000AD008B1052813D0286A20F00100286244
:101CD000286A20F0040002E0286A40F0010028622F
:101CE000E06841F2883B98B1FFF758FA82460BE072
:101CF000286A40F004002862EEE700BFFFF74EFAC2
:101D0000A0EB0A0159455AD8286A8007F6D50CE09D
:101D1000FFF744FA824605E0FFF740FAA0EB0A011C
:101D200059454CD8286A8007F6D41FB1E86920F0DD
:101D30008050E861E06988B36968C1F381010229D4
:101D400044D00228C6F8608004D0FFF727FA044682
:101D500038E034E0FFF722FA074604E0FFF71EFA06
:101D6000C01B02282BD828688001F7D4206AB0F560
:101D7000803F05D16868A16820F40030084368609E
:101D8000D4E908010843696821F4741108436860C4
:101D9000C6F86090FFF702FA044606E025E000BFAF
:101DA000FFF7FCF9001B022809D828688001F7D545
:101DB0001BE000BFFFF7F2F9001B022802D9032045
:101DC000BDE8F88F28688001F4D40EE00128F7D030
:101DD0006868226A00F48031914204D1616A00F49B
:101DE0007010884201D00120EAE70020E8E70000F7
:101DF00000100240000042428004424214000020D1
:101E00000070004010B5401EB0F1807F01D301206A
:101E100010BD4FF0E02460610F21601700F06DFFEE
:101E20000020A06107202061002010BD10B590F8AF
:101E30003C20012A22D0012280F83C20CA688C680C
:101E400022F4407222434C6822F4806222430C68E0
:101E500022F4006222430C6922F4805222434C692E
:101E600022F400522243C969002322F480420A432B
:101E700001684A6480F83C30002010BD022010BD8B
:101E800070B590F83C20012A26D0012480F83C400F
:101E9000022280F83D2003685A689D6822F070068F
:101EA0000A6832435A600D4B02689A4208D0B2F178
:101EB000804F05D00A4B9A4202D00A4B9A4204D175
:101EC000496825F080031943916080F83D40002166
:101ED00080F83C10084670BD022070BD002C014007
:101EE000000400400008004010B5040003D094F83E
:101EF0003D0010B107E0012010BD002084F83C0037
:101F0000204600F01FF8022084F83D00211D2068C3
:101F100000F07AFD012084F8460084F83E0084F841
:101F20003F0084F8400084F8410084F8420084F8BF
:101F3000430084F8440084F8450084F83D00002004
:101F400010BD000008B500680649884208D106485F
:101F5000816941F400618161806900F40060009052
:101F600008BD0000002C01400010024070B504467E
:101F700090F83C00012817D0012584F83C5002203D
:101F800084F83D002068826822F0770222F47F42C4
:101F900082600868502830D00DDC20284DD005DC48
:101FA00098B310283BD148E0022070BD302844D0BF
:101FB000402834D139E0602828D0702806D0B0F508
:101FC000805F2CD0B0F5005F29D10AE0CB68D1E961
:101FD0000121206800F05BFD2068816841F07701F5
:101FE00009E0CB68D1E90121206800F050FD2068AC
:101FF000816841F48041816011E0CA6849682068C5
:1020000000F0FAFD5021206807E016E0CA68496830
:10201000206800F002FE6021206800F042FD84F894
:102020003D50002084F83C0070BDCA6849682068B3
:1020300000F0E2FD40212068EFE7226801461046EB
:10204000EBE7000000B585B00021009101910291FD
:10205000039100680B49884212D10B48816941F015
:10206000040181618069694600F0040004904FF426
:10207000E06000900220019003900448FEF798FF72
:1020800005B000BD002C01400010024000080140D6
:1020900070B5044690F83C000D4601280AD0012096
:1020A00084F83C0042B1042A18D0082A2AD00C2A0D
:1020B0004DD139E0022070BD206800F0FBFC2068A3
:1020C000816941F0080181612068816921F0040182
:1020D0008161206881692A69114311E0206800F05C
:1020E00011FD2068816941F4006181612068816986
:1020F00021F480618161206881692A6941EA0221B5
:10210000816124E0206800F029FD2068C16941F068
:102110000801C1612068C16921F00401C161206822
:10212000C1692A69114311E0206800F043FD20686D
:10213000C16941F40061C1612068C16921F4806115
:10214000C1612068C1692A6941EA0221C161002098
:1021500084F83C0070BD10B5040003D094F83D0035
:1021600010B107E0012010BD002084F83C0020469B
:1021700000F01EF8022084F83D00211D206800F0C8
:1021800043FC012084F8460084F83E0084F83F00B8
:1021900084F8400084F8410084F8420084F8430049
:1021A00084F8440084F8450084F83D00002010BD08
:1021B0007047000010B50446022249B104290ED030
:1021C000082913D094F84100012816D0012010BD31
:1021D00094F83E000128F9D184F83E200FE094F8ED
:1021E0003F000128F2D184F83F2008E094F8400035
:1021F0000128EBD184F8402001E084F8412001223D
:10220000206800F037FC0F492068884203D1426CF7
:1022100042F4004242642068884208D0B0F1804F06
:1022200005D00949884202D00849884204D1816812
:1022300001F00701062903D0016841F001010160A6
:10224000002010BD002C01400004004000080040A8
:1022500070B5040004D094F83D00002510B106E0EC
:10226000012070BD84F83C50204600F023F8242063
:1022700084F83D002068C16821F40051C160204607
:1022800000F0DEFC2068016921F4904101612068C2
:10229000416921F02A0141612068C16841F400517F
:1022A000C1602564202084F83D0084F83E000020B1
:1022B00070BD000030B585B00024009401940294F4
:1022C000039400681449884223D11448C16941F439
:1022D0000031C161C16901F400310491816941F0AB
:1022E0000401816180690E4D00F004000490042017
:1022F0000090022001900320039069462846FEF7D3
:1023000057FE0820CDE90004694628460294FEF7EE
:102310004FFE05B030BD00000044004000100240F8
:1023200000080140FEE701684A69D24352050FD414
:102330006FF480624A61002140F8301F202242730E
:102340008173026942F00402026101730120704747
:10235000002070472DE9F84F0446006889460B9D20
:1023600001689846174641F4806101602068016861
:1023700041F48071016000954FF0011B0022594625
:1023800020460A9B00F0DEF84FF4007A40B1206846
:102390000068C00501D5C4F840A00320BDE8F88F4F
:1023A000216809F0FE0008612B46284920460A9A58
:1023B00000F0FCF8F0BB20684169806900902A4673
:1023C00020460A9900F070F940B1206C04283AD1F7
:1023D0002068016841F40071016034E0FEB2B8F198
:1023E000010F09D02168380A08612A4620460A9957
:1023F00000F05AF90028E8D1206806612A462046F4
:102400000A9900F051F90028DFD12068016841F4F1
:102410008071016000950022594620460A9B00F019
:1024200091F80028B3D1216809F0FF0040F00100C5
:10243000086100E007E02B46044920460A9A00F0B4
:10244000B5F80028AAD00120A8E70000020001008A
:102450002DE9F843044600680D46DDE90897016858
:102460009846164641F4807101604B4600224FF0B9
:1024700001112046009700F065F848B12068006817
:10248000C00502D54FF4007020640320BDE8F88336
:10249000216805F0FE0008613B464A461549204682
:1024A00000F084F888B920684169806900903A4654
:1024B0004946204600F0F8F848B1206C042804D1C1
:1024C0002068016841F4007101600120DEE7F5B287
:1024D000B8F1010F09D02168300A08613A4649462F
:1024E000204600F0E1F80028E7D1206805610020CF
:1024F000CCE700000200010070B516460D46044608
:102500000DE02046FFF70FFF08B1012070BD681CE9
:1025100005D0FEF743FE801BA84207D835B12068DE
:102520004069C0434007ECD4002070BD002044F84F
:10253000300F20216173A073216941F020012161D6
:102540002073E2E72DE9F0471E4690460D4604460B
:10255000C1F30747DDF8209008E0701C06D0FEF7B5
:102560001DFEA0EB0900B0420FD876B12068012F04
:1025700018D0806925EA00000004000C14D0002166
:102580004145EAD00020BDE8F087002044F8300F34
:1025900020216173A073216941F020012161207322
:1025A0000120F0E74069E5E70121E9E72DE9F0477F
:1025B0009A4691460E46044600254FF02008C1F386
:1025C000074725E020684069C043400514D42068CF
:1025D000016841F40071016021686FF48060486116
:1025E000256384F83D8084F83E50206C40F0040060
:1025F000206484F83C501FE0B9F1FF3F08D0FEF79B
:10260000CDFDA0EB0A0149450CD8B9F1000F09D066
:102610002068012F13D0806926EA00000004000C16
:102620000BD0CFE744F8305F84F80D80A5732069A4
:1026300040F02000206125730120BDE8F08740694B
:10264000EAE72DE9F041002590460E460446202792
:1026500017E04069C043C0060CD454F8301B6FF03B
:102660001000486144F810596777A577206A206206
:10267000257717E0FEF792FDA0EB0800B04208D8DE
:102680003EB120684169C9434906E2D40020BDE853
:10269000F08144F8305F6773A573206940F0200033
:1026A000206125730120F2E770B516460D460446F9
:1026B0000DE02046FFF737FE08B1012070BD681C11
:1026C00005D0FEF76BFD801BA84207D835B1206806
:1026D0004069C0430006ECD4002070BD002044F8DF
:1026E000300F20216173A073216941F02001216125
:1026F0002073E2E73EB50024104800940194029450
:102700000D498460016001250573047505614FF46E
:1027100060214460C161FEF767FB08B1FEF7E3FA90
:10272000CDE90045694605480294FEF7DFFA002826
:1027300001D0FEF7D8FA3EBD00240140240000205D
:102740003EB5002410480094019402940D49846021
:10275000016001250573047505614FF46021446033
:10276000C161FEF741FB08B1FEF7BDFA0095CDE966
:10277000015469460448FEF7B9FA002801D0FEF773
:10278000B2FA3EBD002801405400002070B586B06A
:1027900000241C480094019402940394816941F040
:1027A00010018161816901F010010491816941F09A
:1027B00020018161816901F020010491816941F06A
:1027C00004018161816901F004010491816941F092
:1027D0000801816180690C4E00F008004FF400553B
:1027E0000490002229463046FEF7D2FC01200095D5
:1027F000CDE901040220039069463046FEF7D8FB7C
:1028000006B070BD00100240001001400D4810B528
:102810000B4901600C49416000214FF48042816006
:10282000C0E9031241618161C1610162FEF7BCFC34
:10283000002803D0BDE81040FEF755BA10BD0000D7
:102840000054004084000020801A060030B595B086
:1028500000240F9410941194129413941C21684630
:102860001494FDF776FC202107A8FDF772FC344D87
:1028700032482860022068602020A86040F2AF4003
:10288000C5E903048020C5E905402846FFF72CFB75
:1028900008B1FEF728FA4FF480500F900FA928488E
:1028A000FFF764FB08B1FEF71EFA2548FFF753FC5B
:1028B00008B1FEF718FA139413A921481494FFF7EE
:1028C000DFFA08B1FEF70FFA6020CDE900040294A8
:1028D0000394049405940022694619480694FFF76E
:1028E000D7FB08B1FEF7FFF9042269461448FFF749
:1028F000CFFB08B1FEF7F7F9082269461048FFF749
:10290000C7FB08B1FEF7EFF90794089409944FF458
:1029100000500A94CDE90B4007A909480E94FFF72F
:1029200085FA08B1FEF7DFF90649E868401C08603F
:102930000348FFF787FB15B030BD0000002C0140B5
:10294000D8000020040000200C4810B50A4901609E
:102950004FF4E1314160002181600C22C160C0E987
:1029600004128161C161FFF773FC002803D0BDE848
:102970001040FEF7B8B910BD00440040200100200F
:10298000FEE7FEE770477047FEF7C0BE30B593B074
:1029900028216846FDF7DDFB14210AA8FDF7D9FBC5
:1029A000002501200F9510951195010412958DE8D1
:1029B000230004904FF4E010CDE90810022407949E
:1029C0006846FFF78FF808B172B6FEE70AA90F2034
:1029D00081E831004FF48060CDE90D0502210AA89D
:1029E000FEF794FF08B172B6FEE74FF40040119075
:1029F0000F940FA8FEF714FF002801D072B6FEE76F
:102A000013B030BD70470000F0B50268164B174C8C
:102A1000174D4FF08047984205D0B84203D0A042EE
:102A200001D0A84203D122F070064A68324398428E
:102A300005D0B84203D0A04201D0A84203D122F46D
:102A40004074CA6822434C6922F08002224302602B
:102A50008A68C2620A688262984201D10969016388
:102A600001214161F0BD0000002C01400004004044
:102A70000008004010B501F01F030121046A9940CD
:102A80008C430462016A9A401143016210BD10B583
:102A9000846842EA032224F47F440A43224382608A
:102AA00010BD826822F070020A4342F00701816083
:102AB0007047000030B5026A22F001020262026A29
:102AC0004368846924F073050C682C4322F00205E6
:102AD0008A682A430A4DA8420BD122F00805CA6829
:102AE00023F440732A434D6922F004021D438B698D
:102AF0002B434360846149684163026230BD00003A
:102B0000002C014030B5026A22F010020262026A13
:102B1000436884690D6824F4E64444EA05248D681A
:102B200022F0200242EA05120B4DA8420ED1CD68D8
:102B300022F0800242EA05124D6923F4406343EA21
:102B400085038D6922F0400243EA85034360846176
:102B500049688163026230BD002C014030B5026AD1
:102B600022F480720262036A4268C46923F400732B
:102B700024F073050C682C438D6843EA05230C4D43
:102B8000A8420ED1CD6823F4006343EA05234D69C2
:102B900022F4405242EA05128D6923F4806342EA2E
:102BA00005124260C4614968C163036230BD000020
:102BB000002C014030B5026A22F480520262046A9D
:102BC0004268C3690D6823F4E64343EA05238D6830
:102BD00024F4005444EA0534064DA84204D14D695A
:102BE00022F4804242EA85124260C361496801646E
:102BF000046230BD002C014010B5036A046A24F061
:102C000001040462846924F0F00444EA021423F00D
:102C10000A020A438461026210BD10B5036A23F000
:102C2000100303628369046A23F4704343EA0232A7
:102C300024F0A00343EA01118261016210BD00008B
:102C400070B5044600680169E26821F440511143FF
:102C500001612169A0680843616908432168CA6865
:102C600041F20C639A430243CA6020684169A26939
:102C700021F44071114341611E492068884202D10C
:102C8000FEF7EAFE01E0FEF7D7FE00EBC00101EB24
:102C90000012606864218000B2FBF0F3B3FBF1F333
:102CA0006FF018067343B2FBF0F5B2FBF0F605EBDC
:102CB0008305322303EB0515B5FBF1F5B6FBF1F601
:102CC00005F0F00505EB0615B2FBF0F6B2FBF0F0EF
:102CD000B0FBF1F06FF01802504306EB800003EBFD
:102CE0000010B0FBF1F0216800F00F00284488606C
:102CF00070BD000000380140FEE70907090E0028FA
:102D000004DB00F1E02080F80014704700F00F00B1
:102D100000F1E02080F8141D704700221346104691
:102D20001146FDF7DEBB02E008C8121F08C1002AE9
:102D3000FAD170477047002001E001C1121F002A3C
:102D4000FBD170470149086070470000180000205F
:102D500070B50646FDF7BEFC0F4A104BFDF7A8FA0A
:102D6000FDF7E4FC04460E4D3046FDF7B3FC0A4A7D
:102D70000A4BFDF79DFAFDF7D9FCFDF7ABFCAC4221
:102D800003DB084A084BFDF734FBFDF7CFFCBDE839
:102D9000704000F02BB80000F4D64354FB21F93FFB
:102DA000DB0FC940EA2E4454FB21194070B5FDF7F2
:102DB00091FC0C4C0C4D22462B4600F0B3F8FDF76D
:102DC000B5FC10F1FF4F02D2FDF784FC05E0FDF7E2
:102DD00081FC22462B46FDF76BFABDE87040FDF7FB
:102DE000A5BC0000EA2E4454FB2119402DE9F05FF8
:102DF00005463E4FDFF8F8A0DFF8F8903E4EDFF8CA
:102E0000FCB0FDF767FC3E4A3E4BFDF7F8FA8846FA
:102E10000446BD4217DA00221346FDF76FFC204638
:102E200041464FF000024B4602D8FDF741FA01E05F
:102E3000FDF7DFFAFDF716FC56F82000FDF7E0FB82
:102E40005A4653464CE03048854214DA0022204668
:102E50001346FDF753FC204641464FF000024B4617
:102E600002D8FDF725FA01E0FDF7C3FAFDF7FAFBFA
:102E7000C0F5C770E0E72548254F85424FF00002B6
:102E80002046134615DAFDF739FC204641464FF03F
:102E900000024B4602D8FDF70BFA01E0FDF7A9FA54
:102EA000FDF7E0FB06EB8000A0F58050D0F8C809E4
:102EB00012E0FDF723FC204641464FF000024B464E
:102EC00002D8FDF7F5F901E0FDF793FAFDF7CAFB2B
:102ED000C0F5477056F82000FDF792FB5A463B4676
:102EE000FDF78DFABDE8F05FFDF720BCDB0FC93FB1
:102EF000E2361A3F0000E03FA43300082D431CEBEC
:102F00009CA223B9FCAB5F40DB0F4940E4CB964069
:102F1000E2361ABF0249A1EB6001FDF78BB9000050
:102F2000865A375F70B514461D460E46002814BFFA
:102F300001210021314321F00041C1F17F6101F104
:102F4000E041C90F16D1002C14BF012100212943F3
:102F500021F00041C1F17F6101F1E041C90F09D1C8
:102F60001449B1EB460F08BF00281CD0690008BF08
:102F7000002C18D03146FDF7AAFC024640F2FF7043
:102F800030EA11500DD0F017B0EBE17F09D00846C0
:102F900065F31E0084460B4620466146FDF72CFA79
:102FA0000246104670BD0120FFF7CCFEBDE8704020
:102FB000FFF7B3BE0000E0FF08B5FDF780FD054652
:102FC00029482860FEF7AAFBFFF7E0FCFFF7DEFBCD
:102FD000FFF73CFCFFF7B8FCFFF78CFBFFF7B0FBFB
:102FE000FFF714FC00224FF400512048FEF7D0F800
:102FF00000211F48FFF7DEF804211D48FFF7DAF82B
:1030000008211B48FFF7D6F82846FDF701FD194EA9
:10301000DFF86480DFF86490DFF864B06FF00B0ACB
:1030200069462846FDF7DFFC3068FDF7FAFA0746E7
:103030000C46BDF80000FDF7F4FA42464B46FDF79A
:10304000DEF95246FDF7BCFA3A462346FDF7D7F9BA
:10305000FDF76CFB02460021584600F049F80A20B3
:10306000FDF794FFDCE70000840000200010014021
:10307000D8000020000000204AD8124DFB21194042
:10308000CDCCCC3DF0B50B30154D20F00701002420
:10309000144A0FE003688B420BD38B4205D95E1AAA
:1030A00043184768C3E9006700E04368136002C043
:1030B00004E0021D10680028ECD12046002802D14F
:1030C000286808B10020F0BD064A07481060074A8A
:1030D000121A22F00702C0E9002401202860D7E775
:1030E000200000201C0000206C010020680300204C
:1030F0002DE9FE4F04460E461046FFF757FE804668
:10310000FFF774FE2146FDF795F805464046FFF7A8
:103110001FFE3146FDF78EF82946FDF785F8054676
:103120004046FFF715FE2146FDF784F80746404666
:10313000FFF75CFE3146FDF77DF83946FDF722F8D2
:103140000146FDF777F8064629460846FDF772F86E
:103150003146FDF717F8FFF7DDFE0646864987483A
:103160008E4201DB0E4602E0864200D90646844DBF
:10317000844FB4F5000F404606DBFDF7ABFA2A4654
:103180003B46FDF795F805E0FDF7A4FA2A463B46D5
:10319000FDF72FF9FDF7CAFAFFF708FEFDF79AFAD7
:1031A0000546794A794B0191FDF79BF90022784B4E
:1031B000FDF77EF8FDF775FA81463046FDF78AFA8D
:1031C00006460F464846019CFDF72BFA80466E4A9C
:1031D0006E4B0291FDF713F92A462346FDF709F9D4
:1031E000FDF7A4FAFFF702FEFDF774FADFF8A4A1D9
:1031F000DFF8A4B152465B46FDF701F932463B4683
:10320000FDF7FDF8FDF792FA344600903E46404641
:1032100000225F4B0299FDF7ECF85B4A5B4BFDF730
:10322000EEF802460B4628460199FDF7E2F8FDF755
:103230007DFAFFF7DBFDFDF74DFA52465B46FDF7E1
:10324000DEF822463346FDF7DAF8FDF76FFA064658
:103250004FF07E500099FCF7E7FF3146FCF7E4FFA2
:1032600002464FF0FF31B9F1070F63D2DFE809F0F2
:1032700062041325344553001046FDF70DF8074648
:1032800031460098FCF77EFF3946FCF77BFF054688
:10329000384631460CE01046FCF7FEFF0746009921
:1032A000FCF770FF054631460098FCF76BFF394686
:1032B000FCF768FF04463E463FE01046FCF7ECFF93
:1032C000054631460098FCF75DFF2946FCF75AFF9A
:1032D0000446284631460CE01046FCF7DDFF054663
:1032E0000099FCF74FFF044631460098FCF74AFF6F
:1032F0002946FCF747FF06461FE01046FCF7CCFFC7
:1033000004463146FCF73EFF054631460098FCF77F
:1033100039FF2146EDE71046FCF7BEFF0446314673
:103320000098FCF72FFF2146FCF72CFF05462046AE
:103330000099DEE700252C462E4618480068FDF768
:1033400056F907462946FCF775FFFDF777F9144D46
:103350002968486338462146FCF76CFFFDF76EF993
:103360002968886338463146FCF764FFFDF766F943
:103370002968C863BDE8FE8F46B6133F46B613BF43
:10338000F4D64354FB21F93F40AF2D3852C1F03FF2
:103390000000F03F6B6058E87AB6FB3F0400002065
:1033A000D8000020000000004F0000009E00000038
:1033B000ED0000003C0100008B010000D90100007D
:1033C0002802000077020000C6020000150300007A
:1033D00063030000B2030000000400004F0400007B
:1033E0009D040000EC0400003A0500008805000080
:1033F000D60500002406000072060000C00600008A
:103400000E0700005B070000A9070000F607000098
:103410004308000090080000DD0800002A090000B1
:1034200077090000C30900000F0A00005C0A0000D1
:10343000A80A0000F40A00003F0B00008B0B0000FC
:10344000D60B0000210C00006C0C0000B70C000033
:10345000010D00004C0D0000960D0000E00D000075
:10346000290E0000730E0000BC0E0000050F0000C6
:103470004E0F0000960F0000DF0F00002710000025
:103480006E100000B6100000FD1000004411000096
:103490008B110000D1110000171200005D12000016
:1034A000A2120000E81200002D13000071130000AA
:1034B000B6130000F91300003D1400008114000051
:1034C000C414000006150000491500008B1500000B
:1034D000CC1500000E1600004F1600008F160000DD
:1034E000CF1600000F1700004F1700008E170000C6
:1034F000CD1700000B1800004918000087180000C5
:10350000C4180000011900003D19000079190000DD
:10351000B5190000F01900002B1A0000661A00000F
:103520009F1A0000D91A0000121B00004B1B00005C
:10353000831B0000BB1B0000F21B0000291C0000C5
:10354000601C0000961C0000CB1C0000001D000049
:10355000351D0000691D00009D1D0000D01D0000EC
:10356000031E0000351E0000671E0000981E0000AC
:10357000C91E0000FA1E0000291F0000591F00008C
:10358000881F0000B61F0000E41F0000112000008B
:103590003E2000006A20000096200000C1200000AC
:1035A000EC200000162100004021000069210000ED
:1035B00092210000BA210000E12100000822000051
:1035C0002F220000552200007A2200009F220000D6
:1035D000C3220000E72200000A2300002D23000080
:1035E0004F2300007023000091230000B22300004D
:1035F000D1230000F12300000F2400002D2400003F
:103600004B2400006824000084240000A024000053
:10361000BB240000D5240000EF2400000925000091
:10362000222500003A2500005225000069250000EF
:103630007F25000095250000AA250000BF25000079
:10364000D3250000E6250000F92500000B26000028
:103650001D2600002E2600003E2600004E260000FB
:103660005D2600006C2600007A26000087260000F8
:1036700094260000A0260000AB260000B62600001D
:10368000C0260000CA260000D3260000DB2600006A
:10369000E3260000EA260000F1260000F7260000DD
:1036A000FC26000001270000052700000827000075
:1036B0000B2700000D2700000F2700001027000037
:1036C00010270000000000000000000001020304B9
:1036D000060708090000000001020304FC36000888
:1036E0000000002024000000262D000820370008DC
:1036F0002400002044070000362D00080E000000C2
:1037000000000000010000001000000000000000A8
:103710000024F40000000000000000000000000091
:04000005080000ED02
:00000001FF
