:020000040800F2
:10000000F008002001010008973900087F3100083E
:1000100095390008250D0008B93D000800000000D2
:100020000000000000000000000000009B390008F4
:10003000AF0D000800000000993900089D39000844
:100040001B0100081B0100081B0100081B01000820
:100050001B0100081B0100081B0100081B01000810
:100060001B0100081B0100081B010008790D000896
:100070001B0100081B0100081B0100081B010008F0
:100080001B0100081B0100081B010008A13D00081E
:10009000AD3D00081B0100081B0100081B01000802
:1000A0001B0100081D3A00081B0100081B01000885
:1000B000293A0008353A0008413A00081B010008B7
:1000C0001B0100081B0100081B0100081B010008A0
:1000D0001B0100081B0100081B0100081B01000890
:1000E0001B0100081B0100081B010008DFF80CD0F1
:1000F00000F0C6FB0048004799480008F0080020BF
:100100000648804706480047FEE7FEE7FEE7FEE7B1
:10011000FEE7FEE7FEE7FEE7FEE7FEE7193A000826
:10012000ED000008202A04DB203A21FA02F0002129
:10013000704721FA02F3D040C2F1200291400843F7
:1001400019467047D2B201E000F8012B491EFBD2DC
:1001500070470022F6E710B513460A4604461946D2
:10016000FFF7F0FF204610BD10B54843044604F0E9
:1001700093FC002805D00021002C02D0641E0155FC
:10018000FAE710BDF0B480EA0102D40F4200B2EBEE
:10019000410F02D20246084611464A0042D0C30D22
:1001A000DDB2C1F3C752AD1A202D35DAC1F3160105
:1001B00041F4000204B15242C5F1200602FA06F1F0
:1001C0002A411044B3EBD05F23D0C4B1012DA0EB82
:1001D000C35009DCF0BC4FF0004202EAC352DBB26C
:1001E00000F5000000F0E9B9400000F1807000EB7C
:1001F000C350A0F1807040EAD170490009E049087D
:1002000041EAC071A0EBC35000F50000400800EBCC
:10021000C350F0BC00F0C8B96142012202EB4101B9
:10022000001BF6E7F0BC704781F00041AAE780F0C0
:100230000040A7E730B480EA010202F0004530F048
:10024000004221F0004013D090B1C30DD40DC2F391
:100250001601C0F31600E41A41F4000140F4000254
:100260007D34914201D3641C00E04900002C02DA85
:1002700030BC002070474FF400000023914201D3AE
:10028000891A034340084FEA4101F7D151B1914225
:1002900002D14FF0004105E002D24FF0010101E030
:1002A0006FF0010103EBC450284430BC00F07CB96E
:1002B000420005D0C0F3C7525242914201DC0020F7
:1002C000704700EBC15070472DE9FE4F81EA0304EF
:1002D00004F0004421F0004100944FF0000B23F0A3
:1002E000004350EA01045ED052EA03045BD0C3F33A
:1002F0000A54C1F30A552C44A4F2F3340194A0FB30
:100300000254C1F3130141F48011C3F3130343F406
:10031000801301FB024400FB034E840A970A44EA5F
:10032000815447EA8357A4FB076802958D0A05FBB1
:1003300007854FEA932C04FB0C542705029D4FEAD6
:10034000065847EA1637B5EB08056EEB070C870E23
:10035000920E47EA811742EA8312A7FB0201B6EB2D
:100360000B0164EB00042B0D43EA0C335E1844EBE5
:100370001C50DA465146E7FB0201C5F313044FEA6D
:100380000B3343EA14534FEA0432019C43EA060359
:10039000A4F10C040294009CCDE900B400F04AF9E9
:1003A00003B0BDE8F08F00200146F9E72DE9F04DDC
:1003B00081EA030404F0004B21F0004514464FF09D
:1003C000000A23F0004150EA050220D054EA01025D
:1003D0001DD0C5F30A570246C5F31303C1F313003A
:1003E000C1F30A5640F4801543F48013A7EB0608C6
:1003F000101BD64608F2FD3873EB050002D308F156
:10040000010801E092185B41B8F1000F03DA002007
:100410000146BDE8F08D00204FF480110646844669
:100420000EE0171B73EB050705D3121B63EB0503E7
:1004300006434CEA010C49084FEA300092185B4130
:1004400050EA0107EDD152EA030012D082EA04001B
:1004500083EA0501084305D0101BAB4106D20122F7
:10046000002306E000224FF0004302E06FF001029B
:1004700053101AEB06004CEB085110EB0A0041EB4D
:100480000B01BDE8F04D00F0C6B800F0004220F0CE
:100490000040C10DC0F3160040F400007F2901DACE
:1004A00000207047962903DCC1F19601C84001E0A5
:1004B00096398840002AF4D04042704700F000424C
:1004C00030F000400AD0C10D01F56071C0F3160094
:1004D00042EA0151C208400711437047002001461B
:1004E000704701F0004330B421F0004150EA0102AE
:1004F00006D00A0DA2F56072C1F31301002A02DCD6
:1005000030BC00207047440F44EAC104C100E01829
:1005100030BC00EBC25000F047B830B50B46014686
:1005200000202022012409E021FA02F59D4205D392
:1005300003FA02F5491B04FA02F52844151EA2F13C
:100540000102F1DC30BD2DE9F05F05460020924646
:100550009B4688460646814640241BE02846414685
:1005600047462246FFF7DEFD53465A46C01A9141E0
:1005700010D311461846224600F094F92D1A67EB65
:1005800001084F4622460120002100F08BF917EBAD
:1005900000094E41201EA4F10104DFDC484631462B
:1005A0002A464346BDE8F09F0029A8BF7047401C7B
:1005B000490008BF20F00100704710B4B0FA80FC79
:1005C00000FA0CF050EA010404BF10BC704749B1B6
:1005D000CCF1200421FA04F411FA0CF118BF012126
:1005E00021430843A3EB0C01CB1D4FEA00614FEA06
:1005F000102042BF002010BC704700EBC3501044D5
:100600000029A4BF10BC7047401C490008BF20F05F
:10061000010010BC704710B5141E73F1000408DA15
:10062000401C41F1000192185B411A4301D120F0B6
:10063000010010BD2DE9F04D92469B4611B1B1FA73
:1006400081F202E0B0FA80F22032904600F02AF9FE
:1006500004460F4640EA0A0041EA0B0153465A4657
:10066000084313D0114653EA010019D0C8F14002E3
:100670005046FFF757FD05460E465046594642463E
:1006800000F010F9084305D0012004E02046394667
:10069000BDE8F08D0020054346EAE0762C43374361
:1006A0000A986305E40AA0EB08000022FD0A44EA68
:1006B00047540A3002D500200146E9E70105101928
:1006C0006941DDE9084500196941BDE8F04DA2E73F
:1006D0002DE9FE4F804681EA0300C00F0C460090D2
:1006E00021F0004123F00045B8EB0200A94105D2FA
:1006F0004046214690461C460B46024623F00040E9
:10070000104347D0270DC7F30A00C3F30A510290E4
:10071000401A019040286BDAC3F3130040F4801BA9
:100720000098924620B10023D2EB030A63EB0B0B37
:1007300001985946C0F14002504600F0B3F8064611
:100740000D4650465946019A00F0BBF810EB0800E0
:100750006141002487EA115284EAE7731A4340D0CA
:10076000009A62B3019A012A4FEA075215DC001B76
:1007700061EB02014FF0004202EA0752CDE900426C
:10078000001C41F5801132462B46FFF753FF03B0A2
:10079000BDE8F08F40462146F9E7001B61EB0201FE
:1007A000001C41F5801300185B412018A2F50017CA
:1007B00047EB030140EAD570B6196D4111E06D08B1
:1007C0004FEA360645EAC0754FEA0752001B61EB57
:1007D0000201001C41F5801149084FEA3000001960
:1007E000514132462B4603B0BDE8F04FFFF713BF2F
:1007F0000098012240000023D0EB020263EBE0737B
:10080000009821464FEAE074B8EB000061EB040168
:10081000E9E783F000435BE781F0004158E7C1F36B
:100820000A52C1F3130140F2FF3341F480119A429E
:1008300002DA00200146704740F233439A42A2F2A6
:10084000334202DC5242FFF76DBC00F02BB80000CF
:1008500030B5041E71F1000404DB4FF00044404247
:1008600064EB0101141E73F1000405DB1C464FF01C
:100870000043524263EB0403994208BF904230BDEB
:10088000064C074D06E0E06840F0010394E80700DD
:1008900098471034AC42F6D3FFF72CFCE04B00082D
:1008A000004C0008202A04DB203A00FA02F1002064
:1008B00070479140C2F1200320FA03F3194390409E
:1008C0007047202A06DBCB17203A41FA02F043EAB0
:1008D000E07306E041FA02F3D040C2F120029140F9
:1008E000084319467047000091F0000F04BF6FF0F5
:1008F0000040704710B54FF0010E90EA010F48BF5D
:100900004FF0000E002848BF4042002948BF49422E
:10091000B0FA80F40A2CA8BF0A2400FA04F2C4F149
:100920000A0CB2FBF1F0B0FA80F39C45A4BFCEF103
:10093000004010BD01FB1022B2FA82F464450EDAC9
:10094000ACEB040C02FA04F200FA04F0B2FBF1F38F
:1009500001FB13221844B2FA82F46445F0DD02FA76
:100960000CF200FA0CF0B2FBF1F318449EF0000F09
:1009700008BF404210BD000080FB01014FEA9020FB
:1009800000EB81507047000078B110F0004148BF83
:100990004042B0FA80F3C3F1940200FA03F04FEA48
:1009A000102062F3DE5041EA0000704770B5044643
:1009B00000688168C943C90717D1816821F0010126
:1009C000816001F087F905460AE000BF01F082F975
:1009D000401B022804D920688068C043C00706D0A5
:1009E00020688068C043C007F0D0002070BDA06AB6
:1009F00040F01000A062E06A40F00100E0620120D7
:100A000070BD10B50146406A826A12F0500F05D0E1
:100A1000006A026BBDE8104008461047816A41F445
:100A20000071816201688968C1F3424107290CD1D4
:100A3000017B51B9816A21F480718162816AC904A4
:100A400003D4816A41F00101816200F031FA10BDE6
:100A500010B5406A816A41F040018162C16A41F08B
:100A60000401C16200F026FA10BD10B5406A00F022
:100A700020FA10BDF8B5002604460096006881688B
:100A8000C943C9072DD0816841F001018160164832
:100A900016490068B0FBF1F000E0401E009000280D
:100AA000FBD101F017F9054616E000BF01F012F97D
:100AB000401B022810D920688068C043C0070BD0B3
:100AC000A06A40F01000A062E06A40F00100E0621D
:100AD00084F824600120F8BD20688068C043C00706
:100AE000E4D10020F8BD00003800002040420F0093
:100AF0000EB582680123CDE90013029200680B2233
:100B00006C2101F0B1F90EBD092940D2DFE801F0F6
:100B10003F0509131B232B333B00817D21F01C0172
:100B200006E0817D21F018018175817D41F004018D
:100B3000817500207047817D21F014018175817DD0
:100B400041F00801F4E7817D21F010018175817D7C
:100B500041F00C01ECE7817D21F00C018175817D74
:100B600041F01001E4E7817D21F008018175817D6C
:100B700041F01401DCE7817D21F004018175817D64
:100B800041F01801D4E7817D41F01C01D0E701203C
:100B90007047012907D0022909D0032911D004295F
:100BA00017D001207047C17D21F00C0106E0C17D06
:100BB00041F00401C175C17D21F00801C17500201B
:100BC0007047C17D21F00401C175C17D41F008016C
:100BD000F4E7C17D41F00C01F0E7012907D00229BB
:100BE00009D0032911D0042917D001207047C17DF5
:100BF00021F0030106E0C17D41F00101C175C17D15
:100C000021F00201C17500207047C17D41F0020151
:100C1000C175C17D01F00101F4E7C17D41F003011F
:100C2000F0E7012904D0022906D003291ED10DE0E6
:100C3000C17D21F0300106E0C17D41F01001C17598
:100C4000C17D21F02001C17500207047C17D01F0F8
:100C50001001C175C17D41F02001C175012A07D085
:100C6000022A09D0032A0FD0042A15D00120704788
:100C7000C17D21F0C001E6E7C17D41F04001C175B1
:100C8000C17D21F08001DEE7C17D21F04001C17509
:100C9000C17D41F08001D6E7C17D41F0C001D2E7BE
:100CA000012907D0022909D0032911D0042917D01E
:100CB00001207047817D21F0030106E0817D41F034
:100CC00001018175817D21F002018175002070474D
:100CD000817D21F001018175817D41F00201F4E700
:100CE000817D41F00301F0E7012903D0022905D0FD
:100CF00001207047817D21F0400102E0817D41F0BB
:100D000040018175002070470EB5022200F11601E6
:100D100083688DE80E000068012307226C2101F032
:100D2000CBF90EBDFEE7000010B58AB0012200210C
:100D30000892CDE9052104460E48079204910278F5
:100D40000991901CC0F341000090D007000C019065
:100D5000032002904FF4004003906946204600F0C3
:100D60007BFA204600F062FD0221204600F0FEF9E9
:100D70000AB010BD24000020014800F08BBD000027
:100D8000CC00002030B590F840500124AC40C56B39
:100D90006C60046863604368102B036803D099603B
:100DA0000068C26030BD9A600068C16030BD7047A5
:100DB00072B6FEE7F8B50024009490F8242025468A
:100DC000012A12D0012280F824204A681F23072A12
:100DD0000DD20668776B521E02EB820293409F434E
:100DE0000B6893401F43776319E00220F8BD066843
:100DF0000D2A0AD2376BD21F02EB820293409F4327
:100E00000B6893401F43376309E0F76A0D3A02EB22
:100E1000820293409F430B6893401F43F7620A6826
:100E2000072306680A2A0AD3F7680A3A02EB420245
:100E300093409F438B6893401F43F76008E03769F6
:100E400002EB420293409F438B6893401F433761FC
:100E50000A68102A01D0112A20D1124B02689A4246
:100E600017D193681B0219D4936843F4000393606D
:100E70000968102912D10C490C4A0968B1FBF2F13A
:100E800001EB8101490000E0491E00910029FBD1DE
:100E900004E0816A41F020018162012480F824503D
:100EA0002046F8BD002401403800002040420F00D9
:100EB00070477047704700002DE9F0414FF0000780
:100EC00004003D467ED0A06A002628B9E66284F878
:100ED0002460204600F07EF82046FFF767FDA16AF7
:100EE00001F01001014304D0A06A40F01000A0629C
:100EF00068E0A16A21F4885141F00201A1626268B0
:100F0000E169237B0A4347EA43010A43A1684FF49E
:100F10008077B94208D0012906D0002194F814C086
:100F2000BCF1010F02D00AE03946F7E7F3B1A36A3A
:100F300043F02003A362E36A43F00103E362236802
:100F4000D3F804C02CF4694C4CEA010CC3F804C07B
:100F500023689968DFF870C001EA0C0111439960B9
:100F6000A168B9420BD0012909D00CE0DFF85CC0C0
:100F7000A3690CEB43330B4343F40061DFE7218AA1
:100F80000D05A5F580152168CB6A23F470032B436A
:100F9000CB62216889680E4B1940914208D1E66204
:100FA000A16A21F0020141F00101A162BDE8F081D6
:100FB000A06A20F0020040F01000A062E06A40F059
:100FC0000100E0620120F1E7FDF7E1FF00E0FFFF33
:100FD000FE0E1FFF70B586B00025064600950195F0
:100FE000029503950068194988422DD118498869EE
:100FF00040F400708861886900F40070049088698A
:1010000040F0040088618869694600F0040004909B
:101010000320009001900F4800F05EFD0F4C0E4839
:10102000C4E900058020C4E902504000206180002E
:1010300060612020C4E90605204600F0D5FC08B117
:10104000FFF7B6FE3462666206B070BD0024014050
:10105000001002400008014008000240CC000020BF
:101060002DE9F047894604463B4900683B4F0E1D79
:101070009046884201D0B84207D1306810F4702FF2
:1010800003D001252846BDE8F08794F82400012804
:101090000CD0012084F824002046FFF7EBFC05006B
:1010A0004FF0000004D084F82400EBE70220EAE7C8
:1010B000A16A40F60162914341F48071A162216806
:1010C000B94218D1326812F4702F14D0A16A41F4D9
:1010D0008011A1623168490505D5A16A21F400514A
:1010E00041F48051A162A16AC9040AD5E16A21F0E4
:1010F0000601E16206E0A26A22F48012A262496857
:10110000E9E7E06284F82400216A15488862216AD0
:101110001448C862216A1448086321686FF002000D
:1011200008602068816841F48071816021684346CD
:101130004A464C31206A00F085FC20688168C1F382
:1011400042410729816803D041F48011816099E709
:1011500041F4A001FAE7000000240140002801400A
:10116000030A00086B0A0008510A000890F82020C2
:10117000012A07D0022A05D0416A41F48021416248
:1011800001207047006842690A43426100207047AD
:10119000F0B590F820500468A468012D05D0022D08
:1011A00003D0416A41F4802153E014F0406F01D133
:1011B000E5004BD5C4F30164022C03D9416A41F424
:1011C000000146E00125A5401D608D684FF4C07305
:1011D0009DB1CE6835434E6845EAC605066803EB07
:1011E0000417F5514FF4C275076805EB04150E6935
:1011F0007E51097D012905D009E00E88CD6845EAB8
:101200004655EBE701684E5946F480764E51117908
:10121000D2F805504FF4C67641EA0525016806EB81
:1012200004168D511178D2F801204FF4C47541EAAB
:101230000221026805EB04155151006803EB04110B
:10124000425842F0010242500020F0BD416A41F490
:10125000001141620120F0BD10B590F82030026805
:10126000012B07D0022B05D0416A41F48021416255
:10127000012010BDD2F8000240F00100C2F80002C7
:10128000087D00F01F0301209840D2F81C328343F0
:10129000C2F81C32CB69B3B9D2F80C328343C2F81E
:1012A0000C328C894B6864F31F434C6902EBC40415
:1012B000C4F840320C890B6864F31F434C6902EB9D
:1012C000C404C4F84432CB69012B16D1D2F80C32D5
:1012D0000343C2F80C320C884B6864F31F434C691B
:1012E00002EBC404C4F840320C89CB6864F31F439A
:1012F0004C6902EBC404C4F844328B69002BD2F869
:1013000004320FD053EA0003C2F804320B69002BF9
:10131000D2F8143208D00343C2F81432096A012902
:1013200004D008E08343EFE78343F5E7D2F81C12CB
:101330000143C2F81C12D2F8000220F00100C2F8EA
:101340000002002010BD704730B590F82040012CFD
:1013500005D0022C03D0416A41F480215DE004688D
:10136000002955D02469A40754D04FF4D8740568D7
:1013700004EB01142D5915F00405956005682D59ED
:101380004ED0ED08556005682C5904F00204D46075
:101390004FF4DA74056804EB01142D5905F00F05BC
:1013A000156105682D59C5F30725956105682C5908
:1013B000240C54614FF4DC72046802EB0112A4584F
:1013C0001C700468A458240A5C700468A458240C97
:1013D0009C700468A258120EDA704FF4DE72046832
:1013E00002EB0112A4581C710468A458240A5C7111
:1013F0000468A458240C9C710468A258120EDA7177
:10140000006881B1016941F020010161002030BD17
:10141000E468A8E7416A41F400114162012030BD4F
:101420006D0D1560AFE7C16841F02001C160EDE7C7
:101430002DE9F05F0546006800244669D0F8049065
:101440008768D0F80CB0D0F810A0D0F81880F10759
:1014500048D0F90714D001218160B80703D5284688
:1014600000F011FA0CE0780702D54FF4006407E0B1
:10147000380702D54FF4805402E0284600F002FA03
:10148000F80516D529684FF480708860B80503D533
:10149000284600F0FAF90CE0780502D544F400542F
:1014A00007E0380502D544F4804402E0284600F005
:1014B000EBF9F80316D529684FF480308860B8033B
:1014C00003D5284600F0E3F90CE0780302D544F494
:1014D000004407E0380302D544F4803402E0284693
:1014E00000F0D4F9300707D55FEACB6004D529684E
:1014F000102044F40074C86070074FF0080707D547
:101500005FEA0B7004D52868C760284600F062F9CE
:10151000B00706D52868C068800702D0284600F0CA
:101520005BF9700607D55FEACA6004D52968102008
:1015300044F480640861B00607D55FEA0A7004D5F8
:1015400028680761284600F06DF9F00606D528687E
:101550000069800702D0284600F065F9B00308D57D
:101560005FEAC96005D5296810204860284600F068
:101570005BF9F00307D55FEA097004D52868476076
:10158000284600F085F9300446D55FEA497040D519
:10159000F00504D55FEAC87001D044F00104B0053D
:1015A00004D55FEA887001D544F00204700504D5C3
:1015B0005FEA487001D544F00404300529D518F0DD
:1015C000700F26D008F07000402815D006DC1028D7
:1015D00009D020280AD0302816D10AE050280ED091
:1015E000602811D10EE044F008040DE044F010042E
:1015F0000AE044F0200407E044F0400404E044F032
:10160000800401E044F480742868816921F070014D
:101610008161296804204860002C05D0686A204355
:1016200068622846FFF78FFEBDE8F09F70B50400A2
:1016300003D094F8200010B104E0012070BD2046D2
:1016400000F082F82068016841F00101016000F0BB
:1016500041FB0546052604E000F03CFB401B0A2840
:1016600011D820684068C007F6D02068016821F0D2
:101670000201016000F02EFB05460BE000F02AFBA2
:10168000401B0A2806D9606A40F40030606284F882
:101690002060D2E7206840688007EFD4207E0128D0
:1016A000206801683DD021F080010160607E012842
:1016B0002068016838D021F040010160A07E012837
:1016C0002068016833D021F020010160E07E01280C
:1016D000206801682ED041F010010160207F0128B0
:1016E0002068016829D021F008010160607F01288D
:1016F0002068016824D021F004010160D4E90201CE
:101700000843D4E90412114308436168491E0843A1
:101710002168C86100206062012084F82000002058
:1017200070BD41F08001C0E741F04001C5E741F0E4
:101730002001CAE721F01001CFE741F00801D4E70A
:1017400041F00401D9E7000010B586B000210091F6
:1017500001910291039100681B49884232D11B48D4
:10176000C16941F00071C161C16901F0007104916A
:10177000816941F0040181618069154C00F0040029
:1017800004904FF4006000906946204600F0A4F9F0
:10179000A014009002200190032003906946204687
:1017A00000F09AF900221146132000F0B1FD132039
:1017B00000F0A0FD00221146142000F0A9FD142025
:1017C00000F098FD06B010BD00640040001002401B
:1017D000000801407047000010B50D4B0D4A002174
:1017E0000D48FFF7B1FD0D490120087009480C496B
:1017F0004268074802F6F922B2F5804202D0B2F5FB
:10180000805F03D1007809688002086010BD000085
:1018100008000020600000201001002028000020A7
:1018200010000020704770477047000070B50446F4
:1018300090F82000012804D0606A40F40020606223
:1018400018E0022084F820002068016821F00101DE
:10185000016000F03FFA05460EE000BF00F03AFAE2
:10186000401B0A2808D9606A40F4003060620520F5
:1018700084F82000012070BD20684068C007EDD1C9
:10188000606270BD7047704770477047704770471F
:10189000704700002DE9F05FC16B0C6801680B68B0
:1018A000D0F840C0042202FA0CF2494DDFF824A11E
:1018B000494E4A4FDFF828B1DFF828E122422CD008
:1018C0005A072AD50A68920603D40A6822F004024D
:1018D0000A600168A94201D1042219E0514501D1F1
:1018E000402215E0B14202D14FF4806210E0B942CB
:1018F00002D14FF480420BE0594502D14FF48022CF
:1019000006E0714502D14FF4800201E04FF08062A1
:101910002F4908394A60C16A3BE04FF0020808FAD3
:101920000CF818EA040F4FF000094FF0010235D00F
:101930005FEA837832D50B689B0605D40B6823F0E9
:101940000A030B6080F821200168A94201D102221C
:1019500019E0514501D1202215E0B14202D14FF4E6
:10196000007210E0B94202D14FF400520BE0594529
:1019700002D14FF4003206E0714502D14FF400125B
:1019800001E04FF00072124908394A6080F8209057
:10199000816A00291AD0BDE8F05F0847082505FADA
:1019A0000CF5254212D01B0710D50B6823F00E034F
:1019B0000B6090F84010C36B02FA01F1596082632A
:1019C00080F8212080F82090016BE2E7BDE8F09FCD
:1019D000080002401C000240300002404400024067
:1019E000580002406C00024030B528B308C81349C3
:1019F00014221944B1FBF2F18900C16310498163DB
:101A0000022141771A6843F6F0718A43D0E9001445
:101A10002143D0E902452C43214304692143446911
:101A2000214384692143114319600021416301224C
:101A300042770177084630BD012030BDF8FFFDBF79
:101A40000000024070B5044690F8200000250128EF
:101A50000CD0012084F8200094F821600020012E91
:101A600006D084F820000225284670BD022070BDF3
:101A7000022684F82160A0632068066826F001062B
:101A800006602046FFF77EF9E06A002820680168BA
:101A900002D041F00E0106E021F00401016020684F
:101AA000016841F00A0101602068016841F001010C
:101AB0000160D9E770B5044600F00CF90546601CDA
:101AC00002D004480078044400F004F9401BA0420E
:101AD000FAD370BD2C0000202DE9F84FDFF8B89143
:101AE000002409F1040A0AF1040B23460F270BF125
:101AF000040EC9E00125A5402A40AA427DD1674EC7
:101B0000D1F804C0ACEB0608B44532D014DCBCF10B
:101B1000030F3AD009DCBCF1000F2AD0BCF1010F51
:101B20001CD0BCF1020F31D11DE0BCF1110F17D058
:101B3000BCF1120F2AD119E0B8F5881F19D006DCC4
:101B4000B8F5803F15D0B8F5801F1FD111E0B8F56A
:101B5000001F0ED0B8F5041F18D10AE0CB6815E0BD
:101B6000CB681B1D12E0CB6808330FE0CB680C3349
:101B70000CE08B682BB1012B4FF0080303D04561BB
:101B800004E0042302E0056100E00023FF2A01D8FD
:101B9000064601E000F104064FEA840501D9A5F1EB
:101BA0002005D6F8008007FA05FC28EA0C0803FA9D
:101BB00005F548EA0508C6F800804D68ED0062D5D5
:101BC000374DAE6946F00106AE61AD6924F00306FB
:101BD00005F001050095334D06EB050CDCF80850C7
:101BE000A607360F07FA06F825EA0805DFF8B880D9
:101BF000404503D14FF0000817E044E0DFF8AC8027
:101C0000404502D14FF001080FE0DFF8A4804045C5
:101C100002D14FF0020808E0DFF89880404502D179
:101C20004FF0030801E04FF0040808FA06F848EA0C
:101C30000508CCF808804D68D9F80060ED034D46E2
:101C400001D5164300E096432E604D68DAF8006037
:101C5000AD03554601D5164300E096432E604D680E
:101C6000DBF80060ED025D4601D5164300E09643C7
:101C70002E604D68DEF80060AD02754601D5164352
:101C800000E096432E60641C0D682A46E5407FF410
:101C900031AFBDE8F88F00000004014000001110D2
:101CA000001002400000014000080140000C01400B
:101CB0000010014000140140C26821EA02030A40FA
:101CC00043EA0241016170470AB1016170470904AA
:101CD000FBE7000001488068704700002C000020EE
:101CE00070B5040025D094F83D00002520B984F893
:101CF0003C50204600F078FA242084F83D0020680B
:101D0000016821F0010101602068016841F400418F
:101D100001602068016821F40041016000F036FC98
:101D20004D4A6168914201D84C4900E04C498842D3
:101D300001D2012070BD4B492368B0FBF1F15E6810
:101D400026F03F060E435E606368934206D94FF467
:101D5000967359434FF47A73B1FBF3F12368491C2E
:101D60001E6A26F03F06314319626168914210D81D
:101D70004900401EB0FBF1F2521CC2F30B02042AD0
:101D800001D2042022E0B0FBF1F0401CC0F30B00B4
:101D90001CE0A268F2B301EBC10303EB0116431E82
:101DA000B3FBF6F35B1C43F480431B0549D092B3AD
:101DB00001EBC10202EB0111401EB0FBF1F0401C2F
:101DC000C0F30B0040F4804040F400402168CA6931
:101DD0004CF6FF739A431043C861D4E907100143DE
:101DE0002068026822F0C00211430160D4E90301B7
:101DF00001432068826848F2FF339A4311438160AF
:101E0000D4E9050108432168CA6822F0FF021043A3
:101E1000C86001E00EE016E02068016841F00101B1
:101E200001602564202084F83D00256384F83E503D
:101E3000002070BD01EB4106431EB3FBF6F35B1CB3
:101E4000B3E70120C2E701EB4101401EB0FBF1F016
:101E5000401CC0F30B00B7E7A086010080841E0081
:101E600000093D0040420F002DE9FF4F83B00025DF
:101E7000DDE910799A4693460446DDF848800095DE
:101E8000FFF728FF064694F83D0020287CD119234F
:101E9000012285492046009601F082FA0028F5D1FA
:101EA00094F83C0001286FD0012084F83C002068A1
:101EB0000168C90703D1016841F001010160206890
:101EC000016821F400610160222084F83D00402077
:101ED00084F83E0025646762A4F82A90608D20850E
:101EE0007248E062CDE9008653465A46204604997E
:101EF00001F05EF900287DD1208DDFF8B491202714
:101F000068B1012814D00228206801681ED041F46D
:101F1000806101602068416980690090B6E02068B6
:101F2000416981690091016841F400710160ADE08F
:101F30002068016821F48061016072B620684169FF
:101F400081690091016841F400710AE041F4006187
:101F5000016072B62068416981690091016821F4CD
:101F60008061016062B691E0032868D801280CD036
:101F7000022843464FF000024946204600960FD003
:101F800001F00EFAB0BB10E08BE03246414620462D
:101F900001F085FA70BB20680069616A08706CE026
:101FA00001F0FEF930BB72B634E02068016821F41C
:101FB0008061016072B620680069616A0870606AB9
:101FC000401C6062208D401E2085608D401E608513
:101FD000384846F2A8110068B0FBF1F0C0EBC00031
:101FE00000EB80000090401E009008D020684069FF
:101FF000C04300E029E040070CD50098F3E744F81F
:10200000305F6773A573206940F02000206162B6DD
:1020100025731AE02068016841F4007101602068AE
:102020000069616A0870606A401C6062218D491E07
:102030002185618D491E618562B621681BE03246AB
:102040004146204601F02BFA18B1012007B0BDE847
:10205000F08F20680069616A0870606A401C6062E5
:10206000218D491E2185618D491E618521684A693E
:10207000D24352070AD409690170606A401C606249
:10208000208D401E2085608D401E6085208D00289B
:102090007FF46AAF84F83D7084F83E5084F83C5079
:1020A000D4E70220D2E70000020010000000FFFF8A
:1020B00004000100380000202DE9FF4F83B09A464C
:1020C000DDE9119793460446DDF84080FFF702FEF4
:1020D000054694F83D0020287FD11923012240496C
:1020E0002046009501F05CF9002876D194F83C0078
:1020F000012872D0012084F83C0020680168C907DB
:1021000003D1016841F0010101602068016821F4F8
:1021100000610160212084F83D00402084F83E00E9
:1021200000262664C4F82480A4F82A90608D2085B7
:102130002C48E062CDE9007553465A462046049982
:1021400001F0B4F870B930E02A463946204601F073
:10215000D9F958B1206C042804D12068016841F4F1
:1021600000710160012007B0BDE8F08F606A21684E
:1021700000780861606A401C6062218D491E89B246
:102180002185628D521E628522685369DB435B079D
:102190000BD469B100781061606A401C6062208DC8
:1021A000401E2085608D401E6085208D0028CBD18B
:1021B0002A463946204601F0CDF80028CAD154F805
:1021C0003D0B016841F400710160202004F81E09F4
:1021D000E67766770020C6E7FFE70220C3E7000046
:1021E000020010000000FFFF10B586B00021009132
:1021F00001910291039100680F4988421AD10F4C56
:10220000A06940F00800A061A069694600F00800DC
:102210000490C020009012200190032003900848F1
:10222000FFF75AFCE06940F40010E061E06900F457
:102230000010049006B010BD005400400010024091
:10224000000C0140024881680278114481607047A7
:102250002C000020074810B5016841F01001016012
:10226000032000F075F80F2000F006F800F024F8C5
:10227000002010BD0020024070B50D4D04464FF403
:102280007A712878B1FBF0F00A490968B1FBF0F0E7
:1022900000F062FB48B9102C07D200222146501EE4
:1022A00000F036F800206C6070BD012070BD0000A9
:1022B0002C000020380000200C4808B5816941F04E
:1022C00001018161816901F001010091C16941F061
:1022D0008051C161C06900F080500090044841689D
:1022E00021F0E06141F00071416008BD0010024042
:1022F00000000140002809DB00F01F02012191408D
:102300004009800000F1E020C0F800117047000093
:10231000F0B40E4B1B680C46C3F30223C3F1070550
:10232000042D00D90425191D072901D2002300E03E
:10233000DB1E012606FA05F1491E214099409E4008
:10234000761E16403143F0BC01F048BD0CED00E0B4
:10235000064900F0070208684FF6FF03184040EAFC
:102360000220034A10430860704700000CED00E0B3
:102370000000FA052DE9F84305460078354CC00702
:1023800054D0E0690026C00008D4E06940F08050D5
:10239000E061E069012600F0805000902E4801685D
:1023A000C90512D40168804641F480710160FFF7CD
:1023B00091FC074605E000BFFFF78CFCC01B6428BA
:1023C00023D8D8F80000C005F6D5206A10F4407074
:1023D00021D0A98801F4407181421CD0206A1F4994
:1023E000012220F440700A6000220A602062C007C7
:1023F00011D0FFF76FFC074641F2883808E000BFB4
:10240000FFF768FCC11B414502D90320BDE8F883F2
:10241000206A8007F4D5206A696820F44070084378
:1024200020621EB1E06920F08050E06128788007CA
:1024300005D56068A96820F44040084360602878AA
:10244000C00605D56068E96820F480000843606034
:102450000020DBE7001002400070004040044242D0
:102460002DE9F0470F46050061D0434E306800F07B
:102470000700B84209D2306820F0070038433060C6
:10248000306800F00700B84251D128683B4C810702
:1024900012D5400703D5606840F4E060606028789A
:1024A000000703D5606840F4605060606068A96808
:1024B00020F0F000084360602878C00728D06868E2
:1024C000012810D02168022810D0890700292EDAAF
:1024D000616821F0030101436160FFF7FBFB804667
:1024E00041F288390DE021688903EFE78901EDE7C2
:1024F000FFF7F0FBA0EB0801494502D90320BDE836
:10250000F0876068696800F00C00B0EB810FEFD1D4
:10251000306800F00700B8420BD9306820F007009F
:1025200038433060306800F00700B84201D0012025
:10253000E5E72878400705D56068E96820F4E060A1
:10254000084360602878000706D56068296920F490
:10255000605040EAC100606000F038F86168084AE5
:10256000C1F30311515CC840064908600648006881
:10257000FFF782FE0020C2E7002002400010024068
:10258000C84B0008380000203000002004480549EE
:1025900000684968044AC1F30221515CC840704791
:1025A0003800002000100240D84B000804480549BC
:1025B00000684968044AC1F3C221515CC8407047B1
:1025C0003800002000100240D84B000812A185B04E
:1025D0000FC98DE80F0014A0144A006804905168D8
:1025E000134801F00C03042B10D0082B0ED1C1F3BB
:1025F0008343C9031DF803000AD5516804AAC1F337
:102600004041515C0A4A5043B0FBF1F005B07047BD
:1026100008494843FAE700000203040506070809D1
:102620000A0B0C0D0E0F10100102000000100240EA
:1026300000127A0000093D002DE9F84F040070D027
:102640002078C04DC00749D06868C0F381000128D8
:1026500007D06868C0F38100022809D16868C00308
:1026600006D52868800339D560680028E7D035E0B2
:102670006068B0F5803F0BD010B1B0F5A02F11D03D
:10268000286820F480302860286820F4802002E048
:10269000286840F480302860606890B1FFF71AFB2A
:1026A00006460AE0286840F480202860F0E700BF72
:1026B000FFF710FB801B642873D828688003F7D5C8
:1026C0000CE0FFF707FB064605E000BFFFF702FB43
:1026D000801B6428F0D828688003F7D420789A4EAD
:1026E00080074FF001094FF0000839D5686810F0F5
:1026F0000C0F07D06868C0F38100022809D1686810
:10270000C00306D42868800714D52069012808D1A1
:1027100010E02069B0B1C6F80090FFF7DBFA074679
:1027200005E00AE1FFF7D6FAC01B0228C4D82868E2
:102730008007F7D52868616920F0F80040EAC100F9
:1027400028600DE0C6F80080FFF7C4FA074604E0F1
:10275000FFF7C0FAC01B022823D828688007F7D4E7
:10276000207800072CD57948A169D9B1C0F800902C
:10277000FFF7B0FA074604E0FFF7ACFAC01B0228E7
:102780000FD8686A8007F7D571484FF4FA5100688E
:10279000B0FBF1F0009000BF0098411E0091FAD20A
:1027A0000EE080E0C0F80080FFF794FA074604E0EE
:1027B000FFF790FAC01B022875D8686A8007F7D423
:1027C0002078400760D5E8690027C00008D4E86990
:1027D00040F08050E861E869012700F080500090E7
:1027E0005C480168C90513D40168834641F48071CF
:1027F0000160FFF76FFA824606E000BFFFF76AFA52
:10280000A0EB0A0064284ED8DBF80000C005F5D51F
:10281000E06801280AD008B1052813D0286A20F002
:1028200001002862286A20F0040002E0286A40F0D3
:1028300001002862E06841F2883B98B1FFF74AFA4C
:1028400082460BE0286A40F004002862EEE700BFF1
:10285000FFF740FAA0EB0A0159455AD8286A8007C9
:10286000F6D50CE0FFF736FA824605E0FFF732FABC
:10287000A0EB0A0159454CD8286A8007F6D41FB14D
:10288000E86920F08050E861E06988B36968C1F3C5
:102890008101022944D00228C6F8608004D0FFF7E5
:1028A00019FA044638E034E0FFF714FA074604E06A
:1028B000FFF710FAC01B02282BD828688001F7D434
:1028C000206AB0F5803F05D16868A16820F4003027
:1028D00008436860D4E908010843696821F4741169
:1028E00008436860C6F86090FFF7F4F9044606E014
:1028F00025E000BFFFF7EEF9001B022809D8286881
:102900008001F7D51BE000BFFFF7E4F9001B0228A8
:1029100002D90320BDE8F88F28688001F4D40EE0C6
:102920000128F7D06868226A00F48031914204D10E
:10293000616A00F47010884201D00120EAE70020AB
:10294000E8E70000001002400000424280044242DA
:10295000380000200070004010B5401EB0F1807FAC
:1029600001D3012010BD4FF0E02460610F216017FA
:1029700001F034FA0020A06107202061002010BD82
:102980007047704710B590F83C20012A22D00122F0
:1029900080F83C20CA688C6822F4407222434C685C
:1029A00022F4806222430C6822F4006222430C6904
:1029B00022F4805222434C6922F400522243C96916
:1029C000002322F480420A4301684A6480F83C30C4
:1029D000002010BD022010BD70B590F83C20012AE7
:1029E00026D0012480F83C40022280F83D20036874
:1029F0005A689D6822F070060A6832435A600D4B8F
:102A000002689A4208D0B2F1804F05D00A4B9A4230
:102A100002D00A4B9A4204D1496825F08003194339
:102A2000916080F83D40002180F83C10084670BD60
:102A3000022070BD002C014000040040000800404E
:102A400010B5040003D094F83D0010B107E0012058
:102A500010BD002084F83C00204600F01FF8022042
:102A600084F83D00211D206800F0F0FF012084F86B
:102A7000460084F83E0084F83F0084F8400084F863
:102A8000410084F8420084F8430084F8440084F84C
:102A9000450084F83D00002010BD000008B5274A1D
:102AA0000168274891420ED1816941F4006181613A
:102AB0008069002200F40060009011461920FFF7A1
:102AC00027FC192034E0B1F1804F11D01D4A91420A
:102AD0001DD1C16941F00201C161C069002200F04D
:102AE0000200009001211D20FFF712FC1D201FE0B5
:102AF000C16941F00101C161C069002200F001001B
:102B0000009002211C20FFF703FC1C2010E00E4A5D
:102B1000914211D1C16941F00401C161C069002233
:102B200000F00400009004211E20FFF7F1FB1E209E
:102B3000BDE80840FFF7DEBB08BD0000002C0140E7
:102B400000100240000400400008004090F83D10D2
:102B5000012901D001207047022180F83D10016851
:102B6000CA6842F00102CA6000680B49884208D076
:102B7000B0F1804F05D00949884202D00849884207
:102B800004D1816801F00701062903D0016841F0F2
:102B90000101016000207047002C0140000400404A
:102BA0000008004070B5044690F83C00012817D09A
:102BB000012584F83C50022084F83D00206882689A
:102BC00022F0770222F47F4282600868502830D0D9
:102BD0000DDC20284DD005DC98B310283BD148E00F
:102BE000022070BD302844D0402834D139E060281C
:102BF00028D0702806D0B0F5805F2CD0B0F5005FEB
:102C000029D10AE0CB68D1E90121206800F061FFF9
:102C10002068816841F0770109E0CB68D1E90121A2
:102C2000206800F056FF2068816841F4804181608F
:102C300011E0CA684968206801F000F85021206856
:102C400007E016E0CA684968206801F008F86021CA
:102C5000206800F048FF84F83D50002084F83C00D4
:102C600070BDCA684968206800F0E8FF402120680C
:102C7000EFE7226801461046EBE7704770B504465F
:102C8000006801694FF00005C943890715D4C16880
:102C9000C943890711D4E91E01610120207720680A
:102CA00080698007204602D0FFF7E7FF04E000F0CC
:102CB000BFF8204600F04EF9257720680169C94326
:102CC000490717D4C168C943490713D46FF00401F9
:102CD0000161022020772068806910F4407F20463F
:102CE00002D0FFF7CAFF04E000F0A2F8204600F08F
:102CF00031F9257720680169C943090716D4C168ED
:102D0000C943090712D46FF008010161042020773C
:102D10002068C0698007204602D0FFF7AEFF04E0BC
:102D200000F086F8204600F015F925772068016943
:102D3000C943C90617D4C168C943C90613D46FF083
:102D400010010161082020772068C06910F4407FDD
:102D5000204602D0FFF791FF04E000F069F820461A
:102D600000F0F8F8257720680169C943C90708D140
:102D7000C168C943C90704D1891E0161204600F01A
:102D800039F920680169C943090609D4C168C943F2
:102D9000090605D46FF0800101612046FFF7F0FDC0
:102DA00020680169C943490609D4C168C943490675
:102DB00005D46FF040010161204600F01CF9206845
:102DC0000169C94389060BD4C168C943890607D480
:102DD0006FF0200101612046BDE87040FFF7D1BDD2
:102DE00070BD000000B585B00021009101910291F5
:102DF000039100680B49884212D10B48816941F068
:102E0000040181618069694600F0040004904FF478
:102E1000E06000900220019003900448FEF75CFE01
:102E200005B000BD002C0140001002400008014028
:102E3000704770B5044690F83C000D4601280AD052
:102E4000012084F83C0042B1042A18D0082A2AD074
:102E50000C2A4DD139E0022070BD206800F04CFEF4
:102E60002068816941F0080181612068816921F051
:102E700004018161206881692A69114311E0206899
:102E800000F062FE2068816941F400618161206880
:102E9000816921F480618161206881692A6941EA40
:102EA0000221816124E0206800F07AFE2068C16977
:102EB00041F00801C1612068C16921F00401C161CC
:102EC0002068C1692A69114311E0206800F094FE6E
:102ED0002068C16941F40061C1612068C16921F4C1
:102EE0008061C1612068C1692A6941EA0221C1612A
:102EF000002084F83C0070BD10B5040003D094F8A5
:102F00003D0010B107E0012010BD002084F83C0016
:102F1000204600F01EF8022084F83D00211D2068A4
:102F200000F094FD012084F8460084F83E0084F807
:102F30003F0084F8400084F8410084F8420084F89F
:102F4000430084F8440084F8450084F83D000020E4
:102F500010BD70477047000010B50446022249B109
:102F600004290ED0082913D094F84100012816D066
:102F7000012010BD94F83E000128F9D184F83E20CC
:102F80000FE094F83F000128F2D184F83F2008E0D8
:102F900094F840000128EBD184F8402001E084F847
:102FA00041200122206800F087FD0F4920688842F7
:102FB00003D1426C42F4004242642068884208D047
:102FC000B0F1804F05D00949884202D008498842B3
:102FD00004D1816801F00701062903D0016841F09E
:102FE00001010160002010BD002C014000040040E0
:102FF000000800407047704770B5040004D094F892
:103000003D00002510B106E0012070BD84F83C5061
:10301000204600F023F8242084F83D002068C16891
:1030200021F40051C160204600F02CFE20680169A7
:1030300021F4904101612068416921F02A01416138
:103040002068C16841F40051C1602564202084F8E3
:103050003D0084F83E00002070BD000030B585B012
:103060000024009401940294039400681449884257
:1030700023D11448C16941F40031C161C16901F42F
:1030800000310491816941F00401816180690E4D34
:1030900000F004000490042000900220019003201E
:1030A000039069462846FEF717FD0820CDE9000485
:1030B000694628460294FEF70FFD05B030BD0000BA
:1030C0000044004000100240000801402DE9F84390
:1030D000044690F83D001F4616460D4620284CD168
:1030E000C5B1BEB194F83C00012846D0012084F857
:1030F0003C004FF00008C4F84080212084F83D00D7
:10310000FEF7E8FDA6848146E684A068B0F5805FFE
:1031100003D004E00120BDE8F883206928B12E46E1
:103120005FF0000584F83C800EE00026FAE780217D
:10313000204600F003FEA0B9AEB116F8010B2168DD
:103140004860E08C401EE084E08C4B464FF000026B
:1031500000970028EBD14FF04001204600F0EEFD33
:1031600030B10320D7E735F8020BC0F30800E6E7DB
:10317000202084F83D000020CDE70220CBE7FEE7C9
:1031800001684A69D24352050FD46FF480624A61E4
:10319000002140F8301F202242738173026942F0FF
:1031A0000402026101730120704700207047000093
:1031B0002DE9F84F0446006889460B9D0168984642
:1031C000174641F4806101602068016841F4807114
:1031D000016000954FF0011B0022594620460A9BD2
:1031E00000F0DEF84FF4007A40B120680068C005B6
:1031F00001D5C4F840A00320BDE8F88F216809F08C
:10320000FE0008612B46284920460A9A00F0FCF887
:10321000F0BB20684169806900902A4620460A99DF
:1032200000F070F940B1206C04283AD120680168A0
:1032300041F40071016034E0FEB2B8F1010F09D031
:103240002168380A08612A4620460A9900F05AF98E
:103250000028E8D1206806612A4620460A9900F035
:1032600051F90028DFD12068016841F480710160C4
:1032700000950022594620460A9B00F091F800284C
:10328000B3D1216809F0FF0040F00100086100E0BF
:1032900007E02B46044920460A9A00F0B5F80028BA
:1032A000AAD00120A8E70000020001002DE9F843A0
:1032B000044600680D46DDE9089701689846164601
:1032C00041F4807101604B4600224FF0011120460D
:1032D000009700F065F848B120680068C00502D585
:1032E0004FF4007020640320BDE8F883216805F0E6
:1032F000FE0008613B464A461549204600F084F826
:1033000088B920684169806900903A46494620465C
:1033100000F0F8F848B1206C042804D12068016856
:1033200041F4007101600120DEE7F5B2B8F1010F50
:1033300009D02168300A08613A464946204600F023
:10334000E1F80028E7D1206805610020CCE7000003
:103350000200010070B516460D4604460DE02046F9
:10336000FFF70EFF08B1012070BD681C05D0FEF705
:10337000B1FC801BA84207D835B120684069C04322
:103380004007ECD4002070BD002044F8300F20210D
:103390006173A073216941F0200121612073E2E78C
:1033A0002DE9F0471E4690460D460446C1F30747F7
:1033B000DDF8209008E0701C06D0FEF78BFCA0EB37
:1033C0000900B0420FD876B12068012F18D080696B
:1033D00025EA00000004000C14D000214145EAD089
:1033E0000020BDE8F087002044F8300F20216173F1
:1033F000A073216941F02001216120730120F0E7D1
:103400004069E5E70121E9E72DE9F0479A46914651
:103410000E46044600254FF02008C1F3074725E07B
:1034200020684069C043400514D42068016841F415
:103430000071016021686FF480604861256384F841
:103440003D8084F83E50206C40F00400206484F8F5
:103450003C501FE0B9F1FF3F08D0FEF73BFCA0EB6A
:103460000A0149450CD8B9F1000F09D02068012F95
:1034700013D0806926EA00000004000C0BD0CFE7CF
:1034800044F8305F84F80D80A573206940F0200077
:10349000206125730120BDE8F0874069EAE72DE946
:1034A000F041002590460E460446202717E040696B
:1034B000C043C0060CD454F8301B6FF010004861B4
:1034C00044F810596777A577206A2062257717E0BE
:1034D000FEF700FCA0EB0800B04208D83EB120681F
:1034E0004169C9434906E2D40020BDE8F08144F8AF
:1034F000305F6773A573206940F020002061257359
:103500000120F2E770B516460D4604460DE0204650
:10351000FFF736FE08B1012070BD681C05D0FEF72C
:10352000D9FB801BA84207D835B120684069C04349
:103530000006ECD4002070BD002044F8300F20219C
:103540006173A073216941F0200121612073E2E7DA
:10355000FEB50024164800940194144902940160B9
:1035600089158160012505730475022606614FF4F3
:1035700060214460C161FDF79FFC08B1FDF718FCB4
:1035800007200094CDE9015069460948FDF712FC77
:1035900008B1FDF70DFCCDE9005669460448FDF77A
:1035A00009FC002801D0FDF703FCFEBD002401400A
:1035B0009C0000200F4810B50D49016004214160B6
:1035C00000214FF400228160C0E903124FF4E002B1
:1035D0004261017641768176C17601774177FEF7C7
:1035E00025F8002803D0BDE81040FDF7E1BB10BD71
:1035F0000064004010010020094808B5416941F00D
:10360000010141614069002200F001000090114673
:103610000B20FEF77DFEBDE808400B20FEF76ABEDA
:10362000001002402DE9F04786B000243148009494
:10363000019402940394816941F0100181618169D0
:1036400001F010010491816941F0200181618169DB
:1036500001F020010491816941F0040181618169D7
:1036600001F004010491816941F0080181618069E0
:10367000DFF8848000F008004FF400550490002229
:1036800029464046FEF720FBDFF87090002210210B
:103690004846FEF719FBDFF868A0AF000022394664
:1036A0005046FEF711FB0095022601250396CDE951
:1036B000015469464046FEF70FFA1020CDE9000597
:1036C000CDE9024669464846FEF706FA009703969A
:1036D000CDE9015469465046FEF7FEF92020CDE9B8
:1036E0000004694650460294FEF7F6F906B0BDE8BC
:1036F000F087000000100240001001400008014067
:10370000000C01400D4810B50B4901600C494160A7
:1037100000214FF480428160C0E903124161816160
:10372000C1610162FEF7DCFA002803D0BDE8104059
:10373000FDF73EBB10BD00000054004038010020E2
:10374000801A060010B596B000240F9410941194BE
:10375000129413941C2168461494FCF7FAFC20215F
:1037600007A8FCF7F6FC31482F49016002214160AF
:103770002021816040F2DB51C0E903148021C0E9BF
:103780000541FFF75DF908B1FDF712FB4FF48050DA
:103790000F900FA92548FFF705FA08B1FDF708FBC0
:1037A0002248FFF7A9FB08B1FDF702FB139413A908
:1037B0001E481494FFF710F908B1FDF7F9FA6020DC
:1037C000CDE9000402940394049405940022694610
:1037D00016480694FFF72DFB08B1FDF7E9FA04221D
:1037E00069461248FFF725FB08B1FDF7E1FA082208
:1037F00069460E48FFF71DFB08B1FDF7D9FA07949B
:10380000089409944FF400500A94CDE90B4007A99D
:1038100006480E94FFF7B6F808B1FDF7C9FA034859
:10382000FFF7E0FA16B010BD002C01408C0100201B
:1038300010B586B0002416480094019402940394B5
:1038400004944FF080410594016040F22B11C0E9CF
:103850000114EF21C0E903148461FFF7F1F808B106
:10386000FDF7A6FA4FF48050009069460848FFF72C
:1038700099F908B1FDF79CFA049404A90448059449
:10388000FFF7AAF8002801D0FDF792FA06B010BDA4
:10389000D401002010B586B000241648009401948D
:1038A0000294039404941249059401609F21C0E995
:1038B00001144721C0E903148461FFF7C1F808B17E
:1038C000FDF776FA4FF48050009069460948FFF7FB
:1038D00069F908B1FDF76CFA049404A90548059448
:1038E000FFF77AF8002801D0FDF762FA06B010BDA4
:1038F000000400401C02002010B586B000241648C9
:103900000094019402940394049412490594016074
:103910009F21C0E901148F21C0E903148461FFF7DE
:103920008FF808B1FDF744FA4FF4805000906946D3
:103930000948FFF737F908B1FDF73AFA049404A9EA
:1039400005480594FFF748F8002801D0FDF730FA44
:1039500006B010BD00080040640200200C4810B5FD
:103960000A4901604FF4E1314160002181600C227D
:10397000C160C0E904128161C161FFF73DFB00280D
:1039800003D0BDE81040FDF713BA10BD004400405D
:10399000AC020020FEE7FEE770477047FEF752BC1E
:1039A00030B593B028216846FCF7D3FB14210AA850
:1039B000FCF7CFFB002501200F9510951195010410
:1039C00012958DE8230004904FF4E010CDE9081023
:1039D000022407946846FEF72FFE08B172B6FEE790
:1039E0000AA90F2081E831004FF48060CDE90D0570
:1039F00002210AA8FEF734FD08B172B6FEE74FF4C3
:103A0000004011900F940FA8FEF7B4FC002801D0DD
:103A100072B6FEE713B030BD704700000148FFF7F3
:103A20002DB900008C0100200148FFF727B90000E4
:103A3000D40100200148FFF721B900001C0200203A
:103A40000148FFF71BB9000064020020F0B50268CE
:103A5000164B174C174D4FF08047984205D0B8428F
:103A600003D0A04201D0A84203D122F070064A68D8
:103A70003243984205D0B84203D0A04201D0A842B8
:103A800003D122F44074CA6822434C6922F08002B8
:103A9000224302608A68C2620A688262984201D147
:103AA0000969016301214161F0BD0000002C014062
:103AB000000400400008004010B501F01F03012180
:103AC000046A99408C430462016A9A40114301627E
:103AD00010BD10B5846842EA032224F47F440A43EF
:103AE0002243826010BD826822F070020A4342F0D5
:103AF000070181607047000030B5026A22F00102C0
:103B00000262026A4368846924F073050C682C43DE
:103B100022F002058A682A430A4DA8420BD122F0FE
:103B20000805CA6823F440732A434D6922F0040251
:103B30001D438B692B434360846149684163026282
:103B400030BD0000002C014030B5026A22F01002A6
:103B50000262026A436884690D6824F4E64444EA18
:103B600005248D6822F0200242EA05120B4DA8427E
:103B70000ED1CD6822F0800242EA05124D6923F48D
:103B8000406343EA85038D6922F0400243EA8503DE
:103B90004360846149688163026230BD002C01404A
:103BA00030B5026A22F480720262036A4268C46914
:103BB00023F4007324F073050C682C438D6843EAEA
:103BC00005230C4DA8420ED1CD6823F4006343EACF
:103BD00005234D6922F4405242EA05128D6923F40F
:103BE000806342EA05124260C4614968C1630362AE
:103BF00030BD0000002C014030B5026A22F4805232
:103C00000262046A4268C3690D6823F4E64343EA2A
:103C100005238D6824F4005444EA0534064DA84277
:103C200004D14D6922F4804242EA85124260C361A8
:103C300049680164046230BD002C014010B5036A7C
:103C4000046A24F001040462846924F0F00444EA64
:103C5000021423F00A020A438461026210BD10B507
:103C6000036A23F0100303628369046A23F4704338
:103C700043EA023224F0A00343EA011182610162A7
:103C800010BD000070B5044600680169E26821F4C7
:103C90004051114301612169A068084361690843EB
:103CA0002168CA6841F20C639A430243CA602068E3
:103CB0004169A26921F44071114341611E492068A4
:103CC000884202D1FEF772FC01E0FEF75FFC00EBD8
:103CD000C00101EB0012606864218000B2FBF0F3C8
:103CE000B3FBF1F36FF018067343B2FBF0F5B2FBD0
:103CF000F0F605EB8305322303EB0515B5FBF1F573
:103D0000B6FBF1F605F0F00505EB0615B2FBF0F693
:103D1000B2FBF0F0B0FBF1F06FF01802504306EB8D
:103D2000800003EB0010B0FBF1F0216800F00F0001
:103D30002844886070BD0000003801402DE9F04142
:103D4000984617460E460446069D1DE0681C1BD08B
:103D50002DB1FDF7BFFFA0EB0800A84214D92068E1
:103D6000C16821F4D071C1602068416921F001016E
:103D70004161202084F83D0084F83E00002084F852
:103D80003C000320BDE8F0812068006836EA0000AE
:103D900004D00020B842D9D00020F3E70120F9E791
:103DA0000148FDF745BB0000100100200148FDF768
:103DB0003FBB000010010020FEE700000FB4054BE0
:103DC00010B503A9044A029800F0DAF810BC5DF8B7
:103DD00014FB0000514800083C0000200907090EB0
:103DE000002804DB00F1E02080F80014704700F0A8
:103DF0000F0000F1E02080F8141D704702E008C8B1
:103E0000121F08C1002AFAD170477047002001E054
:103E100001C1121F002AFBD1704700002DE9FF5F8E
:103E2000DDE90220010DDDF838B0024318D044F678
:103E30001050A1F2FF3141430D140F98012820D0FA
:103E4000A5EB0B00401C5FEA000A4FF00004474E50
:103E5000DFF81C91A046504616D5CAF1000728E0AD
:103E60000F98012443A2012808D0002100980F9B3D
:103E7000C0E90021C0E90243BDE8FF9F6FEA0B01E2
:103E8000F4E7CBF10000DEE7074612E0F80707D0C1
:103E90002246334640464946FCF716FA8046894694
:103EA0002246334610461946FCF70EFA04460E46E3
:103EB0007F10002FEAD1DDE90201BAF1000F42467E
:103EC0004B4602DAFCF700FA01E0FCF76FFA044611
:103ED0000E460022284BFCF7BBFC03D84FF0FF3006
:103EE000014607E00022254B20463146FCF7F0FB57
:103EF000FCF795FC102409E0002C0ADB0A220023C1
:103F0000FCF721FB019B30321A55641E50EA010276
:103F1000F2D1641C019AC4F1110314440F9A012ACE
:103F200003D0012208430DD10AE0084304D0002049
:103F30004FF0110B0F9080E7A3EB0B056D1E0DE00A
:103F40005B4504DD4FF0000205F1010504E003DAF2
:103F50004FF00002A5F10105002AECD000980F995E
:103F6000C0E90231C0E9004586E7000000002440B6
:103F70000000F03F300000000000F0430000E03F90
:103F80002DE9FF4F95B09B468946064600250FE276
:103F9000252877D100242746F84A0121059400E01E
:103FA000044316F8013F203B01FA03F01042F7D119
:103FB00030782A2811D06FF02F033078A0F130022A
:103FC000092A16D8059A44F0020402EB820203EB98
:103FD00042021044761C0590EFE759F8042B059235
:103FE000002A03DA504244F40054059044F00204DD
:103FF000761C30782E2816D116F8010F44F00404F0
:104000002A280DD06FF02F023078A0F13003092B51
:1040100009D807EB870302EB4303C718761CF3E7C5
:1040200059F8047B761C30786C280FD006DC4C28BD
:1040300017D068280DD06A2814D104E0742810D055
:104040007A280FD10DE044F400140AE044F48014FF
:1040500001E044F440147278824202D104F58014E5
:10406000761C761C307866280BD013DC582877D065
:1040700009DC002875D04528F6D04628F4D047281A
:104080001AD19DE118E0632835D0642879D06528DD
:1040900012D195E1702873D008DC6728F1D0692827
:1040A0006FD06E280DD06F2806D1B5E073282CD0C4
:1040B000752875D0782874D05A46179990476D1C8A
:1040C00075E1C4F30250022809D003280DD0D9F8B5
:1040D000001004280DD00D6009F1040967E1D9F83A
:1040E0000010EA17C1E90052F6E7D9F800100D8078
:1040F000F2E70D70F0E719F8041B8DF800100020AE
:104100008DF80100EA46012003E059F804AB4FF0B6
:10411000FF3061074FF0000102D40DE008F101010A
:104120008846B9420FDA8045F8DB1AF808100029F2
:10413000F4D108E008F1010188468142FADB1AF85F
:1041400008100029F6D105985B46A0EB0807214628
:104150003846179A00F094FA284400EB080507E067
:104160004DE029E10DE01AF8010B5A4617999047E6
:10417000B8F10108F7D25B4621463846179A13E199
:1041800042E00A220092C4F302524FF0000A022ACF
:1041900008D059F804CB032A4FEAEC710AD00DE09D
:1041A00029E02AE009F1070121F00702F2E802C143
:1041B000914609E00FFA8CFC4FEAEC71042A03D116
:1041C0004FFA8CFC4FEAEC71002907DA0A4600210D
:1041D000DCF1000C61EB02012D2202E0220504D586
:1041E0002B228DF80420012203E0E20701D02022D7
:1041F000F7E7904659E00A2102E010220DE0102175
:104200004FF0000A00910BE010224FF0000A44F03A
:1042100004040827009203E008224FF0000A0092ED
:10422000C4F30252022A05D059F804CB0021032A14
:1042300008D009E009F1070121F00702F2E802C104
:10424000914605E01FFA8CFC042A01D10CF0FF0C0A
:104250004FF00008220728D5702806D0009B83F075
:10426000100353EA0A0305D00EE040228DF8042023
:10427000012208E05CEA010206D030228DF8042019
:104280008DF8050002229046009B83F0080353EA54
:104290000A030AD15CEA010201D1620705D5302286
:1042A0008DF804204FF001087F1E582804D034A058
:1042B00003900EA802900DE036A0F9E75346604641
:1042C000009AFCF740F984460398825C0298401EED
:1042D000029002705CEA0100F0D1029806A9081A67
:1042E00000F1200A600702D524F4803400E00127A1
:1042F000574502DDA7EB0A0000E0002000EB0A01B1
:10430000009005984144401A0590E00306D45B46AE
:104310002146179A059800F0B3F90544002706E0F6
:1043200001A85A46C05D179990476D1C7F1C4745F0
:10433000F6DBE0030CD55B462146179A059800F0A2
:104340009FF9054404E030205A46179990476D1CA8
:104350000099481E00900029F5DC08E002980299B7
:104360005A460078491C0291179990476D1CBAF182
:104370000001AAF1010AF1DC65E100000928010051
:1043800030313233343536373839616263646566CB
:10439000000000003031323334353637383941428D
:1043A000434445460000000000F058F90544761CDF
:1043B000307800287FF4ECAD19B02846BDE8F08FC6
:1043C000620700D4062709F1070222F0070CFCE877
:1043D0000223E14603F000485FEA080C02D00FF226
:1043E000702C0DE05FEA045C02D50FF2682C07E048
:1043F0005FEAC47C02D00FF2602C01E0AFF2700CD7
:104400004FF0FF3823F00043CDF850C065280CD0A2
:1044100006DC452809D046281DD047283DD13DE07F
:10442000662818D067287ED138E00021112F01DBE3
:10443000112000E0781CCDE9000106A90EA8FFF7C5
:10444000EDFCDDE90F010E9A03910021009207F1C6
:10445000010A04914DE04FF000400097CDE90110B2
:1044600006A90EA8FFF7DAFCDDE90F0203920E9B06
:1044700011990022DDF80CA00093049211B9791C67
:1044800000EB010AB7EB0A0004D4C0F1FF3007F1DA
:10449000010A0490AAEB0700019044E0012F00DA22
:1044A00001270021112F01DD112000E03846CDE960
:1044B000000106A90EA8FFF7B1FCDDE90F010E9A75
:1044C0000391002104910092BA4621070CD403996C
:1044D000514500DA8A46BAF1010F05DD009AAAF1CA
:1044E0000101515C302908D0B84202DA10F1040F02
:1044F00006DA0121CDE9011015E0AAF10101E9E791
:10450000002805DC049901440491AAEB000102E0B3
:10451000411C514500DD8A460499401A401C019017
:104520004FF000400290200704D40198504501DB71
:10453000CDF8048000208DF84F0002980DF14F0750
:10454000B0F1004F25D02B200E9002984FF00208BA
:1045500000280CDA404202902D200E9007E00A213C
:104560000298FBF7DAFF3031029007F8011DB8F12D
:104570000001A8F10108F2DC02980028EFD1791EB1
:104580000E980870307800F0200040F0450007F8E1
:10459000020D12A8C01B00F107081498007800B1A2
:1045A000012000EB0A01019801EBE07105984144FC
:1045B000401A401E0590E00306D45B462146179A38
:1045C000059800F05DF805441498007818B15A4633
:1045D000179990476D1CE00324D55B462146179A36
:1045E000059800F04DF805441CE00498002807DB0E
:1045F000DDE90301884203DD0098405C179901E082
:10460000179930205A469047049805F10105401C3F
:1046100004900198401E019004D12E205A4617990B
:1046200090476D1CBAF10001AAF1010ADDDC05E03A
:1046300017F8010B5A46179990476D1CB8F1000105
:10464000A8F10108F4DC5B462146179A0598ABE611
:104650002D0000002B000000200000002DE9F0419B
:10466000044600251E461746880404D405E0394652
:104670002020B0476D1C641EF9D52846BDE8F081A6
:104680002DE9F041044600251E469046C80301D599
:10469000302700E02027880404D505E0414638464D
:1046A000B0476D1C641EF9D52846BDE8F0811FB5E2
:1046B0000C4600210391022203A983688DE80E00B5
:1046C000006801230C226C21FDF7CEFBBDF80C1015
:1046D00049BA218004B010BD38B50446806808B9D5
:1046E0000A20A060A17B012001B9A073E17B01B980
:1046F000E073217C01B92074617C01B96074A17CF4
:1047000001B9A074E17C01B9E074217D01B9207583
:10471000607D08B902206075E17B2046FCF75DFAF8
:1047200068BB217C2046FCF734FA40BBA27C617C4C
:104730002046FCF776FA10BBE17C2046FCF7B0FA85
:10474000E8B9217D2046FCF7DFF9C0B9617D20463C
:10475000FCF7CAFA98B92046FCF7D6FA78B90020D7
:104760008DF8000069462046FCF7C2F938B99DF87B
:104770000000810603D5010701D4C00601D5012040
:1047800038BD002038BD18210120FBF7EDBC00002A
:1047900006490968C96A890201604FF480014160D5
:1047A0004FF4605181600021C16070478C0100208E
:1047B00010210120FBF7D8BC2DE9F0410446164634
:1047C0000846FBF77BFE154A154BFBF77DFD0246BD
:1047D0000B4600201349FBF7E9FDFBF782FE074675
:1047E00001463046FBF7CEFC054629463046FBF72E
:1047F00021FD0A21FBF75CFDFBF747FE20602946FF
:104800003846FBF717FD0A21FBF752FDFBF73DFE8B
:1048100060600020A060E060BDE8F081EA2E4454B2
:10482000FB2119400000F03F10210120FBF79CBC48
:1048300070B504468068E0602068FCF79DF8054686
:10484000E1686068FCF798F82844A06070BD00003B
:1048500013B54FF6FF73012269460248FEF736FC96
:1048600000981CBDAC02002070B50A4C0D462168B2
:10487000C968C1EB802041F62111FCF77DF8216861
:104880004968FCF731F8286021688968FCF774F8FA
:10489000686070BD180000200EB500F074F9654C1A
:1048A0002060FFF770FF654D63496060C0E9001547
:1048B00010218181FFF77CFFA06000F027F9E06004
:1048C000FFF7B2FF2061FDF7C5FCFFF769F8FEF7BF
:1048D000A9FEFEF791FEFFF741F8FEF739FEFEF75D
:1048E00011FFFEF72FFFFEF7A3FFFEF7D3FFFFF741
:1048F00003F8FEF75FFE0122D1035148FDF7E4F90A
:10490000DFF840914FF40058002241464846FDF739
:10491000DBF9002210212846FDF7D6F910224A497A
:104920004A48FCF79DFB4A48FEF710F94948FEF754
:104930000DF94948FEF70AF94848FEF707F9002142
:104940004348FEF709FB04214148FEF705FB082117
:104950003F48FEF701FB4248424D009001902B4634
:10496000414A4FF07E51206800F0D4F86068FFF7AC
:10497000B3FEA068FFF70CFFE06800F0C3F82A461A
:10498000A9072069FFF718FF3848FCF7CDF94FF465
:10499000FA60FDF78FF82E480068C16A406B344F0B
:1049A00002A96068FFF783FEBDF80800E168FFF721
:1049B0005BFFE06801682069FFF73AFFE068406844
:1049C000FBF7E2FFFBF77AFD0546E0680E4600685C
:1049D000FBF7DAFFFBF772FDCDE9005602460B4606
:1049E00024A0FFF7EBF920680068FBF7CDFFFBF789
:1049F00065FD02460B4623A0FFF7E0F923A0FFF771
:104A0000DDF93878012810D121490820CDE90001CD
:104A1000002304221F4940F2231000F0B9F80020BF
:104A2000387041464846FDF747F96420FDF742F8E3
:104A3000B6E7000010000020380100200008014007
:104A4000000C0140001001407C0000209C00002070
:104A50008C010020D40100201C02002064020020F0
:104A600000247449CDCCCC3D0000C8421001002088
:104A700028000020252E33662C20252E33662C207E
:104A800000000000252E3366000000000D0A000023
:104A90009A99D14151015514F0B50B30154D20F0C4
:104AA00007010024144A0FE003688B420BD38B42AA
:104AB00005D95E1A43184768C3E9006700E04368F8
:104AC000136002C004E0021D10680028ECD12046EB
:104AD000002802D1286808B10020F0BD064A074826
:104AE0001060074A121A22F00702C0E900240120D0
:104AF0002860D7E74400002040000020F402002096
:104B0000F00400200021016041607047082101206D
:104B1000FBF72ABB2DE9F04117460A46DDE90656A8
:104B2000044698460A211046FBF7C2FBFBF7ADFC92
:104B300020600A213846FBF7BBFBFBF7A6FC606050
:104B40000A214046FBF7B4FBFBF79FFC20620A21D9
:104B50002846FBF7ADFBFBF798FC60614042206103
:104B60000A213046FBF7A4FBFBF78FFCE0614042D3
:104B7000A0610020A060E060A062E062206360634A
:104B8000A063BDE8F0813C210120FBF7EDBA0000F5
:104B900038B500240094084C049D84E82F00074891
:104BA00007496B4600680A464068800A087021463B
:104BB0000448FCF7EDFA38BD480000201C00002036
:104BC0000000002010010020000000000000000094
:104BD00001020304060708090000000001020304A3
:104BE000004C00080000002048000000FC3D0008C8
:104BF000484C000848000020A80800000C3E0008AF
:104C000000000000000000000000000000000000A4
:104C10000000000000000000000000000000000094
:104C20000000000002000000000000000100000081
:104C300010000000000000000024F400000000004C
:084C400000000000000000006C
:04000005080000ED02
:00000001FF
