:020000040800F2
:100000005805002001010008D71E0008451C000803
:10001000D51E0008830900084D22000800000000DA
:10002000000000000000000000000000DB1E0008CF
:100030008509000800000000D91E0008DD1E000828
:100040001B0100081B0100081B0100081B01000820
:100050001B0100081B0100081B0100081B01000810
:100060001B0100081B0100081B0100081B01000800
:100070001B0100081B0100081B0100081B010008F0
:100080001B0100081B0100081B0100081B010008E0
:100090001B0100081B0100081B0100081B010008D0
:1000A0001B0100081B0100081B0100081B010008C0
:1000B0001B0100081B0100081B0100081B010008B0
:1000C0001B0100081B0100081B0100081B010008A0
:1000D0001B0100081B0100081B0100081B01000890
:1000E0001B0100081B0100081B010008DFF80CD0F1
:1000F00000F00AFC004800470D25000858050020C4
:100100000648804706480047FEE7FEE7FEE7FEE7B1
:10011000FEE7FEE7FEE7FEE7FEE7FEE7591F000801
:10012000ED000008202A04DB203A21FA02F0002129
:10013000704721FA02F3D040C2F1200291400843F7
:1001400019467047D2B201E000F8012B491EFBD2DC
:1001500070470022F6E710B513460A4604461946D2
:10016000FFF7F0FF204610BDF0B480EA0102D40F83
:100170004200B2EB410F02D20246084611464A0045
:1001800042D0C30DDDB2C1F3C752AD1A202D35DA0E
:10019000C1F3160141F4000204B15242C5F1200638
:1001A00002FA06F12A411044B3EBD05F23D0C4B168
:1001B000012DA0EBC35009DCF0BC4FF0004202EA75
:1001C000C352DBB200F5000000F0D0BA400000F1ED
:1001D000807000EBC350A0F1807040EAD1704900FC
:1001E00009E0490841EAC071A0EBC35000F50000E6
:1001F000400800EBC350F0BC00F0AFBA61420122EE
:1002000002EB4101001BF6E7F0BC704781F00041B2
:10021000AAE780F00040A7E780EA010210B502F0EB
:100220000043400022D04A001FD0010E01EB1261B2
:10023000C0F35600C2F3560240F4000042F400023C
:10024000A0FB022000047F39140400D0401C50EAB7
:10025000124001D44000491EC2B20C0604EBD0107B
:10026000401C4008802A02D003E0002010BD20F08E
:100270000100002900DA0020184310BD420005D01B
:10028000C0F3C7525242914201DC0020704700EB9C
:10029000C15070472DE9FE4F804681EA0300C00F30
:1002A0000C46009021F0004123F00045B8EB02001D
:1002B000A94105D24046214690461C460B460246BF
:1002C00023F00040104347D0270DC7F30A00C3F3C3
:1002D0000A510290401A019040286BDAC3F31300D0
:1002E00040F4801B0098924620B10023D2EB030A11
:1002F00063EB0B0B01985946C0F14002504600F0E9
:100300000BFA06460D4650465946019A00F013FA7C
:1003100010EB08006141002487EA115284EAE77378
:100320001A4340D0009A62B3019A012A4FEA075259
:1003300015DC001B61EB02014FF0004202EA07529C
:10034000CDE90042001C41F5801132462B4600F0F9
:100350004AFA03B0BDE8F08F40462146F9E7001B9A
:1003600061EB0201001C41F5801300185B4120186D
:10037000A2F5001747EB030140EAD570B6196D41AD
:1003800011E06D084FEA360645EAC0754FEA07529C
:10039000001B61EB0201001C41F5801149084FEA86
:1003A00030000019514132462B4603B0BDE8F04FF2
:1003B00000F00ABA0098012240000023D0EB0202AC
:1003C00063EBE073009821464FEAE074B8EB00005D
:1003D00061EB0401E9E783F000435BE781F0004152
:1003E00058E72DE9FE4F81EA030404F0004421F0B0
:1003F000004100944FF0000B23F0004350EA010449
:100400005ED052EA03045BD0C3F30A54C1F30A5529
:100410002C44A4F2F3340194A0FB0254C1F3130161
:1004200041F48011C3F3130343F4801301FB02442E
:1004300000FB034E840A970A44EA815447EA835733
:10044000A4FB076802958D0A05FB07854FEA932CEC
:1004500004FB0C542705029D4FEA065847EA16375D
:10046000B5EB08056EEB070C870E920E47EA811775
:1004700042EA8312A7FB0201B6EB0B0164EB000416
:100480002B0D43EA0C335E1844EB1C50DA46514600
:10049000E7FB0201C5F313044FEA0B3343EA14539D
:1004A0004FEA0432019C43EA0603A4F10C040294CF
:1004B000009CCDE900B400F096F903B0BDE8F08FE0
:1004C00000200146F9E72DE9F04D81EA030404F02C
:1004D000004B21F0004514464FF0000A23F0004184
:1004E00050EA050220D054EA01021DD0C5F30A5794
:1004F0000246C5F31303C1F31300C1F30A5640F4D7
:10050000801543F48013A7EB0608101BD64608F2AB
:10051000FD3873EB050002D308F1010801E09218E1
:100520005B41B8F1000F03DA00200146BDE8F08D11
:1005300000204FF48011064684460EE0171B73EB33
:10054000050705D3121B63EB050306434CEA010CB8
:1005500049084FEA300092185B4150EA0107EDD19B
:1005600052EA030012D082EA040083EA050108433C
:1005700005D0101BAB4106D20122002306E0002269
:100580004FF0004302E06FF0010253101AEB060037
:100590004CEB085110EB0A0041EB0B01BDE8F04DAC
:1005A00000F012B9C10F80EAE0700844CA07962330
:1005B000002100F0DBB80EB5C10F80EAE0700844FE
:1005C000CA07002140F233438DE80E000A460B466D
:1005D00000F009F903B000BD0EB540F233410291BD
:1005E0000021CDE900110A460B4600F0FCF803B0EB
:1005F00000BD20F00040C10DC0F3160040F4000023
:100600007F2901DA00207047962903DCC1F19601A9
:10061000C840704796398840704770B5C1F30A5298
:1006200001F000450024C1F3130140F2FF3341F40F
:1006300080119A4201DA002070BD40F233439A42A1
:10064000A2F2334203DC5242FFF76CFD00E090401F
:100650002C43F1D0404270BDC1F30A5210B5C1F332
:10066000130140F2FF3341F480119A4201DA002075
:1006700010BD40F233439A42A2F2334203DC5242AD
:10068000FFF750FD10BD904010BD00F0004230F06B
:1006900000400AD0C10D01F56071C0F3160042EAB6
:1006A0000151C208400711437047002001467047BE
:1006B00030B5041E71F1000404DB4FF000444042E9
:1006C00064EB0101141E73F1000405DB1C464FF0BE
:1006D0000043524263EB0403994208BF904230BD8D
:1006E00001F0004330B421F0004150EA010206D08D
:1006F0000A0DA2F56072C1F31301002A02DC30BCBE
:1007000000207047440F44EAC104C100E01830BC27
:1007100000EBC25000F021B8202A04DB203A00FA96
:1007200002F1002070479140C2F1200320FA03F348
:10073000194390407047202A06DBCB17203A41FA34
:1007400002F043EAE07306E041FA02F3D040C2F15E
:10075000200291400843194670470029A8BF7047FE
:10076000401C490008BF20F00100704710B4B0FAE7
:1007700080FC00FA0CF050EA010404BF10BC704782
:1007800049B1CCF1200421FA04F411FA0CF118BF9C
:10079000012121430843A3EB0C01CB1D4FEA00616B
:1007A0004FEA102042BF002010BC704700EBC3503E
:1007B00010440029A4BF10BC7047401C490008BF6A
:1007C00020F0010010BC704710B5141E73F1000436
:1007D00008DA401C41F1000192185B411A4301D133
:1007E00020F0010010BD2DE9F04D92469B4611B15D
:1007F000B1FA81F202E0B0FA80F220329046FFF7BF
:100800008BFF04460F4640EA0A0041EA0B015346BB
:100810005A46084313D0114653EA010019D0C8F1D3
:1008200040025046FFF77EFC05460E4650465946AC
:100830004246FFF771FF084305D0012004E020463F
:100840003946BDE8F08D0020054346EAE0762C43AA
:1008500037430A986305E40AA0EB08000022FD0A6A
:1008600044EA47540A3002D500200146E9E7010571
:1008700010196941DDE9084500196941BDE8F04DED
:10088000A2E72DE9FE4FC3F30A5701F0004500240B
:10089000C1F30A56C3F31303C1F3130143F48013E6
:1008A00012EB020AA64641F48011009543EB030CBB
:1008B000A7F1010B16E0B0EB0A0061EB0C01071E7B
:1008C00071F1000707DA4FF00008D0EB080085F05F
:1008D000004568EB0101171A73EB0107EBD3761E95
:1008E000001849415E45F6DA50EA010209D0CDE927
:1008F00000E5002213460296FFF775FF03B0BDE83E
:10090000F08F20460099F9E7064C074D06E0E068B5
:1009100040F0010394E8070098471034AC42F6D346
:10092000FFF7E8FB7C2B00089C2B000870B5044601
:1009300000688168C943C90717D1816821F00101A6
:10094000816000F07BFA05460AE000BF00F076FA0D
:10095000401B022804D920688068C043C00706D025
:1009600020688068C043C007F0D0002070BDA06A36
:1009700040F01000A062E06A40F00100E062012057
:1009800070BDFEE7704772B6FEE70000F8B50024C0
:10099000009490F824202546012A12D0012280F8E4
:1009A00024204A681F23072A0DD20668776B521E3F
:1009B00002EB820293409F430B6893401F4377638F
:1009C00019E00220F8BD06680D2A0AD2376BD21F43
:1009D00002EB820293409F430B6893401F433763AF
:1009E00009E0F76A0D3A02EB820293409F430B68DD
:1009F00093401F43F7620A68072306680A2A0AD34E
:100A0000F7680A3A02EB420293409F438B68934097
:100A10001F43F76008E0376902EB420293409F43AF
:100A20008B6893401F4337610A68102A01D0112A4E
:100A300020D1124B02689A4217D193681B0219D435
:100A4000936843F4000393600968102912D10C499C
:100A50000C4A0968B1FBF2F101EB8101490000E0A9
:100A6000491E00910029FBD104E0816A41F0200178
:100A70008162012480F824502046F8BD0024014002
:100A80001000002040420F002DE9F0414FF0000718
:100A900004003D467ED0A06A002628B9E66284F8AC
:100AA0002460204600F07EF82046FFF73FFFA16A51
:100AB00001F01001014304D0A06A40F01000A062D0
:100AC00068E0A16A21F4885141F00201A1626268E4
:100AD000E169237B0A4347EA43010A43A1684FF4D3
:100AE0008077B94208D0012906D0002194F814C0BB
:100AF000BCF1010F02D00AE03946F7E7F3B1A36A6F
:100B000043F02003A362E36A43F00103E362236836
:100B1000D3F804C02CF4694C4CEA010CC3F804C0AF
:100B200023689968DFF870C001EA0C0111439960ED
:100B3000A168B9420BD0012909D00CE0DFF85CC0F4
:100B4000A3690CEB43330B4343F40061DFE7218AD5
:100B50000D05A5F580152168CB6A23F470032B439E
:100B6000CB62216889680E4B1940914208D1E66238
:100B7000A16A21F0020141F00101A162BDE8F0810A
:100B8000A06A20F0020040F01000A062E06A40F08D
:100B90000100E0620120F1E7FDF7E1FF00E0FFFF67
:100BA000FE0E1FFF10B586B0002100910191029149
:100BB00003911A4C03681A4903221A48A34211D11F
:100BC0008B6943F400738B618B6903F400730493A6
:100BD0008B6943F004038B61896901F0040104917E
:100BE000012113E0104CA34215D18B6943F48063BB
:100BF0008B618B6903F4806304938B6943F0040376
:100C00008B61896901F0040104910221CDE9001290
:100C1000694600F01DF806B010BD00000024014038
:100C200000100240000801400028014070B5044651
:100C300000F004F90546601C02D004480078044422
:100C400000F0FCF8401BA042FAD370BD0400002065
:100C50002DE9F84FDFF8B891002409F1040A0AF1F0
:100C6000040B23460F270BF1040EC9E00125A54014
:100C70002A40AA427DD1674ED1F804C0ACEB0608E9
:100C8000B44532D014DCBCF1030F3AD009DCBCF11E
:100C9000000F2AD0BCF1010F1CD0BCF1020F31D1E2
:100CA0001DE0BCF1110F17D0BCF1120F2AD119E0D1
:100CB000B8F5881F19D006DCB8F5803F15D0B8F517
:100CC000801F1FD111E0B8F5001F0ED0B8F5041F2A
:100CD00018D10AE0CB6815E0CB681B1D12E0CB6889
:100CE00008330FE0CB680C330CE08B682BB1012B81
:100CF0004FF0080303D0456104E0042302E00561DE
:100D000000E00023FF2A01D8064601E000F10406B6
:100D10004FEA840501D9A5F12005D6F8008007FA2D
:100D200005FC28EA0C0803FA05F548EA0508C6F8A8
:100D300000804D68ED0062D5374DAE6946F0010682
:100D4000AE61AD6924F0030605F001050095334D51
:100D500006EB050CDCF80850A607360F07FA06F874
:100D600025EA0805DFF8B880404503D14FF00008B8
:100D700017E044E0DFF8AC80404502D14FF00108B5
:100D80000FE0DFF8A480404502D14FF0020808E0F0
:100D9000DFF89880404502D14FF0030801E04FF0A2
:100DA000040808FA06F848EA0508CCF808804D68F7
:100DB000D9F80060ED034D4601D5164300E0964397
:100DC0002E604D68DAF80060AD03554601D5164334
:100DD00000E096432E604D68DBF80060ED025D4652
:100DE00001D5164300E096432E604D68DEF80060A2
:100DF000AD02754601D5164300E096432E60641C93
:100E00000D682A46E5407FF431AFBDE8F88F000059
:100E100000040140000011100010024000000140D9
:100E200000080140000C0140001001400014014086
:100E30000AB1016170470904FBE7000001488068BE
:100E4000704700000400002070B5040025D094F81D
:100E50003D00002520B984F83C50204600F0B8F849
:100E6000242084F83D002068016821F00101016020
:100E70002068016841F4004101602068016821F4A4
:100E80000041016000F068FA4D4A6168914201D862
:100E90004C4900E04C49884201D2012070BD4B49C9
:100EA0002368B0FBF1F15E6826F03F060E435E60FA
:100EB0006368934206D94FF4967359434FF47A739B
:100EC000B1FBF3F12368491C1E6A26F03F0631434B
:100ED00019626168914210D84900401EB0FBF1F2DE
:100EE000521CC2F30B02042A01D2042022E0B0FB00
:100EF000F1F0401CC0F30B001CE0A268F2B301EB60
:100F0000C10303EB0116431EB3FBF6F35B1C43F472
:100F100080431B0549D092B301EBC10202EB0111E2
:100F2000401EB0FBF1F0401CC0F30B0040F48040C9
:100F300040F400402168CA694CF6FF739A4310439D
:100F4000C861D4E9071001432068026822F0C0029A
:100F500011430160D4E9030101432068826848F22B
:100F6000FF339A4311438160D4E9050108432168A6
:100F7000CA6822F0FF021043C86001E00EE016E0EC
:100F80002068016841F0010101602564202084F897
:100F90003D00256384F83E50002070BD01EB410602
:100FA000431EB3FBF6F35B1CB3E70120C2E701EB82
:100FB0004101401EB0FBF1F0401CC0F30B00B7E74D
:100FC000A086010080841E0000093D0040420F0001
:100FD00010B586B000210091019102910391006843
:100FE0000F4988421AD10F4CA06940F00800A06157
:100FF000A069694600F008000490C020009012200B
:101000000190032003900848FFF722FEE06940F4B6
:101010000010E061E06900F40010049006B010BD1B
:101020000054004000100240000C0140024881685A
:10103000027811448160704704000020074810B511
:10104000016841F010010160032000F067F80F20F3
:1010500000F006F800F024F8002010BD0020024047
:1010600070B50D4D04464FF47A712878B1FBF0F05D
:101070000A490968B1FBF0F000F054FB48B9102CA4
:1010800007D200222146501E00F028F800206C6094
:1010900070BD012070BD0000040000201000002081
:1010A0000C4808B5816941F001018161816901F055
:1010B00001010091C16941F08051C161C06900F036
:1010C000805000900448416821F0E06141F00071D7
:1010D000416008BD0010024000000140F0B40E4B1A
:1010E0001B680C46C3F30223C3F10705042D00D986
:1010F0000425191D072901D2002300E0DB1E01266B
:1011000006FA05F1491E214099409E40761E164080
:101110003143F0BC01F09BB80CED00E0064900F053
:10112000070208684FF6FF03184040EA0220034A0E
:1011300010430860704700000CED00E00000FA0565
:101140002DE9F84305460078354CC00754D0E069D6
:101150000026C00008D4E06940F08050E061E069FA
:10116000012600F0805000902E480168C90512D475
:101170000168804641F480710160FFF75FFE074619
:1011800005E000BFFFF75AFEC01B642823D8D8F83B
:101190000000C005F6D5206A10F4407021D0A9885F
:1011A00001F4407181421CD0206A1F49012220F4C1
:1011B00040700A6000220A602062C00711D0FFF769
:1011C0003DFE074641F2883808E000BFFFF736FED3
:1011D000C11B414502D90320BDE8F883206A80077E
:1011E000F4D5206A696820F44070084320621EB17B
:1011F000E06920F08050E0612878800705D56068BC
:10120000A96820F44040084360602878C00605D5EE
:101210006068E96820F48000084360600020DBE734
:101220000010024000700040400442422DE9F047A7
:101230000F46050061D0434E306800F00700B84209
:1012400009D2306820F0070038433060306800F081
:101250000700B84251D128683B4C810712D540079E
:1012600003D5606840F4E06060602878000703D52B
:10127000606840F4605060606068A96820F0F00029
:10128000084360602878C00728D06868012810D01B
:101290002168022810D0890700292EDA616821F020
:1012A000030101436160FFF7C9FD804641F28839BF
:1012B0000DE021688903EFE78901EDE7FFF7BEFD47
:1012C000A0EB0801494502D90320BDE8F08760681A
:1012D000696800F00C00B0EB810FEFD1306800F0CE
:1012E0000700B8420BD9306820F00700384330605F
:1012F000306800F00700B84201D00120E5E7287807
:10130000400705D56068E96820F4E0600843606044
:101310002878000706D56068296920F4605040EA03
:10132000C100606000F038F86168084AC1F3031139
:10133000515CC8400649086006480068FFF790FE07
:101340000020C2E70020024000100240642B000889
:101350001000002008000020044805490068496882
:10136000044AC1F30221515CC840704710000020BC
:1013700000100240742B00080448054900684968C1
:10138000044AC1F3C221515CC840704710000020DC
:1013900000100240742B000812A185B00FC98DE81F
:1013A0000F0014A0144A006804905168134801F01B
:1013B0000C03042B10D0082B0ED1C1F38343C903B7
:1013C0001DF803000AD5516804AAC1F34041515CDD
:1013D0000A4A5043B0FBF1F005B070470849484352
:1013E000FAE7000002030405060708090A0B0C0DC2
:1013F0000E0F1010010200000010024000127A00CF
:1014000000093D002DE9F84F040070D02078C04D50
:10141000C00749D06868C0F38100012807D0686818
:10142000C0F38100022809D16868C00306D5286886
:10143000800339D560680028E7D035E06068B0F5F2
:10144000803F0BD010B1B0F5A02F11D0286820F448
:1014500080302860286820F4802002E0286840F46A
:1014600080302860606890B1FFF7E8FC06460AE02B
:10147000286840F480202860F0E700BFFFF7DEFC1A
:10148000801B642873D828688003F7D50CE0FFF729
:10149000D5FC064605E000BFFFF7D0FC801B6428A2
:1014A000F0D828688003F7D420789A4E80074FF050
:1014B00001094FF0000839D5686810F00C0F07D00B
:1014C0006868C0F38100022809D16868C00306D4A7
:1014D0002868800714D52069012808D110E0206908
:1014E000B0B1C6F80090FFF7A9FC074605E00AE195
:1014F000FFF7A4FCC01B0228C4D828688007F7D5D2
:101500002868616920F0F80040EAC10028600DE019
:10151000C6F80080FFF792FC074604E0FFF78EFC58
:10152000C01B022823D828688007F7D4207800073A
:101530002CD57948A169D9B1C0F80090FFF77EFC9D
:10154000074604E0FFF77AFCC01B02280FD8686A40
:101550008007F7D571484FF4FA510068B0FBF1F0FD
:10156000009000BF0098411E0091FAD20EE080E08A
:10157000C0F80080FFF762FC074604E0FFF75EFC5E
:10158000C01B022875D8686A8007F7D42078400706
:1015900060D5E8690027C00008D4E86940F08050B1
:1015A000E861E869012700F0805000905C4801681C
:1015B000C90513D40168834641F480710160FFF7C7
:1015C0003DFC824606E000BFFFF738FCA0EB0A00B6
:1015D00064284ED8DBF80000C005F5D5E068012886
:1015E0000AD008B1052813D0286A20F0010028622B
:1015F000286A20F0040002E0286A40F00100286216
:10160000E06841F2883B98B1FFF718FC82460BE096
:10161000286A40F004002862EEE700BFFFF70EFCE6
:10162000A0EB0A0159455AD8286A8007F6D50CE084
:10163000FFF704FC824605E0FFF700FCA0EB0A017F
:1016400059454CD8286A8007F6D41FB1E86920F0C4
:101650008050E861E06988B36968C1F381010229BB
:1016600044D00228C6F8608004D0FFF7E7FB0446A8
:1016700038E034E0FFF7E2FB074604E0FFF7DEFB6B
:10168000C01B02282BD828688001F7D4206AB0F547
:10169000803F05D16868A16820F400300843686085
:1016A000D4E908010843696821F4741108436860AB
:1016B000C6F86090FFF7C2FB044606E025E000BFD5
:1016C000FFF7BCFB001B022809D828688001F7D56A
:1016D0001BE000BFFFF7B2FB001B022802D903206A
:1016E000BDE8F88F28688001F4D40EE00128F7D017
:1016F0006868226A00F48031914204D1616A00F482
:101700007010884201D00120EAE70020E8E70000DD
:1017100000100240000042428004424210000020BB
:101720000070004010B5401EB0F1807F01D3012051
:1017300010BD4FF0E02460610F21601700F087FDBD
:101740000020A06107202061002010BD10B590F896
:101750003C20012A22D0012280F83C20CA688C68F3
:1017600022F4407222434C6822F4806222430C68C7
:1017700022F4006222430C6922F4805222434C6915
:1017800022F400522243C969002322F480420A4312
:1017900001684A6480F83C30002010BD022010BD72
:1017A00070B590F83C20012A26D0012480F83C40F6
:1017B000022280F83D2003685A689D6822F0700676
:1017C0000A6832435A600D4B02689A4208D0B2F15F
:1017D000804F05D00A4B9A4202D00A4B9A4204D15C
:1017E000496825F080031943916080F83D4000214D
:1017F00080F83C10084670BD022070BD002C0140EE
:10180000000400400008004010B5040003D094F824
:101810003D0010B107E0012010BD002084F83C001D
:10182000204600F01FF8022084F83D00211D2068AA
:1018300000F094FB012084F8460084F83E0084F810
:101840003F0084F8400084F8410084F8420084F8A6
:10185000430084F8440084F8450084F83D000020EB
:1018600010BD000008B500680649884208D1064846
:10187000816941F400618161806900F40060009039
:1018800008BD0000002C01400010024070B5044665
:1018900090F83C00012817D0012584F83C50022024
:1018A00084F83D002068826822F0770222F47F42AB
:1018B00082600868502830D00DDC20284DD005DC2F
:1018C00098B310283BD148E0022070BD302844D0A6
:1018D000402834D139E0602828D0702806D0B0F5EF
:1018E000805F2CD0B0F5005F29D10AE0CB68D1E948
:1018F0000121206800F075FB2068816841F07701C4
:1019000009E0CB68D1E90121206800F06AFB20687A
:10191000816841F48041816011E0CA6849682068AB
:1019200000F014FC5021206807E016E0CA684968FE
:10193000206800F01CFC6021206800F05CFB84F84B
:101940003D50002084F83C0070BDCA68496820689A
:1019500000F0FCFB40212068EFE7226801461046BA
:10196000EBE7000000B585B00021009101910291E4
:10197000039100680B49884212D10B48816941F0FC
:10198000040181618069694600F0040004904FF40D
:10199000E06000900220019003900448FFF758F99E
:1019A00005B000BD002C01400010024000080140BD
:1019B00070B5044690F83C000D4601280AD001207D
:1019C00084F83C0042B1042A18D0082A2AD00C2AF4
:1019D0004DD139E0022070BD206800F015FB206871
:1019E000816941F0080181612068816921F0040169
:1019F0008161206881692A69114311E0206800F043
:101A00002BFB2068816941F4006181612068816954
:101A100021F480618161206881692A6941EA02219B
:101A2000816124E0206800F043FB2068C16941F037
:101A30000801C1612068C16921F00401C161206809
:101A4000C1692A69114311E0206800F05DFB20683C
:101A5000C16941F40061C1612068C16921F48061FC
:101A6000C1612068C1692A6941EA0221C16100207F
:101A700084F83C0070BD10B5040003D094F83D001C
:101A800010B107E0012010BD002084F83C00204682
:101A900000F01EF8022084F83D00211D206800F0AF
:101AA0005DFA012084F8460084F83E0084F83F0087
:101AB00084F8400084F8410084F8420084F8430030
:101AC00084F8440084F8450084F83D00002010BDEF
:101AD0007047000010B50446022249B104290ED017
:101AE000082913D094F84100012816D0012010BD18
:101AF00094F83E000128F9D184F83E200FE094F8D4
:101B00003F000128F2D184F83F2008E094F840001B
:101B10000128EBD184F8402001E084F84120012223
:101B2000206800F051FA0F492068884203D1426CC6
:101B300042F4004242642068884208D0B0F1804FED
:101B400005D00949884202D00849884204D18168F9
:101B500001F00701062903D0016841F0010101608D
:101B6000002010BD002C014000040040000800408F
:101B700070B5040004D094F83D00002510B106E0D3
:101B8000012070BD84F83C50204600F023F824204A
:101B900084F83D002068C16821F40051C1602046EE
:101BA00000F0F8FA2068016921F490410161206891
:101BB000416921F02A0141612068C16841F4005166
:101BC000C1602564202084F83D0084F83E00002098
:101BD00070BD000030B585B00024009401940294DB
:101BE000039400681449884223D11448C16941F420
:101BF0000031C161C16901F400310491816941F092
:101C00000401816180690E4D00F0040004900420FD
:101C10000090022001900320039069462846FFF7B8
:101C200017F80820CDE90004694628460294FFF71A
:101C30000FF805B030BD0000004400400010024025
:101C400000080140FEE700003EB500241048009463
:101C5000019402940D4984600160012505730475A7
:101C600005614FF460214460C161FEF70DFF08B1CA
:101C7000FEF789FECDE90045694605480294FEF766
:101C800085FE002801D0FEF77EFE3EBD0024014007
:101C9000180000203EB500241048009401940294DE
:101CA0000D498460016001250573047505614FF4D9
:101CB00060214460C161FEF7E7FE08B1FEF763FEF4
:101CC0000095CDE9015469460448FEF75FFE0028FF
:101CD00001D0FEF758FE3EBD00280140480000201C
:101CE00070B586B000241C480094019402940394BB
:101CF000816941F010018161816901F01001049155
:101D0000816941F020018161816901F02001049124
:101D1000816941F004018161816901F0040104914C
:101D2000816941F00801816180690C4E00F0080072
:101D30004FF400550490002229463046FFF778F80A
:101D400001200095CDE90104022003906946304648
:101D5000FEF77EFF06B070BD00100240001001408B
:101D60000D4810B50B4901600C49416000214FF44A
:101D700080428160C0E9031241618161C1610162F9
:101D8000FFF762F8002803D0BDE81040FEF7FBBD66
:101D900010BD00000054004078000020A086010023
:101DA00030B595B000240F941094119412941394AC
:101DB0001C2168461494FEF7CCF9202107A8FEF7F1
:101DC000C8F9344D32482860022068602020A8609D
:101DD00040F2AF40C5E903048020C5E9054028462C
:101DE000FFF712FD08B1FEF7CEFD4FF480500F90C3
:101DF0000FA92848FFF74AFD08B1FEF7C4FD2548A2
:101E0000FFF739FE08B1FEF7BEFD139413A9214870
:101E10001494FFF7C5FC08B1FEF7B5FD6020CDE9CD
:101E2000000402940394049405940022694619481E
:101E30000694FFF7BDFD08B1FEF7A5FD0422694633
:101E40001448FFF7B5FD08B1FEF79DFD082269466D
:101E50001048FFF7ADFD08B1FEF795FD0794089413
:101E600009944FF400500A94CDE90B4007A90948A2
:101E70000E94FFF76BFC08B1FEF785FD0649E86894
:101E8000401C08600348FFF76DFD15B030BD000031
:101E9000002C0140CC000020000000200C4810B5B0
:101EA0000A4901604FF4E1314160002181600C2258
:101EB000C160C0E904128161C161FFF759FE0028C9
:101EC00003D0BDE81040FEF75EBD10BD00440040E9
:101ED00014010020FEE7FEE770477047FFF7A6B841
:101EE00030B593B028216846FEF733F914210AA8CB
:101EF000FEF72FF9002501200F951095119501048B
:101F000012958DE8230004904FF4E010CDE90810FD
:101F1000022407946846FFF775FA08B172B6FEE727
:101F20000AA90F2081E831004FF48060CDE90D054A
:101F300002210AA8FFF77AF908B172B6FEE74FF45A
:101F4000004011900F940FA8FFF7FAF8002801D075
:101F500072B6FEE713B030BD70470000F0B50268FE
:101F6000164B174C174D4FF08047984205D0B8429A
:101F700003D0A04201D0A84203D122F070064A68E3
:101F80003243984205D0B84203D0A04201D0A842C3
:101F900003D122F44074CA6822434C6922F08002C3
:101FA000224302608A68C2620A688262984201D152
:101FB0000969016301214161F0BD0000002C01406D
:101FC000000400400008004010B501F01F0301218B
:101FD000046A99408C430462016A9A401143016289
:101FE00010BD10B5846842EA032224F47F440A43FA
:101FF0002243826010BD826822F070020A4342F0E0
:10200000070181607047000030B5026A22F00102CA
:102010000262026A4368846924F073050C682C43E9
:1020200022F002058A682A430A4DA8420BD122F009
:102030000805CA6823F440732A434D6922F004025C
:102040001D438B692B43436084614968416302628D
:1020500030BD0000002C014030B5026A22F01002B1
:102060000262026A436884690D6824F4E64444EA23
:1020700005248D6822F0200242EA05120B4DA84289
:102080000ED1CD6822F0800242EA05124D6923F498
:10209000406343EA85038D6922F0400243EA8503E9
:1020A0004360846149688163026230BD002C014055
:1020B00030B5026A22F480720262036A4268C4691F
:1020C00023F4007324F073050C682C438D6843EAF5
:1020D00005230C4DA8420ED1CD6823F4006343EADA
:1020E00005234D6922F4405242EA05128D6923F41A
:1020F000806342EA05124260C4614968C1630362B9
:1021000030BD0000002C014030B5026A22F480523C
:102110000262046A4268C3690D6823F4E64343EA35
:1021200005238D6824F4005444EA0534064DA84282
:1021300004D14D6922F4804242EA85124260C361B3
:1021400049680164046230BD002C014010B5036A87
:10215000046A24F001040462846924F0F00444EA6F
:10216000021423F00A020A438461026210BD10B512
:10217000036A23F0100303628369046A23F4704343
:1021800043EA023224F0A00343EA011182610162B2
:1021900010BD000070B5044600680169E26821F4D2
:1021A0004051114301612169A068084361690843F6
:1021B0002168CA6841F20C639A430243CA602068EE
:1021C0004169A26921F44071114341611E492068AF
:1021D000884202D1FFF7D0F801E0FFF7BDF800EB2D
:1021E000C00101EB0012606864218000B2FBF0F3D3
:1021F000B3FBF1F36FF018067343B2FBF0F5B2FBDB
:10220000F0F605EB8305322303EB0515B5FBF1F57D
:10221000B6FBF1F605F0F00505EB0615B2FBF0F69E
:10222000B2FBF0F0B0FBF1F06FF01802504306EB98
:10223000800003EB0010B0FBF1F0216800F00F000C
:102240002844886070BD000000380140FEE709079F
:10225000090E002804DB00F1E02080F8001470472C
:1022600000F00F0000F1E02080F8141D70470022FC
:10227000134610461146FEF726B902E008C8121FA1
:1022800008C1002AFAD170477047002001E001C15F
:10229000121F002AFBD170470149086070470000F7
:1022A0001400002070B50646FEF7EFF90F4A104BF8
:1022B000FDF7F0FFFEF714FA04460E4D3046FEF728
:1022C000E4F90A4A0A4BFDF7E5FFFEF709FAFEF7C3
:1022D000DCF9AC4203DB084A084BFEF77CF8FEF75A
:1022E000FFF9BDE8704000F02BB80000F4D643546D
:1022F000FB21F93FDB0FC940EA2E4454FB21194072
:1023000070B5FEF7C2F90C4C0C4D22462B4600F07E
:10231000B3F8FEF7E5F910F1FF4F02D2FEF7B5F979
:1023200005E0FEF7B2F922462B46FDF7B3FFBDE804
:102330007040FEF7D5B90000EA2E4454FB21194045
:102340002DE9F05F05463E4FDFF8F8A0DFF8F89082
:102350003E4EDFF8FCB0FEF798F93E4A3E4BFEF7E2
:1023600040F888460446BD4217DA00221346FEF7BD
:102370009FF9204641464FF000024B4602D8FDF738
:1023800089FF01E0FEF727F8FEF747F956F820002D
:10239000FEF711F95A4653464CE03048854214DAAC
:1023A000002220461346FEF783F9204641464FF0AF
:1023B00000024B4602D8FDF76DFF01E0FEF70BF877
:1023C000FEF72BF9C0F5C770E0E72548254F854299
:1023D0004FF000022046134615DAFEF769F9204651
:1023E00041464FF000024B4602D8FDF753FF01E093
:1023F000FDF7F1FFFEF711F906EB8000A0F5805024
:10240000D0F8C80912E0FEF753F9204641464FF0D4
:1024100000024B4602D8FDF73DFF01E0FDF7DBFF70
:10242000FEF7FBF8C0F5477056F82000FEF7C3F83A
:102430005A463B46FDF7D5FFBDE8F05FFEF750B9C1
:10244000DB0FC93FE2361A3F0000E03F4428000896
:102450002D431CEB9CA223B9FCAB5F40DB0F494032
:10246000E4CB9640E2361ABF0249A1EB6001FDF7CA
:10247000D3BE0000865A375F70B514461D460E461F
:10248000002814BF01210021314321F00041C1F196
:102490007F6101F1E041C90F16D1002C14BF012169
:1024A0000021294321F00041C1F17F6101F1E041A8
:1024B000C90F09D11449B1EB460F08BF00281CD041
:1024C000690008BF002C18D03146FEF7DAF9024641
:1024D00040F2FF7030EA11500DD0F017B0EBE17F01
:1024E00009D0084665F31E0084460B462046614627
:1024F000FDF774FF0246104670BD0120FFF7CCFEC9
:10250000BDE87040FFF7B3BE0000E0FFFEF796FDA8
:10251000FFF7E6FCFFF7E4FBFFF742FCFFF7BEFC2A
:10252000FFF792FBFFF7B6FBFFF71AFC00224FF410
:1025300000511348FEF77CFC00211248FFF7CAFA4D
:1025400004211048FFF7C6FA08210E48FFF7C2FA27
:102550000D4D0E4E4FF07C572046FEF796F82A465A
:102560003346FDF797FEFEF7BBF80446024600210E
:10257000384600F00DF80A20FEF758FBECE70000A3
:1025800000100140CC0000209A9999999999B93F7F
:102590002DE9FE4F04460E461046FFF7B1FE804679
:1025A000FFF7CEFE2146FDF737FE05464046FFF712
:1025B00079FE3146FDF730FE2946FDF727FE054638
:1025C0004046FFF76FFE2146FDF726FE07464046D0
:1025D000FFF7B6FE3146FDF71FFE3946FDF7C4FD95
:1025E0000146FDF719FE064629460846FDF714FE8A
:1025F0003146FDF7B9FDFFF737FF064686498748A4
:102600008E4201DB0E4602E0864200D90646844D2A
:10261000844FB4F5000F404606DBFEF736F82A4635
:102620003B46FDF737FE05E0FEF72FF82A463B460E
:10263000FDF7D1FEFEF754F8FFF762FEFEF725F82E
:102640000546794A794B0191FDF73DFF0022784B11
:10265000FDF720FEFEF700F881463046FEF715F83C
:1026600006460F464846019CFDF7B6FF80466E4A77
:102670006E4B0291FDF7B5FE2A462346FDF7ABFEF1
:10268000FEF72EF8FFF75CFEFDF7FFFFDFF8A4A1D1
:10269000DFF8A4B152465B46FDF7A3FE32463B4647
:1026A000FDF79FFEFEF71CF8344600903E4640467C
:1026B00000225F4B0299FDF78EFE5B4A5B4BFDF7F4
:1026C00090FE02460B4628460199FDF784FEFEF770
:1026D00007F8FFF735FEFDF7D8FF52465B46FDF7DA
:1026E00080FE22463346FDF77CFEFDF7F9FF0646E5
:1026F0004FF07E500099FDF789FD3146FDF786FDCC
:1027000002464FF0FF31B9F1070F63D2DFE809F05D
:1027100062041325344553001046FDF7AFFD07460C
:1027200031460098FDF720FD3946FDF71DFD0546B1
:10273000384631460CE01046FDF7A0FD07460099EB
:10274000FDF712FD054631460098FDF70DFD3946AF
:10275000FDF70AFD04463E463FE01046FDF78EFDBC
:10276000054631460098FDF7FFFC2946FDF7FCFCC5
:102770000446284631460CE01046FDF77FFD05462D
:102780000099FDF7F1FC044631460098FDF7ECFC9A
:102790002946FDF7E9FC06461FE01046FDF76EFDF1
:1027A00004463146FDF7E0FC054631460098FDF74A
:1027B000DBFC2146EDE71046FDF760FD044631469F
:1027C0000098FDF7D1FC2146FDF7CEFC05462046DA
:1027D0000099DEE700252C462E4618480068FDF7D4
:1027E000E1FE07462946FDF717FDFDF702FF144DF0
:1027F0002968486338462146FDF70EFDFDF7F9FECE
:102800002968886338463146FDF706FDFDF7F1FE7D
:102810002968C863BDE8FE8F46B6133F46B613BFAE
:10282000F4D64354FB21F93F40AF2D3852C1F03F5D
:102830000000F03F6B6058E87AB6FB3F00000020D4
:10284000CC000020000000004F0000009E000000AF
:10285000ED0000003C0100008B010000D9010000E8
:102860002802000077020000C602000015030000E5
:1028700063030000B2030000000400004F040000E6
:102880009D040000EC0400003A05000088050000EB
:10289000D60500002406000072060000C0060000F5
:1028A0000E0700005B070000A9070000F607000004
:1028B0004308000090080000DD0800002A0900001D
:1028C00077090000C30900000F0A00005C0A00003D
:1028D000A80A0000F40A00003F0B00008B0B000068
:1028E000D60B0000210C00006C0C0000B70C00009F
:1028F000010D00004C0D0000960D0000E00D0000E1
:10290000290E0000730E0000BC0E0000050F000031
:102910004E0F0000960F0000DF0F00002710000090
:102920006E100000B6100000FD1000004411000001
:102930008B110000D1110000171200005D12000081
:10294000A2120000E81200002D1300007113000015
:10295000B6130000F91300003D14000081140000BC
:10296000C414000006150000491500008B15000076
:10297000CC1500000E1600004F1600008F16000048
:10298000CF1600000F1700004F1700008E17000031
:10299000CD1700000B180000491800008718000030
:1029A000C4180000011900003D1900007919000049
:1029B000B5190000F01900002B1A0000661A00007B
:1029C0009F1A0000D91A0000121B00004B1B0000C8
:1029D000831B0000BB1B0000F21B0000291C000031
:1029E000601C0000961C0000CB1C0000001D0000B5
:1029F000351D0000691D00009D1D0000D01D000058
:102A0000031E0000351E0000671E0000981E000017
:102A1000C91E0000FA1E0000291F0000591F0000F7
:102A2000881F0000B61F0000E41F000011200000F6
:102A30003E2000006A20000096200000C120000017
:102A4000EC20000016210000402100006921000058
:102A500092210000BA210000E121000008220000BC
:102A60002F220000552200007A2200009F22000041
:102A7000C3220000E72200000A2300002D230000EB
:102A80004F2300007023000091230000B2230000B8
:102A9000D1230000F12300000F2400002D240000AA
:102AA0004B2400006824000084240000A0240000BF
:102AB000BB240000D5240000EF24000009250000FD
:102AC000222500003A25000052250000692500005B
:102AD0007F25000095250000AA250000BF250000E5
:102AE000D3250000E6250000F92500000B26000094
:102AF0001D2600002E2600003E2600004E26000067
:102B00005D2600006C2600007A2600008726000063
:102B100094260000A0260000AB260000B626000088
:102B2000C0260000CA260000D3260000DB260000D5
:102B3000E3260000EA260000F1260000F726000048
:102B4000FC260000012700000527000008270000E0
:102B50000B2700000D2700000F27000010270000A2
:102B60001027000000000000000000000102030424
:102B70000607080900000000010203049C2B00085E
:102B800000000020180000007A220008B42B000882
:102B900018000020400500008A2200080000000004
:102BA0000100000010000000000000000024F400FC
:042BB0000000000021
:04000005080000ED02
:00000001FF
