:020000040800F2
:100000004808002001010008533200080B2B0008AB
:1000100051320008D90E00087D37000800000000AA
:10002000000000000000000000000000573200083F
:10003000DB0E0008000000005532000859320008AD
:100040001B0100081B0100081B0100081B01000820
:100050001B0100081B0100081B0100081B01000810
:100060001B0100081B0100081B0100081B01000800
:100070001B0100081B0100081B0100081B010008F0
:100080001B0100081B0100081B0100081B010008E0
:100090001B0100081B0100081B0100081B010008D0
:1000A0001B010008D93200081B0100081B010008D1
:1000B000B9330008DD3300081D3400081B010008B7
:1000C0001B0100081B0100081B0100081B010008A0
:1000D0001B0100081B0100081B0100081B01000890
:1000E0001B0100081B0100081B010008DFF80CD0F1
:1000F00000F086FB00480047393A00084808002015
:100100000648804706480047FEE7FEE7FEE7FEE7B1
:10011000FEE7FEE7FEE7FEE7FEE7FEE7D532000872
:10012000ED000008202A04DB203A21FA02F0002129
:10013000704721FA02F3D040C2F1200291400843F7
:1001400019467047D2B201E000F8012B491EFBD2DC
:1001500070470022F6E710B513460A4604461946D2
:10016000FFF7F0FF204610BD10B54843044603F0EA
:10017000DBFC002805D00021002C02D0641E0155B4
:10018000FAE710BD420005D0C0F3C7525242914277
:1001900001DC0020704700EBC15070472DE9FE4F95
:1001A000804681EA0300C00F0C46009021F0004118
:1001B00023F00045B8EB0200A94105D24046214694
:1001C00090461C460B46024623F00040104347D0A1
:1001D000270DC7F30A00C3F30A510290401A019099
:1001E00040286BDAC3F3130040F4801B009892465A
:1001F00020B10023D2EB030A63EB0B0B01985946A5
:10020000C0F14002504600F003FA06460D46504643
:100210005946019A00F00BFA10EB080061410024E6
:1002200087EA115284EAE7731A4340D0009A62B316
:10023000019A012A4FEA075215DC001B61EB02010B
:100240004FF0004202EA0752CDE90042001C41F59E
:10025000801132462B4600F042FA03B0BDE8F08F21
:1002600040462146F9E7001B61EB0201001C41F505
:10027000801300185B412018A2F5001747EB03011B
:1002800040EAD570B6196D4111E06D084FEA3606A7
:1002900045EAC0754FEA0752001B61EB0201001CE2
:1002A00041F5801149084FEA3000001951413246AA
:1002B0002B4603B0BDE8F04F00F002BA00980122CF
:1002C00040000023D0EB020263EBE073009821466C
:1002D0004FEAE074B8EB000061EB0401E9E783F05A
:1002E00000435BE781F0004158E72DE9FE4F81EACA
:1002F000030404F0004421F0004100944FF0000B8F
:1003000023F0004350EA01045ED052EA03045BD0BC
:10031000C3F30A54C1F30A552C44A4F2F3340194F4
:10032000A0FB0254C1F3130141F48011C3F3130382
:1003300043F4801301FB024400FB034E840A970A36
:1003400044EA815447EA8357A4FB076802958D0A63
:1003500005FB07854FEA932C04FB0C542705029DEF
:100360004FEA065847EA1637B5EB08056EEB070C5F
:10037000870E920E47EA811742EA8312A7FB020119
:10038000B6EB0B0164EB00042B0D43EA0C335E1853
:1003900044EB1C50DA465146E7FB0201C5F3130457
:1003A0004FEA0B3343EA14534FEA0432019C43EA09
:1003B0000603A4F10C040294009CCDE900B400F003
:1003C0008EF903B0BDE8F08F00200146F9E72DE972
:1003D000F04D81EA030404F0004B21F0004514467F
:1003E0004FF0000A23F0004150EA050220D054EA01
:1003F00001021DD0C5F30A570246C5F31303C1F32A
:100400001300C1F30A5640F4801543F48013A7EBA0
:100410000608101BD64608F2FD3873EB050002D320
:1004200008F1010801E092185B41B8F1000F03DA0E
:1004300000200146BDE8F08D00204FF480110646F3
:1004400084460EE0171B73EB050705D3121B63EB05
:10045000050306434CEA010C49084FEA30009218A4
:100460005B4150EA0107EDD152EA030012D082EA63
:10047000040083EA0501084305D0101BAB4106D2F6
:100480000122002306E000224FF0004302E06FF05B
:10049000010253101AEB06004CEB085110EB0A0056
:1004A00041EB0B01BDE8F04D00F00AB970B521F049
:1004B000004303430CD0C1F30A550024D5EB0405D7
:1004C00064EB0403D617AD1AB34102DB00200146EA
:1004D00070BD201841EB025170BD0EB5C10F80EA0E
:1004E000E0700844CA07002140F233438DE80E0053
:1004F0000A460B4600F0F3F803B000BD0EB540F21B
:10050000334102910021CDE900110A460B4600F06B
:10051000E6F803B000BD00F0004220F00040C10D3D
:10052000C0F3160040F400007F2901DA0020704774
:10053000962903DCC1F19601C84001E09639884054
:10054000002AF4D04042704770B5C1F30A5201F05E
:1005500000450024C1F3130140F2FF3341F4801140
:100560009A4201DA002070BD40F233439A42A2F26F
:10057000334203DC5242FFF7D5FD00E090402C43AC
:10058000F1D0404270BD00F0004230F000400AD08F
:10059000C10D01F56071C0F3160042EA0151C208B5
:1005A00040071143704700200146704701F00043A7
:1005B00030B421F0004150EA010206D00A0DA2F544
:1005C0006072C1F31301002A02DC30BC00207047C6
:1005D000440F44EAC104C100E01830BC00EBC25033
:1005E00000F037B830B50B46014600202022012428
:1005F00009E021FA02F59D4205D303FA02F5491BF1
:1006000004FA02F52844151EA2F10102F1DC30BD06
:10061000202A04DB203A00FA02F1002070479140C2
:10062000C2F1200320FA03F3194390407047202AB7
:1006300006DBCB17203A41FA02F043EAE07306E00A
:1006400041FA02F3D040C2F120029140084319461A
:1006500070470029A8BF7047401C490008BF20F020
:100660000100704710B4B0FA80FC00FA0CF050EAB8
:10067000010404BF10BC704749B1CCF1200421FA39
:1006800004F411FA0CF118BF012121430843A3EB34
:100690000C01CB1D4FEA00614FEA102042BF002041
:1006A00010BC704700EBC35010440029A4BF10BC1D
:1006B0007047401C490008BF20F0010010BC704783
:1006C00010B5141E73F1000408DA401C41F100015A
:1006D00092185B411A4301D120F0010010BD2DE9B1
:1006E000F04D92469B4611B1B1FA81F202E0B0FAA8
:1006F00080F220329046FFF78BFF04460F4640EA17
:100700000A0041EA0B0153465A46084313D01146EA
:1007100053EA010019D0C8F140025046FFF702FD2C
:1007200005460E46504659464246FFF771FF0843BC
:1007300005D0012004E020463946BDE8F08D0020B8
:10074000054346EAE0762C4337430A986305E40AFA
:10075000A0EB08000022FD0A44EA47540A3002D503
:1007600000200146E9E7010510196941DDE9084566
:1007700000196941BDE8F04DA2E72DE9FE4FC3F332
:100780000A5701F000450024C1F30A56C3F31303CE
:10079000C1F3130143F4801312EB020AA64641F49D
:1007A0008011009543EB030CA7F1010B16E0B0EBB1
:1007B0000A0061EB0C01071E71F1000707DA4FF028
:1007C0000008D0EB080085F0004568EB0101171A1E
:1007D00073EB0107EBD3761E001849415E45F6DA4C
:1007E00050EA010209D0CDE900E500221346029645
:1007F000FFF775FF03B0BDE8F08F20460099F9E7D9
:10080000064C074D06E0E06840F0010394E807005D
:1008100098471034AC42F6D3FFF76CFC584E0008F2
:10082000784E0008214981FB00104FEAC02000EB00
:10083000515000F18040810028BFC0F100404000CD
:10084000DFF85CC0C0F3895109B35CF82120C1F521
:1008500000715CF821304FEA8021DFF848C0A1FB2D
:100860000CC14FEA11214FF000001044A0FB01C061
:100870004FEA5000A3EB0000A0FB01C010444FEA78
:10088000500028BF4042C01240F100007047DFF81E
:1008900018C0A0FB0CC04FEA902028BF4042704710
:1008A00030460008A2DA0FC937CD0FC9B7C17C5155
:1008B00091F0000F04BF6FF00040704710B54FF08B
:1008C000010E90EA010F48BF4FF0000E002848BF0C
:1008D0004042002948BF4942B0FA80F4142CA8BF16
:1008E000142400FA04F2C4F1140CB2FBF1F0B0FAD3
:1008F00080F39C45A4BFCEF1004010BD01FB102247
:10090000B2FA82F464450EDAACEB040C02FA04F29B
:1009100000FA04F0B2FBF1F301FB13221844B2FA1F
:1009200082F46445F0DD02FA0CF200FA0CF0B2FB3E
:10093000F1F318449EF0000F08BF404210BD0000C4
:1009400080FB01014FEA105000EB013070470000BE
:10095000204981FB00104FEAC02000EB515081007C
:1009600028BFC0F100404000DFF85CC0C0F38951EF
:1009700009B35CF82120C1F500715CF821304FEA21
:100980008021DFF848C0A1FB0CC14FEA11214FF0D4
:1009900000001044A0FB01C04FEA5000A3EB000090
:1009A000A0FB01C010444FEA500028BF4042C012D3
:1009B00040F100007047DFF818C0A0FB0CC04FEA00
:1009C000902028BF4042704730460008A2DA0FC985
:1009D00037CD0FC9B7C17C51B0FA80F303F01F02C5
:1009E00042B300FA03F000B54FEA9052134951F8B0
:1009F0002210A0FB01E2A2FB01E2C2F14042A2FBF5
:100A000001E14FEA4101A0FB01E2A2FB01E2C2F1D8
:100A10004042A2FB01E14FEA4101A0FB01E003F1EA
:100A20000A035B1024BF064AA2FB0010D84040F125
:100A3000000000BD4FF00000704700003036000895
:100A400034F304B578B110F0004148BF4042B0FA29
:100A500080F3C3F18A0200FA03F04FEA102062F338
:100A6000DE5041EA0000704770B5044600688168B6
:100A7000C943C90717D1816821F00101816000F0E5
:100A80008BFD05460AE000BF00F086FD401B0228F2
:100A900004D920688068C043C00706D020688068F9
:100AA000C043C007F0D0002070BDA06A40F0100025
:100AB000A062E06A40F00100E062012070BD000029
:100AC000F8B500260446009600688168C943C90746
:100AD0002DD0816841F001018160164816490068F7
:100AE000B0FBF1F000E0401E00900028FBD100F0C8
:100AF00053FD054616E000BF00F04EFD401B0228E6
:100B000010D920688068C043C0070BD0A06A40F0AD
:100B10001000A062E06A40F00100E06284F8246006
:100B20000120F8BD20688068C043C007E4D10020E0
:100B3000F8BD00004800002040420F000EB5074AF3
:100B4000D2E901128DE807006946054800F0C8F9AE
:100B5000002801D000F0C2F90EBD0000344E00089C
:100B60005C00002010B50020FFF7E8FF124800F0FD
:100B700091FB4FF0FF3421460F4800F0EDFA0E488C
:100B800000F02CFA0D4908800B4800F0E3FB01202F
:100B9000FFF7D4FF084800F07DFB2146064800F02F
:100BA000DBFA054800F01AFA05490880BDE8104054
:100BB000014800F0CFBB00005C0000201A000020BC
:100BC0001C0000200EB582680123CDE900130292BB
:100BD00000680B226C2100F0A9FD0EBD1FB50C466C
:100BE00000210391022203A983688DE80E000068AA
:100BF00001230C226C2100F099FDBDF80C1049BABC
:100C0000218004B010BD38B50446806808B90A20B8
:100C1000A060A17B012001B9A073E17B01B9E07361
:100C2000217C01B92074617C01B96074A17C01B997
:100C3000A074E17C01B9E074217D01B92075607D6B
:100C400008B902206075E17B204600F0A0F868BB7F
:100C5000217C204600F077F840BBA27C617C2046D6
:100C600000F0B9F810BBE17C204600F0F3F8E8B9D9
:100C7000217D204600F022F8C0B9617D204600F0B9
:100C80000DF998B9204600F019F978B900208DF8CF
:100C9000000069462046FFF795FF38B99DF800002F
:100CA000810603D5010701D4C00601D5012038BD56
:100CB000002038BD18210120FFF756BA092940D27B
:100CC000DFE801F03F0509131B232B333B00817D37
:100CD00021F01C0106E0817D21F018018175817DE4
:100CE00041F00401817500207047817D21F01401DD
:100CF0008175817D41F00801F4E7817D21F01001CB
:100D00008175817D41F00C01ECE7817D21F00C01C2
:100D10008175817D41F01001E4E7817D21F00801BA
:100D20008175817D41F01401DCE7817D21F00401B2
:100D30008175817D41F01801D4E7817D41F01C016E
:100D4000D0E701207047012907D0022909D00329E3
:100D500011D0042917D001207047C17D21F00C016A
:100D600006E0C17D41F00401C175C17D21F008019B
:100D7000C17500207047C17D21F00401C175C17D9E
:100D800041F00801F4E7C17D41F00C01F0E70129D1
:100D900007D0022909D0032911D0042917D0012036
:100DA0007047C17D21F0030106E0C17D41F00101E2
:100DB000C175C17D21F00201C17500207047C17D60
:100DC00041F00201C175C17D01F00101F4E7C17D6F
:100DD00041F00301F0E7012904D0022906D00329DC
:100DE0001ED10DE0C17D21F0300106E0C17D41F052
:100DF0001001C175C17D21F02001C175002070472F
:100E0000C17D01F01001C175C17D41F02001C175A6
:100E1000012A07D0022A09D0032A0FD0042A15D0AC
:100E200001207047C17D21F0C001E6E7C17D41F09E
:100E30004001C175C17D21F08001DEE7C17D21F057
:100E40004001C175C17D41F08001D6E7C17D41F00F
:100E5000C001D2E7012907D0022909D0032911D006
:100E6000042917D001207047817D21F0030106E09D
:100E7000817D41F001018175817D21F00201817543
:100E800000207047817D21F001018175817D41F055
:100E90000201F4E7817D41F00301F0E7012903D06D
:100EA000022905D001207047817D21F0400102E038
:100EB000817D41F040018175002070470EB502220E
:100EC00000F1160183688DE80E00006801230722F7
:100ED0006C2100F053FD0EBDFEE7704772B6FEE7D1
:100EE000F8B50024009490F824202546012A12D059
:100EF000012280F824204A681F23072A0DD20668A1
:100F0000776B521E02EB820293409F430B68934023
:100F10001F43776319E00220F8BD06680D2A0AD244
:100F2000376BD21F02EB820293409F430B689340C2
:100F30001F43376309E0F76A0D3A02EB82029340E0
:100F40009F430B6893401F43F7620A6807230668B4
:100F50000A2A0AD3F7680A3A02EB420293409F43F7
:100F60008B6893401F43F76008E0376902EB420249
:100F700093409F438B6893401F4337610A68102A50
:100F800001D0112A20D1124B02689A4217D19368DE
:100F90001B0219D4936843F4000393600968102975
:100FA00012D10C490C4A0968B1FBF2F101EB810145
:100FB000490000E0491E00910029FBD104E0816A4C
:100FC00041F020018162012480F824502046F8BDC0
:100FD000002401404800002040420F000068C06C1F
:100FE000704700002DE9F0414FF0000704003D4636
:100FF0007ED0A06A002628B9E66284F824602046E4
:1010000000F07EF82046FFF72FFDA16A01F01001E5
:10101000014304D0A06A40F01000A06268E0A16A19
:1010200021F4885141F00201A1626268E169237BE9
:101030000A4347EA43010A43A1684FF48077B94263
:1010400008D0012906D0002194F814C0BCF1010F8A
:1010500002D00AE03946F7E7F3B1A36A43F0200370
:10106000A362E36A43F00103E3622368D3F804C098
:101070002CF4694C4CEA010CC3F804C0236899684D
:10108000DFF870C001EA0C0111439960A168B94210
:101090000BD0012909D00CE0DFF85CC0A3690CEB90
:1010A00043330B4343F40061DFE7218A0D05A5F5C7
:1010B00080152168CB6A23F470032B43CB6221682F
:1010C00089680E4B1940914208D1E662A16A21F06D
:1010D000020141F00101A162BDE8F081A06A20F0A7
:1010E000020040F01000A062E06A40F00100E062FF
:1010F0000120F1E7FDF7E1FF00E0FFFFFE0E1FFF1B
:1011000000B585B000210091019102910391006822
:101110000E49884217D10E48816941F400718161FE
:10112000816901F400710491816941F004018161D8
:101130008069694600F0040004900320009001904B
:10114000044800F033F905B000BD00000024014060
:1011500000100240000801402DE9F84300270D4629
:101160000446009700F018FA804620688168C90597
:1011700008D5A06A40F02000A06284F82470012005
:10118000BDE8F8834168C90503D4C06A10F4700F44
:101190002AD0022000F050FD3B490968B1FBF0F66F
:1011A0002068036939490B424FEA61014FEAA112F5
:1011B0001FD1C3684FEA611C13EA0C0F19D10369F0
:1011C0000B4225D1C068104222D1142023E0681CB4
:1011D0000AD02DB100F0E0F9A0EB0800A84203D935
:1011E00020680068800725D5206800688007EED554
:1011F0002DE003690B4202D1C168114206D0026999
:1012000023490A4206D1C068084203D1542002E0B3
:10121000292000E0FC204643009816E0681C11D00D
:101220002DB100F0B9F9A0EB0800A8420AD9009846
:10123000B04207D2A06A40F00400A06284F8247093
:1012400003209DE70098401C0090B042E6D321683F
:101250006FF012000860A06A40F40070A06220687D
:101260008068C0F3424007280CD1207B50B9A06AA7
:1012700020F48070A062A06AC00403D4A06A40F089
:101280000100A06200207BE748000020244992244E
:101290004992240070B5044690F8240001280DD02E
:1012A000012084F824002046FFF70AFC02004FF0DA
:1012B000000005D084F82400104670BD022070BDE7
:1012C000A16A40F20123994341F48071A1621F4D4C
:1012D00023681F49AB4218D10E6816F4702F14D042
:1012E000A66A46F48016A6620E68760505D5A66A3B
:1012F00026F4005646F48056A662A66AF6040AD57D
:10130000E66A26F00606E66206E0A66A26F480167D
:10131000A6625E68E9E7E06284F824006FF00200EC
:10132000186020688368C3F34243072B05D1A842A5
:1013300008D1096811F4702F04D0816841F480113C
:101340008160B9E7816841F4A001F9E70028014014
:101350000424014010B5044690F82400012807D069
:10136000012084F824002046FFF77EFB10B107E03F
:10137000022010BDA16A21F4885141F00101A1624F
:10138000002184F8241010BD70B5044600F004F963
:101390000546601C02D004480078044400F0FCF8C4
:1013A000401BA042FAD370BD3C0000202DE9F84F4D
:1013B000DFF8B891002409F1040A0AF1040B23466E
:1013C0000F270BF1040EC9E00125A5402A40AA42CF
:1013D0007DD1674ED1F804C0ACEB0608B44532D0DD
:1013E00014DCBCF1030F3AD009DCBCF1000F2AD0A9
:1013F000BCF1010F1CD0BCF1020F31D11DE0BCF1DA
:10140000110F17D0BCF1120F2AD119E0B8F5881FBF
:1014100019D006DCB8F5803F15D0B8F5801F1FD174
:1014200011E0B8F5001F0ED0B8F5041F18D10AE07E
:10143000CB6815E0CB681B1D12E0CB6808330FE0CA
:10144000CB680C330CE08B682BB1012B4FF00803F9
:1014500003D0456104E0042302E0056100E00023BD
:10146000FF2A01D8064601E000F104064FEA840590
:1014700001D9A5F12005D6F8008007FA05FC28EA75
:101480000C0803FA05F548EA0508C6F800804D681F
:10149000ED0062D5374DAE6946F00106AE61AD692B
:1014A00024F0030605F001050095334D06EB050C0D
:1014B000DCF80850A607360F07FA06F825EA0805F3
:1014C000DFF8B880404503D14FF0000817E044E052
:1014D000DFF8AC80404502D14FF001080FE0DFF8A3
:1014E000A480404502D14FF0020808E0DFF8988060
:1014F000404502D14FF0030801E04FF0040808FA1C
:1015000006F848EA0508CCF808804D68D9F800606C
:10151000ED034D4601D5164300E096432E604D681D
:10152000DAF80060AD03554601D5164300E0964356
:101530002E604D68DBF80060ED025D4601D5164374
:1015400000E096432E604D68DEF80060AD027546FF
:1015500001D5164300E096432E60641C0D682A46B0
:10156000E5407FF431AFBDE8F88F00000004014092
:10157000000011100010024000000140000801406E
:10158000000C014000100140001401400AB101614B
:1015900070470904FBE700000148806870470000BD
:1015A0003C00002070B5040025D094F83D000025D3
:1015B00020B984F83C50204600F078FA242084F8C2
:1015C0003D002068016821F0010101602068016888
:1015D00041F4004101602068016821F4004101608C
:1015E00000F09AFC4D4A6168914201D84C4900E0F4
:1015F0004C49884201D2012070BD4B492368B0FBA1
:10160000F1F15E6826F03F060E435E606368934228
:1016100006D94FF4967359434FF47A73B1FBF3F143
:101620002368491C1E6A26F03F063143196261682F
:10163000914210D84900401EB0FBF1F2521CC2F397
:101640000B02042A01D2042022E0B0FBF1F0401C7E
:10165000C0F30B001CE0A268F2B301EBC10303EB83
:101660000116431EB3FBF6F35B1C43F480431B05DA
:1016700049D092B301EBC10202EB0111401EB0FB55
:10168000F1F0401CC0F30B0040F4804040F40040F7
:101690002168CA694CF6FF739A431043C861D4E9C4
:1016A000071001432068026822F0C0021143016064
:1016B000D4E9030101432068826848F2FF339A436A
:1016C00011438160D4E9050108432168CA6822F00A
:1016D000FF021043C86001E00EE016E020680168D8
:1016E00041F0010101602564202084F83D0025635C
:1016F00084F83E50002070BD01EB4106431EB3FB51
:10170000F6F35B1CB3E70120C2E701EB4101401E89
:10171000B0FBF1F0401CC0F30B00B7E7A08601005E
:1017200080841E0000093D0040420F002DE9FF4F5C
:1017300083B00025DDE910799A4693460446DDF82A
:1017400048800095FFF728FF064694F83D002028C2
:101750007CD11923012285492046009601F0E6FA42
:101760000028F5D194F83C0001286FD0012084F8BE
:101770003C0020680168C90703D1016841F00101FC
:1017800001602068016821F400610160222084F872
:101790003D00402084F83E0025646762A4F82A904A
:1017A000608D20857248E062CDE9008653465A4636
:1017B0002046049901F0C2F900287DD1208DDFF880
:1017C000B491202768B1012814D00228206801684C
:1017D0001ED041F4806101602068416980690090F9
:1017E000B6E02068416981690091016841F40071A7
:1017F0000160ADE02068016821F48061016072B68B
:101800002068416981690091016841F400710AE032
:1018100041F40061016072B62068416981690091FC
:10182000016821F48061016062B691E0032868D804
:1018300001280CD0022843464FF0000249462046BA
:1018400000960FD001F072FAB0BB10E08BE0324688
:101850004146204601F0E9FA70BB20680069616AE0
:1018600008706CE001F062FA30BB72B634E02068B8
:10187000016821F48061016072B620680069616AC4
:101880000870606A401C6062208D401E2085608D5B
:10189000401E6085384846F2A8110068B0FBF1F0A0
:1018A000C0EBC00000EB80000090401E009008D00C
:1018B00020684069C04300E029E040070CD500984B
:1018C000F3E744F8305F6773A573206940F02000A8
:1018D000206162B625731AE02068016841F4007146
:1018E000016020680069616A0870606A401C60627B
:1018F000218D491E2185618D491E618562B6216851
:101900001BE032464146204601F08FFA18B1012013
:1019100007B0BDE8F08F20680069616A0870606AEE
:10192000401C6062218D491E2185618D491E6185A3
:1019300021684A69D24352070AD409690170606A72
:10194000401C6062208D401E2085608D401E608599
:10195000208D00287FF46AAF84F83D7084F83E50F3
:1019600084F83C50D4E70220D2E7000002001000C7
:101970000000FFFF04000100480000202DE9FF4F98
:1019800083B09A46DDE9119793460446DDF840801E
:10199000FFF702FE054694F83D0020287FD1192369
:1019A000012240492046009501F0C0F9002876D177
:1019B00094F83C00012872D0012084F83C00206893
:1019C0000168C90703D1016841F001010160206885
:1019D000016821F400610160212084F83D0040206D
:1019E00084F83E0000262664C4F82480A4F82A90D7
:1019F000608D20852C48E062CDE9007553465A463B
:101A00002046049901F018F970B930E02A463946A9
:101A1000204601F03DFA58B1206C042804D120681A
:101A2000016841F400710160012007B0BDE8F08F4A
:101A3000606A216800780861606A401C6062218DDC
:101A4000491E89B22185628D521E628522685369C2
:101A5000DB435B070BD469B100781061606A401CFE
:101A60006062208D401E2085608D401E6085208D27
:101A70000028CBD12A463946204601F031F900280A
:101A8000CAD154F83D0B016841F400710160202077
:101A900004F81E09E67766770020C6E7FFE7022014
:101AA000C3E70000020010000000FFFF10B586B081
:101AB0000021009101910291039100680F49884231
:101AC0001AD10F4CA06940F00800A061A0696946D6
:101AD00000F008000490C020009012200190032024
:101AE00003900848FFF762FCE06940F40010E061F1
:101AF000E06900F40010049006B010BD00540040EE
:101B000000100240000C0140024881680278114434
:101B1000816070473C000020074810B5016841F023
:101B200010010160032000F075F80F2000F006F8A6
:101B300000F024F8002010BD0020024070B50D4DCB
:101B400004464FF47A712878B1FBF0F00A4909682D
:101B5000B1FBF0F000F0C6FB48B9102C07D2002210
:101B60002146501E00F036F800206C6070BD012048
:101B700070BD00003C000020480000200C4808B563
:101B8000816941F001018161816901F001010091E8
:101B9000C16941F08051C161C06900F0805000907E
:101BA0000448416821F0E06141F00071416008BDE6
:101BB0000010024000000140002809DB00F01F0275
:101BC000012191404009800000F1E020C0F800119F
:101BD00070470000F0B40E4B1B680C46C3F30223A1
:101BE000C3F10705042D00D90425191D072901D2C9
:101BF000002300E0DB1E012606FA05F1491E214004
:101C000099409E40761E16403143F0BC01F0C8BD9D
:101C10000CED00E0064900F0070208684FF6FF03EC
:101C2000184040EA0220034A104308607047000051
:101C30000CED00E00000FA0510B529A401461DCC0A
:101C400086B08DE81D002AA02A4C00680490002070
:101C5000012923D002293AD010291DD161682268B8
:101C6000D20119D5C1F38342C9031DF8020009D579
:101C7000616804AAC1F34041515C1F4AB2FBF1F113
:101C8000484301E01D4948436168490204D44000CB
:101C90005FF00301B0FBF1F006B010BD226AC2F3A1
:101CA0000121012903D1920701D5C803F4E70229D4
:101CB00005D1626A920702D549F64040ECE7032954
:101CC000EAD121688903E7D54FF22440E4E700F028
:101CD00033F96168C1F38131491C4900DAE700003A
:101CE00002030405060708090A0B0C0D0E0F10105D
:101CF000010200000010024000127A0000093D00BD
:101D00002DE9F84305460078354CC00754D0E0690A
:101D10000026C00008D4E06940F08050E061E0692E
:101D2000012600F0805000902E480168C90512D4A9
:101D30000168804641F480710160FFF72DFC074681
:101D400005E000BFFFF728FCC01B642823D8D8F8A3
:101D50000000C005F6D5206A10F4407021D0A98893
:101D600001F4407181421CD0206A1F49012220F4F5
:101D700040700A6000220A602062C00711D0FFF79D
:101D80000BFC074641F2883808E000BFFFF704FC6F
:101D9000C11B414502D90320BDE8F883206A8007B2
:101DA000F4D5206A696820F44070084320621EB1AF
:101DB000E06920F08050E0612878800705D56068F0
:101DC000A96820F44040084360602878C00605D523
:101DD0006068E96820F48000084360600020DBE769
:101DE0000010024000700040400442422DE9F047DC
:101DF0000F46050061D0434E306800F00700B8423E
:101E000009D2306820F0070038433060306800F0B5
:101E10000700B84251D128683B4C810712D54007D2
:101E200003D5606840F4E06060602878000703D55F
:101E3000606840F4605060606068A96820F0F0005D
:101E4000084360602878C00728D06868012810D04F
:101E50002168022810D0890700292EDA616821F054
:101E6000030101436160FFF797FB804641F2883927
:101E70000DE021688903EFE78901EDE7FFF78CFBAF
:101E8000A0EB0801494502D90320BDE8F08760684E
:101E9000696800F00C00B0EB810FEFD1306800F002
:101EA0000700B8420BD9306820F007003843306093
:101EB000306800F00700B84201D00120E5E728783B
:101EC000400705D56068E96820F4E0600843606079
:101ED0002878000706D56068296920F4605040EA38
:101EE000C100606000F038F86168084AC1F303116E
:101EF000515CC8400649086006480068FFF71EFEAE
:101F00000020C2E70020024000100240404E0008BE
:101F10004800002040000020044805490068496846
:101F2000044AC1F30221515CC840704748000020B8
:101F300000100240504E00080448054900684968F6
:101F4000044AC1F3C221515CC840704748000020D8
:101F500000100240504E000812A185B00FC98DE854
:101F60000F0014A0144A006804905168134801F04F
:101F70000C03042B10D0082B0ED1C1F38343C903EB
:101F80001DF803000AD5516804AAC1F34041515C11
:101F90000A4A5043B0FBF1F005B070470849484386
:101FA000FAE7000002030405060708090A0B0C0DF6
:101FB0000E0F1010010200000010024000127A0003
:101FC00000093D002DE9F84F040070D02078C04D85
:101FD000C00749D06868C0F38100012807D068684D
:101FE000C0F38100022809D16868C00306D52868BB
:101FF000800339D560680028E7D035E06068B0F527
:10200000803F0BD010B1B0F5A02F11D0286820F47C
:1020100080302860286820F4802002E0286840F49E
:1020200080302860606890B1FFF7B6FA06460AE093
:10203000286840F480202860F0E700BFFFF7ACFA82
:10204000801B642873D828688003F7D50CE0FFF75D
:10205000A3FA064605E000BFFFF79EFA801B64283E
:10206000F0D828688003F7D420789A4E80074FF084
:1020700001094FF0000839D5686810F00C0F07D03F
:102080006868C0F38100022809D16868C00306D4DB
:102090002868800714D52069012808D110E020693C
:1020A000B0B1C6F80090FFF777FA074605E00AE1FD
:1020B000FFF772FAC01B0228C4D828688007F7D53A
:1020C0002868616920F0F80040EAC10028600DE04E
:1020D000C6F80080FFF760FA074604E0FFF75CFAF5
:1020E000C01B022823D828688007F7D4207800076F
:1020F0002CD57948A169D9B1C0F80090FFF74CFA06
:10210000074604E0FFF748FAC01B02280FD8686AA8
:102110008007F7D571484FF4FA510068B0FBF1F031
:10212000009000BF0098411E0091FAD20EE080E0BE
:10213000C0F80080FFF730FA074604E0FFF72CFAFA
:10214000C01B022875D8686A8007F7D4207840073A
:1021500060D5E8690027C00008D4E86940F08050E5
:10216000E861E869012700F0805000905C48016850
:10217000C90513D40168834641F480710160FFF7FB
:102180000BFA824606E000BFFFF706FAA0EB0A0052
:1021900064284ED8DBF80000C005F5D5E0680128BA
:1021A0000AD008B1052813D0286A20F0010028625F
:1021B000286A20F0040002E0286A40F0010028624A
:1021C000E06841F2883B98B1FFF7E6F982460BE000
:1021D000286A40F004002862EEE700BFFFF7DCF950
:1021E000A0EB0A0159455AD8286A8007F6D50CE0B9
:1021F000FFF7D2F9824605E0FFF7CEF9A0EB0A011E
:1022000059454CD8286A8007F6D41FB1E86920F0F8
:102210008050E861E06988B36968C1F381010229EF
:1022200044D00228C6F8608004D0FFF7B5F9044610
:1022300038E034E0FFF7B0F9074604E0FFF7ACF907
:10224000C01B02282BD828688001F7D4206AB0F57B
:10225000803F05D16868A16820F4003008436860B9
:10226000D4E908010843696821F4741108436860DF
:10227000C6F86090FFF790F9044606E025E000BF3D
:10228000FFF78AF9001B022809D828688001F7D5D2
:102290001BE000BFFFF780F9001B022802D90320D2
:1022A000BDE8F88F28688001F4D40EE00128F7D04B
:1022B0006868226A00F48031914204D1616A00F4B6
:1022C0007010884201D00120EAE70020E8E7000012
:1022D00000100240000042428004424248000020B8
:1022E0000070004010B5401EB0F1807F01D3012086
:1022F00010BD4FF0E02460610F21601701F050FA2B
:102300000020A06107202061002010BD70477047A9
:1023100010B590F83C20012A22D0012280F83C2000
:10232000CA688C6822F4407222434C6822F48062AE
:1023300022430C6822F4006222430C6922F480528A
:1023400022434C6922F400522243C969002322F43B
:1023500080420A4301684A6480F83C30002010BD86
:10236000022010BD70B590F83C20012A26D001242F
:1023700080F83C40022280F83D2003685A689D683E
:1023800022F070060A6832435A600D4B02689A4286
:1023900008D0B2F1804F05D00A4B9A4202D00A4BC6
:1023A0009A4204D1496825F080031943916080F86E
:1023B0003D40002180F83C10084670BD022070BDF1
:1023C000002C0140000400400008004010B504004B
:1023D00003D094F83D0010B107E0012010BD0020AB
:1023E00084F83C00204600F01FF8022084F83D00ED
:1023F000211D206801F018F8012084F8460084F8B7
:102400003E0084F83F0084F8400084F8410084F8DE
:10241000420084F8430084F8440084F8450084F8BE
:102420003D00002010BD000008B5274A016827487C
:1024300091420ED1816941F400618161806900227D
:1024400000F4006000900F211920FFF7C3FB192052
:1024500034E0B1F1804F11D01D4A91421DD1C169C4
:1024600041F00201C161C069002200F00200009049
:1024700001211D20FFF7AEFB1D201FE0C16941F0C7
:102480000101C161C069002200F001000090022139
:102490001C20FFF79FFB1C2010E00E4A914211D137
:1024A000C16941F00401C161C069002200F004006B
:1024B000009004211E20FFF78DFB1E20BDE8084080
:1024C000FFF77ABB08BD0000002C0140001002405D
:1024D000000400400008004090F83D10012901D0A0
:1024E00001207047022180F83D100168CA6842F05F
:1024F0000102CA6000680B49884208D0B0F1804FE1
:1025000005D00949884202D00849884204D181682F
:1025100001F00701062903D0016841F001010160C3
:1025200000207047002C01400004004000080040DB
:1025300070B5044690F83C00012817D0012584F8B6
:102540003C50022084F83D002068826822F0770227
:1025500022F47F4282600868502830D00DDC2028A9
:102560004DD005DC98B310283BD148E0022070BD67
:10257000302844D0402834D139E0602828D0702851
:1025800006D0B0F5805F2CD0B0F5005F29D10AE00D
:10259000CB68D1E90121206800F089FF20688168BB
:1025A00041F0770109E0CB68D1E90121206800F012
:1025B0007EFF2068816841F48041816011E0CA6833
:1025C0004968206801F028F85021206807E016E0EB
:1025D000CA684968206801F030F86021206800F07E
:1025E00070FF84F83D50002084F83C0070BDCA683C
:1025F0004968206801F010F840212068EFE7226860
:1026000001461046EBE7704770B504460068016963
:102610004FF00005C943890715D4C168C94389072C
:1026200011D4E91E016101202077206880698007AC
:10263000204602D0FFF7E7FF04E000F0BFF8204695
:1026400000F04EF9257720680169C943490717D47E
:10265000C168C943490713D46FF004010161022026
:1026600020772068806910F4407F204602D0FFF771
:10267000CAFF04E000F0A2F8204600F031F9257707
:1026800020680169C943090716D4C168C94309070D
:1026900012D46FF008010161042020772068C0691E
:1026A0008007204602D0FFF7AEFF04E000F086F876
:1026B000204600F015F9257720680169C943C9064D
:1026C00017D4C168C943C90613D46FF01001016162
:1026D000082020772068C06910F4407F204602D08F
:1026E000FFF791FF04E000F069F8204600F0F8F8E9
:1026F000257720680169C943C90708D1C168C94362
:10270000C90704D1891E0161204600F039F920680B
:102710000169C943090609D4C168C943090605D43A
:102720006FF0800101612046FFF7F0FD206801692C
:10273000C943490609D4C168C943490605D46FF0A5
:1027400040010161204600F01CF920680169C9437D
:1027500089060BD4C168C943890607D46FF02001EC
:1027600001612046BDE87040FFF7D1BD70BD00009B
:1027700000B585B00021009101910291039100689C
:102780000B49884212D10B48816941F004018161F3
:102790008069694600F0040004904FF4E060009006
:1027A0000220019003900448FEF700FE05B000BD32
:1027B000002C01400010024000080140704770B535
:1027C000044690F83C000D4601280AD0012084F808
:1027D0003C0042B1042A18D0082A2AD00C2A4DD134
:1027E00039E0022070BD206800F074FE2068816925
:1027F00041F0080181612068816921F00401816153
:10280000206881692A69114311E0206800F08AFE7E
:102810002068816941F4006181612068816921F447
:1028200080618161206881692A6941EA02218161B0
:1028300024E0206800F0A2FE2068C16941F0080190
:10284000C1612068C16921F00401C1612068C169CA
:102850002A69114311E0206800F0BCFE2068C169BC
:1028600041F40061C1612068C16921F48061C161E6
:102870002068C1692A6941EA0221C161002084F807
:102880003C0070BD10B5040003D094F83D0010B1B9
:1028900007E0012010BD002084F83C00204600F035
:1028A0001EF8022084F83D00211D206800F0BCFDC8
:1028B000012084F8460084F83E0084F83F0084F844
:1028C000400084F8410084F8420084F8430084F812
:1028D000440084F8450084F83D00002010BD704796
:1028E0007047000010B50446022249B104290ED0F9
:1028F000082913D094F84100012816D0012010BDFA
:1029000094F83E000128F9D184F83E200FE094F8B5
:102910003F000128F2D184F83F2008E094F84000FD
:102920000128EBD184F8402001E084F84120012205
:10293000206800F0AFFD0F492068884203D1426C47
:1029400042F4004242642068884208D0B0F1804FCF
:1029500005D00949884202D00849884204D18168DB
:1029600001F00701062903D0016841F0010101606F
:10297000002010BD002C0140000400400008004071
:102980007047704770B5040004D094F83D000025EE
:1029900010B106E0012070BD84F83C50204600F0E4
:1029A00023F8242084F83D002068C16821F40051F8
:1029B000C160204600F054FE2068016921F4904176
:1029C00001612068416921F02A0141612068C168E4
:1029D00041F40051C1602564202084F83D0084F852
:1029E0003E00002070BD000030B585B0002400948A
:1029F00001940294039400681449884223D1144836
:102A0000C16941F40031C161C16901F4003104912F
:102A1000816941F00401816180690E4D00F004007C
:102A20000490042000900220019003200390694646
:102A30002846FEF7BBFC0820CDE90004694628467D
:102A40000294FEF7B3FC05B030BD00000044004026
:102A500000100240000801402DE9F843044690F8B8
:102A60003D001F4616460D4620284CD1C5B1BEB1CB
:102A700094F83C00012846D0012084F83C004FF037
:102A80000008C4F84080212084F83D00FEF784FD52
:102A9000A6848146E684A068B0F5805F03D004E098
:102AA0000120BDE8F883206928B12E465FF00005BB
:102AB00084F83C800EE00026FAE78021204600F0F2
:102AC0002BFEA0B9AEB116F8010B21684860E08C6E
:102AD000401EE084E08C4B464FF000020097002837
:102AE000EBD14FF04001204600F016FE30B103203C
:102AF000D7E735F8020BC0F30800E6E7202084F89A
:102B00003D000020CDE70220CBE7FEE701684A69DF
:102B1000D24352050FD46FF480624A61002140F81D
:102B2000301F202242738173026942F00402026165
:102B30000173012070470020704700002DE9F84F15
:102B40000446006889460B9D01689846174641F483
:102B5000806101602068016841F480710160009526
:102B60004FF0011B0022594620460A9B00F0DEF878
:102B70004FF4007A40B120680068C00501D5C4F860
:102B800040A00320BDE8F88F216809F0FE0008612D
:102B90002B46284920460A9A00F0FCF8F0BB206832
:102BA0004169806900902A4620460A9900F070F930
:102BB00040B1206C04283AD12068016841F40071CA
:102BC000016034E0FEB2B8F1010F09D02168380A83
:102BD00008612A4620460A9900F05AF90028E8D1EF
:102BE000206806612A4620460A9900F051F900281B
:102BF000DFD12068016841F48071016000950022F6
:102C0000594620460A9B00F091F80028B3D121686C
:102C100009F0FF0040F00100086100E007E02B46EA
:102C2000044920460A9A00F0B5F80028AAD00120ED
:102C3000A8E70000020001002DE9F84304460068FF
:102C40000D46DDE9089701689846164641F4807103
:102C500001604B4600224FF001112046009700F022
:102C600065F848B120680068C00502D54FF40070CF
:102C700020640320BDE8F883216805F0FE000861A8
:102C80003B464A461549204600F084F888B920683A
:102C90004169806900903A464946204600F0F8F8BC
:102CA00048B1206C042804D12068016841F4007107
:102CB00001600120DEE7F5B2B8F1010F09D021680B
:102CC000300A08613A464946204600F0E1F80028FB
:102CD000E7D1206805610020CCE700000200010078
:102CE00070B516460D4604460DE02046FFF70EFF70
:102CF00008B1012070BD681C05D0FEF74DFC801B9B
:102D0000A84207D835B120684069C0434007ECD4D9
:102D1000002070BD002044F8300F20216173A073A3
:102D2000216941F0200121612073E2E72DE9F0479C
:102D30001E4690460D460446C1F30747DDF8209035
:102D400008E0701C06D0FEF727FCA0EB0900B0429B
:102D50000FD876B12068012F18D0806925EA0000CD
:102D60000004000C14D000214145EAD00020BDE849
:102D7000F087002044F8300F20216173A07321698F
:102D800041F02001216120730120F0E74069E5E76F
:102D90000121E9E72DE9F0479A4691460E4604469F
:102DA00000254FF02008C1F3074725E0206840695F
:102DB000C043400514D42068016841F400710160EB
:102DC00021686FF480604861256384F83D8084F851
:102DD0003E50206C40F00400206484F83C501FE01A
:102DE000B9F1FF3F08D0FEF7D7FBA0EB0A01494538
:102DF0000CD8B9F1000F09D02068012F13D08069D9
:102E000026EA00000004000C0BD0CFE744F8305F46
:102E100084F80D80A573206940F02000206125739F
:102E20000120BDE8F0874069EAE72DE9F04100257F
:102E300090460E460446202717E04069C043C0066E
:102E40000CD454F8301B6FF01000486144F810594E
:102E50006777A577206A2062257717E0FEF79CFB4D
:102E6000A0EB0800B04208D83EB120684169C943D0
:102E70004906E2D40020BDE8F08144F8305F677372
:102E8000A573206940F02000206125730120F2E73E
:102E900070B516460D4604460DE02046FFF736FE97
:102EA00008B1012070BD681C05D0FEF775FB801BC2
:102EB000A84207D835B120684069C0430006ECD469
:102EC000002070BD002044F8300F20216173A073F2
:102ED000216941F0200121612073E2E73EB5002421
:102EE00010480094019402940D49846001600473B9
:102EF0000475012505614FF460214460C161FEF74E
:102F000071F808B1FDF7EAFFCDE9004569460548CB
:102F10000294FDF7E5FF002801D0FDF7DFFF3EBD7D
:102F2000002401405C00002070B586B000241C48DD
:102F30000094019402940394816941F0100181612D
:102F4000816901F010010491816941F020018161E2
:102F5000816901F020010491816941F004018161DE
:102F6000816901F004010491816941F008018161E6
:102F700080690C4E00F008004FF4005504900022C8
:102F800029463046FEF702FB01200095CDE90104F9
:102F90000220039069463046FEF708FA06B070BD7D
:102FA00000100240001001400D4810B50B490160AF
:102FB0000C49416000214FF480428160C0E9031256
:102FC00041618161C1610162FEF7ECFA002803D022
:102FD000BDE81040FDF782BF10BD00000054004066
:102FE0008C000020801A060030B595B000240F94A4
:102FF00010941194129413941C2168461494FDF7B4
:10300000A8F8202107A8FDF7A4F8344D324828601D
:10301000022068602020A86040F2DB50C5E903046C
:103020008020C5E905402846FFF7D0F908B1FDF733
:1030300055FF4FF480500F900FA92848FFF778FAFA
:1030400008B1FDF74BFF2548FFF71CFC08B1FDF761
:1030500045FF139413A921481494FFF783F908B18D
:10306000FDF73CFF6020CDE9000402940394049432
:1030700005940022694619480694FFF7A0FB08B1A1
:10308000FDF72CFF042269461448FFF798FB08B1AE
:10309000FDF724FF082269461048FFF790FB08B1AE
:1030A000FDF71CFF0794089409944FF400500A940C
:1030B000CDE90B4007A909480E94FFF729F908B19B
:1030C000FDF70CFF0649E868401C08600348FFF75D
:1030D0004FFB15B030BD0000002C0140E000002087
:1030E0001400002010B586B0002416480094019406
:1030F0000294039404944FF080410594016040F2DF
:103100002B11C0E90114EF21C0E903148461FFF71A
:103110005DF908B1FDF7E2FE4FF48050009069467A
:103120000848FFF705FA08B1FDF7D8FE049404A992
:1031300004480594FFF716F9002801D0FDF7CEFEEC
:1031400006B010BD2801002010B586B00024174835
:10315000009401940294039404941349059401602B
:1031600040F22B11C0E901147721C0E903148461F6
:10317000FFF72CF908B1FDF7B1FE4FF48050009035
:1031800069460A48FFF7D4F908B1FDF7A7FE049491
:1031900004A906480594FFF7E5F8002801D0FDF7DB
:1031A0009DFE06B010BD000000040040700100202C
:1031B00010B586B00024174800940194029403943B
:1031C000049413490594016040F22B11C0E90114E5
:1031D000EF21C0E903148461FFF7F8F808B1FDF7A7
:1031E0007DFE4FF48050009069460A48FFF7A0F931
:1031F00008B1FDF773FE049404A906480594FFF78F
:10320000B1F8002801D0FDF769FE06B010BD00003E
:1032100000080040B80100200C4810B50A490160C0
:103220004FF4E1314160002181600C22C160C0E9AE
:1032300004128161C161FFF7A5FB002803D0BDE83E
:103240001040FDF74BBE10BD0044004000020020BE
:10325000FEE7FEE770477047FEF756BC30B593B007
:1032600028216846FCF775FF14210AA8FCF771FFB6
:10327000002501200F9510951195010412958DE8F8
:10328000230004904FF4E010CDE9081002240794C5
:103290006846FEF797FE08B172B6FEE70AA90F204E
:1032A00081E831004FF48060CDE90D0502210AA8C4
:1032B000FEF79CFD08B172B6FEE74FF40040119096
:1032C0000F940FA8FEF71CFD002801D072B6FEE790
:1032D00013B030BD704700002DE9F0413048FFF7D2
:1032E00093F90122DFF8BC80560331464046FEF7D1
:1032F0004DF9FDF737FC2C4C608801052B48A16087
:10330000FDF71EFB0546A08801052948FDF718FBBF
:103310002844284DE06014212868FCF733FFFDF7AE
:10332000FAF8FDF77FFA0146A068FDF709FB0746AA
:1033300014212868FCF726FFFDF7EDF8FDF708FBE0
:103340000146E068FDF7FCFA384420611421286842
:10335000FCF718FFFDF7DFF8FDF764FA0146E068B7
:10336000FDF7EEFA074614212868FCF70BFFFDF77E
:10337000D2F8FDF7EDFA0146A068FDF7E1FA381A38
:1033800060612069FDF75EFBE0616069FDF75AFB53
:10339000206231464046BDE8F0410022FEF7F6B813
:1033A000E00000200010014018000020D33C09007C
:1033B000A77912000000002010B50548FFF724F996
:1033C000054804490068BDE81040FDF707BC00004F
:1033D00028010020180000201000002010B50A4825
:1033E000FFF712F9094C00210948A26900F0D2FB4D
:1033F000A069FDF7C8F8074A074BFCF7CFFEFDF7B9
:10340000D5F8A06110BD0000700100201800002058
:10341000CDCC4C3EFCA9F1D24D62603F0148FFF794
:10342000F3B80000B8010020F0B50268164B174C45
:10343000174D4FF08047984205D0B84203D0A042C4
:1034400001D0A84203D122F070064A683243984264
:1034500005D0B84203D0A04201D0A84203D122F443
:103460004074CA6822434C6922F080022243026001
:103470008A68C2620A688262984201D1096901635E
:1034800001214161F0BD0000002C0140000400401A
:103490000008004010B501F01F030121046A9940A3
:1034A0008C430462016A9A401143016210BD10B559
:1034B000846842EA032224F47F440A432243826060
:1034C00010BD826822F070020A4342F00701816059
:1034D0007047000030B5026A22F001020262026AFF
:1034E0004368846924F073050C682C4322F00205BC
:1034F0008A682A430A4DA8420BD122F00805CA68FF
:1035000023F440732A434D6922F004021D438B6962
:103510002B434360846149684163026230BD00000F
:10352000002C014030B5026A22F010020262026AE9
:10353000436884690D6824F4E64444EA05248D68F0
:1035400022F0200242EA05120B4DA8420ED1CD68AE
:1035500022F0800242EA05124D6923F4406343EAF7
:1035600085038D6922F0400243EA8503436084614C
:1035700049688163026230BD002C014030B5026AA7
:1035800022F480720262036A4268C46923F4007301
:1035900024F073050C682C438D6843EA05230C4D19
:1035A000A8420ED1CD6823F4006343EA05234D6998
:1035B00022F4405242EA05128D6923F4806342EA04
:1035C00005124260C4614968C163036230BD0000F6
:1035D000002C014030B5026A22F480520262046A73
:1035E0004268C3690D6823F4E64343EA05238D6806
:1035F00024F4005444EA0534064DA84204D14D6930
:1036000022F4804242EA85124260C3614968016443
:10361000046230BD002C014010B5036A046A24F036
:1036200001040462846924F0F00444EA021423F0E3
:103630000A020A438461026210BD10B5036A23F0D6
:10364000100303628369046A23F4704343EA02327D
:1036500024F0A00343EA01118261016210BD000061
:1036600070B5044600680169E26821F440511143D5
:1036700001612169A0680843616908432168CA683B
:1036800041F20C639A430243CA6020684169A2690F
:1036900021F44071114341611E492068884202D1E2
:1036A000FEF74AFC01E0FEF737FC00EBC00101EB3E
:1036B0000012606864218000B2FBF0F3B3FBF1F309
:1036C0006FF018067343B2FBF0F5B2FBF0F605EBB2
:1036D0008305322303EB0515B5FBF1F5B6FBF1F6D7
:1036E00005F0F00505EB0615B2FBF0F6B2FBF0F0C5
:1036F000B0FBF1F06FF01802504306EB800003EBD3
:103700000010B0FBF1F0216800F00F002844886041
:1037100070BD0000003801402DE9F0419846174681
:103720000E460446069D1DE0681C1BD02DB1FDF71A
:1037300033FFA0EB0800A84214D92068C16821F427
:10374000D071C1602068416921F0010141612020F0
:1037500084F83D0084F83E00002084F83C000320FB
:10376000BDE8F0812068006836EA000004D000203F
:10377000B842D9D00020F3E70120F9E7FEE70000C6
:103780000FB4054B10B503A9044A029800F054F891
:1037900010BC5DF814FB0000213A00084C0000202A
:1037A0000907090E002804DB00F1E02080F800146E
:1037B000704700F00F0000F1E02080F8141D704702
:1037C0000022134610461146FCF701BE02E008C86D
:1037D000121F08C1002AFAD170477047002001E08B
:1037E00001C1121F002AFBD1704700000149086087
:1037F000704700005000002070B5FCF7C4FE0C4C70
:103800000C4D22462B4600F0C1F8FCF7CFFE10F11C
:10381000FF4F02D2FCF7B7FE05E0FCF7B4FE2246EC
:103820002B46FCF7BBFCBDE87040FCF7BFBE0000B8
:10383000EA2E4454FB2119402DE9FF4F89B09B46E5
:103840000446002506E025280BD05A460B999047E0
:10385000641C6D1C20780028F5D10DB02846BDE809
:10386000F08F0027B8460122474900E0074314F8CB
:10387000013F203B02FA03F00842F7D120782E28BE
:1038800019D114F8010F47F004072A280ED06FF061
:103890002F022078A0F1300109290CD808EB88010B
:1038A00002EB410100EB0108641CF2E70A98641C7A
:1038B00050F8048B0A9020780028CED0642808D0D5
:1038C000692806D075281ED05A460B9990476D1C62
:1038D00058E00A994FF00A0901C90A91002802DA52
:1038E00040422D2102E0390504D52B218DF820100E
:1038F000012103E0F90704D02021F7E78A4608AE4A
:103900000DE00021FAE70A994FF00A0901C90A916E
:10391000F7E74946FCF766FE303106F8011D00283E
:10392000F7D1ADEB060000F12009780701D44FF084
:103930000108C84502DDA8EB090000E00020804630
:10394000002706E008A85A46C05D0B9990476D1CF9
:103950007F1C5745F6DB04E030205A460B99904710
:103960006D1CB8F10001A8F10108F5DC05E016F8BE
:10397000010B5A460B9990476D1CB9F10001A9F152
:103980000109F4DC641C65E70928010070B51446E0
:103990001D460E46002814BF01210021314321F0AD
:1039A0000041C1F17F6101F1E041C90F16D1002C46
:1039B00014BF01210021294321F00041C1F17F61A1
:1039C00001F1E041C90F09D11449B1EB460F08BF1D
:1039D00000281CD0690008BF002C18D03146FCF725
:1039E000CCFE024640F2FF7030EA11500DD0F017C5
:1039F000B0EBE17F09D0084665F31E0084460B4614
:103A000020466146FCF76EFC0246104670BD012060
:103A1000FFF7ECFEBDE87040FFF7D2BE0000E0FF0C
:103A200013B54FF6FF73012269460248FFF714F8F9
:103A300000981CBD00020020FDF73CF92C4C2D49DC
:103A400020600160FEF768F8FFF708FCFFF76CFAEA
:103A5000FFF7CAFAFFF7E0FBFFF740FAFFF7A4FA17
:103A6000FFF740FBFFF770FBFFF7A2FB00224FF4CC
:103A700000512148FDF78AFD2068FDF7C4F80024B5
:103A80004FF07C554FF4FA7600221146284600F09C
:103A900081F80120FDF778FC641CB442F4DB174880
:103AA000FEF71AFD1648FEF717FD1648FEF714FD3F
:103AB0001548FEF711FD00211048FEF713FF042101
:103AC0000E48FEF70FFF08210C48FEF70BFF4FF4DE
:103AD000FA60FDF759FC0D4C0D4D0E4E23882A88D7
:103AE00031880DA0FFF74CFE6420FDF74DFCF5E793
:103AF000100000208C00002000100140E000002099
:103B00002801002070010020B801002018000020CA
:103B10001C0000201A00002025642C2025642C2085
:103B200025640D0A00000000F0B50B30154D20F0A3
:103B300007010024144A0FE003688B420BD38B4229
:103B400005D95E1A43184768C3E9006700E0436877
:103B5000136002C004E0021D10680028ECD120466A
:103B6000002802D1286808B10020F0BD064A0748A5
:103B70001060074A121A22F00702C0E9002401204F
:103B80002860D7E758000020540000204C02002095
:103B9000480400202DE9F05F824607460E469A4C05
:103BA0009A4D1046FCF7EFFCB7F5000F22462B4666
:103BB00002DBFCF7F3FA01E0FCF791FBFCF7F6FC03
:103BC000FFF71AFE05461421FCF7DCFAFCF7A3FC0C
:103BD0008146FCF727FE044614213046FCF7D2FA52
:103BE000FCF799FC80462146FCF7AAFE07464846AA
:103BF000FCF7AEFE044614215046FCF7C3FAFCF76E
:103C00008AFC06462146FCF79BFE3C1A4846FCF718
:103C10009FFE01464046FCF793FE07464846FCF7E8
:103C200001FE01463046FCF78BFE3E182146084651
:103C3000FCF786FE044631460846FCF781FE204428
:103C4000FCF7CAFE044672484142844201DD044644
:103C500002E08C4200DA0C466E494846FCF728FE2A
:103C6000012101EB2050C6B22846FCF78CFC8B46A4
:103C700007465D463046FCF741FCDFF89C91DFF8D3
:103C80009CA14A465346FCF730FB2B463A46FCF7CC
:103C900026FB1422FCF70AFCFCF756FCFCF758FE46
:103CA000DFF87C81054621464046FCF749FE29465F
:103CB000FCF746FE0546701EFCF70FFC4A465346CD
:103CC000FCF713FB3A465B46FCF70CFB1422FCF7AF
:103CD000EDFBFCF739FCFCF73BFE0746214640466E
:103CE000FCF72EFE3946FCF72BFE0446C5F5801185
:103CF000A1EB04084FF40020072E60D2DFE806F0A5
:103D00005F041021323D4E0041468146FCF718FE0B
:103D10002919471841464846FCF712FE06190AE0E1
:103D200041468146FCF70CFE471941464846FCF7E0
:103D300007FE2919461841464846FCF701FE04468D
:103D400040E041468146FCF7FBFD074641464846B8
:103D5000FCF7F6FD2919461841464846FCF7F0FDE8
:103D600004442FE041468146FCF7EAFD0746414600
:103D70004846FCF7E5FD461909E041468146FCF757
:103D8000DFFD071941464846FCF7DAFD0646414685
:103D90004846FCF7D5FD2919441813E041468146F1
:103DA000FCF7CEFD2919471841464846FCF7C8FDE7
:103DB000064641464846FCF7C3FD441902E0002789
:103DC0003E463C46174D288801053846FCF7B8FDAD
:103DD000154F00157860288801053046FCF7B0FDC6
:103DE0000015B860288801052046FCF7A9FD0115DB
:103DF0000E48F9607A6803685A630368BA689A6380
:103E00000068C163BDE8F09FF4D64354FB21F93F3D
:103E1000D33C090052C1100040AF2D3852C1F03FD1
:103E20007AB61B001400002000000020E0000020F3
:103E3000D356EEB47037C1B4BF3994B4955D67B44E
:103E4000CAA23AB434090EB4AA90E1B30339B5B3A7
:103E5000160289B3BDEB5CB3CDF530B3212005B3B9
:103E6000906AD9B2F4D4ADB2265F82B2FE0857B2DE
:103E700057D22BB20BBB00B2F4C2D5B1EBE9AAB159
:103E8000CC2F80B1739455B1B8172BB179B900B16B
:103E90009179D6B0DC57ACB0355482B07A6E58B058
:103EA00086A62EB036FC04B0686FDBAFF9FFB1AF69
:103EB000C6AD88AFAD785FAF8B6036AF3F650DAFF5
:103EC000A886E4AEA3C4BBAE101F93AECD956AAE78
:103ED000BB2842AEB7D719AEA2A2F1AD5B89C9AD7E
:103EE000C38BA1ADB9A979AD1FE351ADD4372AADCC
:103EF000BAA702ADB232DBAC9CD8B3AC5A998CAC49
:103F0000CE7465ACD96A3EAC5E7B17AC3EA6F0AB16
:103F10005CEBC9AB9B4AA3ABDCC37CAB035756AB92
:103F2000F30330AB8FCA09ABBBAAE3AA59A4BDAA5D
:103F30004EB797AA7EE371AACD284CAA1F8726AA5E
:103F400058FE00AA5D8EDBA91337B6A95FF890A9C9
:103F500025D26BA94BC446A9B7CE21A94DF1FCA827
:103F6000F52BD8A8927EB3A80CE98EA8496B6AA855
:103F70002E0546A8A3B621A88E7FFDA7D65FD9A798
:103F80006257B5A7186691A7E18B6DA7A3C849A78B
:103F9000461C26A7B18602A7CD07DFA6819FBBA638
:103FA000B64D98A6531275A641ED51A668DE2EA611
:103FB000B1E50BA60503E9A54D36C6A5717FA3A5FE
:103FC0005BDE80A5F5525EA526DD3BA5DA7C19A552
:103FD000F931F7A46EFCD4A422DCB2A400D190A4E1
:103FE000F1DA6EA4E0F94CA4B72D2BA4627609A4F3
:103FF000C9D3E7A3D945C6A37CCCA4A39D6783A35B
:10400000281762A306DB40A325B31FA36F9FFEA260
:10401000D09FDDA234B4BCA286DC9BA2B2187BA2E6
:10402000A5685AA24ACC39A28E4319A25DCEF8A146
:10403000A36CD8A14E1EB8A14AE397A183BB77A178
:10404000E6A657A161A537A1E1B617A152DBF7A0FB
:10405000A312D8A0C05CB8A097B998A0152979A0E0
:1040600029AB59A0C03F3AA0C7E61AA02EA0FB9FDB
:10407000E26BDC9FD049BD9FE9399E9F193C7F9F31
:104080004F50609F7A76419F89AE229F6AF8039FC6
:104090000C54E59E5EC1C69E4F40A89ECED0899E20
:1040A000CA726B9E33264D9EF8EA2E9E08C1109E62
:1040B00053A8F29DC8A0D49D58AAB69DF2C4989D5D
:1040C00086F07A9D032D5D9D5B7A3F9D7CD8219D76
:1040D0005847049DDEC6E69CFF56C99CABF7AB9CD7
:1040E000D3A88E9C686A719C593C549C991E379C3D
:1040F00017111A9CC513FD9B9426E09B7449C39B22
:10410000577CA69B2EBF899BEB116D9B7E74509BA9
:10411000D9E6339BEE68179BAFFAFA9A0C9CDE9AAD
:10412000F84CC29A640DA69A43DD899A86BC6D9AB2
:104130001FAB519A01A9359A1DB6199A66D2FD99FD
:10414000CEFDE1994738C699C481AA9937DA8E998C
:1041500094417399CBB75799D13C3C9998D0209909
:10416000127305993324EA98EEE3CE9835B2B398EA
:10417000FC8E9898357A7D98D5736298CE7B479857
:1041800013922C9898B6119851E9F697302ADC973B
:104190002A79C19732D6A6973C418C973BBA719742
:1041A00023415797E9D53C977F782297DB280897DA
:1041B000F0E6ED96B2B2D396158CB9960D739F9634
:1041C0009067859690696B9603795196DC95379642
:1041D00011C01D9696F70396603CEA95628ED095C5
:1041E00092EDB695E4599D954ED38395C4596A9541
:1041F0003BED5095A88D3795013B1E9539F50495FB
:1042000046BCEB941D90D294B470B994005EA09417
:10421000F65787948B5E6E94B67155946A913C9470
:104220009EBD239448F60A945C3BF293D18CD993BB
:104230009CEAC093B354A8930CCB8F939D4D779376
:104240005BDC5E933C774693371E2E9341D11593EA
:104250005190FD925C5BE5925932CD923D15B5923D
:1042600000049D9297FE8492F9046D921B1755925B
:10427000F6343D927E5E2592AB930D9272D4F59109
:10428000CB20DE91AC78C6910CDCAE91E24A9791DE
:1042900024C57F91C94A6891C7DB5091177839913D
:1042A000AE1F229183D20A918E90F390C659DC9072
:1042B000222EC590980DAE9020F89690B1ED7F908B
:1042C00042EE6890CBF9519043103B90A13124907D
:1042D000DC5D0D90ED94F68FC9D6DF8F6A23C98F10
:1042E000C67AB28FD5DC9B8F8F49858FEAC06E8FDF
:1042F000E042588F67CF418F77662B8F0908158F63
:1043000013B4FE8E8E6AE88E712BD28EB5F6BB8EFC
:1043100051CCA58E3EAC8F8E7396798EE88A638ED3
:1043200096894D8E7492378E7CA5218EA4C20B8EF9
:10433000E5E9F58D381BE08D9456CA8DF39BB48D5D
:104340004CEB9E8D9744898DCEA7738DE8145E8DBE
:10435000DE8B488DA80C338D40971D8D9D2B088DCD
:10436000B8C9F28C8B71DD8C0C23C88C36DEB28C14
:1043700001A39D8C6571888C5C49738CDD2A5E8CF1
:10438000E315498C660A348C5E081F8CC60F0A8CB4
:104390009420F58BC43AE08B4D5ECB8B298BB68B8A
:1043A00050C1A18BBC008D8B6649788B489B638B79
:1043B00059F64E8B945A3A8BF2C7258B6C3E118B73
:1043C000FBBDFC8A9846E88A3DD8D38AE472BF8A4E
:1043D0008516AB8A1BC3968A9D78828A07376E8AB8
:1043E00052FE598A76CE458A6EA7318A33891D8A54
:1043F000BF73098A0B67F5891163E189CB67CD89A2
:104400003275B989408BA589EFA9918939D17D8908
:1044100017016A8984395689797A4289EFC32E89CE
:10442000E2151B894A70078922D3F388643EE0882D
:104430000AB2CC880D2EB98868B2A588153F92883B
:104440000ED47E884D716B88CC16588885C44488FC
:10445000737A318890381E88D5FE0A883ECDF7875A
:10446000C4A3E4876282D1871169BE87CE57AB8728
:10447000904E9887544D858714547287C9625F8720
:104480006F794C87FF97398775BE2687CAEC1387EB
:10449000FA220187FF60EE86D3A6DB8671F4C88618
:1044A000D349B686F5A6A386D10B918661787E8620
:1044B000A1EC6B868A68598619EC46864677348665
:1044C0000E0A22866BA40F865746FD85CEEFEA853D
:1044D000CBA0D8854859C6854019B485AEE0A185E2
:1044E0008DAF8F85D9857D858B636B859F48598579
:1044F00010354785D8283585F42323855E26118518
:104500001130FF840841ED843E59DB84AE78C984C4
:10451000549FB7842BCDA5842E029484583E828468
:10452000A48170840DCC5E848F1D4D8426763B84DF
:10453000CBD529847B3C188431AA0684E81EF583F8
:104540009C9AE383481DD283E7A6C0837537AF8367
:10455000EDCE9D834B6D8C838A127B83A5BE6983D0
:10456000987158835F2B4783F5EB358355B32483CC
:104570007C811383645602830932F1826714E082DE
:104580007AFDCE823DEDBD82ABE3AC82C1E09B8281
:104590007AE48A82D1EE7982C3FF68824B1758820F
:1045A000653547820D5A36823E852582F4B61482DF
:1045B0002CEF0382E02DF3810C73E281AEBED1813A
:1045C000BF10C1813D69B08122C89F816C2D8F8150
:1045D00015997E811B0B6E8178835D8129024D8147
:1045E00029873C8175122C8108A41B81E03B0B813B
:1045F000F7D9FA80497EEA80D428DA8092D9C98036
:104600008090B9809A4DA980DC10998043DA888027
:10461000C9A978806D7F6880285B5880F93C488004
:10462000DB243880CA122880C2061880C0000880A7
:1046300000000000C60FC900101F9201622D5B022E
:10464000403A24032D45ED03AF4DB60448537F0592
:104650007E554806D3531107CC4DDA07EE42A30826
:10466000BB326C09B81C350A6900FE0A53DDC60B63
:10467000F9B28F0CDF80580D8946210E7D03EA0EBA
:104680003DB7B20F4E617B103501441175960C1287
:104690009320D512139F9D13791166144A772E1516
:1046A0000BD0F6153E1BBF166A58871713874F1895
:1046B000BCA61719EBB6DF1924B7A71AECA66F1B17
:1046C000C885371C3B53FF1CCC0EC71DFEB78E1E82
:1046D000574E561F5BD11D208F40E520799BAC21A2
:1046E0009EE1732281123B23AA2D02249C32C9240D
:1046F000DD209025F3F7562662B71D27B05EE4272C
:1047000062EDAA28FF6271290BBF372A0D01FE2A2C
:104710008928C42B06358A2C0A26502D1AFB152E03
:10472000BDB3DB2E784FA12FD1CD6630502E2C316A
:104730007970F131D393B632E6977B33367C4034CF
:104740004B400535ACE3C935DE658E366AC6523757
:10475000D5041738A720DB3866199F399AEE623ADC
:10476000CB9F263B7E2CEA3B3C94AD3C8CD6703DE7
:10477000F6F2333E01E9F63E36B8B93F1B607C40A5
:1047800039E03E41183801423F67C342386D8543E6
:104790008B494744BFFB08455E83CA45F0DF8B4623
:1047A000FD104D470F160E48AFEECE48659A8F4963
:1047B000BB18504A3A69104B6C8BD04BD97E904C49
:1047C0000C43504D8DD70F4EE83BCF4EA66F8E4F0A
:1047D00050724D5072430C5195E2CA51444F895268
:1047E0000A894753708F05540362C3544C008155A6
:1047F000D7693E562E9EFB56DE9CB857726575589B
:1048000075F731597352EE59F775AA5A8E61665B86
:10481000C414225C258FDD5C3DD0985D98D7535E33
:10482000C4A40E5F4E37C95FC18E8360ACAA3D61E0
:104830009B8AF7611B2EB162BB946A6308BE236436
:104840008FA9DC64DF56956585C54D6610F5056753
:104850000FE5BD670F9575689F042D694F33E469B7
:10486000AE209B6A49CC516BB235086C775CBE6C4C
:104870002840746D54E0296E8C3CDF6E6054946F58
:10488000602749701DB5FD7026FDB1710EFF657280
:1048900065BA1973BC2ECD73A45B8074AF403375B9
:1048A0006EDDE57574319876523C4A779BFDFB7757
:1048B000E074AD78B5A15E79AC830F7A581AC07AEE
:1048C0004C65707B1B64207C5916D07C997B7F7D66
:1048D00070932E7E715DDD7E30D98B7F41063A80EC
:1048E0003AE4E780AF72958135B14282629FEF82F0
:1048F000C93C9C8302894884A183F4843C2CA08514
:104900006B824B86C285F686D935A18747924B8844
:10491000A19AF5887F4E9F897AAD488A27B7F18A98
:104920001F6B9A8BFAC8428C50D0EA8CB980928D5A
:10493000CDD9398E27DBE08E5E84878F0CD52D9004
:10494000CACCD390316B7991DDAF1E92669AC39237
:10495000672A68937A5F0C943B39B09444B75395B7
:1049600030D9F6959A9E99961F073C975A12DE9772
:10497000E7BF7F98620F21996800C2999692629A68
:1049800088C5029BDC98A29B2F0C429C1F1FE19CB8
:1049900049D17F9D4C221E9EC611BC9E569F599F99
:1049A0009ACAF69F329393A0BCF82FA1D9FACBA153
:1049B000289967A249D302A3DDA89DA3831938A42F
:1049C000DD24D2A48BCA6BA52F0A05A66BE39DA696
:1049D000DF5536A72E61CEA7FB0466A8E740FDA8E9
:1049E000951494A9A97F2AAAC581C0AA8D1A56AB8D
:1049F000A449EBABB00E80AC536914AD3259A8ADED
:104A0000F3DD3BAE3AF7CEAEACA461AFEFE5F3AF6A
:104A1000A9BA85B07F2217B1191DA8B11CAA38B256
:104A200030C9C8B2FB7958B325BCE7B3558F76B40B
:104A300034F304B569E792B59E6B20B67A7FADB6C4
:104A4000A7223AB7CE54C6B7991552B8B064DDB8AC
:104A5000BF4168B970ACF2B96DA47CBA622906BBDB
:104A6000F83A8FBBDDD817BCBA02A0BC3EB827BD50
:104A700013F9AEBDE7C435BE661BBCBE3EFC41BFEC
:104A80001B67C7BFAB5B4CC09ED9D0C0A0E054C170
:104A90006070D8C18D885BC2D728DEC2ED5060C37C
:104AA0007E00E2C33A3763C4D2F4E3C4F73864C586
:104AB0005903E4C5A95363C69929E2C6DA8460C7DD
:104AC0001F65DEC71BCA5BC87FB3D8C8FE2055C9A7
:104AD0004D12D1C91D874CCA247FC7CA16FA41CBD3
:104AE000A6F7BBCB8A7735CC7779AECC21FD26CD26
:104AF00040029FCD888816CEAF8F8DCE6E1704CF23
:104B0000791F7ACF8AA7EFCF56AF64D09636D9D027
:104B1000023D4DD153C2C0D141C633D28548A6D241
:104B2000D84818D3F5C689D395C2FAD3733B6BD452
:104B30004831DBD4D1A34AD5C992B9D5EAFD27D6ED
:104B4000F1E495D69A4703D7A22570D7C57EDCD766
:104B5000C15248D852A1B3D8386A1ED930AD88D9CD
:104B6000F869F2D94FA05BDAF54FC4DAA8782CDBEC
:104B7000291A94DB3734FBDB94C661DCFFD0C7DC39
:104B80003A532DDD064D92DD25BEF6DD58A65ADEE0
:104B90006305BEDE09DB20DF0B2783DF2DE9E4DFC1
:104BA000342146E0E2CEA6E0FDF106E14A8A66E164
:104BB0008C97C5E18A1924E2091082E2D07ADFE2FB
:104BC000A4593CE34DAC98E39172F4E338AC4FE464
:104BD0000A59AAE4CE7804E54D0B5EE55010B7E51E
:104BE000A0870FE6067167E64CCCBEE63D9915E757
:104BF000A2D76BE74687C1E7F6A716E87B396BE8D3
:104C0000A23BBFE837AE12E9079165E9DEE3B7E9F9
:104C10008AA609EAD9D85AEA977AABEA948BFBEAD2
:104C20009E0B4BEB84FA99EB1658E8EB222436ECFA
:104C30007A5E83ECEC06D0EC4B1D1CED67A167EDB2
:104C40001293B2ED1DF2FCED5ABE46EE9CF78FEECC
:104C5000B69DD8EE7BB020EFBF2F68EF551BAFEFAE
:104C60001173F5EFC9363BF0516680F07F01C5F056
:104C7000280809F1227A4CF144578FF1649FD1F151
:104C8000595213F2FC6F54F224F894F2A8EAD4F2C9
:104C9000624714F32B0E53F3DB3E91F34DD9CEF361
:104CA0005ADD0BF4DD4A48F4B12184F4B061BFF45D
:104CB000B60AFAF49F1C34F547976DF58B7AA6F582
:104CC00047C6DEF5597A16F69E964DF6F51A84F625
:104CD0003B07BAF6505BEFF6131724F7633A58F721
:104CE0001FC58BF729B7BEF76010F1F7A6D022F8E1
:104CF000DDF753F8E48584F8A07AB4F8F1D5E3F849
:104D0000BC9712F9E2BF40F9484E6EF9D2429BF9C6
:104D1000639DC7F9E15DF3F930841EFA361049FA54
:104D2000D80173FAFD589CFA8C15C5FA6A37EDFA6A
:104D300080BE14FBB4AA3BFBF0FB61FB1AB287FBFD
:104D40001DCDACFBE14CD1FB4F31F5FB527A18FC89
:104D5000D4273BFCBE395DFCFDAF7EFC7C8A9FFC0A
:104D600026C9BFFCE86BDFFCAD72FEFC64DD1CFDF8
:104D7000F8AB3AFD58DE57FD727474FD346E90FD49
:104D80008DCBABFD6B8CC6FDBFB0E0FD7838FAFD76
:104D9000872313FEDC712BFE682343FE1D385AFE69
:104DA000EBAF70FEC78A86FEA1C89BFE6D69B0FEA0
:104DB0001F6DC4FEA9D3D7FE009DEAFE18C9FCFEF4
:104DC000E6570EFF5F491FFF799D2FFF2A543FFFD3
:104DD000686D4EFF2AE95CFF66C76AFF140878FF1A
:104DE0002CAB84FFA7B090FF7C189CFFA6E2A6FF27
:104DF0001C0FB1FFD99DBAFFD78EC3FF10E2CBFFC6
:104E00008097D3FF21AFDAFFF028E1FFE704E7FF47
:104E10000443ECFF44E3F0FFA2E5F4FF1E4AF8FF71
:104E2000B510FBFF6539FDFF2CC4FEFF0BB1FFFF82
:104E3000FFFFFFFF00000000010000000300000072
:104E4000000000000000000001020304060708093A
:104E50000000000001020304784E0008000000205A
:104E60005C000000CC370008D44E00085C00002035
:104E7000EC070000DC370008000000000000000024
:104E80000000000000000000000000000000000022
:104E90000000000000000000000000000000000012
:104EA0000000000000000000000000000000000002
:104EB00000000000010000001000000000000000E1
:104EC0000024F400000000000000000000000000CA
:044ED00000000000DE
:04000005080000ED02
:00000001FF
