:020000040800F2
:1000000030230020010100081F3B000807330008CF
:100010001D3B0008510F00081540000800000000BB
:10002000000000000000000000000000233B00086A
:10003000C70F000800000000213B0008253B000816
:100040001B0100081B0100081B0100081B01000820
:100050001B0100081B0100081B0100081B01000810
:100060001B0100081B0100081B010008910F00087C
:100070001B0100081B0100081B0100081B010008F0
:100080001B0100081B0100081B010008FD3F0008C0
:10009000094000081B0100081B0100081B010008A3
:1000A0001B010008A53B00081B0100081B010008FC
:1000B000C13B0008E53B0008353C00081B01000877
:1000C0001B0100081B0100081B0100081B010008A0
:1000D0001B0100081B0100081B0100081B01000890
:1000E0001B0100081B0100081B010008DFF80CD0F1
:1000F00000F03AFB00480047794E0008302300200A
:100100000648804706480047FEE7FEE7FEE7FEE7B1
:10011000FEE7FEE7FEE7FEE7FEE7FEE7A13B00089D
:10012000ED000008202A04DB203A21FA02F0002129
:10013000704721FA02F3D040C2F1200291400843F7
:1001400019467047D2B201E000F8012B491EFBD2DC
:1001500070470022F6E710B513460A4604461946D2
:10016000FFF7F0FF204610BD10B54843044604F0E9
:10017000CBFF002805D00021002C02D0641E0155C1
:10018000FAE710BD2DE9FE4F81EA030404F00044B4
:1001900021F0004100944FF0000B23F0004350EA9F
:1001A00001045ED052EA03045BD0C3F30A54C1F3E6
:1001B0000A552C44A4F2F3340194A0FB0254C1F379
:1001C000130141F48011C3F3130343F4801301FBC3
:1001D000024400FB034E840A970A44EA815447EA2A
:1001E0008357A4FB076802958D0A05FB07854FEA34
:1001F000932C04FB0C542705029D4FEA065847EA4E
:100200001637B5EB08056EEB070C870E920E47EA22
:10021000811742EA8312A7FB0201B6EB0B0164EBE4
:1002200000042B0D43EA0C335E1844EB1C50DA46F5
:100230005146E7FB0201C5F313044FEA0B3343EACF
:1002400014534FEA0432019C43EA0603A4F10C0460
:100250000294009CCDE900B400F0F2F803B0BDE8D0
:10026000F08F00200146F9E770B521F00043034309
:100270000CD0C1F30A550024D5EB040564EB04034C
:10028000D617AD1AB34102DB0020014670BD20181D
:1002900041EB025170BDC10F80EAE0700844CA070B
:1002A0009623002100F08FB80EB540F23341029141
:1002B0000021CDE900110A460B4600F0C1F803B059
:1002C00000BD70B5C1F30A5201F000450024C1F32E
:1002D000130140F2FF3341F480119A4201DA002009
:1002E00070BD40F233439A42A2F2334203DC5242E1
:1002F000FFF718FF00E090402C43F1D0404270BD62
:1003000000F0004230F000400AD0C10D01F56071EC
:10031000C0F3160042EA0151C2084007114370477A
:1003200000200146704730B50B46014600202022D0
:10033000012409E021FA02F59D4205D303FA02F5F2
:10034000491B04FA02F52844151EA2F10102F1DC52
:1003500030BD2DE9F05F0546002092469B46884659
:100360000646814640241BE0284641464746224631
:10037000FFF7D8FE53465A46C01A914110D3114692
:100380001846224600F002FA2D1A67EB01084F4684
:1003900022460120002100F0F9F917EB00094E4137
:1003A000201EA4F10104DFDC484631462A464346BC
:1003B000BDE8F09F0029A8BF7047401C490008BF56
:1003C00020F00100704710B4B0FA80FC00FA0CF085
:1003D00050EA010404BF10BC704749B1CCF12004BD
:1003E00021FA04F411FA0CF118BF0121214308434A
:1003F000A3EB0C01CB1D4FEA00614FEA102042BF76
:10040000002010BC704700EBC35010440029A4BF6B
:1004100010BC7047401C490008BF20F0010010BC10
:10042000704710B5141E73F1000408DA401C41F146
:10043000000192185B411A4301D120F0010010BD68
:100440002DE9F04D92469B4611B1B1FA81F202E0DE
:10045000B0FA80F22032904600F098F904460F4638
:1004600040EA0A0041EA0B0153465A46084313D0BA
:10047000114653EA010019D0C8F140025046FFF777
:1004800051FE05460E4650465946424600F07EF95A
:10049000084305D0012004E020463946BDE8F08D30
:1004A0000020054346EAE0762C4337430A9863056B
:1004B000E40AA0EB08000022FD0A44EA47540A308F
:1004C00002D500200146E9E7010510196941DDE97F
:1004D000084500196941BDE8F04DA2E72DE9FE4F3E
:1004E000804681EA0300C00F0C46009021F00041D5
:1004F00023F00045B8EB0200A94105D24046214651
:1005000090461C460B46024623F00040104347D05D
:10051000270DC7F30A00C3F30A510290401A019055
:1005200040286BDAC3F3130040F4801B0098924616
:1005300020B10023D2EB030A63EB0B0B0198594661
:10054000C0F14002504600F021F906460D465046E3
:100550005946019A00F029F910EB08006141002486
:1005600087EA115284EAE7731A4340D0009A62B3D3
:10057000019A012A4FEA075215DC001B61EB0201C8
:100580004FF0004202EA0752CDE90042001C41F55B
:10059000801132462B46FFF753FF03B0BDE8F08FC2
:1005A00040462146F9E7001B61EB0201001C41F5C2
:1005B000801300185B412018A2F5001747EB0301D8
:1005C00040EAD570B6196D4111E06D084FEA360664
:1005D00045EAC0754FEA0752001B61EB0201001C9F
:1005E00041F5801149084FEA300000195141324667
:1005F0002B4603B0BDE8F04FFFF713BF0098012270
:1006000040000023D0EB020263EBE0730098214628
:100610004FEAE074B8EB000061EB0401E9E783F016
:1006200000435BE781F0004158E72DE9F04D81EA96
:10063000030404F0004B21F0004514464FF0000A7B
:1006400023F0004150EA050220D054EA01021DD0F7
:10065000C5F30A570246C5F31303C1F31300C1F3F0
:100660000A5640F4801543F48013A7EB0608101BCC
:10067000D64608F2FD3873EB050002D308F10108F5
:1006800001E092185B41B8F1000F03DA0020014647
:10069000BDE8F08D00204FF48011064684460EE040
:1006A000171B73EB050705D3121B63EB050306430A
:1006B0004CEA010C49084FEA300092185B4150EABD
:1006C0000107EDD152EA030012D082EA040083EA66
:1006D0000501084305D0101BAB4106D201220023BF
:1006E00006E000224FF0004302E06FF001025310D9
:1006F0001AEB06004CEB085110EB0A0041EB0B0122
:10070000BDE8F04DFFF78DBEC1F30A52C1F31301EE
:1007100040F2FF3341F480119A4202DA0020014690
:10072000704740F233439A42A2F2334202DC524213
:10073000FFF7F8BC00F02AB830B5041E71F10004D0
:1007400004DB4FF00044404264EB0101141E73F1DE
:10075000000405DB1C464FF00043524263EB0403E8
:10076000994208BF904230BD064C074D06E0E06854
:1007700040F0010394E8070098471034AC42F6D3E8
:10078000FFF7B8FC6062000880620008202A04DBE2
:10079000203A00FA02F1002070479140C2F1200394
:1007A00020FA03F3194390407047202A06DBCB1749
:1007B000203A41FA02F043EAE07306E041FA02F31C
:1007C000D040C2F120029140084319467047000012
:1007D00091F0000F04BF6FF00040704710B54FF06C
:1007E000010E90EA010F48BF4FF0000E002848BFED
:1007F0004042002948BF4942B0FA80F40F2CA8BFFC
:100800000F2400FA04F2C4F10F0CB2FBF1F0B0FABD
:1008100080F39C45A4BFCEF1004010BD01FB102227
:10082000B2FA82F464450EDAACEB040C02FA04F27C
:1008300000FA04F0B2FBF1F301FB13221844B2FA00
:1008400082F46445F0DD02FA0CF200FA0CF0B2FB1F
:10085000F1F318449EF0000F08BF404210BD0000A5
:1008600080FB01014FEAD03000EB414070470000AF
:10087000214981FB00104FEAC02000EB515000F1EC
:100880008040810028BFC0F100404000DFF85CC01C
:10089000C0F3895109B35CF82120C1F500715CF8FF
:1008A00021304FEA8021DFF848C0A1FB0CC14FEA9C
:1008B00011214FF000001044A0FB01C04FEA50008E
:1008C000A3EB0000A0FB01C010444FEA500028BF7A
:1008D0004042C01240F100007047DFF818C0A0FB92
:1008E0000CC04FEA902028BF40427047445A00088D
:1008F000A2DA0FC937CD0FC9B7C17C5191F0000FF3
:1009000004BF6FF00040704710B54FF0010E90EA41
:10091000010F48BF4FF0000E002848BF4042002999
:1009200048BF4942B0FA80F4142CA8BF142400FA3E
:1009300004F2C4F1140CB2FBF1F0B0FA80F39C4560
:10094000A4BFCEF1004010BD01FB1022B2FA82F428
:1009500064450EDAACEB040C02FA04F200FA04F07F
:10096000B2FBF1F301FB13221844B2FA82F464459E
:10097000F0DD02FA0CF200FA0CF0B2FBF1F31844CD
:100980009EF0000F08BF404210BD000080FB010137
:100990004FEA105000EB013070470000204981FB06
:1009A00000104FEAC02000EB5150810028BFC0F179
:1009B00000404000DFF85CC0C0F3895109B35CF827
:1009C0002120C1F500715CF821304FEA8021DFF869
:1009D00048C0A1FB0CC14FEA11214FF000001044A8
:1009E000A0FB01C04FEA5000A3EB0000A0FB01C038
:1009F00010444FEA500028BF4042C01240F10000AE
:100A00007047DFF818C0A0FB0CC04FEA902028BF49
:100A100040427047445A0008A2DA0FC937CD0FC9C7
:100A2000B7C17C51B0FA80F303F01F0242B300FA61
:100A300003F000B54FEA9052134951F82210A0FB81
:100A400001E2A2FB01E2C2F14042A2FB01E14FEA56
:100A50004101A0FB01E2A2FB01E2C2F14042A2FB84
:100A600001E14FEA4101A0FB01E003F10A035B1041
:100A700024BF064AA2FB0010D84040F1000000BD90
:100A80004FF0000070470000444A000834F304B5FA
:100A900078B110F0004148BF4042B0FA80F3C3F192
:100AA0008A0200FA03F04FEA102062F3DE5041EAB6
:100AB0000000704780FB0101002A03DA524241FA2C
:100AC00002F07047202A04DBA2F1200200FA02F0B3
:100AD000704701FA02F1C2F1200220FA02F040EA66
:100AE0000100704770B5044600688168C943C907B2
:100AF00017D1816821F00101816001F0AFF905464D
:100B00000AE000BF01F0AAF9401B022804D92068BE
:100B10008068C043C00706D020688068C043C00713
:100B2000F0D0002070BDA06A40F01000A062E06A22
:100B300040F00100E062012070BD10B50146406A3E
:100B4000826A12F0500F05D0006A026BBDE81040B7
:100B500008461047816A41F4007181620168896822
:100B6000C1F3424107290CD1017B51B9816A21F4BB
:100B700080718162816AC90403D4816A41F00101F4
:100B8000816200F0A1FA10BD10B5406A816A41F09F
:100B900040018162C16A41F00401C16200F096FA2D
:100BA00010BD10B5406A00F090FA10BD10B50022DB
:100BB00002280CDA074B002100EB4104491C33F8F2
:100BC000144008292244F7DBC2F3CF0010BD0120F6
:100BD00010BD0000B8000020F8B5002604460096BD
:100BE00000688168C943C9072DD0816841F00101BF
:100BF0008160164816490068B0FBF1F000E0401E25
:100C000000900028FBD101F029F9054616E000BF4D
:100C100001F024F9401B022810D920688068C043E5
:100C2000C0070BD0A06A40F01000A062E06A40F05C
:100C30000100E06284F824600120F8BD206880682B
:100C4000C043C007E4D10020F8BD00008C000020A4
:100C500040420F002DE9F04104460020FFF7A6FFB7
:100C6000284E294D31684969401A28600120FFF754
:100C70009DFF31688969401A6860288880B204F055
:100C800085F8E060A88880B204F080F82061E1680F
:100C90001E480D46FFF77AFE06461D482169FFF7FC
:100CA00075FE06446068FFF7E3FD01462846FFF73E
:100CB0006DFE07466068FFF771FE01463046FFF79C
:100CC00065FE3844A0616068FFF7D2FD01463046FA
:100CD000FFF75CFE06466068FFF760FE01462846A7
:100CE000FFF754FE301A60610A48A169006804F0F9
:100CF000A7F8A06108486169006804F0A1F8606184
:100D0000BDE8F0814400002068000020D33C0900C9
:100D1000A779120060000020640000200EB58268F0
:100D20000123CDE90013029200680B226C2101F02F
:100D30005FF90EBD092940D2DFE801F03F05091334
:100D40001B232B333B00817D21F01C0106E0817DBC
:100D500021F018018175817D41F004018175002029
:100D60007047817D21F014018175817D41F008017A
:100D7000F4E7817D21F010018175817D41F00C0146
:100D8000ECE7817D21F00C018175817D41F010013E
:100D9000E4E7817D21F008018175817D41F0140136
:100DA000DCE7817D21F004018175817D41F018012E
:100DB000D4E7817D41F01C01D0E701207047012973
:100DC00007D0022909D0032911D0042917D0012006
:100DD0007047C17D21F00C0106E0C17D41F00401A6
:100DE000C175C17D21F00801C17500207047C17D2A
:100DF00021F00401C175C17D41F00801F4E7C17D16
:100E000041F00C01F0E7012907D0022909D003299C
:100E100011D0042917D001207047C17D21F00301B2
:100E200006E0C17D41F00101C175C17D21F00201E3
:100E3000C17500207047C17D41F00201C175C17DBF
:100E400001F00101F4E7C17D41F00301F0E7012960
:100E500004D0022906D003291ED10DE0C17D21F066
:100E6000300106E0C17D41F01001C175C17D21F066
:100E70002001C17500207047C17D01F01001C175CE
:100E8000C17D41F02001C175012A07D0022A09D095
:100E9000032A0FD0042A15D001207047C17D21F00C
:100EA000C001E6E7C17D41F04001C175C17D21F07F
:100EB0008001DEE7C17D21F04001C175C17D41F0B7
:100EC0008001D6E7C17D41F0C001D2E7012907D0FA
:100ED000022909D0032911D0042917D00120704715
:100EE000817D21F0030106E0817D41F001018175E2
:100EF000817D21F00201817500207047817D21F004
:100F000001018175817D41F00201F4E7817D41F0AD
:100F10000301F0E7012903D0022905D00120704721
:100F2000817D21F0400102E0817D41F04001817529
:100F3000002070470EB5022200F1160183688DE88B
:100F40000E000068012307226C2101F079F90EBD23
:100F5000FEE710B58AB0012100220891CDE9051203
:100F6000044607910091C9030320CDE90110CDE9A2
:100F7000031269462046099200F016FA204600F056
:100F800019FD0221204600F0FDF90AB010BD000055
:100F9000014800F043BD00000801002030B590F882
:100FA00040500124AC40C56B6C60046863604368CA
:100FB000102B036803D099600068C26030BD9A604E
:100FC0000068C16030BD704772B6FEE7F8B5002416
:100FD000009490F824202546012A12D0012280F89E
:100FE00024204A681F23072A0DD20668776B521EF9
:100FF00002EB820293409F430B6893401F43776349
:1010000019E00220F8BD06680D2A0AD2376BD21FFC
:1010100002EB820293409F430B6893401F43376368
:1010200009E0F76A0D3A02EB820293409F430B6896
:1010300093401F43F7620A68072306680A2A0AD307
:10104000F7680A3A02EB420293409F438B68934051
:101050001F43F76008E0376902EB420293409F4369
:101060008B6893401F4337610A68102A01D0112A08
:1010700020D1124B02689A4217D193681B0219D4EF
:10108000936843F4000393600968102912D10C4956
:101090000C4A0968B1FBF2F101EB8101490000E063
:1010A000491E00910029FBD104E0816A41F0200132
:1010B0008162012480F824502046F8BD00240140BC
:1010C0008C00002040420F007047704770470000BE
:1010D0002DE9F0414FF0000704003D467ED0A06AA4
:1010E000002628B9E66284F82460204600F07EF8E5
:1010F0002046FFF7F7FCA16A01F01001014304D07C
:10110000A06A40F01000A06268E0A16A21F4885152
:1011100041F00201A1626268E169237B0A4347EA68
:1011200043010A43A1684FF48077B94208D00129EE
:1011300006D0002194F814C0BCF1010F02D00AE0DF
:101140003946F7E7F3B1A36A43F02003A362E36AE9
:1011500043F00103E3622368D3F804C02CF4694C24
:101160004CEA010CC3F804C023689968DFF870C02A
:1011700001EA0C0111439960A168B9420BD0012921
:1011800009D00CE0DFF85CC0A3690CEB43330B43E0
:1011900043F40061DFE7218A0D05A5F5801521687C
:1011A000CB6A23F470032B43CB62216889680E4B12
:1011B0001940914208D1E662A16A21F0020141F092
:1011C0000101A162BDE8F081A06A20F0020040F0B8
:1011D0001000A062E06A40F00100E0620120F1E747
:1011E000FDF7E1FF00E0FFFFFE0E1FFF70B586B0C8
:1011F000002506460095019502950395006819495A
:1012000088422DD11849886940F400708861886946
:1012100000F400700490886940F0040088618869D7
:10122000694600F0040004900320009001900F48EC
:1012300000F016FD0F4C0E48C4E900058020C4E9FB
:10124000025040002061800060612020C4E9060552
:10125000204600F08DFC08B1FFF7B6FE34626662EE
:1012600006B070BD0024014000100240000801409B
:1012700008000240080100202DE9F0478946044695
:101280003B4900683B4F0E1D9046884201D0B84252
:1012900007D1306810F4702F03D001252846BDE82F
:1012A000F08794F8240001280CD0012084F8240051
:1012B0002046FFF791FC05004FF0000004D084F8B1
:1012C0002400EBE70220EAE7A16A40F601629143BD
:1012D00041F48071A1622168B94218D1326812F4D8
:1012E000702F14D0A16A41F48011A16231684905C0
:1012F00005D5A16A21F4005141F48051A162A16A8F
:10130000C9040AD5E16A21F00601E16206E0A26A99
:1013100022F48012A2624968E9E7E06284F82400BE
:10132000216A15488862216A1448C862216A1448F3
:10133000086321686FF0020008602068816841F44A
:1013400080718160216843464A464C31206A00F032
:101350003DFC20688168C1F342410729816803D0C0
:1013600041F48011816099E741F4A001FAE700009F
:1013700000240140002801403B0B0008A30B00089B
:10138000890B000890F82020012A07D0022A05D0F6
:10139000416A41F48021416201207047006842693E
:1013A0000A4342610020704710B590F8203002686F
:1013B000012B07D0022B05D0416A41F48021416204
:1013C000012010BDD2F8000240F00100C2F8000276
:1013D000087D00F01F0301209840D2F81C3283439F
:1013E000C2F81C32CB69B3B9D2F80C328343C2F8CD
:1013F0000C328C894B6864F31F434C6902EBC404C4
:10140000C4F840320C890B6864F31F434C6902EB4B
:10141000C404C4F84432CB69012B16D1D2F80C3283
:101420000343C2F80C320C884B6864F31F434C69C9
:1014300002EBC404C4F840320C89CB6864F31F4348
:101440004C6902EBC404C4F844328B69002BD2F817
:1014500004320FD053EA0003C2F804320B69002BA8
:10146000D2F8143208D00343C2F81432096A0129B1
:1014700004D008E08343EFE78343F5E7D2F81C127A
:101480000143C2F81C12D2F8000220F00100C2F899
:101490000002002010BD704730B590F82040012CAC
:1014A00005D0022C03D0416A41F480215DE004683C
:1014B000002955D02469A40754D04FF4D874056886
:1014C00004EB01142D5915F00405956005682D599C
:1014D0004ED0ED08556005682C5904F00204D46024
:1014E0004FF4DA74056804EB01142D5905F00F056B
:1014F000156105682D59C5F30725956105682C59B7
:10150000240C54614FF4DC72046802EB0112A458FD
:101510001C700468A458240A5C700468A458240C45
:101520009C700468A258120EDA704FF4DE720468E0
:1015300002EB0112A4581C710468A458240A5C71BF
:101540000468A458240C9C710468A258120EDA7125
:10155000006881B1016941F020010161002030BDC6
:10156000E468A8E7416A41F400114162012030BDFE
:101570006D0D1560AFE7C16841F02001C160EDE776
:101580002DE9F05F0546006800244669D0F8049014
:101590008768D0F80CB0D0F810A0D0F81880F10708
:1015A00048D0F90714D001218160B80703D5284637
:1015B00000F02DFA0CE0780702D54FF4006407E044
:1015C000380702D54FF4805402E0284600F01EFA96
:1015D000F80516D529684FF480708860B80503D5E2
:1015E000284600F016FA0CE0780502D544F40054C1
:1015F00007E0380502D544F4804402E0284600F0B4
:1016000007FAF80316D529684FF480308860B803CC
:1016100003D5284600F0FFF90CE0780302D544F426
:10162000004407E0380302D544F4803402E0284641
:1016300000F0F0F9300707D55FEACB6004D52968E0
:10164000102044F40074C86070074FF0080707D5F5
:101650005FEA0B7004D52868C760284600F062F97D
:10166000B00706D52868C068800702D0284600F079
:101670005BF9700607D55FEACA6004D529681020B7
:1016800044F480640861B00607D55FEA0A7004D5A7
:1016900028680761284600F089F9F00606D5286811
:1016A0000069800702D0284600F081F9B00308D510
:1016B0005FEAC96005D5296810204860284600F017
:1016C00077F9F00307D55FEA097004D52868476009
:1016D000284600F0A1F9300446D55FEA497040D5AC
:1016E000F00504D55FEAC87001D044F00104B005EC
:1016F00004D55FEA887001D544F00204700504D572
:101700005FEA487001D544F00404300529D518F08B
:10171000700F26D008F07000402815D006DC102885
:1017200009D020280AD0302816D10AE050280ED03F
:10173000602811D10EE044F008040DE044F01004DC
:101740000AE044F0200407E044F0400404E044F0E0
:10175000800401E044F480742868816921F07001FC
:101760008161296804204860002C05D0686A204304
:1017700068622846FFF78FFEBDE8F09F70B5040051
:1017800003D094F8200010B104E0012070BD204681
:1017900000F082F82068016841F00101016000F06A
:1017A0005DFB0546052604E000F058FB401B0A28B7
:1017B00011D820684068C007F6D02068016821F081
:1017C0000201016000F04AFB05460BE000F046FB19
:1017D000401B0A2806D9606A40F40030606284F831
:1017E0002060D2E7206840688007EFD4207E01287F
:1017F000206801683DD021F080010160607E0128F1
:101800002068016838D021F040010160A07E0128E5
:101810002068016833D021F020010160E07E0128BA
:10182000206801682ED041F010010160207F01285E
:101830002068016829D021F008010160607F01283B
:101840002068016824D021F004010160D4E902017C
:101850000843D4E90412114308436168491E084350
:101860002168C86100206062012084F82000002007
:1018700070BD41F08001C0E741F04001C5E741F093
:101880002001CAE721F01001CFE741F00801D4E7B9
:1018900041F00401D9E7000010B586B000210091A5
:1018A00001910291039100681B49884232D11B4883
:1018B000C16941F00071C161C16901F00071049119
:1018C000816941F0040181618069154C00F00400D8
:1018D00004904FF4006000906946204600F0C0F983
:1018E000A014009002200190032003906946204636
:1018F00000F0B6F900221146132000F0CDFD1320B0
:1019000000F0BCFD00221146142000F0C5FD14209B
:1019100000F0B4FD06B010BD0064004000100240AD
:10192000000801407047000010B51B4B1B4A002106
:101930001B48FFF7B1FD1B490120087016480178CC
:10194000552919D115496FF4405249688A1816492A
:101950000CD0012A11D0022A17D0042A0CD1C27847
:10196000837802EB03220B68A3F84820C2788078C2
:10197000096802EB0020C88710BDC278807809682A
:1019800002EB0020A1F8400010BDC2788078096801
:1019900002EB0020486410BD380000209C000020AD
:1019A0004C01002070000020480000207047704764
:1019B0007047000070B5044690F82000012804D05C
:1019C000606A40F40020606218E0022084F8200081
:1019D0002068016821F00101016000F03FFA05462E
:1019E0000EE000BF00F03AFA401B0A2808D9606AEE
:1019F00040F400306062052084F82000012070BDB2
:101A000020684068C007EDD1606270BD70477047C4
:101A10007047704770477047704700002DE9F05FCE
:101A2000C16B0C6801680B68D0F840C0042202FA50
:101A30000CF2494DDFF824A1494E4A4FDFF828B196
:101A4000DFF828E122422CD05A072AD50A689206EC
:101A500003D40A6822F004020A600168A94201D195
:101A6000042219E0514501D1402215E0B14202D1D2
:101A70004FF4806210E0B94202D14FF480420BE093
:101A8000594502D14FF4802206E0714502D14FF44E
:101A9000800201E04FF080622F4908394A60C16A34
:101AA0003BE04FF0020808FA0CF818EA040F4FF078
:101AB00000094FF0010235D05FEA837832D50B6818
:101AC0009B0605D40B6823F00A030B6080F82120E5
:101AD0000168A94201D1022219E0514501D1202219
:101AE00015E0B14202D14FF4007210E0B94202D1C8
:101AF0004FF400520BE0594502D14FF4003206E09A
:101B0000714502D14FF4001201E04FF0007212490A
:101B100008394A6080F82090816A00291AD0BDE80F
:101B2000F05F0847082505FA0CF5254212D01B077F
:101B300010D50B6823F00E030B6090F84010C36BB8
:101B400002FA01F15960826380F8212080F8209028
:101B5000016BE2E7BDE8F09F080002401C00024074
:101B60003000024044000240580002406C00024035
:101B700030B528B308C8134914221944B1FBF2F157
:101B80008900C16310498163022141771A6843F6D5
:101B9000F0718A43D0E900142143D0E902452C4377
:101BA000214304692143446921438469214311434A
:101BB000196000214163012242770177084630BD58
:101BC000012030BDF8FFFDBF0000024070B50446A3
:101BD00090F82000002501280CD0012084F8200076
:101BE00094F821600020012E06D084F82000022500
:101BF000284670BD022070BD022684F82160A063D3
:101C00002068066826F0010606602046FFF7C6F940
:101C1000E06A00282068016802D041F00E0106E069
:101C200021F0040101602068016841F00A010160AF
:101C30002068016841F001010160D9E770B50446F0
:101C400000F00CF90546601C02D0044800780444FA
:101C500000F004F9401BA042FAD370BD80000020C0
:101C60002DE9F84FDFF8B891002409F1040A0AF1D0
:101C7000040B23460F270BF1040EC9E00125A540F4
:101C80002A40AA427DD1674ED1F804C0ACEB0608C9
:101C9000B44532D014DCBCF1030F3AD009DCBCF1FE
:101CA000000F2AD0BCF1010F1CD0BCF1020F31D1C2
:101CB0001DE0BCF1110F17D0BCF1120F2AD119E0B1
:101CC000B8F5881F19D006DCB8F5803F15D0B8F5F7
:101CD000801F1FD111E0B8F5001F0ED0B8F5041F0A
:101CE00018D10AE0CB6815E0CB681B1D12E0CB6869
:101CF00008330FE0CB680C330CE08B682BB1012B61
:101D00004FF0080303D0456104E0042302E00561BD
:101D100000E00023FF2A01D8064601E000F1040696
:101D20004FEA840501D9A5F12005D6F8008007FA0D
:101D300005FC28EA0C0803FA05F548EA0508C6F888
:101D400000804D68ED0062D5374DAE6946F0010662
:101D5000AE61AD6924F0030605F001050095334D31
:101D600006EB050CDCF80850A607360F07FA06F854
:101D700025EA0805DFF8B880404503D14FF0000898
:101D800017E044E0DFF8AC80404502D14FF0010895
:101D90000FE0DFF8A480404502D14FF0020808E0D0
:101DA000DFF89880404502D14FF0030801E04FF082
:101DB000040808FA06F848EA0508CCF808804D68D7
:101DC000D9F80060ED034D4601D5164300E0964377
:101DD0002E604D68DAF80060AD03554601D5164314
:101DE00000E096432E604D68DBF80060ED025D4632
:101DF00001D5164300E096432E604D68DEF8006082
:101E0000AD02754601D5164300E096432E60641C72
:101E10000D682A46E5407FF431AFBDE8F88F000039
:101E200000040140000011100010024000000140B9
:101E300000080140000C0140001001400014014066
:101E4000C26821EA02030A4043EA02410161704785
:101E50000AB1016170470904FBE70000014880688E
:101E6000704700008000002070B5040025D094F871
:101E70003D00002520B984F83C50204600F078FA57
:101E8000242084F83D002068016821F001010160F0
:101E90002068016841F4004101602068016821F474
:101EA0000041016000F036FC4D4A6168914201D862
:101EB0004C4900E04C49884201D2012070BD4B4999
:101EC0002368B0FBF1F15E6826F03F060E435E60CA
:101ED0006368934206D94FF4967359434FF47A736B
:101EE000B1FBF3F12368491C1E6A26F03F0631431B
:101EF00019626168914210D84900401EB0FBF1F2AE
:101F0000521CC2F30B02042A01D2042022E0B0FBCF
:101F1000F1F0401CC0F30B001CE0A268F2B301EB2F
:101F2000C10303EB0116431EB3FBF6F35B1C43F442
:101F300080431B0549D092B301EBC10202EB0111B2
:101F4000401EB0FBF1F0401CC0F30B0040F4804099
:101F500040F400402168CA694CF6FF739A4310436D
:101F6000C861D4E9071001432068026822F0C0026A
:101F700011430160D4E9030101432068826848F2FB
:101F8000FF339A4311438160D4E905010843216876
:101F9000CA6822F0FF021043C86001E00EE016E0BC
:101FA0002068016841F0010101602564202084F867
:101FB0003D00256384F83E50002070BD01EB4106D2
:101FC000431EB3FBF6F35B1CB3E70120C2E701EB52
:101FD0004101401EB0FBF1F0401CC0F30B00B7E71D
:101FE000A086010080841E0000093D0040420F00D1
:101FF0002DE9FF4F83B00025DDE910799A4693461D
:102000000446DDF848800095FFF728FF064694F85F
:102010003D0020287CD119230122854920460096C5
:1020200001F082FA0028F5D194F83C0001286FD025
:10203000012084F83C0020680168C90703D10168C9
:1020400041F0010101602068016821F40061016034
:10205000222084F83D00402084F83E002564676219
:10206000A4F82A90608D20857248E062CDE9008650
:1020700053465A462046049901F05EF900287DD166
:10208000208DDFF8B491202768B1012814D00228F0
:10209000206801681ED041F48061016020684169B8
:1020A00080690090B6E0206841698169009101680B
:1020B00041F400710160ADE02068016821F48061A5
:1020C000016072B62068416981690091016841F43C
:1020D00000710AE041F40061016072B62068416954
:1020E00081690091016821F48061016062B691E02C
:1020F000032868D801280CD0022843464FF000027C
:102100004946204600960FD001F00EFAB0BB10E011
:102110008BE032464146204601F085FA70BB2068CC
:102120000069616A08706CE001F0FEF930BB72B6BC
:1021300034E02068016821F48061016072B6206893
:102140000069616A0870606A401C6062208D401EF0
:102150002085608D401E6085384846F2A8110068D1
:10216000B0FBF1F0C0EBC00000EB80000090401E1F
:10217000009008D020684069C04300E029E0400793
:102180000CD50098F3E744F8305F6773A5732069B6
:1021900040F02000206162B625731AE020680168D3
:1021A00041F40071016020680069616A0870606A2A
:1021B000401C6062218D491E2185618D491E61850B
:1021C00062B621681BE032464146204601F02BFAF8
:1021D00018B1012007B0BDE8F08F20680069616A7E
:1021E0000870606A401C6062218D491E2185618DE6
:1021F000491E618521684A69D24352070AD4096998
:102200000170606A401C6062208D401E2085608DD8
:10221000401E6085208D00287FF46AAF84F83D70F1
:1022200084F83E5084F83C50D4E70220D2E7000006
:10223000020010000000FFFF040001008C000020DD
:102240002DE9FF4F83B09A46DDE911979346044686
:10225000DDF84080FFF702FE054694F83D00202897
:102260007FD11923012240492046009501F05CF9F5
:10227000002876D194F83C00012872D0012084F81F
:102280003C0020680168C90703D1016841F00101E1
:1022900001602068016821F400610160212084F858
:1022A0003D00402084F83E0000262664C4F82480C7
:1022B000A4F82A90608D20852C48E062CDE9007555
:1022C00053465A462046049901F0B4F870B930E0FC
:1022D0002A463946204601F0D9F958B1206C042825
:1022E00004D12068016841F400710160012007B049
:1022F000BDE8F08F606A216800780861606A401C60
:102300006062218D491E89B22185628D521E6285CF
:1023100022685369DB435B070BD469B10078106115
:10232000606A401C6062208D401E2085608D401ECA
:102330006085208D0028CBD12A463946204601F001
:10234000CDF80028CAD154F83D0B016841F4007162
:102350000160202004F81E09E67766770020C6E7B2
:10236000FFE70220C3E70000020010000000FFFFAB
:1023700010B586B00021009101910291039100688F
:102380000F4988421AD10F4CA06940F00800A061A3
:10239000A069694600F008000490C0200090122057
:1023A0000190032003900848FFF75AFCE06940F4CD
:1023B0000010E061E06900F40010049006B010BD68
:1023C0000054004000100240000C014002488168A7
:1023D000027811448160704780000020074810B5E2
:1023E000016841F010010160032000F075F80F2032
:1023F00000F006F800F024F8002010BD0020024094
:1024000070B50D4D04464FF47A712878B1FBF0F0A9
:102410000A490968B1FBF0F000F062FB48B9102CE2
:1024200007D200222146501E00F036F800206C60D2
:1024300070BD012070BD0000800000208C000020D5
:102440000C4808B5816941F001018161816901F0A1
:1024500001010091C16941F08051C161C06900F082
:10246000805000900448416821F0E06141F0007123
:10247000416008BD0010024000000140002809DB57
:1024800000F01F02012191404009800000F1E0208E
:10249000C0F8001170470000F0B40E4B1B680C46EA
:1024A000C3F30223C3F10705042D00D90425191D28
:1024B000072901D2002300E0DB1E012606FA05F100
:1024C000491E214099409E40761E16403143F0BC83
:1024D00001F0B2BD0CED00E0064900F0070208680B
:1024E0004FF6FF03184040EA0220034A10430860F9
:1024F000704700000CED00E00000FA052DE9F843FC
:1025000005460078354CC00754D0E0690026C0006D
:1025100008D4E06940F08050E061E069012600F0F5
:10252000805000902E480168C90512D40168804689
:1025300041F480710160FFF791FC074605E000BFA0
:10254000FFF78CFCC01B642823D8D8F80000C00516
:10255000F6D5206A10F4407021D0A98801F44071AA
:1025600081421CD0206A1F49012220F440700A6079
:1025700000220A602062C00711D0FFF76FFC0746F7
:1025800041F2883808E000BFFFF768FCC11B4145F5
:1025900002D90320BDE8F883206A8007F4D5206AB9
:1025A000696820F44070084320621EB1E06920F0A1
:1025B0008050E0612878800705D56068A96820F41C
:1025C0004040084360602878C00605D56068E96827
:1025D00020F48000084360600020DBE70010024028
:1025E00000700040400442422DE9F0470F460500CC
:1025F00061D0434E306800F00700B84209D230681D
:1026000020F0070038433060306800F00700B8421F
:1026100051D128683B4C810712D5400703D560682B
:1026200040F4E06060602878000703D5606840F4FB
:10263000605060606068A96820F0F0000843606046
:102640002878C00728D06868012810D0216802289F
:1026500010D0890700292EDA616821F003010143B7
:102660006160FFF7FBFB804641F288390DE021688D
:102670008903EFE78901EDE7FFF7F0FBA0EB080125
:10268000494502D90320BDE8F0876068696800F019
:102690000C00B0EB810FEFD1306800F00700B842BA
:1026A0000BD9306820F0070038433060306800F004
:1026B0000700B84201D00120E5E72878400705D59A
:1026C0006068E96820F4E0600843606028780007EB
:1026D00006D56068296920F4605040EAC100606056
:1026E00000F038F86168084AC1F30311515CC84032
:1026F0000649086006480068FFF782FE0020C2E72E
:102700000020024000100240486200088C000020B7
:10271000840000200448054900684968044AC1F360
:102720000221515CC84070478C000020001002401C
:10273000586200080448054900684968044AC1F322
:10274000C221515CC84070478C000020001002403C
:102750005862000812A185B00FC98DE80F0014A0BF
:10276000144A006804905168134801F00C03042BCC
:1027700010D0082B0ED1C1F38343C9031DF8030009
:102780000AD5516804AAC1F34041515C0A4A50433A
:10279000B0FBF1F005B0704708494843FAE7000084
:1027A00002030405060708090A0B0C0D0E0F101092
:1027B000010200000010024000127A0000093D00F2
:1027C0002DE9F84F040070D02078C04DC00749D0E3
:1027D0006868C0F38100012807D06868C0F38100F1
:1027E000022809D16868C00306D52868800339D556
:1027F00060680028E7D035E06068B0F5803F0BD016
:1028000010B1B0F5A02F11D0286820F480302860D6
:10281000286820F4802002E0286840F48030286096
:10282000606890B1FFF71AFB06460AE0286840F49A
:1028300080202860F0E700BFFFF710FB801B6428B2
:1028400073D828688003F7D50CE0FFF707FB06462E
:1028500005E000BFFFF702FB801B6428F0D8286862
:102860008003F7D420789A4E80074FF001094FF08B
:10287000000839D5686810F00C0F07D06868C0F3FD
:102880008100022809D16868C00306D4286880073F
:1028900014D52069012808D110E02069B0B1C6F82C
:1028A0000090FFF7DBFA074605E00AE1FFF7D6FAEA
:1028B000C01B0228C4D828688007F7D5286861693A
:1028C00020F0F80040EAC10028600DE0C6F8008062
:1028D000FFF7C4FA074604E0FFF7C0FAC01B02285E
:1028E00023D828688007F7D4207800072CD57948AA
:1028F000A169D9B1C0F80090FFF7B0FA074604E02B
:10290000FFF7ACFAC01B02280FD8686A8007F7D51A
:1029100071484FF4FA510068B0FBF1F0009000BF2D
:102920000098411E0091FAD20EE080E0C0F80080CD
:10293000FFF794FA074604E0FFF790FAC01B02285D
:1029400075D8686A8007F7D42078400760D5E869B1
:102950000027C00008D4E86940F08050E861E869C9
:10296000012700F0805000905C480168C90513D42D
:102970000168834641F480710160FFF76FFA824677
:1029800006E000BFFFF76AFAA0EB0A0064284ED801
:10299000DBF80000C005F5D5E06801280AD008B1D1
:1029A000052813D0286A20F001002862286A20F048
:1029B000040002E0286A40F001002862E06841F269
:1029C000883B98B1FFF74AFA82460BE0286A40F04C
:1029D00004002862EEE700BFFFF740FAA0EB0A010F
:1029E00059455AD8286A8007F6D50CE0FFF736FA21
:1029F000824605E0FFF732FAA0EB0A0159454CD8B0
:102A0000286A8007F6D41FB1E86920F08050E86199
:102A1000E06988B36968C1F38101022944D00228C2
:102A2000C6F8608004D0FFF719FA044638E034E0B5
:102A3000FFF714FA074604E0FFF710FAC01B02285C
:102A40002BD828688001F7D4206AB0F5803F05D1E3
:102A50006868A16820F4003008436860D4E9080180
:102A60000843696821F4741108436860C6F86090EF
:102A7000FFF7F4F9044606E025E000BFFFF7EEF9A2
:102A8000001B022809D828688001F7D51BE000BF89
:102A9000FFF7E4F9001B022802D90320BDE8F88FF4
:102AA00028688001F4D40EE00128F7D06868226A13
:102AB00000F48031914204D1616A00F470108842C0
:102AC00001D00120EAE70020E8E700000010024002
:102AD00000004242800442428C000020007000400E
:102AE00010B5401EB0F1807F01D3012010BD4FF022
:102AF000E02460610F21601701F09EFA0020A061C0
:102B000007202061002010BD7047704710B590F875
:102B10003C20012A22D0012280F83C20CA688C681F
:102B200022F4407222434C6822F4806222430C68F3
:102B300022F4006222430C6922F4805222434C6941
:102B400022F400522243C969002322F480420A433E
:102B500001684A6480F83C30002010BD022010BD9E
:102B600070B590F83C20012A26D0012480F83C4022
:102B7000022280F83D2003685A689D6822F07006A2
:102B80000A6832435A600D4B02689A4208D0B2F18B
:102B9000804F05D00A4B9A4202D00A4B9A4204D188
:102BA000496825F080031943916080F83D40002179
:102BB00080F83C10084670BD022070BD002C01401A
:102BC000000400400008004010B5040003D094F851
:102BD0003D0010B107E0012010BD002084F83C004A
:102BE000204600F01FF8022084F83D00211D2068D7
:102BF00001F05AF8012084F8460084F83E0084F879
:102C00003F0084F8400084F8410084F8420084F8D2
:102C1000430084F8440084F8450084F83D00002017
:102C200010BD000008B5274A0168274891420ED11F
:102C3000816941F4006181618069002200F40060D3
:102C4000009011461920FFF727FC192034E0B1F15C
:102C5000804F11D01D4A91421DD1C16941F002013E
:102C6000C161C069002200F00200009001211D2016
:102C7000FFF712FC1D201FE0C16941F00101C16195
:102C8000C069002200F00100009002211C20FFF723
:102C900003FC1C2010E00E4A914211D1C16941F0A1
:102CA0000401C161C069002200F004000090042109
:102CB0001E20FFF7F1FB1E20BDE80840FFF7DEBB3A
:102CC00008BD0000002C014000100240000400403C
:102CD0000008004090F83D10012901D00120704704
:102CE000022180F83D100168CA6842F00102CA6002
:102CF00000680B49884208D0B0F1804F05D00949DF
:102D0000884202D00849884204D1816801F0070155
:102D1000062903D0016841F00101016000207047DD
:102D2000002C0140000400400008004070B504463B
:102D300090F83C00012817D0012584F83C5002206F
:102D400084F83D002068826822F0770222F47F42F6
:102D500082600868502830D00DDC20284DD005DC7A
:102D600098B310283BD148E0022070BD302844D0F1
:102D7000402834D139E0602828D0702806D0B0F53A
:102D8000805F2CD0B0F5005F29D10AE0CB68D1E993
:102D90000121206800F0CBFF2068816841F07701B5
:102DA00009E0CB68D1E90121206800F0C0FF20686C
:102DB000816841F48041816011E0CA6849682068F7
:102DC00001F06AF85021206807E016E0CA684968F7
:102DD000206801F072F86021206800F0B2FF84F8EA
:102DE0003D50002084F83C0070BDCA6849682068E6
:102DF00001F052F840212068EFE7226801461046B2
:102E0000EBE7704770B50446006801694FF00005B4
:102E1000C943890715D4C168C943890711D4E91E7C
:102E2000016101202077206880698007204602D058
:102E3000FFF7E7FF04E000F0BFF8204600F04EF98E
:102E4000257720680169C943490717D4C168C94378
:102E5000490713D46FF00401016102202077206834
:102E6000806910F4407F204602D0FFF7CAFF04E0DB
:102E700000F0A2F8204600F031F9257720680169BA
:102E8000C943090716D4C168C943090712D46FF0B2
:102E900008010161042020772068C069800720466E
:102EA00002D0FFF7AEFF04E000F086F8204600F005
:102EB00015F9257720680169C943C90617D4C16887
:102EC000C943C90613D46FF01001016108202077AF
:102ED0002068C06910F4407F204602D0FFF791FFC0
:102EE00004E000F069F8204600F0F8F82577206843
:102EF0000169C943C90708D1C168C943C90704D1D9
:102F0000891E0161204600F039F920680169C94332
:102F1000090609D4C168C943090605D46FF08001C8
:102F200001612046FFF7F0FD20680169C9434906A9
:102F300009D4C168C943490605D46FF04001016155
:102F4000204600F01CF920680169C94389060BD4AA
:102F5000C168C943890607D46FF02001016120468A
:102F6000BDE87040FFF7D1BD70BD000000B585B071
:102F70000021009101910291039100680B49884260
:102F800012D10B48816941F0040181618069694671
:102F900000F0040004904FF4E060009002200190E3
:102FA00003900448FEF75CFE05B000BD002C014014
:102FB0000010024000080140704770B5044690F8C8
:102FC0003C000D4601280AD0012084F83C0042B1A3
:102FD000042A18D0082A2AD00C2A4DD139E0022020
:102FE00070BD206800F0B6FE2068816941F00801DC
:102FF00081612068816921F0040181612068816913
:103000002A69114311E0206800F0CCFE2068816934
:1030100041F4006181612068816921F480618161EE
:10302000206881692A6941EA0221816124E02068DF
:1030300000F0E4FE2068C16941F00801C161206828
:10304000C16921F00401C1612068C1692A69114385
:1030500011E0206800F0FEFE2068C16941F40061C3
:10306000C1612068C16921F48061C1612068C169C2
:103070002A6941EA0221C161002084F83C0070BD48
:1030800010B5040003D094F83D0010B107E0012012
:1030900010BD002084F83C00204600F01EF80220FD
:1030A00084F83D00211D206800F0FEFD012084F819
:1030B000460084F83E0084F83F0084F8400084F81D
:1030C000410084F8420084F8430084F8440084F806
:1030D000450084F83D00002010BD70477047000097
:1030E00010B50446022249B104290ED0082913D094
:1030F00094F84100012816D0012010BD94F83E003C
:103100000128F9D184F83E200FE094F83F0001280F
:10311000F2D184F83F2008E094F840000128EBD178
:1031200084F8402001E084F841200122206800F06A
:10313000F1FD0F492068884203D1426C42F40042FD
:1031400042642068884208D0B0F1804F05D0094918
:10315000884202D00849884204D1816801F0070101
:10316000062903D0016841F001010160002010BD73
:10317000002C0140000400400008004070477047E8
:1031800070B5040004D094F83D00002510B106E0AD
:10319000012070BD84F83C50204600F023F8242024
:1031A00084F83D002068C16821F40051C1602046C8
:1031B00000F096FE2068016921F4904101612068C9
:1031C000416921F02A0141612068C16841F4005140
:1031D000C1602564202084F83D0084F83E00002072
:1031E00070BD000030B585B00024009401940294B5
:1031F000039400681449884223D11448C16941F4FA
:103200000031C161C16901F400310491816941F06B
:103210000401816180690E4D00F0040004900420D7
:103220000090022001900320039069462846FEF793
:1032300017FD0820CDE90004694628460294FEF7F0
:103240000FFD05B030BD00000044004000100240FA
:10325000000801402DE9F843044690F83D001F4660
:1032600016460D4620284CD1C5B1BEB194F83C009D
:10327000012846D0012084F83C004FF00008C4F833
:103280004080212084F83D00FEF7E8FDA6848146B9
:10329000E684A068B0F5805F03D004E00120BDE8BB
:1032A000F883206928B12E465FF0000584F83C8041
:1032B0000EE00026FAE78021204600F06DFEA0B95E
:1032C000AEB116F8010B21684860E08C401EE08426
:1032D000E08C4B464FF0000200970028EBD14FF0F6
:1032E0004001204600F058FE30B10320D7E735F802
:1032F000020BC0F30800E6E7202084F83D00002020
:10330000CDE70220CBE7FEE701684A69D2435205C8
:103310000FD46FF480624A61002140F8301F2022F0
:1033200042738173026942F0040202610173012059
:1033300070470020704700002DE9F84F04460068F0
:1033400089460B9D01689846174641F480610160EB
:103350002068016841F48071016000954FF0011B05
:103360000022594620460A9B00F0DEF84FF4007A0E
:1033700040B120680068C00501D5C4F840A0032012
:10338000BDE8F88F216809F0FE0008612B46284946
:1033900020460A9A00F0FCF8F0BB20684169806979
:1033A00000902A4620460A9900F070F940B1206C3E
:1033B00004283AD12068016841F40071016034E0CA
:1033C000FEB2B8F1010F09D02168380A08612A4617
:1033D00020460A9900F05AF90028E8D120680661D1
:1033E0002A4620460A9900F051F90028DFD12068CA
:1033F000016841F480710160009500225946204621
:103400000A9B00F091F80028B3D1216809F0FF0071
:1034100040F00100086100E007E02B460449204627
:103420000A9A00F0B5F80028AAD00120A8E7000009
:10343000020001002DE9F843044600680D46DDE96D
:10344000089701689846164641F4807101604B4622
:1034500000224FF001112046009700F065F848B1B6
:1034600020680068C00502D54FF400702064032076
:10347000BDE8F883216805F0FE0008613B464A4636
:103480001549204600F084F888B9206841698069B0
:1034900000903A464946204600F0F8F848B1206CC2
:1034A000042804D12068016841F400710160012002
:1034B000DEE7F5B2B8F1010F09D02168300A0861E2
:1034C0003A464946204600F0E1F80028E7D1206856
:1034D00005610020CCE700000200010070B516462F
:1034E0000D4604460DE02046FFF70EFF08B101200F
:1034F00070BD681C05D0FEF7B1FC801BA84207D840
:1035000035B120684069C0434007ECD4002070BD4D
:10351000002044F8300F20216173A073216941F02D
:10352000200121612073E2E72DE9F0471E46904615
:103530000D460446C1F30747DDF8209008E0701CF3
:1035400006D0FEF78BFCA0EB0900B0420FD876B195
:103550002068012F18D0806925EA00000004000CC3
:1035600014D000214145EAD00020BDE8F0870020BA
:1035700044F8300F20216173A073216941F02001CC
:10358000216120730120F0E74069E5E70121E9E7C7
:103590002DE9F0479A4691460E46044600254FF025
:1035A0002008C1F3074725E020684069C043400573
:1035B00014D42068016841F40071016021686FF43F
:1035C00080604861256384F83D8084F83E50206C1B
:1035D00040F00400206484F83C501FE0B9F1FF3F44
:1035E00008D0FEF73BFCA0EB0A0149450CD8B9F125
:1035F000000F09D02068012F13D0806926EA00004F
:103600000004000C0BD0CFE744F8305F84F80D8045
:10361000A573206940F02000206125730120BDE8DA
:10362000F0874069EAE72DE9F041002590460E4613
:103630000446202717E04069C043C0060CD454F864
:10364000301B6FF01000486144F810596777A57778
:10365000206A2062257717E0FEF700FCA0EB080047
:10366000B04208D83EB120684169C9434906E2D456
:103670000020BDE8F08144F8305F6773A5732069CE
:1036800040F02000206125730120F2E770B5164656
:103690000D4604460DE02046FFF736FE08B1012036
:1036A00070BD681C05D0FEF7D9FB801BA84207D867
:1036B00035B120684069C0430006ECD4002070BDDD
:1036C000002044F8300F20216173A073216941F07C
:1036D000200121612073E2E7FEB500241648009422
:1036E00001941449029401608915816001250573D4
:1036F0000475022606614FF460214460C161FDF744
:10370000E7FC08B1FDF760FC07200094CDE901500B
:1037100069460948FDF75AFC08B1FDF755FCCDE9AB
:10372000005669460448FDF751FC002801D0FDF71A
:103730004BFCFEBD00240140D80000200F4810B50E
:103740000D4901600421416000214FF40022816095
:10375000C0E903124FF4E0024261017641768176BE
:10376000C17601774177FEF709F8002803D0BDE85C
:103770001040FDF729BC10BD006400404C01002042
:10378000094808B5416941F00101416140690022E1
:1037900000F00100009011460B20FEF77DFEBDE811
:1037A00008400B20FEF76ABE001002402DE9F047EA
:1037B00086B00024314800940194029403948169F6
:1037C00041F010018161816901F01001049181696A
:1037D00041F020018161816901F02001049181693A
:1037E00041F004018161816901F004010491816962
:1037F00041F0080181618069DFF8848000F00800F1
:103800004FF400550490002229464046FEF720FB65
:10381000DFF87090002210214846FEF719FBDFF810
:1038200068A0AF00002239465046FEF711FB009514
:10383000022601250396CDE9015469464046FEF76C
:103840000FFA1020CDE90005CDE902466946484649
:10385000FEF706FA00970396CDE9015469465046F3
:10386000FEF7FEF92020CDE9000469465046029497
:10387000FEF7F6F906B0BDE8F08700000010024040
:103880000010014000080140000C01400D4810B537
:103890000B4901600C49416000214FF48042816076
:1038A000C0E9031241618161C1610162FEF7DCFA86
:1038B000002803D0BDE81040FDF786BB10BD000016
:1038C0000054004074010020801A060010B596B024
:1038D00000240F9410941194129413941C216846A0
:1038E0001494FCF736FC202107A8FCF732FC314881
:1038F0002F490160022141602021816040F2DB51AB
:10390000C0E903148021C0E90541FFF75DF908B162
:10391000FDF75AFB4FF480500F900FA92548FFF791
:1039200005FA08B1FDF750FB2248FFF7A9FB08B1E3
:10393000FDF74AFB139413A91E481494FFF710F9DE
:1039400008B1FDF741FB6020CDE900040294039427
:10395000049405940022694616480694FFF72DFB4F
:1039600008B1FDF731FB042269461248FFF725FB39
:1039700008B1FDF729FB082269460E48FFF71DFB39
:1039800008B1FDF721FB0794089409944FF4005007
:103990000A94CDE90B4007A906480E94FFF7B6F844
:1039A00008B1FDF711FB0348FFF7E0FA16B010BDB0
:1039B000002C0140C801002010B586B00024164834
:1039C000009401940294039404944FF08041059470
:1039D000016040F22B11C0E90114EF21C0E903148A
:1039E0008461FFF7F1F808B1FDF7EEFA4FF480506B
:1039F000009069460848FFF799F908B1FDF7E4FA25
:103A0000049404A904480594FFF7AAF8002801D0FB
:103A1000FDF7DAFA06B010BD1002002010B586B02E
:103A200000241648009401940294039404941249CB
:103A3000059401609F21C0E901144721C0E90314E6
:103A40008461FFF7C1F808B1FDF7BEFA4FF480506A
:103A5000009069460948FFF769F908B1FDF7B4FA23
:103A6000049404A905480594FFF77AF8002801D0CA
:103A7000FDF7AAFA06B010BD00040040580200206D
:103A800010B586B000241648009401940294039463
:103A900004941249059401609F21C0E901148F210B
:103AA000C0E903148461FFF78FF808B1FDF78CFAC1
:103AB0004FF48050009069460948FFF737F908B184
:103AC000FDF782FA049404A905480594FFF748F825
:103AD000002801D0FDF778FA06B010BD00080040BC
:103AE000A00200200C4810B50A4901604FF4E131F2
:103AF0004160002181600C22C160C0E90412816133
:103B0000C161FFF73DFB002803D0BDE81040FDF781
:103B10005BBA10BD00440040E8020020FEE7FEE76B
:103B200070477047FEF752BC30B593B02821684605
:103B3000FCF70FFB14210AA8FCF70BFB0025012062
:103B40000F9510951195010412958DE823000490AE
:103B50004FF4E010CDE90810022407946846FEF700
:103B60002FFE08B172B6FEE70AA90F2081E83100E6
:103B70004FF48060CDE90D0502210AA8FEF734FD5F
:103B800008B172B6FEE74FF4004011900F940FA8F1
:103B9000FEF7B4FC002801D072B6FEE713B030BDCA
:103BA0007047000010B50448FFF72CF9034800687F
:103BB000BDE81040FDF74EB8C801002048000020C5
:103BC00010B50548FFF71EF904480168044800686D
:103BD000BDE8104000F09ABE10020020480000200E
:103BE0004000002070B50E48FFF70CF90D4C20681E
:103BF0004269016A0C48006801F0E8FA0B4DA860C0
:103C000020688269416A0A48006801F0DFFA0146CB
:103C1000E86020684268A868BDE8704000F010BF06
:103C200058020020480000205800002070000020AA
:103C30005400002010B51548FFF7E4F81448154962
:103C400000684A68406C104448601349FCF79EFEC7
:103C5000FCF7A4FE01464FF40010FCF797FE0F4C52
:103C600000F580002168C8620A6801460C480068B7
:103C700001F0ACFA2268014690620A489268006836
:103C800001F0A4FA2168086210BD0000A002002023
:103C90004400002070000020DA0FC9004800002016
:103CA0004C00002050000020F0B50268164B174C65
:103CB000174D4FF08047984205D0B84203D0A0423C
:103CC00001D0A84203D122F070064A6832439842DC
:103CD00005D0B84203D0A04201D0A84203D122F4BB
:103CE0004074CA6822434C6922F080022243026079
:103CF0008A68C2620A688262984201D109690163D6
:103D000001214161F0BD0000002C01400004004091
:103D10000008004010B501F01F030121046A99401A
:103D20008C430462016A9A401143016210BD10B5D0
:103D3000846842EA032224F47F440A4322438260D7
:103D400010BD826822F070020A4342F007018160D0
:103D50007047000030B5026A22F001020262026A76
:103D60004368846924F073050C682C4322F0020533
:103D70008A682A430A4DA8420BD122F00805CA6876
:103D800023F440732A434D6922F004021D438B69DA
:103D90002B434360846149684163026230BD000087
:103DA000002C014030B5026A22F010020262026A61
:103DB000436884690D6824F4E64444EA05248D6868
:103DC00022F0200242EA05120B4DA8420ED1CD6826
:103DD00022F0800242EA05124D6923F4406343EA6F
:103DE00085038D6922F0400243EA850343608461C4
:103DF00049688163026230BD002C014030B5026A1F
:103E000022F480720262036A4268C46923F4007378
:103E100024F073050C682C438D6843EA05230C4D90
:103E2000A8420ED1CD6823F4006343EA05234D690F
:103E300022F4405242EA05128D6923F4806342EA7B
:103E400005124260C4614968C163036230BD00006D
:103E5000002C014030B5026A22F480520262046AEA
:103E60004268C3690D6823F4E64343EA05238D687D
:103E700024F4005444EA0534064DA84204D14D69A7
:103E800022F4804242EA85124260C36149680164BB
:103E9000046230BD002C014010B5036A046A24F0AE
:103EA00001040462846924F0F00444EA021423F05B
:103EB0000A020A438461026210BD10B5036A23F04E
:103EC000100303628369046A23F4704343EA0232F5
:103ED00024F0A00343EA01118261016210BD0000D9
:103EE00070B5044600680169E26821F4405111434D
:103EF00001612169A0680843616908432168CA68B3
:103F000041F20C639A430243CA6020684169A26986
:103F100021F44071114341611E492068884202D159
:103F2000FEF708FC01E0FEF7F5FB00EBC00101EB3A
:103F30000012606864218000B2FBF0F3B3FBF1F380
:103F40006FF018067343B2FBF0F5B2FBF0F605EB29
:103F50008305322303EB0515B5FBF1F5B6FBF1F64E
:103F600005F0F00505EB0615B2FBF0F6B2FBF0F03C
:103F7000B0FBF1F06FF01802504306EB800003EB4A
:103F80000010B0FBF1F0216800F00F0028448860B9
:103F900070BD0000003801402DE9F04198461746F9
:103FA0000E460446069D1DE0681C1BD02DB1FDF792
:103FB00055FFA0EB0800A84214D92068C16821F47D
:103FC000D071C1602068416921F001014161202068
:103FD00084F83D0084F83E00002084F83C00032073
:103FE000BDE8F0812068006836EA000004D00020B7
:103FF000B842D9D00020F3E70120F9E70148FDF7E6
:10400000BFBA00004C0100200148FDF7B9BA00001A
:104010004C010020FEE700000FB4054B10B503A9CA
:10402000044A029800F0DAF810BC5DF814FB0000B6
:10403000614E0008900000200907090E002804DBEB
:1040400000F1E02080F80014704700F00F0000F14C
:10405000E02080F8141D704702E008C8121F08C154
:10406000002AFAD170477047002001E001C1121FF9
:10407000002AFBD1704700002DE9FF5FDDE9022037
:10408000010DDDF838B0024318D044F61050A1F20B
:10409000FF3141430D140F98012820D0A5EB0B00F0
:1040A000401C5FEA000A4FF00004474EDFF81C9105
:1040B000A046504616D5CAF1000728E00F98012403
:1040C00043A2012808D0002100980F9BC0E90021DD
:1040D000C0E90243BDE8FF9F6FEA0B01F4E7CBF1B3
:1040E0000000DEE7074612E0F80707D02246334615
:1040F00040464946FCF746F8804689462246334604
:1041000010461946FCF73EF804460E467F10002F75
:10411000EAD1DDE90201BAF1000F42464B4602DA6C
:10412000FCF730F801E0FCF780FA04460E46002266
:10413000284BFCF701FB03D84FF0FF30014607E0A6
:104140000022254B20463146FCF7C8F9FCF7DCFA83
:10415000102409E0002C0ADB0A220023FCF7F9F8FE
:10416000019B30321A55641E50EA0102F2D1641CE0
:10417000019AC4F1110314440F9A012A03D00122B9
:1041800008430DD10AE0084304D000204FF0110B82
:104190000F9080E7A3EB0B056D1E0DE05B4504DD82
:1041A0004FF0000205F1010504E003DA4FF00002D0
:1041B000A5F10105002AECD000980F99C0E9023161
:1041C000C0E9004586E70000000024400000F03F01
:1041D000300000000000F0430000E03F2DE9FF4FF9
:1041E00095B09B468946064600250FE2252877D1E3
:1041F00000242746F84A0121059400E0044316F8FC
:10420000013F203B01FA03F01042F7D130782A2811
:1042100011D06FF02F033078A0F13002092A16D8A0
:10422000059A44F0020402EB820203EB42021044BE
:10423000761C0590EFE759F8042B0592002A03DA63
:10424000504244F40054059044F00204761C307847
:104250002E2816D116F8010F44F004042A280DD098
:104260006FF02F023078A0F13003092B09D807EB4B
:10427000870302EB4303C718761CF3E759F8047B66
:10428000761C30786C280FD006DC4C2817D06828B4
:104290000DD06A2814D104E0742810D07A280FD1E8
:1042A0000DE044F400140AE044F4801401E044F406
:1042B00040147278824202D104F58014761C761C78
:1042C000307866280BD013DC582877D009DC00281A
:1042D00075D04528F6D04628F4D047281AD19DE15C
:1042E00018E0632835D0642879D0652812D195E18B
:1042F000702873D008DC6728F1D069286FD06E2849
:104300000DD06F2806D1B5E073282CD0752875D054
:10431000782874D05A46179990476D1C75E1C4F3FC
:104320000250022809D003280DD0D9F80010042823
:104330000DD00D6009F1040967E1D9F80010EA1702
:10434000C1E90052F6E7D9F800100D80F2E70D70D0
:10435000F0E719F8041B8DF8001000208DF801001B
:10436000EA46012003E059F804AB4FF0FF30610743
:104370004FF0000102D40DE008F101018846B94276
:104380000FDA8045F8DB1AF808100029F4D108E0AC
:1043900008F1010188468142FADB1AF80810002969
:1043A000F6D105985B46A0EB080721463846179AD8
:1043B00000F094FA284400EB080507E04DE029E1FD
:1043C0000DE01AF8010B5A4617999047B8F1010809
:1043D000F7D25B4621463846179A13E142E00A229B
:1043E0000092C4F302524FF0000A022A08D059F892
:1043F00004CB032A4FEAEC710AD00DE029E02AE051
:1044000009F1070121F00702F2E802C1914609E033
:104410000FFA8CFC4FEAEC71042A03D14FFA8CFCA2
:104420004FEAEC71002907DA0A460021DCF1000CA2
:1044300061EB02012D2202E0220504D52B228DF82A
:104440000420012203E0E20701D02022F7E7904692
:1044500059E00A2102E010220DE010214FF0000A7D
:1044600000910BE010224FF0000A44F004040827EA
:10447000009203E008224FF0000A0092C4F30252B7
:10448000022A05D059F804CB0021032A08D009E0FC
:1044900009F1070121F00702F2E802C1914605E0A7
:1044A0001FFA8CFC042A01D10CF0FF0C4FF000081D
:1044B000220728D5702806D0009B83F0100353EA0A
:1044C0000A0305D00EE040228DF80420012208E006
:1044D0005CEA010206D030228DF804208DF8050038
:1044E00002229046009B83F0080353EA0A030AD194
:1044F0005CEA010201D1620705D530228DF8042063
:104500004FF001087F1E582804D034A003900EA855
:1045100002900DE036A0F9E753466046009AFBF79B
:1045200018FF84460398825C0298401E0290027035
:104530005CEA0100F0D1029806A9081A00F1200AED
:10454000600702D524F4803400E00127574502DDDE
:10455000A7EB0A0000E0002000EB0A01009005989C
:104560004144401A0590E00306D45B462146179A61
:10457000059800F0B3F90544002706E001A85A4663
:10458000C05D179990476D1C7F1C4745F6DBE00323
:104590000CD55B462146179A059800F09FF9054413
:1045A00004E030205A46179990476D1C0099481E28
:1045B00000900029F5DC08E0029802995A4600783C
:1045C000491C0291179990476D1CBAF10001AAF19C
:1045D000010AF1DC65E100000928010030313233C5
:1045E000343536373839616263646566000000002F
:1045F0003031323334353637383941424344454619
:104600000000000000F058F90544761C30780028BE
:104610007FF4ECAD19B02846BDE8F08F620700D4F6
:10462000062709F1070222F0070CFCE80223E14605
:1046300003F000485FEA080C02D00FF2702C0DE086
:104640005FEA045C02D50FF2682C07E05FEAC47CE5
:1046500002D00FF2602C01E0AFF2700C4FF0FF3887
:1046600023F00043CDF850C065280CD006DC452867
:1046700009D046281DD047283DD13DE0662818D0F6
:1046800067287ED138E00021112F01DB112000E0E6
:10469000781CCDE9000106A90EA8FFF7EDFCDDE9C5
:1046A0000F010E9A03910021009207F1010A049173
:1046B0004DE04FF000400097CDE9011006A90EA88B
:1046C000FFF7DAFCDDE90F0203920E9B119900223D
:1046D000DDF80CA00093049211B9791C00EB010ADB
:1046E000B7EB0A0004D4C0F1FF3007F1010A0490CF
:1046F000AAEB0700019044E0012F00DA0127002116
:10470000112F01DD112000E03846CDE9000106A996
:104710000EA8FFF7B1FCDDE90F010E9A039100210D
:1047200004910092BA4621070CD40399514500DA4E
:104730008A46BAF1010F05DD009AAAF10101515C28
:10474000302908D0B84202DA10F1040F06DA01214C
:10475000CDE9011015E0AAF10101E9E7002805DC27
:10476000049901440491AAEB000102E0411C514567
:1047700000DD8A460499401A401C01904FF0004029
:104780000290200704D40198504501DBCDF8048045
:1047900000208DF84F0002980DF14F07B0F1004F47
:1047A00025D02B200E9002984FF0020800280CDA3A
:1047B000404202902D200E9007E00A210298FBF75C
:1047C000B2FD3031029007F8011DB8F10001A8F1E7
:1047D0000108F2DC02980028EFD1791E0E980870CB
:1047E000307800F0200040F0450007F8020D12A8D4
:1047F000C01B00F107081498007800B1012000EBFD
:104800000A01019801EBE07105984144401A401EED
:104810000590E00306D45B462146179A059800F000
:104820005DF805441498007818B15A4617999047D6
:104830006D1CE00324D55B462146179A059800F0CD
:104840004DF805441CE00498002807DBDDE903016E
:10485000884203DD0098405C179901E017993020E9
:104860005A469047049805F10105401C04900198B0
:10487000401E019004D12E205A46179990476D1C76
:10488000BAF10001AAF1010ADDDC05E017F8010B1D
:104890005A46179990476D1CB8F10001A8F101081C
:1048A000F4DC5B462146179A0598ABE62D00000024
:1048B0002B000000200000002DE9F04104460025F7
:1048C0001E461746880404D405E039462020B04728
:1048D0006D1C641EF9D52846BDE8F0812DE9F04134
:1048E000044600251E469046C80301D5302700E047
:1048F0002027880404D505E041463846B0476D1CA2
:10490000641EF9D52846BDE8F08100007FB50C464D
:1049100000210391022203A983688DE80E0000683C
:1049200001230E226C21FDF763FB0546BDF80C0048
:1049300040BA208600F034FA206000F079F8606018
:10494000208EB4F84C10401A4FF47A7148436063DB
:1049500000F03AFA0146A0600648006800F070FADC
:10496000A0602068E061208EA4F84C0004B02846C6
:1049700070BD00005C00002038B50446806808B9AE
:104980000A20A060A17B012001B9A073E17B01B9DD
:10499000E073217C01B92074617C01B96074A17C51
:1049A00001B9A074E17C01B9E074217D01B92075E1
:1049B000607D08B902206075E17B2046FCF723FA90
:1049C00068BB217C2046FCF7FAF940BBA27C617CE5
:1049D0002046FCF73CFA10BBE17C2046FCF776FA57
:1049E000E8B9217D2046FCF7A5F9C0B9617D2046D4
:1049F000FCF790FA98B92046FCF79CFA78B90020A9
:104A00008DF8000069462046FCF788F938B99DF812
:104A10000000810603D5010701D4C00601D501209D
:104A200038BD002038BD18210120FBF79DBB0000D8
:104A3000024909684968FBF7A9BF0000440000204B
:104A40002DE9F0410F46061E01DD894801E0884846
:104A5000404215182846FBF70BFF01463846FBF786
:104A600095FF04462846FBF799FF01463046FBF7C1
:104A70008DFF201A7F4C20632846FBF78FFF0146ED
:104A80003846FBF783FF07462846FBF7F1FE014651
:104A90003046FBF77BFF38446063216B0846FBF729
:104AA00075FF616B06460846FBF770FF3044FBF765
:104AB000B9FF7149A060884202DC4942884200DAAD
:104AC000A160DFF8B88128464146FBF717FFC0F325
:104AD00007500621B0FBF1F201FB1200401C2070D0
:104AE000FBF7E2FB664A674BFBF74CFB1422FBF734
:104AF000BBFBFBF7E6FB401BFBF750FF624F064694
:104B00003846A168FBF742FF3146FBF73FFF2061C3
:104B1000207841460005A0F58010FBF737FF281AE2
:104B2000FBF73CFF05463846A168FBF72FFF2946F7
:104B3000FBF72CFF606121694FF40025C1F580115E
:104B4000091AE1602078072879D2DFE800F08D04A7
:104B500012475A6579002846FBF718FFD4E904127A
:104B600011440844A0612846E168FBF70FFF616922
:104B70000CE02846FBF70AFF21690844A06128469B
:104B8000E168FBF703FFD4E9041211440844E06133
:104B90002846E168FBF7FAFE3C4D20622868016870
:104BA000A069FBF7F3FE0015606228680168E06900
:104BB000FBF7ECFE0015A06228680168206AFBF78D
:104BC000E5FE01153248E162626A03685A630368D0
:104BD000A26A9A630068C163BDE8F0812846FBF7CA
:104BE000D5FEA0612846E168FBF7D0FED4E90412A7
:104BF00011440844E0612846E168FBF7C7FE61699B
:104C000030E02846FBF7C2FEA0612846E168FBF7CA
:104C1000BDFE2169084409E02846FBF7B7FE61693B
:104C20000844A0612846E168FBF7B0FEE061284631
:104C3000E168FBF7ABFED4E90412114412E013E083
:104C40002846FBF7A3FED4E9041211440844A061EE
:104C50002846E168FBF79AFEE0612846E168FBF729
:104C600095FE2169084497E70020A061E06193E781
:104C7000FB21190000000020D33C090052C11000A4
:104C800040AF2D3852C1F03F7AB61B0044000020DF
:104C9000C801002070B50446384820604FF4836096
:104CA000A0634FF460000025C4E901054FF00060E7
:104CB0002061E0603248E0616FF03E026261A26113
:104CC0004122E26304F120034FF0487042F6F501FF
:104CD00040F2996283E80700FBF758FE4FF4001694
:104CE0003146FBF753FE0146E069FBF707FE404201
:104CF000E062D4E90801FBF749FEE168FBF746FEF4
:104D0000E169FBF7FBFD20633146E068FBF7F6FD48
:104D10006063A720206440F24F1060644FF4A0103D
:104D2000C4E912054FF4F0202065606541F233308C
:104D3000A0654FF440407111C4E91701606647F265
:104D400033304FF4C811C4E91A012067F0116067CD
:104D500042F26660C4E91E0541F69910C4F880006D
:104D60004010C4F884004FF0A070C4F88800880197
:104D7000C4F88C00C4F8900070BD00000000C05D55
:104D8000CCCC340094210120FBF7EEB9034909682B
:104D9000CA6A896A01FB00207047000044000020B5
:104DA00010B5074C21688968C1EBC0300549FBF795
:104DB00057FD21680969FBF70BFD400110BD00009C
:104DC000440000203F24030010B5FBF764FAFBF712
:104DD00097FA6FF00B02FBF747FA054A054BFBF712
:104DE000D1F91422FBF740FABDE81040FBF769BA8D
:104DF000EA2E4454FB2119402DE9F04104461746A0
:104E00000C48FBF7C3FD01464FF48010FBF776FD1D
:104E10000646BD1929463846FBF770FD2060294635
:104E20003046FBF76BFD60600020A060E060BDE8ED
:104E3000F0810000ED87640010210120FBF794B998
:104E400070B504468068E0602068FBF79FFD05466A
:104E5000E1686068FBF79AFD2844A06070BD00001F
:104E600013B54FF6FF73012269460248FEF7F2F9C7
:104E700000981CBDE80200208CB0FFF7D4FD8A4CDE
:104E80008B4D8A492060C0E9001510218181FFF710
:104E900079FF606000F07CF9A06000F092F9E060BA
:104EA00000F08FF9206100F08CF9A06100F089F921
:104EB0006061FFF7C1FFE061FFF7BEFF2062FFF70F
:104EC000BBFF60622068FFF757FD6068FFF7E2FEF6
:104ED000A06800F04FF96068D0E91412CDE9001223
:104EE000D0E91212436CE06800F056F96068D0E92E
:104EF0001812CDE90012D0E91612436C206900F0B7
:104F00004BF96068D0E91C12CDE90012D0E91A1201
:104F1000036CA06900F040F96068D0E92012CDE987
:104F2000001250F8403FD0E90E12606900F034F9E9
:104F30006068826BD0F88810E069FFF75DFF6068F9
:104F4000C26BD0F88C10606AFFF756FF6068C26BC6
:104F5000D0F89010206AFFF74FFFFDF73FFAFEF7F9
:104F6000E3FDFEF723FCFEF70BFCFEF7AFFCFEF7BC
:104F7000B9FDFEF7B1FBFEF789FCFEF71DFDFEF75C
:104F80004DFDFEF77DFDFEF7D9FB0122D103494817
:104F9000FCF75EFF002269144748FCF759FF002226
:104FA00010212846FCF754FF102244494448FCF7DE
:104FB00063F900214348FEF793F804214148FEF7C6
:104FC0008FF808213F48FEF78BF800254FF40028A2
:104FD000002211464046FFF733FD0A20FCF72EFE63
:104FE0006D1C052DF4DB4FF47A752846FCF726FE80
:104FF0003448FDF76FFE3448FDF76CFE3348FDF78B
:1050000069FE3348FDF766FE2846FCF717FE314877
:10501000FBF79FFF30480068FBF73AFDFBF770F99C
:105020000490A0688A46006AFBF732FDFBF768F936
:105030008146A0688B464069FBF72AFDFBF760F9C3
:105040000746A0688846806AFBF722FDFBF758F9FF
:105050000546A0680E468068FBF71AFDFBF750F97D
:10506000CDE90201A068C06AFBF712FDFBF748F921
:10507000CDE90001A0680068FBF70AFDFBF740F9E5
:10508000049ACDE90A2A0B4604A9024681E8E00BFE
:1050900012A0FEF7C1FF4FF400510748FCF7D0FE05
:1050A0006420FCF7CBFDB5E7400000207401002030
:1050B00000080140000C014000100140B800002031
:1050C000D8000020C8010020100200205802002053
:1050D000A00200204C01002078000020252E34661C
:1050E0002C20252E34662C20252E34662C20252EAF
:1050F00034662C20252E34662C20252E34662C2058
:10510000252E34660D0A0000F0B50B30154D20F049
:1051100007010024144A0FE003688B420BD38B4233
:1051200005D95E1A43184768C3E9006700E0436881
:10513000136002C004E0021D10680028ECD1204674
:10514000002802D1286808B10020F0BD064A0748AF
:105150001060074A121A22F00702C0E90024012059
:105160002860D7E798000020940000203403002036
:10517000301300200821C1870021A0F840104FF40F
:1051800000424264A0F8482040F8201F4160704768
:1051900050210120FAF7E8BF30B5DDE9034544614D
:1051A000C0E9001261420161C0E9075369428161AF
:1051B00000218160C1608162C162016341638163DA
:1051C00030BD3C210120FAF7CFBF000070B5044686
:1051D0001B4D16464811A0EB661169602068FBF76D
:1051E0003FFB6062606841014FF40020FBF7CEFB9B
:1051F000216AFBF7CBFBE16A6A6811440C22FBF7DA
:1052000059FCA16A0844A062E169884202DCA169F4
:10521000884200DAA16200202063D4E90901084431
:10522000A0636169884202DC2169884200DAA163D7
:105230006868E06270116063A06B400170BD00009F
:1052400000000020D356EEB47037C1B4BF3994B417
:10525000955D67B4CAA23AB434090EB4AA90E1B31A
:105260000339B5B3160289B3BDEB5CB3CDF530B3EA
:10527000212005B3906AD9B2F4D4ADB2265F82B2D0
:10528000FE0857B257D22BB20BBB00B2F4C2D5B155
:10529000EBE9AAB1CC2F80B1739455B1B8172BB1FB
:1052A00079B900B19179D6B0DC57ACB0355482B041
:1052B0007A6E58B086A62EB036FC04B0686FDBAFAD
:1052C000F9FFB1AFC6AD88AFAD785FAF8B6036AFD9
:1052D0003F650DAFA886E4AEA3C4BBAE101F93AE6E
:1052E000CD956AAEBB2842AEB7D719AEA2A2F1AD3A
:1052F0005B89C9ADC38BA1ADB9A979AD1FE351AD30
:10530000D4372AADBAA702ADB232DBAC9CD8B3AC6D
:105310005A998CACCE7465ACD96A3EAC5E7B17AC46
:105320003EA6F0AB5CEBC9AB9B4AA3ABDCC37CAB4A
:10533000035756ABF30330AB8FCA09ABBBAAE3AA42
:1053400059A4BDAA4EB797AA7EE371AACD284CAA4C
:105350001F8726AA58FE00AA5D8EDBA91337B6A9BF
:105360005FF890A925D26BA94BC446A9B7CE21A955
:105370004DF1FCA8F52BD8A8927EB3A80CE98EA815
:10538000496B6AA82E0546A8A3B621A88E7FFDA763
:10539000D65FD9A76257B5A7186691A7E18B6DA70D
:1053A000A3C849A7461C26A7B18602A7CD07DFA63A
:1053B000819FBBA6B64D98A6531275A641ED51A686
:1053C00068DE2EA6B1E50BA60503E9A54D36C6A5F8
:1053D000717FA3A55BDE80A5F5525EA526DD3BA50A
:1053E000DA7C19A5F931F7A46EFCD4A422DCB2A4AE
:1053F00000D190A4F1DA6EA4E0F94CA4B72D2BA44F
:10540000627609A4C9D3E7A3D945C6A37CCCA4A3DB
:105410009D6783A3281762A306DB40A325B31FA3C0
:105420006F9FFEA2D09FDDA234B4BCA286DC9BA2FB
:10543000B2187BA2A5685AA24ACC39A28E4319A2FF
:105440005DCEF8A1A36CD8A14E1EB8A14AE397A1E6
:1054500083BB77A1E6A657A161A537A1E1B617A145
:1054600052DBF7A0A312D8A0C05CB8A097B998A04F
:10547000152979A029AB59A0C03F3AA0C7E61AA0C8
:105480002EA0FB9FE26BDC9FD049BD9FE9399E9F18
:10549000193C7F9F4F50609F7A76419F89AE229F33
:1054A0006AF8039F0C54E59E5EC1C69E4F40A89EBD
:1054B000CED0899ECA726B9E33264D9EF8EA2E9EF0
:1054C00008C1109E53A8F29DC8A0D49D58AAB69DAD
:1054D000F2C4989D86F07A9D032D5D9D5B7A3F9D79
:1054E0007CD8219D5847049DDEC6E69CFF56C99C8A
:1054F000ABF7AB9CD3A88E9C686A719C593C549CBA
:10550000991E379C17111A9CC513FD9B9426E09B8E
:105510007449C39B577CA69B2EBF899BEB116D9B47
:105520007E74509BD9E6339BEE68179BAFFAFA9ACC
:105530000C9CDE9AF84CC29A640DA69A43DD899AB7
:1055400086BC6D9A1FAB519A01A9359A1DB6199A5E
:1055500066D2FD99CEFDE1994738C699C481AA99D2
:1055600037DA8E9994417399CBB75799D13C3C99CE
:1055700098D02099127305993324EA98EEE3CE98D7
:1055800035B2B398FC8E9898357A7D98D573629829
:10559000CE7B479813922C9898B6119851E9F697BC
:1055A000302ADC972A79C19732D6A6973C418C974E
:1055B0003BBA719723415797E9D53C977F7822975B
:1055C000DB280897F0E6ED96B2B2D396158CB99623
:1055D0000D739F969067859690696B9603795196A7
:1055E000DC95379611C01D9696F70396603CEA95B8
:1055F000628ED09592EDB695E4599D954ED38395E4
:10560000C4596A953BED5095A88D3795013B1E9581
:1056100039F5049546BCEB941D90D294B470B994BE
:10562000005EA094F65787948B5E6E94B671559485
:105630006A913C949EBD239448F60A945C3BF29395
:10564000D18CD9939CEAC093B354A8930CCB8F937D
:105650009D4D77935BDC5E933C774693371E2E938C
:1056600041D115935190FD925C5BE5925932CD92F8
:105670003D15B59200049D9297FE8492F9046D92B7
:105680001B175592F6343D927E5E2592AB930D9298
:1056900072D4F591CB20DE91AC78C6910CDCAE9142
:1056A000E24A979124C57F91C94A6891C7DB50911E
:1056B00017783991AE1F229183D20A918E90F39080
:1056C000C659DC90222EC590980DAE9020F8969089
:1056D000B1ED7F9042EE6890CBF9519043103B9032
:1056E000A1312490DC5D0D90ED94F68FC9D6DF8F4B
:1056F0006A23C98FC67AB28FD5DC9B8F8F49858F7D
:10570000EAC06E8FE042588F67CF418F77662B8F4C
:105710000908158F13B4FE8E8E6AE88E712BD28E17
:10572000B5F6BB8E51CCA58E3EAC8F8E7396798E1E
:10573000E88A638E96894D8E7492378E7CA5218E71
:10574000A4C20B8EE5E9F58D381BE08D9456CA8D09
:10575000F39BB48D4CEB9E8D9744898DCEA7738DB2
:10576000E8145E8DDE8B488DA80C338D40971D8D1F
:105770009D2B088DB8C9F28C8B71DD8C0C23C88CE5
:1057800036DEB28C01A39D8C6571888C5C49738C6C
:10579000DD2A5E8CE315498C660A348C5E081F8C0A
:1057A000C60F0A8C9420F58BC43AE08B4D5ECB8BF0
:1057B000298BB68B50C1A18BBC008D8B6649788B31
:1057C000489B638B59F64E8B945A3A8BF2C7258BC4
:1057D0006C3E118BFBBDFC8A9846E88A3DD8D38A83
:1057E000E472BF8A8516AB8A1BC3968A9D78828A2B
:1057F00007376E8A52FE598A76CE458A6EA7318A5D
:1058000033891D8ABF73098A0B67F5891163E189A2
:10581000CB67CD893275B989408BA589EFA991896C
:1058200039D17D8917016A8984395689797A428903
:10583000EFC32E89E2151B894A70078922D3F388AA
:10584000643EE0880AB2CC880D2EB98868B2A5887B
:10585000153F92880ED47E884D716B88CC1658887F
:1058600085C44488737A318890381E88D5FE0A88AA
:105870003ECDF787C4A3E4876282D1871169BE87D2
:10588000CE57AB87904E9887544D858714547287B6
:10589000C9625F876F794C87FF97398775BE268706
:1058A000CAEC1387FA220187FF60EE86D3A6DB8657
:1058B00071F4C886D349B686F5A6A386D10B918626
:1058C00061787E86A1EC6B868A68598619EC4686DB
:1058D000467734860E0A22866BA40F865746FD85CE
:1058E000CEEFEA85CBA0D8854859C6854019B48546
:1058F000AEE0A1858DAF8F85D9857D858B636B8566
:105900009F48598510354785D8283585F423238548
:105910005E2611851130FF840841ED843E59DB84F9
:10592000AE78C984549FB7842BCDA5842E0294846D
:10593000583E8284A48170840DCC5E848F1D4D847A
:1059400026763B84CBD529847B3C188431AA0684F7
:10595000E81EF5839C9AE383481DD283E7A6C083A3
:105960007537AF83EDCE9D834B6D8C838A127B831D
:10597000A5BE6983987158835F2B4783F5EB358308
:1059800055B324837C811383645602830932F182E8
:105990006714E0827AFDCE823DEDBD82ABE3AC823E
:1059A000C1E09B827AE48A82D1EE7982C3FF688269
:1059B0004B175882653547820D5A36823E852582BF
:1059C000F4B614822CEF0382E02DF3810C73E28194
:1059D000AEBED181BF10C1813D69B08122C89F8117
:1059E0006C2D8F8115997E811B0B6E8178835D8173
:1059F00029024D8129873C8175122C8108A41B81C5
:105A0000E03B0B81F7D9FA80497EEA80D428DA801E
:105A100092D9C9808090B9809A4DA980DC10998074
:105A200043DA8880C9A978806D7F6880285B5880B8
:105A3000F93C4880DB243880CA122880C2061880CE
:105A4000C000088000000000C60FC900101F9201AE
:105A5000622D5B02403A24032D45ED03AF4DB604A1
:105A600048537F057E554806D3531107CC4DDA07BE
:105A7000EE42A308BB326C09B81C350A6900FE0A65
:105A800053DDC60BF9B28F0CDF80580D8946210E0D
:105A90007D03EA0E3DB7B20F4E617B103501441114
:105AA00075960C129320D512139F9D1379116614CD
:105AB0004A772E150BD0F6153E1BBF166A5887176E
:105AC00013874F18BCA61719EBB6DF1924B7A71A0E
:105AD000ECA66F1BC885371C3B53FF1CCC0EC71DA3
