:020000040800F2
:10000000302E002001010008C33D0008873500089C
:10001000C13D0008CD0D000821440008000000008B
:10002000000000000000000000000000F13E000899
:100030005F0E000800000000C53D0008F33E000808
:100040001B0100081B0100081B0100081B01000820
:100050001B0100081B0100081B0100081B01000810
:100060001B0100081B0100081B010008290E0008E5
:100070001B0100081B0100081B0100081B010008F0
:100080001B0100081B0100081B01000809440008AF
:10009000154400081B0100081B010008610E000840
:1000A0001B010008713F00081B0100081B0100082C
:1000B0008D3F0008B53F00084D4000081B010008B7
:1000C0001B0100081B0100081B0100081B010008A0
:1000D0001B0100081B0100081B0100081B01000890
:1000E0001B0100081B0100081B010008DFF80CD0F1
:1000F00000F072FA004800473D510008302E002001
:100100000648804706480047FEE7FEE7FEE7FEE7B1
:10011000FEE7FEE7FEE7FEE7FEE7FEE76F3F0008CB
:10012000ED000008202A04DB203A21FA02F0002129
:10013000704721FA02F3D040C2F1200291400843F7
:1001400019467047D2B201E000F8012B491EFBD2DC
:1001500070470022F6E710B513460A4604461946D2
:10016000FFF7F0FF204610BD10B54843044605F0E8
:1001700095F8002805D00021002C02D0641E0155FE
:10018000FAE710BDF0B480EA0102D40F4200B2EBEE
:10019000410F02D20246084611464A0042D0C30D22
:1001A000DDB2C1F3C752AD1A202D35DAC1F3160105
:1001B00041F4000204B15242C5F1200602FA06F1F0
:1001C0002A411044B3EBD05F23D0C4B1012DA0EB82
:1001D000C35009DCF0BC4FF0004202EAC352DBB26C
:1001E00000F5000000F06DB9400000F1807000EBF8
:1001F000C350A0F1807040EAD170490009E049087D
:1002000041EAC071A0EBC35000F50000400800EBCC
:10021000C350F0BC00F04CB96142012202EB410135
:10022000001BF6E7F0BC704781F00041AAE780F0C0
:100230000040A7E730B480EA010202F0004530F048
:10024000004221F0004013D090B1C30DD40DC2F391
:100250001601C0F31600E41A41F4000140F4000254
:100260007D34914201D3641C00E04900002C02DA85
:1002700030BC002070474FF400000023914201D3AE
:10028000891A034340084FEA4101F7D151B1914225
:1002900002D14FF0004105E002D24FF0010101E030
:1002A0006FF0010103EBC450284430BC00F000B9EA
:1002B0002DE9FE4F81EA030404F0004421F00041DF
:1002C00000944FF0000B23F0004350EA01045ED08D
:1002D00052EA03045BD0C3F30A54C1F30A552C4419
:1002E000A4F2F3340194A0FB0254C1F3130141F4CE
:1002F0008011C3F3130343F4801301FB024400FB9A
:10030000034E840A970A44EA815447EA8357A4FBC0
:10031000076802958D0A05FB07854FEA932C04FBBD
:100320000C542705029D4FEA065847EA1637B5EBED
:1003300008056EEB070C870E920E47EA811742EA1A
:100340008312A7FB0201B6EB0B0164EB00042B0D3B
:1003500043EA0C335E1844EB1C50DA465146E7FB87
:100360000201C5F313044FEA0B3343EA14534FEA77
:100370000432019C43EA0603A4F10C040294009C9D
:10038000CDE900B400F0DAF803B0BDE8F08F00204A
:100390000146F9E770B521F0004303430CD0C1F3E7
:1003A0000A550024D5EB040564EB0403D617AD1AF7
:1003B000B34102DB0020014670BD201841EB025121
:1003C00070BDC10F80EAE0700844CA07962300217F
:1003D00000F077B80EB540F2334102910021CDE92B
:1003E00000110A460B4600F0A9F803B000BD00F06A
:1003F000004220F00040C10DC0F3160040F40000A0
:100400007F2901DA00207047962903DCC1F19601AB
:10041000C84001E096398840002AF4D04042704735
:1004200070B5C1F30A5201F000450024C1F3130175
:1004300040F2FF3341F480119A4201DA002070BD8E
:1004400040F233439A42A2F2334203DC5242FFF7B6
:1004500069FE00E090402C43F1D0404270BD00F0B6
:10046000004230F000400AD0C10D01F56071C0F3C8
:10047000160042EA0151C2084007114370470020AC
:100480000146704730B50B4601460020202201246A
:1004900009E021FA02F59D4205D303FA02F5491B52
:1004A00004FA02F52844151EA2F10102F1DC30BD68
:1004B0000029A8BF7047401C490008BF20F0010078
:1004C000704710B4B0FA80FC00FA0CF050EA010456
:1004D00004BF10BC704749B1CCF1200421FA04F4E8
:1004E00011FA0CF118BF012121430843A3EB0C01C1
:1004F000CB1D4FEA00614FEA102042BF002010BC24
:10050000704700EBC35010440029A4BF10BC7047D3
:10051000401C490008BF20F0010010BC704710B516
:10052000141E73F1000408DA401C41F10001921816
:100530005B411A4301D120F0010010BD2DE9F04DBF
:1005400092469B4611B1B1FA81F202E0B0FA80F214
:100550002032904600F052F804460F4640EA0A0066
:1005600041EA0B0153465A46084313D0114653EA59
:10057000010019D0C8F140025046FFF7D3FD0546EF
:100580000E4650465946424600F038F8084305D01A
:10059000012004E020463946BDE8F08D00200543E7
:1005A00046EAE0762C4337430A986305E40AA0EB59
:1005B00008000022FD0A44EA47540A3002D5002010
:1005C0000146E9E7010510196941DDE9084500190F
:1005D0006941BDE8F04DA2E7064C074D06E0E06832
:1005E00040F0010394E8070098471034AC42F6D37A
:1005F000FFF780FDEC6500080C660008202A04DB8C
:10060000203A00FA02F1002070479140C2F1200325
:1006100020FA03F3194390407047000091F0000F57
:1006200004BF6FF00040704710B54FF0010E90EA24
:10063000010F48BF4FF0000E002848BF404200297C
:1006400048BF4942B0FA80F40F2CA8BF0F2400FA2B
:1006500004F2C4F10F0CB2FBF1F0B0FA80F39C4548
:10066000A4BFCEF1004010BD01FB1022B2FA82F40B
:1006700064450EDAACEB040C02FA04F200FA04F062
:10068000B2FBF1F301FB13221844B2FA82F4644581
:10069000F0DD02FA0CF200FA0CF0B2FBF1F31844B0
:1006A0009EF0000F08BF404210BD000080FB01011A
:1006B0004FEAD03000EB41407047000078B110F0B5
:1006C000004148BF4042B0FA80F3C3F18F0200FA04
:1006D00003F04FEA102062F3DE5041EA0000704759
:1006E000214981FB00104FEAC02000EB515000F17E
:1006F0008040810028BFC0F100404000DFF85CC0AE
:10070000C0F3895109B35CF82120C1F500715CF890
:1007100021304FEA8021DFF848C0A1FB0CC14FEA2D
:1007200011214FF000001044A0FB01C04FEA50001F
:10073000A3EB0000A0FB01C010444FEA500028BF0B
:100740004042C01240F100007047DFF818C0A0FB23
:100750000CC04FEA902028BF40427047D05D00088F
:10076000A2DA0FC937CD0FC9B7C17C5191F0000F84
:1007700004BF6FF00040704710B54FF0010E90EAD3
:10078000010F48BF4FF0000E002848BF404200292B
:1007900048BF4942B0FA80F4142CA8BF142400FAD0
:1007A00004F2C4F1140CB2FBF1F0B0FA80F39C45F2
:1007B000A4BFCEF1004010BD01FB1022B2FA82F4BA
:1007C00064450EDAACEB040C02FA04F200FA04F011
:1007D000B2FBF1F301FB13221844B2FA82F4644530
:1007E000F0DD02FA0CF200FA0CF0B2FBF1F318445F
:1007F0009EF0000F08BF404210BD000080FB0101C9
:100800004FEA105000EB013070470000204981FB97
:1008100000104FEAC02000EB5150810028BFC0F10A
:1008200000404000DFF85CC0C0F3895109B35CF8B8
:100830002120C1F500715CF821304FEA8021DFF8FA
:1008400048C0A1FB0CC14FEA11214FF00000104439
:10085000A0FB01C04FEA5000A3EB0000A0FB01C0C9
:1008600010444FEA500028BF4042C01240F100003F
:100870007047DFF818C0A0FB0CC04FEA902028BFDB
:1008800040427047D05D0008A2DA0FC937CD0FC9CA
:10089000B7C17C51B0FA80F303F01F0242B300FAF3
:1008A00003F000B54FEA9052134951F82210A0FB13
:1008B00001E2A2FB01E2C2F14042A2FB01E14FEAE8
:1008C0004101A0FB01E2A2FB01E2C2F14042A2FB16
:1008D00001E14FEA4101A0FB01E003F10A035B10D3
:1008E00024BF064AA2FB0010D84040F1000000BD22
:1008F0004FF0000070470000D04D000834F304B5FD
:1009000078B110F0004148BF4042B0FA80F3C3F123
:100910008A0200FA03F04FEA102062F3DE5041EA47
:100920000000704780FB0101002A03DA524241FABD
:1009300002F07047202A04DBA2F1200200FA02F044
:10094000704701FA02F1C2F1200220FA02F040EAF7
:100950000100704770B5044600688168C943C90743
:1009600017D1816821F00101816001F09FFB0546EC
:100970000AE000BF01F09AFB401B022804D920685E
:100980008068C043C00706D020688068C043C007A5
:10099000F0D0002070BDA06A40F01000A062E06AB4
:1009A00040F00100E062012070BD10B50146406AD0
:1009B000826A12F0500F05D0006A026BBDE8104049
:1009C00008461047816A41F40071816201688968B4
:1009D000C1F3424107290CD1017B51B9816A21F44D
:1009E00080718162816AC90403D4816A41F0010186
:1009F000816200F031FB10BD10B5406A816A41F0A0
:100A000040018162C16A41F00401C16200F026FB2D
:100A100010BD10B5406A00F020FB10BD10B50022DB
:100A200002280CDA074B002100EB4104491C33F883
:100A3000144008292244F7DBC2F3CF0010BD012087
:100A400010BD00009C0B0020F8B50026044600965F
:100A500000688168C943C9072DD0816841F0010150
:100A60008160164816490068B0FBF1F000E0401EB6
:100A700000900028FBD101F019FB054616E000BFED
:100A800001F014FB401B022810D920688068C04385
:100A9000C0070BD0A06A40F01000A062E06A40F0EE
:100AA0000100E06284F824600120F8BD20688068BD
:100AB000C043C007E4D10020F8BD000018010020A9
:100AC00040420F002DE9F04104460020FFF7A6FF49
:100AD0002B4E2C4D3168B1F89210401A00F5006091
:100AE00028600120FFF79AFF3168B1F89410401A8E
:100AF00000F500606860288880B204F0A5F9E06025
:100B0000A88880B204F0A0F92061E1681E480D4673
:100B1000FFF774FE06461D482169FFF76FFE064485
:100B20006068FFF7DDFD01462846FFF767FE0746D0
:100B30006068FFF76BFE01463046FFF75FFE384402
:100B4000A0616068FFF7CCFD01463046FFF756FE16
:100B500006466068FFF75AFE01462846FFF74EFE3C
:100B6000301A60610A48A169006804F0E5F9A061E3
:100B700008486169006804F0DFF96061BDE8F08150
:100B8000A8000020D8000020D33C0900A77912005B
:100B9000C4000020C80000200EB582680123CDE902
:100BA0000013029200680B226C2101F049FB0EBD7C
:100BB000092940D2DFE801F03F0509131B232B333D
:100BC0003B00817D21F01C0106E0817D21F01801B0
:100BD0008175817D41F00401817500207047817D20
:100BE00021F014018175817D41F00801F4E7817DD8
:100BF00021F010018175817D41F00C01ECE7817DD0
:100C000021F00C018175817D41F01001E4E7817DC7
:100C100021F008018175817D41F01401DCE7817DBF
:100C200021F004018175817D41F01801D4E7817DB7
:100C300041F01C01D0E701207047012907D00229AB
:100C400009D0032911D0042917D001207047C17D94
:100C500021F00C0106E0C17D41F00401C175C17DA8
:100C600021F00801C17500207047C17D21F0040109
:100C7000C175C17D41F00801F4E7C17D41F00C016F
:100C8000F0E7012907D0022909D0032911D004294E
:100C900017D001207047C17D21F0030106E0C17D1E
:100CA00041F00101C175C17D21F00201C175002033
:100CB0007047C17D41F00201C175C17D01F00101A4
:100CC000F4E7C17D41F00301F0E7012904D00229D6
:100CD00006D003291ED10DE0C17D21F0300106E0D0
:100CE000C17D41F01001C175C17D21F02001C175A8
:100CF00000207047C17D01F01001C175C17D41F038
:100D00002001C175012A07D0022A09D0032A0FD079
:100D1000042A15D001207047C17D21F0C001E6E70B
:100D2000C17D41F04001C175C17D21F08001DEE748
:100D3000C17D21F04001C175C17D41F08001D6E740
:100D4000C17D41F0C001D2E7012907D0022909D0B5
:100D5000032911D0042917D001207047817D21F08B
:100D6000030106E0817D41F001018175817D21F063
:100D70000201817500207047817D21F0010181759C
:100D8000817D41F00201F4E7817D41F00301F0E74C
:100D9000012903D0022905D001207047817D21F06F
:100DA000400102E0817D41F04001817500207047E3
:100DB0000EB5022200F1160183688DE80E0000686E
:100DC000012307226C2101F063FB0EBDFEE700004A
:100DD00010B58AB0012200210892CDE90521044610
:100DE000104807920491006890F890200991D01C57
:100DF000C0F341000090D043C007000C01900320D5
:100E000002904FF4004003906946204600F0F8FA43
:100E1000204600F07DFE0221204600F07BFA0AB059
:100E200010BD0000A8000020014800F0A5BE000091
:100E3000EC0B002030B590F840500124AC40C56B5D
:100E40006C60046863604368102B036803D099608A
:100E50000068C26030BD9A600068C16030BD7047F4
:100E6000202001F015B872B6FEE70000064A002106
:100E7000D16106490A6942F002020A6148610869C3
:100E800040F0400008617047100E00200020024032
:100E9000044B0022DA61044A136943F00103136131
:100EA00001807047100E00200020024014480022EC
:100EB000C168CB06134904D5CA6942F00202CA616F
:100EC0001022C3685B0705D5CB6943F00103CB61F2
:100ED00042F00402C369DB0707D0CB6943F0040387
:100EE000CB61C16921F00101C161A2F580710139B5
:100EF00001D0C2607047C16921F00101C161704732
:100F000000200240100E002070B5054601F0CEF81A
:100F10000646114C09E0681C07D025B101F0C6F85F
:100F2000801BA84201D9032070BDE068C007F2D140
:100F3000E068800601D52020E060E068C00605D4A6
:100F4000E069C00702D1E068400703D5FFF7AEFFB4
:100F5000012070BD002070BD00200240F8B50024C3
:100F6000009490F824202546012A12D0012280F80E
:100F700024204A681F23072A0DD20668776B521E69
:100F800002EB820293409F430B6893401F437763B9
:100F900019E00220F8BD06680D2A0AD2376BD21F6D
:100FA00002EB820293409F430B6893401F433763D9
:100FB00009E0F76A0D3A02EB820293409F430B6807
:100FC00093401F43F7620A68072306680A2A0AD378
:100FD000F7680A3A02EB420293409F438B689340C2
:100FE0001F43F76008E0376902EB420293409F43DA
:100FF0008B6893401F4337610A68102A01D0112A79
:1010000020D1124B02689A4217D193681B0219D45F
:10101000936843F4000393600968102912D10C49C6
:101020000C4A0968B1FBF2F101EB8101490000E0D3
:10103000491E00910029FBD104E0816A41F02001A2
:101040008162012480F824502046F8BD002401402C
:101050001801002040420F007047704770470000A1
:101060002DE9F0414FF0000704003D467ED0A06A14
:10107000002628B9E66284F82460204600F07EF855
:101080002046FFF767FCA16A01F01001014304D07C
:10109000A06A40F01000A06268E0A16A21F48851C3
:1010A00041F00201A1626268E169237B0A4347EAD9
:1010B00043010A43A1684FF48077B94208D001295F
:1010C00006D0002194F814C0BCF1010F02D00AE050
:1010D0003946F7E7F3B1A36A43F02003A362E36A5A
:1010E00043F00103E3622368D3F804C02CF4694C95
:1010F0004CEA010CC3F804C023689968DFF870C09B
:1011000001EA0C0111439960A168B9420BD0012991
:1011100009D00CE0DFF85CC0A3690CEB43330B4350
:1011200043F40061DFE7218A0D05A5F580152168EC
:10113000CB6A23F470032B43CB62216889680E4B82
:101140001940914208D1E662A16A21F0020141F002
:101150000101A162BDE8F081A06A20F0020040F028
:101160001000A062E06A40F00100E0620120F1E7B7
:10117000FDF7E1FF00E0FFFFFE0E1FFF70B586B038
:1011800000250646009501950295039500681949CA
:1011900088422DD11849886940F4007088618869B7
:1011A00000F400700490886940F004008861886948
:1011B000694600F0040004900320009001900F485D
:1011C00000F072FE0F4C0E48C4E900058020C4E90F
:1011D000025040002061800060612020C4E90605C3
:1011E000204600F073FD08B1FFF73DFE34626662F1
:1011F00006B070BD0024014000100240000801400C
:1012000008000240EC0B00202DE9F0478946044617
:101210003B4900683B4F0E1D9046884201D0B842C2
:1012200007D1306810F4702F03D001252846BDE89F
:10123000F08794F8240001280CD0012084F82400C1
:101240002046FFF701FC05004FF0000004D084F8B1
:101250002400EBE70220EAE7A16A40F6016291432D
:1012600041F48071A1622168B94218D1326812F448
:10127000702F14D0A16A41F48011A1623168490530
:1012800005D5A16A21F4005141F48051A162A16AFF
:10129000C9040AD5E16A21F00601E16206E0A26A0A
:1012A00022F48012A2624968E9E7E06284F824002F
:1012B000216A15488862216A1448C862216A144864
:1012C000086321686FF0020008602068816841F4BB
:1012D00080718160216843464A464C31206A00F0A3
:1012E00023FD20688168C1F342410729816803D04A
:1012F00041F48011816099E741F4A001FAE7000010
:101300000024014000280140AB090008130A00082E
:10131000F909000890F82020012A07D0022A05D0F8
:10132000416A41F4802141620120704700684269AE
:101330000A43426100207047F0B590F820500468DD
:10134000A468012D05D0022D03D0416A41F480210B
:1013500053E014F0406F01D1E5004BD5C4F30164B4
:10136000022C03D9416A41F4000146E00125A54061
:101370001D608D684FF4C0739DB1CE6835434E68D3
:1013800045EAC605066803EB0417F5514FF4C2752C
:10139000076805EB04150E697E51097D012905D00A
:1013A00009E00E88CD6845EA4655EBE701684E59DD
:1013B00046F480764E511179D2F805504FF4C67636
:1013C00041EA0525016806EB04168D511178D2F823
:1013D00001204FF4C47541EA0221026805EB0415AF
:1013E0005151006803EB0411425842F0010242508F
:1013F0000020F0BD416A41F4001141620120F0BDBE
:1014000010B590F820300268012B07D0022B05D0D0
:10141000416A41F480214162012010BDD2F80002EE
:1014200040F00100C2F80002087D00F01F03012017
:101430009840D2F81C328343C2F81C32CB69B3B94E
:10144000D2F80C328343C2F80C328C894B6864F3B7
:101450001F434C6902EBC404C4F840320C890B688A
:1014600064F31F434C6902EBC404C4F84432CB69F3
:10147000012B16D1D2F80C320343C2F80C320C887F
:101480004B6864F31F434C6902EBC404C4F8403258
:101490000C89CB6864F31F434C6902EBC404C4F8A5
:1014A00044328B69002BD2F804320FD053EA000388
:1014B000C2F804320B69002BD2F8143208D003436F
:1014C000C2F81432096A012904D008E08343EFE727
:1014D0008343F5E7D2F81C120143C2F81C12D2F87C
:1014E000000220F00100C2F80002002010BD704789
:1014F00030B590F82040012C05D0022C03D0416A71
:1015000041F480215DE00468002955D02469A407D6
:1015100054D04FF4D874056804EB01142D5915F01C
:101520000405956005682D594ED0ED085560056895
:101530002C5904F00204D4604FF4DA74056804EB0B
:1015400001142D5905F00F05156105682D59C5F3D6
:101550000725956105682C59240C54614FF4DC7201
:10156000046802EB0112A4581C700468A458240AF1
:101570005C700468A458240C9C700468A258120E75
:10158000DA704FF4DE72046802EB0112A4581C7189
:101590000468A458240A5C710468A458240C9C7143
:1015A0000468A258120EDA71006881B1016941F035
:1015B00020010161002030BDE468A8E7416A41F4E0
:1015C00000114162012030BD6D0D1560AFE7C168AB
:1015D00041F02001C160EDE72DE9F05F05460068AC
:1015E00000244669D0F804908768D0F80CB0D0F891
:1015F00010A0D0F81880F10748D0F90714D00121C5
:101600008160B80703D5284600F0AFFA0CE07807F0
:1016100002D54FF4006407E0380702D54FF4805438
:1016200002E0284600F0A0FAF80516D529684FF424
:1016300080708860B80503D5284600F098FA0CE061
:10164000780502D544F4005407E0380502D544F487
:10165000804402E0284600F089FAF80316D529688C
:101660004FF480308860B80303D5284600F081FA33
:101670000CE0780302D544F4004407E0380302D5B7
:1016800044F4803402E0284600F072FA300707D5AF
:101690005FEACB6004D52968102044F40074C86068
:1016A00070074FF0080707D55FEA0B7004D528686C
:1016B000C760284600F062F9B00706D52868C06800
:1016C000800702D0284600F05BF9700607D55FEA74
:1016D000CA6004D52968102044F480640861B0060B
:1016E00007D55FEA0A7004D528680761284600F02C
:1016F0000BFAF00606D528680069800702D0284654
:1017000000F003FAB00308D55FEAC96005D529687F
:1017100010204860284600F0F9F9F00307D55FEA89
:10172000097004D528684760284600F023FA300481
:1017300046D55FEA497040D5F00504D55FEAC87028
:1017400001D044F00104B00504D55FEA887001D5EA
:1017500044F00204700504D55FEA487001D544F0F6
:101760000404300529D518F0700F26D008F0700059
:10177000402815D006DC102809D020280AD03028AF
:1017800016D10AE050280ED0602811D10EE044F0A6
:1017900008040DE044F010040AE044F0200407E0DF
:1017A00044F0400404E044F0800401E044F4807418
:1017B0002868816921F070018161296804204860EE
:1017C000002C05D0686A204368622846FFF78FFE28
:1017D000BDE8F09F70B5040003D094F8200010B16C
:1017E00004E0012070BD204600F082F82068016806
:1017F00041F00101016000F059FC0546052604E0B6
:1018000000F054FC401B0A2811D820684068C0072B
:10181000F6D02068016821F00201016000F046FC6A
:1018200005460BE000F042FC401B0A2806D9606A1E
:1018300040F40030606284F82060D2E7206840689D
:101840008007EFD4207E0128206801683DD021F078
:1018500080010160607E01282068016838D021F095
:1018600040010160A07E01282068016833D021F08A
:1018700020010160E07E0128206801682ED041F03F
:1018800010010160207F01282068016829D021F023
:1018900008010160607F01282068016824D021F0E0
:1018A00004010160D4E902010843D4E904121143A0
:1018B00008436168491E08432168C86100206062CE
:1018C000012084F82000002070BD41F08001C0E7B5
:1018D00041F04001C5E741F02001CAE721F01001C5
:1018E000CFE741F00801D4E741F00401D9E7000057
:1018F00010B586B00021009101910291039100681A
:101900001B49884232D11B48C16941F00071C16155
:10191000C16901F000710491816941F004018161A4
:101920008069154C00F0040004904FF400600090B2
:101930006946204600F0B8FAA014009002200190F9
:10194000032003906946204600F0AEFA00221146BB
:10195000132000F0C9FE132000F0B8FE002211464B
:10196000142000F0C1FE142000F0B0FE06B010BD3F
:101970000064004000100240000801407047000071
:101980002DE9F05F574B584A00215848FFF7B0FD4A
:101990005749544D012008702A78552A01D0562AFB
:1019A0007ED1544B68781968B1F89010884277D18D
:1019B000E878AC78562A00EB04204B4C14D06268CF
:1019C0009A46494202EB013343F203069A1B4A4905
:1019D000DFF82881B3421BD008DC6FF440529A181C
:1019E00030D0012A3AD108E060686DE0022A1CD0AC
:1019F000A2F57062FB3A31D127E0D8F80020938F2E
:101A000083422BDAD28F824228DD0968488025E0A4
:101A1000D8F80020B2F8403083421FDAB2F84220F2
:101A200082421BDD0968888018E0D8F80020B2F8EF
:101A30004430834212DAB2F8462082420EDD096851
:101A4000C8800BE00968088008E0D8F8000003F0BF
:101A500077FD4FF400512A4800F01BFBAB46DFF83E
:101A6000A4905546D8F8007000264FF4405A2968D3
:101A70006068B1F89010494200EB013139F8160066
:101A8000814219D19BF803109BF8020001EB002062
:101A900038802968D8F8000003F036FC606800E060
:101AA0001DE02968B1F89010494200EB0130504523
:101AB00002D10E48FFF78CF9761CBF1C292ED6D315
:101AC00029686068B1F89010494200EB013003F0DA
:101AD0004FFA01466068BDE8F05F03F077B9BDE8F2
:101AE000F09F00009A000020800B0020300C0020A6
:101AF000F8000020A8000020D0000020CC0000202A
:101B000000100140480000207047704770470000F7
:101B100070B5044690F82000012804D0606A40F4B3
:101B20000020606218E0022084F82000206801682C
:101B300021F00101016000F0B9FA05460EE000BF96
:101B400000F0B4FA401B0A2808D9606A40F400305B
:101B50006062052084F82000012070BD2068406884
:101B6000C007EDD1606270BD704770477047704725
:101B700070477047704700002DE9F05FC16B0C683B
:101B800001680B68D0F840C0042202FA0CF2494DFB
:101B9000DFF824A1494E4A4FDFF828B1DFF828E1E9
:101BA00022422CD05A072AD50A68920603D40A6822
:101BB00022F004020A600168A94201D1042219E05E
:101BC000514501D1402215E0B14202D14FF480626B
:101BD00010E0B94202D14FF480420BE0594502D1E6
:101BE0004FF4802206E0714502D14FF4800201E0FB
:101BF0004FF080622F4908394A60C16A3BE04FF0DC
:101C0000020808FA0CF818EA040F4FF000094FF028
:101C1000010235D05FEA837832D50B689B0605D484
:101C20000B6823F00A030B6080F821200168A942A9
:101C300001D1022219E0514501D1202215E0B14223
:101C400002D14FF4007210E0B94202D14FF40052B9
:101C50000BE0594502D14FF4003206E0714502D144
:101C60004FF4001201E04FF00072124908394A6047
:101C700080F82090816A00291AD0BDE8F05F0847FB
:101C8000082505FA0CF5254212D01B0710D50B6864
:101C900023F00E030B6090F84010C36B02FA01F1C1
:101CA0005960826380F8212080F82090016BE2E780
:101CB000BDE8F09F080002401C00024030000240D6
:101CC00044000240580002406C00024030B528B386
:101CD00008C8134914221944B1FBF2F18900C16309
:101CE00010498163022141771A6843F6F0718A43F3
:101CF000D0E900142143D0E902452C432143046973
:101D0000214344692143846921431143196000211F
:101D10004163012242770177084630BD012030BD82
:101D2000F8FFFDBF0000024070B5044690F82000A7
:101D3000002501280CD0012084F8200094F82160AF
:101D40000020012E06D084F820000225284670BD10
:101D5000022070BD022684F82160A0632068066816
:101D600026F0010606602046FFF764F8E06A0028C6
:101D70002068016802D041F00E0106E021F0040164
:101D800001602068016841F00A0101602068016873
:101D900041F001010160D9E770B5044600F086F911
:101DA0000546601C02D004480078044400F07EF927
:101DB000401BA042FAD370BD0C010020034801690A
:101DC00041F08001016100207047000000200240C6
:101DD0002DE9F05F07461C4888460024017E154621
:101DE0001E46012909D00121814601764CF2503A64
:101DF0005046FFF789F818B122E00220BDE8F09FB5
:101E0000012F02D0022F00D00427D346DFF83CA0D8
:101E1000220128463146FEF785F981B208EB4400DD
:101E2000FFF736F85846FFF76FF8DAF8102022F07F
:101E30000102CAF8102018B9641CE4B2BC42E7D30E
:101E4000002289F81820D9E7100E00200020024057
:101E5000064900200A69120607D5054A4A60054A64
:101E60004A600969090600D5012070470020024038
:101E700023016745AB89EFCD10B5202806D10A2094
:101E8000FFF78AFFBDE8104003F0C0B810BD0000A6
:101E9000044910B50A68024202D00860FFF7ECFF5F
:101EA00010BD0000140401402DE9F84FDFF8B8918F
:101EB000002409F1040A0AF1040B23460F270BF151
:101EC000040EC9E00125A5402A40AA427DD1674EF3
:101ED000D1F804C0ACEB0608B44532D014DCBCF138
:101EE000030F3AD009DCBCF1000F2AD0BCF1010F7E
:101EF0001CD0BCF1020F31D11DE0BCF1110F17D085
:101F0000BCF1120F2AD119E0B8F5881F19D006DCF0
:101F1000B8F5803F15D0B8F5801F1FD111E0B8F596
:101F2000001F0ED0B8F5041F18D10AE0CB6815E0E9
:101F3000CB681B1D12E0CB6808330FE0CB680C3375
:101F40000CE08B682BB1012B4FF0080303D04561E7
:101F500004E0042302E0056100E00023FF2A01D829
:101F6000064601E000F104064FEA840501D9A5F117
:101F70002005D6F8008007FA05FC28EA0C0803FAC9
:101F800005F548EA0508C6F800804D68ED0062D501
:101F9000374DAE6946F00106AE61AD6924F0030627
:101FA00005F001050095334D06EB050CDCF80850F3
:101FB000A607360F07FA06F825EA0805DFF8B88005
:101FC000404503D14FF0000817E044E0DFF8AC8053
:101FD000404502D14FF001080FE0DFF8A4804045F2
:101FE00002D14FF0020808E0DFF89880404502D1A6
:101FF0004FF0030801E04FF0040808FA06F848EA39
:102000000508CCF808804D68D9F80060ED034D460E
:1020100001D5164300E096432E604D68DAF8006063
:10202000AD03554601D5164300E096432E604D683A
:10203000DBF80060ED025D4601D5164300E09643F3
:102040002E604D68DEF80060AD02754601D516437E
:1020500000E096432E60641C0D682A46E5407FF43C
:1020600031AFBDE8F88F00000004014000001110FE
:10207000001002400000014000080140000C014037
:1020800000100140001401408068084000D0012089
:102090007047C26821EA02030A4043EA0241016133
:1020A00070470AB1016170470904FBE70148806885
:1020B000704700000C01002070B5040025D094F892
:1020C0003D00002520B984F83C50204600F078FA05
:1020D000242084F83D002068016821F0010101609E
:1020E0002068016841F4004101602068016821F422
:1020F0000041016000F036FC4D4A6168914201D810
:102100004C4900E04C49884201D2012070BD4B4946
:102110002368B0FBF1F15E6826F03F060E435E6077
:102120006368934206D94FF4967359434FF47A7318
:10213000B1FBF3F12368491C1E6A26F03F063143C8
:1021400019626168914210D84900401EB0FBF1F25B
:10215000521CC2F30B02042A01D2042022E0B0FB7D
:10216000F1F0401CC0F30B001CE0A268F2B301EBDD
:10217000C10303EB0116431EB3FBF6F35B1C43F4F0
:1021800080431B0549D092B301EBC10202EB011160
:10219000401EB0FBF1F0401CC0F30B0040F4804047
:1021A00040F400402168CA694CF6FF739A4310431B
:1021B000C861D4E9071001432068026822F0C00218
:1021C00011430160D4E9030101432068826848F2A9
:1021D000FF339A4311438160D4E905010843216824
:1021E000CA6822F0FF021043C86001E00EE016E06A
:1021F0002068016841F0010101602564202084F815
:102200003D00256384F83E50002070BD01EB41067F
:10221000431EB3FBF6F35B1CB3E70120C2E701EBFF
:102220004101401EB0FBF1F0401CC0F30B00B7E7CA
:10223000A086010080841E0000093D0040420F007E
:102240002DE9FF4F83B00025DDE910799A469346CA
:102250000446DDF848800095FFF728FF064694F80D
:102260003D0020287CD11923012285492046009673
:1022700001F09AFA0028F5D194F83C0001286FD0BB
:10228000012084F83C0020680168C90703D1016877
:1022900041F0010101602068016821F400610160E2
:1022A000222084F83D00402084F83E0025646762C7
:1022B000A4F82A90608D20857248E062CDE90086FE
:1022C00053465A462046049901F076F900287DD1FC
:1022D000208DDFF8B491202768B1012814D002289E
:1022E000206801681ED041F4806101602068416966
:1022F00080690090B6E020684169816900910168B9
:1023000041F400710160ADE02068016821F4806152
:10231000016072B62068416981690091016841F4E9
:1023200000710AE041F40061016072B62068416901
:1023300081690091016821F48061016062B691E0D9
:10234000032868D801280CD0022843464FF0000229
:102350004946204600960FD001F026FAB0BB10E0A7
:102360008BE032464146204601F09DFA70BB206862
:102370000069616A08706CE001F016FA30BB72B651
:1023800034E02068016821F48061016072B6206841
:102390000069616A0870606A401C6062208D401E9E
:1023A0002085608D401E6085384846F2A81100687F
:1023B000B0FBF1F0C0EBC00000EB80000090401ECD
:1023C000009008D020684069C04300E029E0400741
:1023D0000CD50098F3E744F8305F6773A573206964
:1023E00040F02000206162B625731AE02068016881
:1023F00041F40071016020680069616A0870606AD8
:10240000401C6062218D491E2185618D491E6185B8
:1024100062B621681BE032464146204601F043FA8D
:1024200018B1012007B0BDE8F08F20680069616A2B
:102430000870606A401C6062218D491E2185618D93
:10244000491E618521684A69D24352070AD4096945
:102450000170606A401C6062208D401E2085608D86
:10246000401E6085208D00287FF46AAF84F83D709F
:1024700084F83E5084F83C50D4E70220D2E70000B4
:10248000020010000000FFFF0400010018010020FE
:102490002DE9FF4F83B09A46DDE911979346044634
:1024A000DDF84080FFF702FE054694F83D00202845
:1024B0007FD11923012240492046009501F074F98B
:1024C000002876D194F83C00012872D0012084F8CD
:1024D0003C0020680168C90703D1016841F001018F
:1024E00001602068016821F400610160212084F806
:1024F0003D00402084F83E0000262664C4F8248075
:10250000A4F82A90608D20852C48E062CDE9007502
:1025100053465A462046049901F0CCF870B930E091
:102520002A463946204601F0F1F958B1206C0428BA
:1025300004D12068016841F400710160012007B0F6
:10254000BDE8F08F606A216800780861606A401C0D
:102550006062218D491E89B22185628D521E62857D
:1025600022685369DB435B070BD469B100781061C3
:10257000606A401C6062208D401E2085608D401E78
:102580006085208D0028CBD12A463946204601F0AF
:10259000E5F80028CAD154F83D0B016841F40071F8
:1025A0000160202004F81E09E67766770020C6E760
:1025B000FFE70220C3E70000020010000000FFFF59
:1025C00010B586B00021009101910291039100683D
:1025D0000F4988421AD10F4CA06940F00800A06151
:1025E000A069694600F008000490C0200090122005
:1025F0000190032003900848FFF756FCE06940F47F
:102600000010E061E06900F40010049006B010BD15
:102610000054004000100240000C01400248816854
:1026200002781144816070470C010020074810B502
:10263000016841F010010160032000F075F80020EE
:1026400000F006F800F024F8002010BD0020024041
:1026500070B50D4D04464FF47A712878B1FBF0F057
:102660000A490968B1FBF0F000F062FB48B9102C90
:1026700007D200222146501E00F036F800206C6080
:1026800070BD012070BD00000C0100201801002069
:102690000C4808B5816941F001018161816901F04F
:1026A00001010091C16941F08051C161C06900F030
:1026B000805000900448416821F0E06141F00071D1
:1026C000416008BD0010024000000140002809DB05
:1026D00000F01F02012191404009800000F1E0203C
:1026E000C0F8001170470000F0B40E4B1B680C4698
:1026F000C3F30223C3F10705042D00D90425191DD6
:10270000072901D2002300E0DB1E012606FA05F1AD
:10271000491E214099409E40761E16403143F0BC30
:1027200001F090BE0CED00E0064900F007020868D9
:102730004FF6FF03184040EA0220034A10430860A6
:10274000704700000CED00E00000FA052DE9F843A9
:1027500005460078354CC00754D0E0690026C0001B
:1027600008D4E06940F08050E061E069012600F0A3
:10277000805000902E480168C90512D40168804637
:1027800041F480710160FFF791FC074605E000BF4E
:10279000FFF78CFCC01B642823D8D8F80000C005C4
:1027A000F6D5206A10F4407021D0A98801F4407158
:1027B00081421CD0206A1F49012220F440700A6027
:1027C00000220A602062C00711D0FFF76FFC0746A5
:1027D00041F2883808E000BFFFF768FCC11B4145A3
:1027E00002D90320BDE8F883206A8007F4D5206A67
:1027F000696820F44070084320621EB1E06920F04F
:102800008050E0612878800705D56068A96820F4C9
:102810004040084360602878C00605D56068E968D4
:1028200020F48000084360600020DBE700100240D5
:1028300000700040400442422DE9F0470F46050079
:1028400061D0434E306800F00700B84209D23068CA
:1028500020F0070038433060306800F00700B842CD
:1028600051D128683B4C810712D5400703D56068D9
:1028700040F4E06060602878000703D5606840F4A9
:10288000605060606068A96820F0F00008436060F4
:102890002878C00728D06868012810D0216802284D
:1028A00010D0890700292EDA616821F00301014365
:1028B0006160FFF7FBFB804641F288390DE021683B
:1028C0008903EFE78901EDE7FFF7F0FBA0EB0801D3
:1028D000494502D90320BDE8F0876068696800F0C7
:1028E0000C00B0EB810FEFD1306800F00700B84268
:1028F0000BD9306820F0070038433060306800F0B2
:102900000700B84201D00120E5E72878400705D547
:102910006068E96820F4E060084360602878000798
:1029200006D56068296920F4605040EAC100606003
:1029300000F038F86168084AC1F30311515CC840DF
:102940000649086006480068FFF782FE0020C2E7DB
:102950000020024000100240D46500081801002049
:10296000100100200448054900684968044AC1F381
:102970000221515CC840704718010020001002403D
:10298000E46500080448054900684968044AC1F341
:10299000C221515CC840704718010020001002405D
:1029A000E465000812A185B00FC98DE80F0014A0DE
:1029B000144A006804905168134801F00C03042B7A
:1029C00010D0082B0ED1C1F38343C9031DF80300B7
:1029D0000AD5516804AAC1F34041515C0A4A5043E8
:1029E000B0FBF1F005B0704708494843FAE7000032
:1029F00002030405060708090A0B0C0D0E0F101040
:102A0000010200000010024000127A0000093D009F
:102A10002DE9F84F040070D02078C04DC00749D090
:102A20006868C0F38100012807D06868C0F381009E
:102A3000022809D16868C00306D52868800339D503
:102A400060680028E7D035E06068B0F5803F0BD0C3
:102A500010B1B0F5A02F11D0286820F48030286084
:102A6000286820F4802002E0286840F48030286044
:102A7000606890B1FFF71AFB06460AE0286840F448
:102A800080202860F0E700BFFFF710FB801B642860
:102A900073D828688003F7D50CE0FFF707FB0646DC
:102AA00005E000BFFFF702FB801B6428F0D8286810
:102AB0008003F7D420789A4E80074FF001094FF039
:102AC000000839D5686810F00C0F07D06868C0F3AB
:102AD0008100022809D16868C00306D428688007ED
:102AE00014D52069012808D110E02069B0B1C6F8DA
:102AF0000090FFF7DBFA074605E00AE1FFF7D6FA98
:102B0000C01B0228C4D828688007F7D528686169E7
:102B100020F0F80040EAC10028600DE0C6F800800F
:102B2000FFF7C4FA074604E0FFF7C0FAC01B02280B
:102B300023D828688007F7D4207800072CD5794857
:102B4000A169D9B1C0F80090FFF7B0FA074604E0D8
:102B5000FFF7ACFAC01B02280FD8686A8007F7D5C8
:102B600071484FF4FA510068B0FBF1F0009000BFDB
:102B70000098411E0091FAD20EE080E0C0F800807B
:102B8000FFF794FA074604E0FFF790FAC01B02280B
:102B900075D8686A8007F7D42078400760D5E8695F
:102BA0000027C00008D4E86940F08050E861E86977
:102BB000012700F0805000905C480168C90513D4DB
:102BC0000168834641F480710160FFF76FFA824625
:102BD00006E000BFFFF76AFAA0EB0A0064284ED8AF
:102BE000DBF80000C005F5D5E06801280AD008B17F
:102BF000052813D0286A20F001002862286A20F0F6
:102C0000040002E0286A40F001002862E06841F216
:102C1000883B98B1FFF74AFA82460BE0286A40F0F9
:102C200004002862EEE700BFFFF740FAA0EB0A01BC
:102C300059455AD8286A8007F6D50CE0FFF736FACE
:102C4000824605E0FFF732FAA0EB0A0159454CD85D
:102C5000286A8007F6D41FB1E86920F08050E86147
:102C6000E06988B36968C1F38101022944D0022870
:102C7000C6F8608004D0FFF719FA044638E034E063
:102C8000FFF714FA074604E0FFF710FAC01B02280A
:102C90002BD828688001F7D4206AB0F5803F05D191
:102CA0006868A16820F4003008436860D4E908012E
:102CB0000843696821F4741108436860C6F860909D
:102CC000FFF7F4F9044606E025E000BFFFF7EEF950
:102CD000001B022809D828688001F7D51BE000BF37
:102CE000FFF7E4F9001B022802D90320BDE8F88FA2
:102CF00028688001F4D40EE00128F7D06868226AC1
:102D000000F48031914204D1616A00F4701088426D
:102D100001D00120EAE70020E8E7000000100240AF
:102D2000000042428004424218010020007000402E
:102D300010B5401EB0F1807F01D3012010BD4FF0CF
:102D4000E02460610F21601701F07CFB0020A0618E
:102D500007202061002010BD7047704710B590F823
:102D60003C20012A22D0012280F83C20CA688C68CD
:102D700022F4407222434C6822F4806222430C68A1
:102D800022F4006222430C6922F4805222434C69EF
:102D900022F400522243C969002322F480420A43EC
:102DA00001684A6480F83C30002010BD022010BD4C
:102DB00070B590F83C20012A26D0012480F83C40D0
:102DC000022280F83D2003685A689D6822F0700650
:102DD0000A6832435A600D4B02689A4208D0B2F139
:102DE000804F05D00A4B9A4202D00A4B9A4204D136
:102DF000496825F080031943916080F83D40002127
:102E000080F83C10084670BD022070BD002C0140C7
:102E1000000400400008004010B5040003D094F8FE
:102E20003D0010B107E0012010BD002084F83C00F7
:102E3000204600F01FF8022084F83D00211D206884
:102E400001F038F9012084F8460084F83E0084F847
:102E50003F0084F8400084F8410084F8420084F880
:102E6000430084F8440084F8450084F83D000020C5
:102E700010BD000008B5274A0168274891420ED1CD
:102E8000816941F4006181618069002200F4006081
:102E9000009011461920FFF727FC192034E0B1F10A
:102EA000804F11D01D4A91421DD1C16941F00201EC
:102EB000C161C069002200F00200009001211D20C4
:102EC000FFF712FC1D201FE0C16941F00101C16143
:102ED000C069002200F00100009002211C20FFF7D1
:102EE00003FC1C2010E00E4A914211D1C16941F04F
:102EF0000401C161C069002200F0040000900421B7
:102F00001E20FFF7F1FB1E20BDE80840FFF7DEBBE7
:102F100008BD0000002C01400010024000040040E9
:102F20000008004090F83D10012901D001207047B1
:102F3000022180F83D100168CA6842F00102CA60AF
:102F400000680B49884208D0B0F1804F05D009498C
:102F5000884202D00849884204D1816801F0070103
:102F6000062903D0016841F001010160002070478B
:102F7000002C014000040040000800400168CA68BD
:102F800022F00102CA6001680A6A41F211131A4272
:102F900007D10A6A9B101A4203D10A6822F0010283
:102FA0000A60012180F83D100020704770B504468A
:102FB00090F83C00012817D0012584F83C500220ED
:102FC00084F83D002068826822F0770222F47F4274
:102FD00082600868502830D00DDC20284DD005DCF8
:102FE00098B310283BD148E0022070BD302844D06F
:102FF000402834D139E0602828D0702806D0B0F5B8
:10300000805F2CD0B0F5005F29D10AE0CB68D1E910
:103010000121206801F091F82068816841F0770172
:1030200009E0CB68D1E90121206801F086F8206829
:10303000816841F48041816011E0CA684968206874
:1030400001F030F95021206807E016E0CA684968AD
:10305000206801F038F96021206801F078F884F8E0
:103060003D50002084F83C0070BDCA684968206863
:1030700001F018F940212068EFE722680146104668
:10308000EBE7704770B50446006801694FF0000532
:10309000C943890715D4C168C943890711D4E91EFA
:1030A000016101202077206880698007204602D0D6
:1030B000FFF7E7FF04E000F0BFF8204600F04EF90C
:1030C000257720680169C943490717D4C168C943F6
:1030D000490713D46FF004010161022020772068B2
:1030E000806910F4407F204602D0FFF7CAFF04E059
:1030F00000F0A2F8204600F031F925772068016938
:10310000C943090716D4C168C943090712D46FF02F
:1031100008010161042020772068C06980072046EB
:1031200002D0FFF7AEFF04E000F086F8204600F082
:1031300015F9257720680169C943C90617D4C16804
:10314000C943C90613D46FF010010161082020772C
:103150002068C06910F4407F204602D0FFF791FF3D
:1031600004E000F069F8204600F0F8F825772068C0
:103170000169C943C90708D1C168C943C90704D156
:10318000891E0161204600F039F920680169C943B0
:10319000090609D4C168C943090605D46FF0800146
:1031A00001612046FFF7D8FD20680169C94349063F
:1031B00009D4C168C943490605D46FF040010161D3
:1031C000204600F01CF920680169C94389060BD428
:1031D000C168C943890607D46FF020010161204608
:1031E000BDE87040FFF7B9BD70BD000000B585B007
:1031F0000021009101910291039100680B498842DE
:1032000012D10B48816941F00401816180696946EE
:1032100000F0040004904FF4E06000900220019060
:1032200003900448FEF740FE05B000BD002C0140AD
:103230000010024000080140704770B5044690F845
:103240003C000D4601280AD0012084F83C0042B120
:10325000042A18D0082A2AD00C2A4DD139E002209D
:1032600070BD206800F07CFF2068816941F0080192
:1032700081612068816921F0040181612068816990
:103280002A69114311E0206800F092FF20688169EB
:1032900041F4006181612068816921F4806181616C
:1032A000206881692A6941EA0221816124E020685D
:1032B00000F0AAFF2068C16941F00801C1612068DF
:1032C000C16921F00401C1612068C1692A69114303
:1032D00011E0206800F0C4FF2068C16941F400617A
:1032E000C1612068C16921F48061C1612068C16940
:1032F0002A6941EA0221C161002084F83C0070BDC6
:1033000010B5040003D094F83D0010B107E001208F
:1033100010BD002084F83C00204600F01EF802207A
:1033200084F83D00211D206800F0C4FE012084F8CF
:10333000460084F83E0084F83F0084F8400084F89A
:10334000410084F8420084F8430084F8440084F883
:10335000450084F83D00002010BD70477047000014
:1033600010B50446022249B104290ED0082913D011
:1033700094F84100012816D0012010BD94F83E00B9
:103380000128F9D184F83E200FE094F83F0001288D
:10339000F2D184F83F2008E094F840000128EBD1F6
:1033A00084F8402001E084F841200122206800F0E8
:1033B000B7FE0F492068884203D1426C42F40042B4
:1033C00042642068884208D0B0F1804F05D0094996
:1033D000884202D00849884204D1816801F007017F
:1033E000062903D0016841F001010160002010BDF1
:1033F000002C014000040040000800407047704766
:1034000070B5040004D094F83D00002510B106E02A
:10341000012070BD84F83C50204600F023F82420A1
:1034200084F83D002068C16821F40051C160204645
:1034300000F05CFF2068016921F49041016120687F
:10344000416921F02A0141612068C16841F40051BD
:10345000C1602564202084F83D0084F83E000020EF
:1034600070BD000030B585B0002400940194029432
:10347000039400681449884223D11448C16941F477
:103480000031C161C16901F400310491816941F0E9
:103490000401816180690E4D00F004000490042055
:1034A0000090022001900320039069462846FEF711
:1034B000FBFC0820CDE90004694628460294FEF78B
:1034C000F3FC05B030BD0000004400400010024095
:1034D000000801402DE9F843044690F83D001F46DE
:1034E00016460D4620284CD1C5B1BEB194F83C001B
:1034F000012846D0012084F83C004FF00008C4F8B1
:103500004080212084F83D00FEF7D0FDA68481464E
:10351000E684A068B0F5805F03D004E00120BDE838
:10352000F883206928B12E465FF0000584F83C80BE
:103530000EE00026FAE78021204600F033FFA0B914
:10354000AEB116F8010B21684860E08C401EE084A3
:10355000E08C4B464FF0000200970028EBD14FF073
:103560004001204600F01EFF30B10320D7E735F8B8
:10357000020BC0F30800E6E7202084F83D0000209D
:10358000CDE70220CBE7FEE701684A69D243520546
:103590000FD46FF480624A61002140F8301F20226E
:1035A00042738173026942F00402026101730120D7
:1035B00070470020704700002DE9F84F044600686E
:1035C00089460B9D01689846174641F48061016069
:1035D0002068016841F48071016000954FF0011B83
:1035E0000022594620460A9B00F0DEF84FF4007A8C
:1035F00040B120680068C00501D5C4F840A0032090
:10360000BDE8F88F216809F0FE0008612B462849C3
:1036100020460A9A00F0FCF8F0BB206841698069F6
:1036200000902A4620460A9900F070F940B1206CBB
:1036300004283AD12068016841F40071016034E047
:10364000FEB2B8F1010F09D02168380A08612A4694
:1036500020460A9900F05AF90028E8D1206806614E
:103660002A4620460A9900F051F90028DFD1206847
:10367000016841F48071016000950022594620469E
:103680000A9B00F091F80028B3D1216809F0FF00EF
:1036900040F00100086100E007E02B4604492046A5
:1036A0000A9A00F0B5F80028AAD00120A8E7000087
:1036B000020001002DE9F843044600680D46DDE9EB
:1036C000089701689846164641F4807101604B46A0
:1036D00000224FF001112046009700F065F848B134
:1036E00020680068C00502D54FF4007020640320F4
:1036F000BDE8F883216805F0FE0008613B464A46B4
:103700001549204600F084F888B92068416980692D
:1037100000903A464946204600F0F8F848B1206C3F
:10372000042804D12068016841F40071016001207F
:10373000DEE7F5B2B8F1010F09D02168300A08615F
:103740003A464946204600F0E1F80028E7D12068D3
:1037500005610020CCE700000200010070B51646AC
:103760000D4604460DE02046FFF70EFF08B101208C
:1037700070BD681C05D0FEF799FC801BA84207D8D5
:1037800035B120684069C0434007ECD4002070BDCB
:10379000002044F8300F20216173A073216941F0AB
:1037A000200121612073E2E72DE9F0471E46904693
:1037B0000D460446C1F30747DDF8209008E0701C71
:1037C00006D0FEF773FCA0EB0900B0420FD876B12B
:1037D0002068012F18D0806925EA00000004000C41
:1037E00014D000214145EAD00020BDE8F087002038
:1037F00044F8300F20216173A073216941F020014A
:10380000216120730120F0E74069E5E70121E9E744
:103810002DE9F0479A4691460E46044600254FF0A2
:103820002008C1F3074725E020684069C0434005F0
:1038300014D42068016841F40071016021686FF4BC
:1038400080604861256384F83D8084F83E50206C98
:1038500040F00400206484F83C501FE0B9F1FF3FC1
:1038600008D0FEF723FCA0EB0A0149450CD8B9F1BA
:10387000000F09D02068012F13D0806926EA0000CC
:103880000004000C0BD0CFE744F8305F84F80D80C3
:10389000A573206940F02000206125730120BDE858
:1038A000F0874069EAE72DE9F041002590460E4691
:1038B0000446202717E04069C043C0060CD454F8E2
:1038C000301B6FF01000486144F810596777A577F6
:1038D000206A2062257717E0FEF7E8FBA0EB0800DE
:1038E000B04208D83EB120684169C9434906E2D4D4
:1038F0000020BDE8F08144F8305F6773A57320694C
:1039000040F02000206125730120F2E770B51646D3
:103910000D4604460DE02046FFF736FE08B10120B3
:1039200070BD681C05D0FEF7C1FB801BA84207D8FC
:1039300035B120684069C0430006ECD4002070BD5A
:10394000002044F8300F20216173A073216941F0F9
:10395000200121612073E2E7FEB50024164800949F
:103960000194144902940160891581600125057351
:103970000475022606614FF460214460C161FDF7C1
:103980006FFB08B1FDF76FFA07200094CDE90150F5
:1039900069460948FDF7E2FA08B1FDF764FACDE996
:1039A000005669460448FDF7D9FA002801D0FDF712
:1039B0005AFAFEBD00240140BC0B00200F4810B590
:1039C0000D4901600421416000214FF40022816013
:1039D000C0E903124FF4E00242610176417681763C
:1039E000C17601774177FDF7F5FE002803D0BDE8E9
:1039F0001040FDF738BA10BD00640040300C0020C4
:103A0000094808B5416941F001014161406900225E
:103A100000F00100009011460B20FEF765FEBDE8A6
:103A200008400B20FEF752BE001002402DE9F0477F
:103A300086B000243948009401940294039481696B
:103A400041F010018161816901F0100104918169E7
:103A500041F020018161816901F0200104918169B7
:103A600041F004018161816901F0040104918169DF
:103A700041F0080181618069294F00F008004FF48E
:103A800000550490002229463846FEF70AFBDFF86D
:103A90009490002210214846FEF703FBDFF888A02F
:103AA0004FF40048002241465046FEF7FAFA01263C
:103AB000CDE90056022569463846CDE90245FEF7B4
:103AC000F3F91020CDE9000669464846CDE90245E4
:103AD000FEF7EAF9202715480097CDE90105694668
:103AE0004846FEF7E1F9CDE9008669465046CDE942
:103AF0000245FEF7D9F9CDE90074694650460294B3
:103B0000FEF7D2F9002205211720FEF7EDFD172060
:103B1000FEF7DCFD06B0BDE8F087000000100240B3
:103B20000010014000080140000C0140000021107D
:103B30000D4810B50B4901600C49416000214FF45C
:103B400080428160C0E9031241618161C16101620B
:103B5000FEF7B2FA002803D0BDE81040FDF783B9A4
:103B600010BD000000540040580C0020801A0600D0
:103B700010B596B000240F941094119412941394DD
:103B80001C2168461494FCF7E4FA202107A8FCF7EE
:103B9000E0FA31482F490160012141602021816014
:103BA00040F2DB51C0E903148021C0E90541FFF771
:103BB00033F908B1FDF757F94FF480500F900FA972
:103BC0002548FFF7F3F908B1FDF74DF92248FFF753
:103BD00097FB08B1FDF747F9139413A91E481494F5
:103BE000FFF7E6F808B1FDF73EF96020CDE90004E3
:103BF000029403940494059400226946164806949E
:103C0000FFF71BFB08B1FDF72EF9042269461248A5
:103C1000FFF713FB08B1FDF726F9082269460E48A5
:103C2000FFF70BFB08B1FDF71EF907940894099400
:103C30004FF400500A94CDE90B4007A906480E94B2
:103C4000FFF78CF808B1FDF70EF90348FFF7CEFA3D
:103C500016B010BD002C0140AC0C002010B586B091
:103C600000241648009401940294039404944FF0A5
:103C700080410594016040F22B11C0E90114EF214D
:103C8000C0E903148461FFF7C7F808B1FDF7EBF84A
:103C90004FF48050009069460848FFF787F908B153
:103CA000FDF7E1F8049404A904480594FFF780F8AF
:103CB000002801D0FDF7D7F806B010BDF40C0020A5
:103CC00010B586B000241648009401940294039421
:103CD00004941249059401609F21C0E90114472111
:103CE000C0E903148461FFF797F808B1FDF7BBF84A
:103CF0004FF48050009069460948FFF757F908B122
:103D0000FDF7B1F8049404A905480594FFF750F8AD
:103D1000002801D0FDF7A7F806B010BD0004004050
:103D20003C0D002010B586B0002416480094019484
:103D30000294039404941249059401609F21C0E900
:103D400001148F21C0E903148461FFF765F808B1FD
:103D5000FDF789F84FF48050009069460948FFF755
:103D600025F908B1FDF77FF8049404A905480594E6
:103D7000FFF71EF8002801D0FDF775F806B010BD5A
:103D800000080040840D00200C4810B50A4901606D
:103D90004FF4E1314160002181600C22C160C0E933
:103DA00004128161C161FFF72BFB002803D0BDE83D
:103DB0001040FDF758B810BD00440040CC0D002065
:103DC000FEE7FEE77047000010B5002306E000BFE5
:103DD00030F8024B21F813405B1C9BB29342F7D39F
:103DE00010BD00002DE9F05FA0F1006415468A4681
:103DF0008346B4F5002F5FD2FEF72AF8E70AC4F332
:103E00004906C6F58064A54200D82C46DFF8AC9080
:103E10004FF0006000EBC72080464FF480622749D6
:103E2000FFF7D2FF00204FF6FF7106E0331839F894
:103E300013208A4203D1401C80B2A042F6D3A04294
:103E40002ED24046FDF712F84CF25030FDF75CF8E8
:103E50001B48016921F0020101610020494606E08A
:103E60003AF810208319401C21F8132080B2A04298
:103E7000F6D3124940464FF4806200BF00F022F8AA
:103E8000A54215D0281B0AEB440A0BEB440B002675
:103E900085B24FF480647F1CA542B9D82C46B7E7A1
:103EA0004CF25030FDF730F8224651465846E5E7CF
:103EB000BDE8F05FFDF782BFBDE8F09F8003002002
:103EC000002002402DE9F04116460F460546002429
:103ED0000AE000BF37F81420002329460120FDF72F
:103EE00077FF641CA4B2AD1CB442F3D3BDE8F081EB
:103EF0007047FEF793BB30B593B028216846FCF7B6
:103F000028F914210AA8FCF724F9002501200F95AF
:103F100010951195010412958DE8230004904FF43B
:103F2000E010CDE90810022407946846FEF770FD02
:103F300008B172B6FEE70AA90F2081E831004FF4FC
:103F40008060CDE90D0502210AA8FEF775FC08B1D5
:103F500072B6FEE74FF4004011900F940FA8FEF7E1
:103F6000F5FB002801D072B6FEE713B030BD7047F4
:103F700010B50448FFF786F803480068BDE8104014
:103F8000FCF7A0BDAC0C0020AC00002010B506482A
:103F9000FFF778F8054801680548006800F01CFB49
:103FA000BDE8104000F086BCF40C0020AC000020FE
:103FB000A400002070B51B48FFF764F81B481A499D
:103FC000002541601A4981601A49C1601A4901619E
:103FD0001A481B4C016808880A2801D030B107E054
:103FE000C88800F031FF2168886201E0206885629E
:103FF0002068C5624269816A1248006801F016FAB9
:104000002168C86110488A69C96A006801F00EFA1F
:104010002368014618625A68D869BDE8704000F00C
:10402000ABBC00003C0D0020643B0200F800002007
:10403000898CFEFF7593EEFFD6C50F00D0000020DF
:10404000AC000020BC000020B800002070B514486F
:10405000FFF718F81348144C144D0068018808291C
:104060000ED009290BD1808800F00CFF2268014690
:1040700010639268286801F0D9F92168886270BDE0
:10408000408800F0EBFE216848630A680146084852
:10409000006801F0CBF9216808638A680146E9E706
:1040A000840D0020D0000020AC000020B4000020CF
:1040B000B0000020F0B50268164B174C174D4FF0BA
:1040C0008047984205D0B84203D0A04201D0A84210
:1040D00003D122F070064A683243984205D0B842B4
:1040E00003D0A04201D0A84203D122F44074CA6890
:1040F00022434C6922F08002224302608A68C26235
:104100000A688262984201D1096901630121416113
:10411000F0BD0000002C01400004004000080040F9
:1041200010B501F01F030121046A99408C43046219
:10413000016A9A401143016210BD10B5846842EAD9
:10414000032224F47F440A432243826010BD826824
:1041500022F070020A4342F00701816070470000BC
:1041600030B5026A22F001020262026A4368846981
:1041700024F073050C682C4322F002058A682A4358
:104180000A4DA8420BD122F00805CA6823F44073F7
:104190002A434D6922F004021D438B692B4343607F
:1041A000846149684163026230BD0000002C014017
:1041B00030B5026A22F010020262026A4368846922
:1041C0000D6824F4E64444EA05248D6822F02002B8
:1041D00042EA05120B4DA8420ED1CD6822F08002B2
:1041E00042EA05124D6923F4406343EA85038D6971
:1041F00022F0400243EA8503436084614968816399
:10420000026230BD002C014030B5026A22F4807297
:104210000262036A4268C46923F4007324F07305E0
:104220000C682C438D6843EA05230C4DA8420ED13F
:10423000CD6823F4006343EA05234D6922F440521C
:1042400042EA05128D6923F4806342EA0512426056
:10425000C4614968C163036230BD0000002C0140A5
:1042600030B5026A22F480520262046A4268C3696D
:104270000D6823F4E64343EA05238D6824F40054D3
:1042800044EA0534064DA84204D14D6922F4804227
:1042900042EA85124260C36149680164046230BD2C
:1042A000002C014010B5036A046A24F00104046282
:1042B000846924F0F00444EA021423F00A020A4359
:1042C0008461026210BD10B5036A23F0100303621B
:1042D0008369046A23F4704343EA023224F0A003A2
:1042E00043EA01118261016210BD000070B504460D
:1042F00000680169E26821F44051114301612169BC
:10430000A0680843616908432168CA6841F20C63E8
:104310009A430243CA6020684169A26921F440714E
:10432000114341611E492068884202D1FEF72AFBF1
:1043300001E0FEF717FB00EBC00101EB0012606823
:1043400064218000B2FBF0F3B3FBF1F36FF01806C9
:104350007343B2FBF0F5B2FBF0F605EB83053223B5
:1043600003EB0515B5FBF1F5B6FBF1F605F0F0052D
:1043700005EB0615B2FBF0F6B2FBF0F0B0FBF1F086
:104380006FF01802504306EB800003EB0010B0FB07
:10439000F1F0216800F00F002844886070BD000033
:1043A000003801402DE9F041984617460E46044674
:1043B000069D1DE0681C1BD02DB1FDF777FEA0EB1C
:1043C0000800A84214D92068C16821F4D071C160E6
:1043D0002068416921F001014161202084F83D00FD
:1043E00084F83E00002084F83C000320BDE8F08102
:1043F0002068006836EA000004D00020B842D9D016
:104400000020F3E70120F9E70148FDF7E5B80000D7
:10441000300C00200148FDF7DFB80000300C002010
:10442000FEE700000FB4054B10B503A9044A02983B
:1044300000F028F810BC5DF814FB0000594F00088C
:104440001C0100200907090E002804DB00F1E02010
:1044500080F80014704700F00F0000F1E02080F8B1
:10446000141D704702E008C8121F08C1002AFAD1C3
:1044700070477047002001E001C1121F002AFBD1E4
:10448000704700002DE9FF4F89B09B460446002588
:1044900006E025280BD05A460B999047641C6D1CEA
:1044A00020780028F5D10DB02846BDE8F08F002710
:1044B000B8460122474900E0074314F8013F203B7A
:1044C00002FA03F00842F7D120782E2819D114F807
:1044D000010F47F004072A280ED06FF02F02207832
:1044E000A0F1300109290CD808EB880102EB410149
:1044F00000EB0108641CF2E70A98641C50F8048B76
:104500000A9020780028CED0642808D0692806D0E8
:1045100075281ED05A460B9990476D1C58E00A9991
:104520004FF00A0901C90A91002802DA40422D2100
:1045300002E0390504D52B218DF82010012103E07C
:10454000F90704D02021F7E78A4608AE0DE00021E4
:10455000FAE70A994FF00A0901C90A91F7E74946B3
:10456000FBF790FF303106F8011D0028F7D1ADEBC5
:10457000060000F12009780701D44FF00108C84572
:1045800002DDA8EB090000E000208046002706E0DD
:1045900008A85A46C05D0B9990476D1C7F1C574573
:1045A000F6DB04E030205A460B9990476D1CB8F1B9
:1045B0000001A8F10108F5DC05E016F8010B5A46E8
:1045C0000B9990476D1CB9F10001A9F10109F4DCC8
:1045D000641C65E7092801002DE9FF410C46002114
:1045E0000391022203A983688DE80E00006801236D
:1045F0000E226C21FDF724FE8046BDF80C0040BA67
:10460000208700F02BFC206000F0A6F9314D60609F
:104610002868C06AFCF774F90646208FB4F8401089
:10462000401AFBF7CEFE3146FBF704FEFBF7DFFE38
:10463000294E306029680A6CB0EBE23F15DDC86A8C
:10464000FCF75EF907462868C068C013FBF7B9FE9F
:104650003946FBF7EFFD07463068FBF7B2FE3946F7
:10466000FBF7E2FDFBF7C3FE306028683268016C9F
:10467000C9134942914201DC104615E0C06AFCF7BB
:104680003FF907462868C068C013FBF79AFE394611
:10469000FBF7D0FD05463068FBF793FE2946FBF794
:1046A00071FDFBF7A4FE306000F50040E06300F010
:1046B000E9FB0146A0600948006800F03DFCA060ED
:1046C00020686062208FA4F8400004B04046BDE836
:1046D000F0810000A800002044000020C00000205D
:1046E00038B50446806808B90A20A060A17B012083
:1046F00001B9A073E17B01B9E073217C01B9207499
:10470000617C01B96074A17C01B9A074E17C01B93C
:10471000E074217D01B92075607D08B902206075C3
:10472000E17B2046FCF7ADFA68BB217C2046FCF714
:1047300084FA40BBA27C617C2046FCF7C6FA10BB21
:10474000E17C2046FCF700FBE8B9217D2046FCF720
:104750002FFAC0B9617D2046FCF71AFB98B92046B4
:10476000FCF726FB78B900208DF80000694620464A
:10477000FCF712FA38B99DF80000810603D501074D
:1047800001D4C00601D5012038BD002038BD182154
:104790000120FBF7E9BC00002DE9F0410E460021A5
:1047A000174F184C01800D4607F1C8080020FCF790
:1047B00035F927F815000120FCF730F928F8150025
:1047C00037F81510E26B1144E163216C0844206452
:1047D0006420FDF7E1FA6D1C642DE7DBE16B6420DA
:1047E00091FBF0F189B226F84E1F226C92FBF0F09B
:1047F00082B27280BDE8F04103A0FFF713BE000053
:10480000F001002000000020616463206F66667381
:104810006574203D2025642C202564002DE9F04797
:10482000DFF86080184F194E8946054600244FF482
:10483000002A00221146504600F09EF82946D8F87A
:104840000000FFF7C9FE288F27F81400B16B084459
:10485000B0630A20FDF7A0FA641C642CE9DB002297
:104860001146104600F088F8B06B642190FBF1F01F
:1048700081B2A9F84C102A8FBDE8F04704A0FFF7D9
:10488000D1BD0000A400002028010020000000206D
:10489000656C65635F7A65726F5F706F73203D2032
:1048A00025642C2061637475616C5F706F73203DAB
:1048B0002025640030B5234C87B02068006800F0E4
:1048C000ADFA214D296888812068806800F0FCFAE3
:1048D000296808822068406900F068FA29684882DF
:1048E0002068806900F062FA2968888217480068A9
:1048F00030F8902F009204220292002203920822A4
:10490000049200884FF4425202EB00300190088874
:10491000020A0F4802700A7842708A89130A83706B
:10492000C2700A8A130A03714271498AA0F108030E
:104930000A0A8271C171024669460648FCF7FCFC0E
:1049400007B030BDAC000020D0000020A80000203F
:10495000E8000020300C002010B50446002000F0D4
:104960007DFA0449201A09684968BDE81040FBF740
:1049700045BF0000A80000202DE9F0410F46061EAB
:1049800001DD884801E08748404215182846FBF7BA
:10499000A7FE01463846FBF731FF04462846FBF7E1
:1049A00035FF01463046FBF729FF201A7E4C206375
:1049B0002846FBF72BFF01463846FBF71FFF07464B
:1049C0002846FBF78DFE01463046FBF717FF3844BB
:1049D0006063216B0846FBF711FF616B06460846D2
:1049E000FBF70CFF3044FBF755FF7049A06088428D
:1049F00002DC4942884200DAA160DFF8B48128462F
:104A00004146FBF7B3FEC0F307500621B0FBF1F2BD
:104A100001FB1200401C2070FBF7DCFC654A664B72
:104A2000FBF746FC1422FBF7B5FCFBF7F9FC401B37
:104A3000FBF7ECFE614F06463846A168FBF7DEFE49
:104A40003146FBF7DBFE2061207841460005A0F5EA
:104A50008010FBF7D3FE281AFBF7D8FE0546384630
:104A6000A168FBF7CBFE2946FBF7C8FE6061216910
:104A70004FF40025C1F58011091AE160207807285C
:104A800076D2DFE800F08A041244576276002846A6
:104A9000FBF7B4FED4E9041211440844A06128468F
:104AA000E168FBF7ABFE61690CE02846FBF7A6FE68
:104AB00021690844A0612846E168FBF79FFED4E91C
:104AC000041211440844E0612846E168FBF796FEB1
:104AD0003B4D20622946A069FBF790FE00156062FD
:104AE0002946E069FBF78AFE0015A0622946206A84
:104AF000FBF784FE01153348E162626A03685A637A
:104B00000368A26A9A630068C163BDE8F081284621
:104B1000FBF774FEA0612846E168FBF76FFED4E95D
:104B2000041211440844E0612846E168FBF766FE80
:104B3000616930E02846FBF761FEA0612846E16824
:104B4000FBF75CFE2169084409E02846FBF756FEA6
:104B500061690844A0612846E168FBF74FFEE06107
:104B60002846E168FBF74AFED4E90412114412E03A
:104B700013E02846FBF742FED4E90412114408442E
:104B8000A0612846E168FBF739FEE0612846E1684C
:104B9000FBF734FE216908449AE70020A061E06138
:104BA00096E70000FB21190000000020D33C09001B
:104BB00052C1100040AF2D3852C1F03F7AB61B00F1
:104BC0000000B05DAC0C002070B50546724808606E
:104BD0000C464FF460004FF00061C4E901016F48DA
:104BE0000C22C4E903104FF04870606142F6F500F2
:104BF000A061FBF797FE4601D4E90401FBF7B6FD7F
:104C00003146FBF7B3FDE061D4E90501FBF7F6FDA2
:104C10004FF40011FBF7F2FD01462069FBF7A6FDFA
:104C200040422062D4E90501FBF7E8FD0C22A168AF
:104C3000FBF778FE21694911FBF7F0FC60624FF445
:104C400080363146A068FBF7E9FCA0624FF4836030
:104C5000E0622B202063A720606340F24F10A06326
:104C60004F482064A888C003E0632889E988B6FB20
:104C7000F0F00844C0036064A8896989B6FBF0F0CD
:104C80000844C003A064E9893012CAB2B0FBF2F252
:104C900002EB1121C903E164298ACAB2B0FBF2F226
:104CA00002EB1121C9032165A98A6A8AB6FBF1F1D9
:104CB0001144C9036165298BEA8AB6FBF1F11144FD
:104CC000C903A165698BCAB2B0FBF2F202EB1121F4
:104CD000C903E165A98BCAB2B0FBF2F202EB112164
:104CE000C9032166298CEA8BB6FBF1F11144C90393
:104CF0006166A98C6A8CB6FBF1F11144C903A16607
:104D0000E98CCAB2B0FBF2F202EB1121C903E166F1
:104D1000298DCAB2B0FBF2F202EB1121C90321675F
:104D2000A98D6A8DB6FBF1F11144C9036167298E23
:104D3000EA8DB6FBF1F11144C903A167698ECAB2CD
:104D4000B0FBF2F202EB1121C903E167A98ECAB2EE
:104D5000B0FBF2F000EB1120C003C4F88000E88E35
:104D60000005C4F88400288F0005C4F88800688F07
:104D70000005C4F88C002888A4F89000B5F84C0011
:104D8000A4F89600B5F84E00A4F89200B5F85000CB
:104D9000A4F8940070BD00000000B05DCCCC3400DD
:104DA0000000102798210120FBF7DEB910B5064C52
:104DB00040112168496AFBF779FC2168896A084437
:104DC000C0F3CF3010BD0000A8000020104A10B57D
:104DD000136886B0562433F8902F00920422029272
:104DE00000220392082204920A4A14701B7853701E
:104DF0000D2393710A23D3710190080A9070D1702A
:104E0000A2F10C0369460448FCF796FA06B010BDFF
:104E1000A8000020F0000020300C002010B5084C45
:104E200001460C222068C068FBF77CFD0549FBF7B2
:104E3000F5FB2168C96B0844C0F3CF3010BD0000FA
:104E4000A80000203F240300034909680A6AC969D1
:104E500001FB002070470000A800002010B5074C9F
:104E60002168C96BC1EBC0300549FBF71FFC216805
:104E7000C968FBF7D3FB400110BD0000A80000206B
:104E80003F24030070B505460C480068C068FBF776
:104E900015FC0446A5F50040FBF793FA2146FBF705
:104EA000C9F9FBF7DCFA064A064BFBF701FA1422B4
:104EB000FBF770FABDE87040FBF7B2BAA80000201B
:104EC000EA2E4454FB2119400146074810B50068FA
:104ED0000C22C068FBF726FD0449FBF79FFB00F19D
:104EE0008040C0F3CF3010BDA80000203F24030055
:104EF0002DE9F041044617460C48FBF77FFC0146BC
:104F00004FF48010FBF732FC0646BD19294638469F
:104F1000FBF72CFC206029463046FBF727FC60603D
:104F20000020A060E060BDE8F0810000ED87640033
:104F300010210120FBF718B970B504468068E060C5
:104F40002068FBF75BFC0546E1686068FBF756FCF0
:104F50002844A06070BD000013B54FF6FF73012216
:104F600069460248FEF7B6FA00981CBDCC0D002039
:104F700030B5234943F28104021B09680346A0426D
:104F800023D009DC6FF440521A44062A28D2DFE805
:104F900002F010121416181A042A1CD004DC012A7C
:104FA00015D0032A1CD114E00C2A18D00D2A17D1D1
:104FB00013E0088814E0488812E0888810E0C88A66
:104FC0000EE0C8880CE0088B0AE0488908E0888970
:104FD00006E0C88904E0088A02E0488A00E0888A7E
:104FE0000849094C0A68002134F811509D4201D14A
:104FF000108830BD491C921C2929F5D330BD000012
:10500000D0000020CC000020480000202DE9F04115
:10501000224D20212846FDF737F8214C002630B1DB
:10502000BDE8F081491C21700A20FCF7B5FE202163
:105030002846FDF729F860B1207864280DD300BF19
:1050400000F060F820212846FDF71EF80028F9D06E
:1050500020E021786429E5D3F2E766700127142067
:10506000FCF79AFE20212846FDF70EF840B9A770FC
:1050700000F020F820212846FDF706F80028F9D096
:105080006078401CC0B260700A28E8D3A07808B9E4
:1050900000F008F8A6702670C2E700000008014082
:1050A000D400002000224FF400510148FCF7F9BF62
:1050B0000010014070B50F4E00244FF400552946F2
:1050C0003046FCF7E6FF6420FCF766FE641C0A2C01
:1050D000F5D3094C094821680068FFF79FFB084891
:1050E00021680068FFF758FB2068BDE8704000F0B9
:1050F00027BA000000100140CC000020AC000020C6
:10510000D00000202DE9F0410A4E00244FF4005554
:105110004FF4FA7729463046FCF7BBFF3846FCF7D8
:105120003BFE641C0A2CF5D303480068BDE8F0413F
:1051300000F006BA00100140CC000020FDF776FA1E
:10514000FEF7D9FEFEF772FCFEF75AFCFEF710FDE3
:10515000FEF71AFEFEF700FCFEF7EAFCFEF77EFD06
:10516000FEF7AEFDFEF7DEFDFEF728FC0122D103BF
:105170003B48FCF796FF00224FF400513948FCF7FA
:1051800090FF394D002210212846FCF78AFF10229B
:1051900036493748FCF738F800213648FEF7E0F882
:1051A00004213448FEF7DCF808213248FEF7D8F82D
:1051B000FFF7EDFA304C31492060C0E900151021AD
:1051C000818100F001FAA06000F0E7F8E06200F0F1
:1051D000EDF9A062FFF7E6FD606000F023F9E06002
:1051E00000F020F9206100F01DF9A06100F01AF92B
:1051F0006061FFF79DFEE061FFF79AFE2062FFF716
:1052000097FE60622068FFF76BFAE06A00F0BCF876
:10521000A06800F0CFF9A06A00F044F96168A06AC4
:1052200000F072F81648FBF7D3FD1248FDF77AFE3E
:105230001448FDF777FE1448FDF774FE1348FDF798
:1052400071FE4FF47A7000BFFCF7A6FD6068B0F8FD
:105250009420B0F892100EA0FFF7E4F86420F3E772
:10526000000C014000100140000801409C0B002090
:10527000BC0B0020AC0C0020A4000020580C002027
:10528000300C0020F40C00203C0D0020840D002088
:1052900025642C2025640D0A00000000F0B50B30B9
:1052A000154D20F007010024144A0FE003688B42DB
:1052B0000BD38B4205D95E1A43184768C3E90067D0
:1052C00000E04368136002C004E0021D106800287B
:1052D000ECD12046002802D1286808B10020F0BD9A
:1052E000064A07481060074A121A22F00702C0E96E
:1052F000002401202860D7E724010020200100209D
:10530000340E0020301E002010B50C46FFF75CFC68
:10531000164808222146006800F043F81448092284
:105320002146006800F03DF812480A222146006834
:1053300000F037F810480B222146006800F031F8E1
:105340000E4854F82C2FA16D0068FFF7D1FD0C48D2
:105350006268E16D0068FFF7CBFD0A486268216E64
:105360000068BDE81040FFF7C3BD0000B00000209A
:10537000B4000020BC000020B8000020C0000020C5
:10538000C8000020C40000204FF4006141800A01E1
:105390008280C1800021018070471A210120FAF724
:1053A000E3BE082A06D0092A0ED00A2A25D00B2AE5
:1053B00014D12CE04A6C02608A6C42608A6B0262F3
:1053C000CA6C4261096D08E04A6D02608A6D4260F4
:1053D0008A6B0262CA6D4261096EC16141694942CC
:1053E0000161C1694942816100218160C1608162BE
:1053F000C16201634163816370474A6E02608A6ED5
:1054000042604A6B0262CA6E4261096FE5E74A6F09
:1054100002608A6F42604A6B0262CA6F4261D1F8D1
:105420008010DAE73C210120FAF79EBE70B50446F1
:105430001B4D16464811A0EB661169602068FBF70A
:1054400035F96062606841014FF40020FBF7D6F93E
:10545000216AFBF7D3F9E16A6A6811440C22FBF771
:1054600061FAA16A0844A062E169884202DCA1698C
:10547000884200DAA16200202063D4E909010844CF
:10548000A0636169884202DC2169884200DAA16375
:105490006868E06270116063A06B400170BD00003D
:1054A00000000020F8B500250446ADF800500122A8
:1054B00069461C48FEF788FCBDF80000A0F52A41AB
:1054C000AA3912D05FF00000401C24F8025B2928A2
:1054D000FAD3154C154821680068FFF79FF9144866
:1054E00021680068FFF758F9F8BD124F00254FF406
:1054F000005631463846FCF7CCFD6420FCF74CFCE6
:105500006D1C142DF5D30C4E0C4F0025012236F8DE
:10551000150021463844FEF757FCA41C6D1C292DAC
:10552000F4D3F8BD00FF0008CC000020AC00002040
:10553000D0000020001001404800002000C00008FA
:10554000F8B505464AF6AA20ADF800001048FDF768
:1055500015FD1048FDF712FD0F48FDF70FFD0F4830
:10556000FDF70CFD0E4E0F4F002400BF36F814005F
:10557000012238442946FEF735FC641CAD1C292C59
:10558000F4D3012269460848FEF72CFCF8BD000060
:10559000AC0C0020F40C00203C0D0020840D0020F9
:1055A0004800002000C0000800FF00085221012030
:1055B000FAF7DABD03494163002101638162C162E8
:1055C00070470000F643320044210120FAF7CCBDB9
:1055D000D356EEB47037C1B4BF3994B4955D67B497
:1055E000CAA23AB434090EB4AA90E1B30339B5B3F0
:1055F000160289B3BDEB5CB3CDF530B3212005B302
:10560000906AD9B2F4D4ADB2265F82B2FE0857B226
:1056100057D22BB20BBB00B2F4C2D5B1EBE9AAB1A1
:10562000CC2F80B1739455B1B8172BB179B900B1B3
:105630009179D6B0DC57ACB0355482B07A6E58B0A0
:1056400086A62EB036FC04B0686FDBAFF9FFB1AFB1
:10565000C6AD88AFAD785FAF8B6036AF3F650DAF3D
:10566000A886E4AEA3C4BBAE101F93AECD956AAEC0
:10567000BB2842AEB7D719AEA2A2F1AD5B89C9ADC6
:10568000C38BA1ADB9A979AD1FE351ADD4372AAD14
:10569000BAA702ADB232DBAC9CD8B3AC5A998CAC91
:1056A000CE7465ACD96A3EAC5E7B17AC3EA6F0AB5F
:1056B0005CEBC9AB9B4AA3ABDCC37CAB035756ABDB
:1056C000F30330AB8FCA09ABBBAAE3AA59A4BDAAA6
:1056D0004EB797AA7EE371AACD284CAA1F8726AAA7
:1056E00058FE00AA5D8EDBA91337B6A95FF890A912
:1056F00025D26BA94BC446A9B7CE21A94DF1FCA870
:10570000F52BD8A8927EB3A80CE98EA8496B6AA89D
:105710002E0546A8A3B621A88E7FFDA7D65FD9A7E0
:105720006257B5A7186691A7E18B6DA7A3C849A7D3
:10573000461C26A7B18602A7CD07DFA6819FBBA680
:10574000B64D98A6531275A641ED51A668DE2EA659
:10575000B1E50BA60503E9A54D36C6A5717FA3A546
:105760005BDE80A5F5525EA526DD3BA5DA7C19A59A
:10577000F931F7A46EFCD4A422DCB2A400D190A429
:10578000F1DA6EA4E0F94CA4B72D2BA4627609A43B
:10579000C9D3E7A3D945C6A37CCCA4A39D6783A3A3
:1057A000281762A306DB40A325B31FA36F9FFEA2A9
:1057B000D09FDDA234B4BCA286DC9BA2B2187BA22F
:1057C000A5685AA24ACC39A28E4319A25DCEF8A18F
:1057D000A36CD8A14E1EB8A14AE397A183BB77A1C1
:1057E000E6A657A161A537A1E1B617A152DBF7A044
:1057F000A312D8A0C05CB8A097B998A0152979A029
:1058000029AB59A0C03F3AA0C7E61AA02EA0FB9F23
:10581000E26BDC9FD049BD9FE9399E9F193C7F9F79
:105820004F50609F7A76419F89AE229F6AF8039F0E
:105830000C54E59E5EC1C69E4F40A89ECED0899E68
:10584000CA726B9E33264D9EF8EA2E9E08C1109EAA
:1058500053A8F29DC8A0D49D58AAB69DF2C4989DA5
:1058600086F07A9D032D5D9D5B7A3F9D7CD8219DBE
:105870005847049DDEC6E69CFF56C99CABF7AB9C1F
:10588000D3A88E9C686A719C593C549C991E379C85
:1058900017111A9CC513FD9B9426E09B7449C39B6A
:1058A000577CA69B2EBF899BEB116D9B7E74509BF2
:1058B000D9E6339BEE68179BAFFAFA9A0C9CDE9AF6
:1058C000F84CC29A640DA69A43DD899A86BC6D9AFB
:1058D0001FAB519A01A9359A1DB6199A66D2FD9946
:1058E000CEFDE1994738C699C481AA9937DA8E99D5
:1058F00094417399CBB75799D13C3C9998D0209952
:10590000127305993324EA98EEE3CE9835B2B39832
:10591000FC8E9898357A7D98D5736298CE7B47989F
:1059200013922C9898B6119851E9F697302ADC9783
:105930002A79C19732D6A6973C418C973BBA71978A
:1059400023415797E9D53C977F782297DB28089722
:10595000F0E6ED96B2B2D396158CB9960D739F967C
:105960009067859690696B9603795196DC9537968A
:1059700011C01D9696F70396603CEA95628ED0950D
:1059800092EDB695E4599D954ED38395C4596A9589
:105990003BED5095A88D3795013B1E9539F5049543
:1059A00046BCEB941D90D294B470B994005EA09460
:1059B000F65787948B5E6E94B67155946A913C94B9
:1059C0009EBD239448F60A945C3BF293D18CD99304
:1059D0009CEAC093B354A8930CCB8F939D4D7793BF
:1059E0005BDC5E933C774693371E2E9341D1159333
:1059F0005190FD925C5BE5925932CD923D15B59286
:105A000000049D9297FE8492F9046D921B175592A3
:105A1000F6343D927E5E2592AB930D9272D4F59151
:105A2000CB20DE91AC78C6910CDCAE91E24A979126
:105A300024C57F91C94A6891C7DB50911778399185
:105A4000AE1F229183D20A918E90F390C659DC90BA
:105A5000222EC590980DAE9020F89690B1ED7F90D3
:105A600042EE6890CBF9519043103B90A1312490C5
:105A7000DC5D0D90ED94F68FC9D6DF8F6A23C98F58
:105A8000C67AB28FD5DC9B8F8F49858FEAC06E8F27
:105A9000E042588F67CF418F77662B8F0908158FAB
:105AA00013B4FE8E8E6AE88E712BD28EB5F6BB8E45
:105AB00051CCA58E3EAC8F8E7396798EE88A638E1C
:105AC00096894D8E7492378E7CA5218EA4C20B8E42
:105AD000E5E9F58D381BE08D9456CA8DF39BB48DA6
